:100000000C9406020C944D020C9468020C944D0260
:100010000C944D020C944D020C94E61B0C944D0272
:100020000C944D020C944D020C944D020C944D0214
:100030000C944D020C944D020C943F1C0C944D02F8
:100040000C944D020C944D020C944D020C944D02F4
:100050000C944D020C944D020C944D020C944D02E4
:100060000C944D020C944D0288118811BA11BA11EA
:1000700007122512461346133012C512D612D61295
:100080003613461346133F13F413F41306140614E1
:10009000FD13061406140614F413F41302140614C4
:1000A00006140214165C1E001F00200021002D0003
:1000B00027002600250024002B0014001A00080049
:1000C00022002A00130012000C0023003941040012
:1000D000160015001700280033000F0018001C0040
:1000E000E1001D00070009000A00E50038000E00CD
:1000F0000D000B00E0001B000600190005004F007A
:100100003700360010001100E300E200E6000000B6
:100110002C005200510050000000015135003A00FF
:100120003B003C003D002E004300420041004000E7
:10013000E05C4400450006803E004C00010084C2A3
:1001400001003F00010080C0078001000100310074
:1001500064004F0082C10100E100010001000100C4
:100160000100E500010052005100500001000100B3
:100170000100010001004D000100340030002F009B
:1001800002510100010000000100A900AA004A007C
:100190000000010001000100010001000100005CFD
:1001A0000100010001000100010001000100010047
:1001B0000100010001000100010001000100010037
:1001C0000100010001000100010001000100010027
:1001D0000100010001000100010001000100010017
:1001E0000100010001000100010001000100010007
:1001F00001000100010001000100010001000000F8
:10020000010001000100010000000100E400000005
:10021000C4000000FC000000DC000000F60000004C
:10022000D6000000AC200000DF000000000000004D
:10023000000000002A2B2800000000000000000041
:100240000000000000000029000000002C1E3420E7
:10025000212224342627252E362D3738271E1F200D
:100260002122232425263333362E37381F04050652
:100270000708090A0B0C0D0E0F1011121314151696
:100280001718191A1B1C1D2F3130232D3504050694
:100290000708090A0B0C0D0E0F1011121314151676
:1002A0001718191A1B1C1D2F3130354C0000000087
:1002B000000000000000000000000000000000003E
:1002C000000000000000000000000000000000002E
:1002D0007E0F00D4FFFFFFC70000007809023B003B
:1002E000020100A0320904000001030101000921FC
:1002F00001010001224000070581030800010904F3
:1003000001000103000000092101010001227B001E
:100310000705830308000112011001000000086AAC
:1003200070020001000102000116034C0075006D0F
:10033000006200650072006A00610063006B0000EB
:10034000000A035000650065006A0000000403090C
:100350000405010902A10185020901A1000509198D
:10036000012908150025019508750181020501097B
:100370003009311581257F950275088106093815E8
:1003800081257F950175088106050C0A38021581C3
:10039000257F950175088106C0C005010980A1016E
:1003A000850319012AB700150126B70095017510BC
:1003B0008100C0050C0901A101850419012AA002D0
:1003C000150126A002950175108100C005010906DE
:1003D000A101050719E029E7150025019508750118
:1003E00081029501750881030507190029FF150091
:1003F00026FF009506750881000508190129059555
:100400000575019102950175039103C011241FBE6A
:10041000CFEFD8E0DEBFCDBF04B603FE27C080918A
:100420003D0390913E03A0913F03B091400387307C
:10043000904BA740B04BD1F410923D0310923E0375
:1004400010923F031092400314BE84B7877F84BF8D
:100450000FB6F894A8958091600088618093600041
:10046000109260000FBEE0E0F8E3099511E0A0E013
:10047000B1E0E6E0F0E402C005900D92AC38B107BF
:10048000D9F723E0ACE8B1E001C01D92AD33B2076B
:10049000E1F70E947F1C0C9401200C940000A82F0F
:1004A000B92F80E090E041E050EA609530E009C06B
:1004B0002D9182279795879510F084279527305E98
:1004C000C8F36F5FA8F30895EADF8D939D930895B5
:1004D000CF93CFB7CF93DF93C3954B9BE9F74B9B5C
:1004E00010C04B9B0EC04B9B0CC04B9B0AC04B9B40
:1004F00008C04B9B06C0C0911403C395C09314035E
:100500008EC06F93C0911303DD27C55EDC4F2F9320
:1005100065E54B9B03C02F916F91E1CF0F931F9324
:100520004F9320E040E15F9309B10C7003FB27F982
:100530003F9350E03BE039C01C7040642F77012F9F
:100540005F5F1EC0406819B11C702F7752501FC0EA
:10055000406409B12F770C70D1F15F5F00C023C0F8
:10056000406219B12F771C7091F15F5F00C025C008
:100570000C701027515012F45D5F00001150279548
:100580002C3F19B1C8F61C700127015027952C3F4C
:10059000C8F64227499309B10C7010274F731150C8
:1005A00027952C3FA8F64695469519B11C7079F011
:1005B0000127015027952C3F98F66B5A60F3315074
:1005C00009B1B0F600C012E01CBB00271CC03B50B4
:1005D0003195C31BD04012E01CBB0881033C21F1C4
:1005E0000B3411F1209110031981110F1213EDCF6B
:1005F0004A81441F093679F10D3211F0013E29F785
:100600004F7009F0042F009319033F915F914F91B0
:100610001F910F912F916F91CCB3C1FD5DCFDF91F1
:10062000CF91CFBFCF91189520911903222369F361
:1006300010911703112309F049C034300AF448C05F
:100640003093170320931203109113033BE0311BE7
:10065000309313033DC0009117030130BCF50AE548
:100660004F7049F43091150134FD33C000931501EA
:10067000CDEED2E032C0433059F0443091F03091A9
:10068000F80234FD26C00093F802C9EFD2E025C07D
:100690003091310334FD1DC000933103C2E3D3E038
:1006A0001CC03091040334FD14C000930403C5E062
:1006B000D3E013C0052710E000C000000BB91AC03A
:1006C000052710E0221F1DC010E021C04AE502C02E
:1006D00032ED432FC4E1D0E032E01AB11C605B9AE6
:1006E0000BB11AB95CE020E865E320FF05270BB9E0
:1006F000279517951C3FF0F66695B8F7B1F720FFE0
:1007000005270BB9279517951C3FD0F62795179508
:1007100017FF052700001C3F0BB9B0F629913A9549
:1007200019F7037F10911803110FC651D0400BB970
:1007300011F01093100312E01CBB08601AB1137F74
:10074000402F437F54E05A95F1F70BB91AB94BB9D2
:100750005CCF0C941A04611571058105910511F0A7
:10076000459A01C045980C94C7179C013A952115EC
:100770003F4138F5DC01AA27B270AC014427547020
:100780009C012227387094FF0FC090FF02C080E1C7
:1007900001C080E0AB2B09F08062452B09F080643A
:1007A000232B69F080680BC0892F8170AB2B09F077
:1007B0008260452B09F08460232B09F08860FB01DF
:1007C00009940895CF93DF93EC01805E9109089717
:1007D00010F0209719F467E471E102C06AEB73E14D
:1007E000CE010E94B5038C2FDF91CF910C949D1008
:1007F000CF93DF93EC010E94F310CE01805E91094C
:10080000089710F0209719F46EE471E102C061ECD2
:1008100073E1CE01DF91CF910C94B503CF93DF93B9
:10082000EC010E94E203CE01DF91CF910C94F8031A
:1008300081E0089581E0089508950C941C041F93AD
:10084000CF93DF9300D000D01F92CDB7DEB749839E
:100850005A836B833091BE0189819A81311114C012
:10086000662359F0222349F00E942B19182F682F74
:1008700089819A810E94D41803C00E94FF18182F02
:1008800069817A81812F04C00E942B1969817A8144
:100890000F900F900F900F900F90DF91CF911F91BD
:1008A0000C946B05FC01262F40815181628173817C
:1008B00084810C941F04CF93DF93EC0160E00E94CD
:1008C0005204BE01DF91CF910C941D040E94760763
:1008D0000E945B050E94950B0C94B3070C94AF0724
:1008E00008950E94E2130E9470042FEF84E39CE0BD
:1008F000215080409040E1F700C000000C94651C3E
:100900000F931F93CF93DF938C0161E00E945204F9
:10091000EC01B8010E94A903882309F444C0B8017E
:10092000CE010E94BF0C8823F1F1B801CE010E94D4
:10093000660D8823C1F1B801CE010E94B80D88234D
:1009400091F1B801CE010E94E30E882361F1F80114
:100950008281882309F1CB358DE5D807C1F050F4A9
:10096000C115FCE5DF0781F0CF3DDC45A9F40E940D
:100970003C1B19C0CC35EDE5DE0761F0CD35DD451A
:1009800059F40E94BE1908C00E9471040CC00E9454
:10099000C71902C00E94CA19C801DF91CF911F91E7
:1009A0000F910C94180480E0DF91CF911F910F916B
:1009B0000895DF92EF92FF920F931F93CF93DF93EF
:1009C000E82FF0E0E45DFD4FD490282F2695269582
:1009D000269530E0F901E453FD4F0491877010E053
:1009E000082E02C0159507950A94E2F701701127A9
:1009F000F901E454FD4FE490F12C082E02C0F59467
:100A0000E7940A94E2F791E0E922FF24F901E45522
:100A1000FD4FC491D0E002C0D595C7958A95E2F705
:100A2000C170DD270115110519F081EE0E949D109E
:100A3000E114F10419F086EE0E949D108D2D0E94A4
:100A40003E11EF2819F086EE0E94F310012B19F0E9
:100A500081EE0E94F310CD2B51F08CE2DF91CF910B
:100A60001F910F91FF90EF90DF900C943E11DF915A
:100A7000CF911F910F91FF90EF90DF900895982FE5
:100A80009F709A50963010F0805D01C0895A0C9486
:100A9000D90408950C94490581E00895CF93C82F97
:100AA0000E944C05882329F0C1FF02C0449A01C06E
:100AB0004498CF9108953C9A44980895CF93C82FB5
:100AC0000E944A058C2F0E944E05CF91089580E028
:100AD00090E0089508952CE3829FC0011124FC0149
:100AE0002AE0729FE00DF11D1124E60FF11DEE0FBB
:100AF000FF1FEC55FF4F859194910895880F991F22
:100B0000FC01E452FD4F859194910895CF93DF93BA
:100B10000E946B050E949E06EC018115904508F02D
:100B200041C0C11580E4D80708F0D1C0C83ED10546
:100B300010F5C03ED10508F0FDC0C83AD10578F4E3
:100B4000C53AD10508F0A2C0C130D10509F4F2C000
:100B500008F4EEC0C430D10508F0ECC0E9C0CF3BCA
:100B6000D10508F49BC0C03CD10508F4E1C0CE011A
:100B7000805C91099EC0C11590E2D90758F4C11557
:100B800021E0D20708F0D6C0CD3ED10508F4D0C090
:100B9000D065D0C0C11580E3D80708F08EC0CE0163
:100BA0009F7087C0C11595E5D90708F043C0C115EE
:100BB00024E5D20708F0A2C0C11582E5D80708F5E0
:100BC000C11591E5D90708F085C0CE0174E096956E
:100BD00087957A95E1F783709C2F937021E030E040
:100BE00002C0220F331F9A95E2F73C68382BCF7072
:100BF000C695C69580E2C89FE0011124C22BD32B75
:100C000099C09E01237033278C2F86958695C11538
:100C1000D34508F064C0C1E0D0E002C0CC0FDD1FB6
:100C20002A95E2F720E2829FC0011124C82BD92B1C
:100C3000DC6880C0C11529E5D207A0F4C11588E59C
:100C4000D80708F060C0C11596E5D90708F070C054
:100C50008C2F0E9432078F71C82FD0E0DC2FCC2759
:100C6000D06268C0C1152AE5D20708F451C0CE0190
:100C700090568115904208F05BC08D2F8F710E94B5
:100C80003207DD27D0628F71D82B54C0C55AD0E00F
:100C9000CC5BDE4FC881D0E0D0644CC0C85AD0E0F5
:100CA000CC0FDD1FCA5EDE4F0990D881C02DD46401
:100CB00041C00E947E05EC013DC0CE019927D3FFC3
:100CC00003C0EC01D86C36C0EC01D06C33C0DF70CF
:100CD000D06A30C0DC2FCC27C16FD06A2BC0C1E0F6
:100CE000D0E002C0CC0FDD1F2A95E2F720E2829F00
:100CF000C0011124C82BD92BDA681CC0DC2FCC27EB
:100D0000C46FD06A17C0DC2FCC27C06FD06A12C066
:100D10008C2F8F700E94320794E0D695C7959A95D4
:100D2000E1F7CF70D0E0DC2FCC27D069C82B02C010
:100D3000C0E0D0E0CE01DF91CF91089582389105D7
:100D400069F1B0F48133910509F46DC048F489323A
:100D5000910509F463C08A32910509F469C00895C8
:100D60008533910509F455C089339105B9F008958B
:100D7000833E910569F138F4803E9105B1F0823EE1
:100D8000910509F10895863E9105A9F1873E9105E7
:100D9000B9F1843E910509F064C023C02091C902D5
:100DA00020FD4FC021FD4DC008958091C90280FDF6
:100DB00044C08091CA0280FF44C08091C90284FD72
:100DC00042C083EE4DC08091C90282FF38C0F5CF8A
:100DD0008091C90282FD33C08091CA0280FD31C07A
:100DE000ECCF8091CA0281FF32C08091C90284FD9C
:100DF0002AC087EE35C08091C90283FF26C0F5CF97
:100E00008091C90283FD21C08091CA0281FD1FC06B
:100E1000ECCF8091C90285FD1CC01DC08091C90224
:100E200085FD19C016C08091C90286FD16C017C085
:100E30008091C90286FD13C010C089E311C082EE03
:100E40000FC080EE0DC080E00BC086EE09C084EEBE
:100E500007C089E205C085E303C08AE201C081E3DF
:100E600090E008959091C90292FF0DC0282F28713B
:100E7000283019F4877F846006C0282F247124301D
:100E800011F48B7F886093FF0DC0282F28712831C3
:100E900019F4877E846106C0282F2471243111F44F
:100EA0008B7E88612091CA0220FF0DC0382F3871D7
:100EB000383019F4877F816006C0382F31713130A6
:100EC00011F48E7F886021FF0DC0282F28712831F2
:100ED00019F4877E816106C0282F2171213111F418
:100EE0008E7E886194FD877E089508950E94941AED
:100EF000811102C00E943C1B0E949F1A8093340201
:100F00000E94A71A9093CA028093C9020E94750793
:100F10000E94A31A682F70E080E090E00E94D8172A
:100F200060911F0270912002809121029091220213
:100F30000C94AB03E82FF0E0EE0FFF1FE952FD4FDA
:100F4000808191810895089580EA8A95F1F7089546
:100F500000C008950C94A40708950C94AC070C9459
:100F6000AD070C94AC070C94B107F894E82FE29508
:100F7000EF70F0E031A1282F2F7081E090E001C0E8
:100F8000880F2A95EAF7982F9095932391A392A121
:100F9000892B82A378940895CF93DF93C1E5D1E0A4
:100FA00089910E94B50781E0C735D807C9F7C7E422
:100FB000D1E089910E94B50781E0C135D807C9F712
:100FC000EBECF2E0A7EDB2E087ED92E01192119226
:100FD0001D921D928E179F07C9F786E00E94820816
:100FE000DF91CF910C9466047F928F929F92AF9283
:100FF000BF92CF92DF92EF92FF920F931F93CF9306
:10100000DF93C1E5D1E08BECA82E82E0B82E97EDFE
:10101000E92E92E0F92E712C01E010E06E0188813A
:10102000F894E82FE295EF70F0E021A18F70A8010D
:1010300002C0440F551F8A95E2F7CA01922F982BE0
:1010400091A392A18095892382A378940E94A807F6
:10105000E7E4F1E020E030E0812C912C4191A42FD5
:10106000A295AF70B0E090968C9190E04F7002C066
:10107000959587954A95E2F780FD08C0C801022E34
:1010800002C0880F991F0A94E2F702C080E090E046
:10109000882A992A2F5F3F4F2A303105F9F6219689
:1010A000F60180810E94B5070E94AA07F5018081A0
:1010B00091818816990621F09182808281E001C099
:1010C00080E0782AF2E0AF0EB11CEA14FB0409F0CC
:1010D000A5CF272D46E067ED72E08BEC92E00E94F1
:1010E00083080E946E04872DDF91CF911F910F918D
:1010F000FF90EF90DF90CF90BF90AF909F908F9038
:101100007F9008950895FF920F931F93CF93DF93DD
:10111000F82E092F162FD72FC42F222349F081E054
:10112000809390010E94181C90938F0180938E01F0
:10113000809190018823D9F080918E0190918F0148
:101140000E94301C069798F0EF2DF02FA12FBD2F95
:1011500080E090E04C2F50E08417950734F4219103
:1011600031912D933D930196F7CF10929001DF912D
:10117000CF911F910F91FF9008958091970180FF6B
:101180000BC06091050185E0689FB0011124759541
:101190006795759567952BC081FF09C06091050122
:1011A00085E0689FB00111247595679520C082FF86
:1011B00007C06091050185E0689FB001112417C048
:1011C000909196019923D1F060910401961788F7C8
:1011D0002091050185E0289F90011124929FA00194
:1011E000939F500D112470E0CA010E94911F603836
:1011F000710540F46115710519F406C065E070E0F1
:10120000862F08958FE7089581E0089580919701D2
:1012100080FF08C06091010170E075956795759534
:10122000679521C081FF06C06091010170E075954E
:10123000679519C082FF04C06091010170E010C081
:1012400090919501992399F0609100019617A0F76C
:1012500080910101899FC001112470E00E94911FBB
:101260006038710540F46115710519F406C061E03C
:1012700070E0862F08958FE7089581E008958D3EF0
:1012800021F40E94BD08819504C08E3E29F40E947D
:10129000BD0880939B0108958F3E21F40E94BD08F4
:1012A000819504C0803F29F40E94BD0880939A0173
:1012B0000895893F19F40E94060905C08A3F31F458
:1012C0000E940609819580939C0108958B3F21F42B
:1012D0000E940609819504C08C3F29F40E940609EA
:1012E00080939D0108959FE0980F983078F421E055
:1012F00030E0A90102C0440F551F9A95E2F7CA01D8
:1013000090919901892B8093990108958D3F21F443
:101310008091970181600BC08E3F21F480919701ED
:10132000826005C08F3F29F480919701846080938B
:10133000970108958D3E39F490919B0197FF35C038
:1013400010929B0159C08E3E29F490919B01191671
:10135000BCF32BC090919A018F3E29F497FF25C0D2
:1013600010929A0149C0803F19F41916CCF31DC0A0
:1013700090919C01893F29F41916BCF410929C01AC
:101380003BC08A3F19F497FF10C0F8CF8B3F39F468
:1013900090919D0197FF09C010929D012DC08C3F37
:1013A00021F490919D011916BCF39FE0980F98309D
:1013B00080F421E030E0A90102C0440F551F9A9546
:1013C000E2F7CA0180959091990189238093990150
:1013D00013C08D3F21F4809197018E7F0BC08E3F0B
:1013E00021F4809197018D7F05C08F3F29F4809172
:1013F00097018B7F8093970180919A01811106C09C
:1014000080919B01811102C01092960180919C01F4
:10141000811106C080919D01811102C01092950139
:1014200008950E94181C20919A01211104C0209156
:101430009B01222321F090939401809393012091AA
:101440009C01211104C020919D01222321F0909341
:1014500092018093910188E991E00C943D0FEF9205
:10146000FF920F931F93CF93DF9300D000D000D053
:10147000CDB7DEB786E0E8E9F1E0DE011196019034
:101480000D928A95E1F7E0909A01F0909B0100910E
:101490009C0110919D0110929A0110929B01109253
:1014A0009C0110929D01E11003C0FF2009F45DC072
:1014B00080919301909194010E94301CAC01909115
:1014C0009601992339F02091060130E02417350761
:1014D00058F04BC0209107018AE0289F9001112409
:1014E0002417350718F041C09F3F19F09F5F909374
:1014F0009601EE2061F00E94BD081E1414F09FEFCB
:1015000001C091E0989F902D112490939A01FF20A3
:1015100061F00E94BD081F1414F09FEF01C091E01C
:10152000989F902D112490939B0130919A01332321
:10153000E1F020919B012223C1F045EB3403C0016F
:101540001124992319F090939A0103C081E08093AC
:101550009A0135EB2303C0011124992319F09093CC
:101560009B0103C081E080939B01011103C0112303
:1015700009F45DC080919101909192010E94301C0C
:10158000AC0190919501992339F02091020130E04E
:101590002417350758F04BC0209103018AE0289F9B
:1015A000900111242417350718F041C09F3F19F00E
:1015B0009F5F90939501002361F00E940609101629
:1015C00014F09FEF01C091E0989F902D112490930B
:1015D0009C01112361F00E940609111614F09FEF7F
:1015E00001C091E0989F902D112490939D0130911E
:1015F0009C013323E1F020919D012223C1F045EBB2
:101600003403C0011124992319F090939C0103C065
:1016100081E080939C0135EB2303C00111249923C1
:1016200019F090939D0103C081E080939D0180910A
:101630009A0181110BC080919B01811107C080919B
:101640009C01811103C080919D0181110E94110AAA
:10165000EB82FC820D831E8386E0FE013196A8E9B1
:10166000B1E001900D928A95E1F726960FB6F894B5
:10167000DEBF0FBECDBFDF91CF911F910F91FF90C5
:10168000EF900895E8E9F1E086E0DF011D928A9588
:10169000E9F7109296011092950110929701089522
:1016A0000F931F93CF93DF93811520EC920700F1E6
:1016B000EC01D05C0E94CD19182F0E94E319012F74
:1016C000082B0E94061A182F0E94250F102B127249
:1016D00091E009F490E086958170981729F0CC0F7D
:1016E000CD2FCC1FDD0BD195CE018F77992701C06F
:1016F0009058DF91CF911F910F91089597FF13C0DC
:10170000FB012281222379F00E94500B880F991F40
:10171000880F991FFC01E45FFD4F659175918591DC
:1017200094910E946C0C81E008958CE090E00E94FE
:10173000BF1F90E0A0E0B0E08093E3029093E4024A
:10174000A093E502B093E602843029F0813029F0BD
:10175000823039F403C080E001C081E080939E01B3
:10176000089510929E0184E08093E30208956091B1
:10177000E3028CE090E00C94CD1F20919E01082E96
:10178000000C990B820F911D27FD9A9563E070E084
:101790000E94911F87FD8D5F80939E01E0919E01C5
:1017A0000E2E000CFF0BE95AFE4F80818093E3025E
:1017B0000C94B70B0E94250F869581708093E802E8
:1017C0009091E302913029F4882319F089E30E9473
:1017D0003E110E94CD198093E7020E94E01980918A
:1017E000E302813071F048F0823081F08430A1F45E
:1017F00086EE0E943E1188E10DC082EE0E949D108F
:101800000BC088E193E00E940E0406C082EE0E94A5
:101810009D1087E50E943E118FE39CE90197F1F747
:1018200000C0000008958091E302813039F078F023
:10183000823069F0843089F488E20DC08CE20E9425
:101840003E118091E802882341F089E304C082EED2
:101850000E94F31002C00E943E118091E7020C9496
:10186000DD19BF92CF92DF92EF92FF920F931F93F9
:10187000CF93DF936B017C01C7E0D0E00CE110E077
:10188000BB24B394D701C601002E04C0B695A7951A
:10189000979587950A94D2F78F7029F4B11006C0F6
:1018A0000E943F0503C00E943F05B12C21970450C0
:1018B0001109CF3F8FEFD80729F0C430D10514F7B5
:1018C000B12CE0CFDF91CF911F910F91FF90EF905E
:1018D000DF90CF90BF900895CF92DF92EF92FF926A
:1018E0006115710521E18207910508F043C061157A
:1018F000710521E08207910520F02091E30222305A
:10190000C9F16B017C010E94DA0BC114D10481E0A2
:10191000E806F10428F18091E302811121C021E061
:10192000E21AF108D701C60188279C7FAF70BB2758
:101930002AE0B695A795979587952A95D1F7BC018A
:10194000CD0178528F4F9F4F0E94310C83E0D822F7
:10195000EE24FF24C701B60174528F4F9F4F02C07F
:10196000C701B6010E94310CFF90EF90DF90CF903D
:101970000C94130CFF90EF90DF90CF9008950F938D
:101980001F93CF93DF93EC018B01FB0182818823AE
:1019900011F10E94CD198272C13EFCE5DF07A1F072
:1019A00028F4C03EECE5DE0761F015C0C73EFCE55B
:1019B000DF0788F48C2F825E8093E3020E94B70BCE
:1019C0000AC0882329F002C0811102C08FEF01C034
:1019D00081E00E94BD0BB801CE01DF91CF911F9134
:1019E0000F910C947E0B0F931F93CF93DF93C42F13
:1019F000D22FFC0182818823C9F04093A1010E946B
:101A0000181C9093A00180939F0180E28C0F883076
:101A100008F057C0C77081E001C0880FCA95EAF787
:101A2000DF91CF911F910F910C9447118091A101EB
:101A3000481330C080919F019091A0010E94301CFA
:101A4000883C910538F510E21D0FCD17B9F080E202
:101A50008C0F883040F4C77081E001C0880FCA95B0
:101A6000EAF70E944E11183028F581E09D2F9770FB
:101A700001C0880F9A95EAF70E944711802F0E94B3
:101A80003E111830F0F4D77081E001C0880FDA956C
:101A9000EAF70AC080E28C0F883098F4C77081E0C2
:101AA00001C0880FCA95EAF7DF91CF911F910F917E
:101AB0000C944E11802FDF91CF911F910F910C94B8
:101AC0003E11DF91CF911F910F9108950F939C01CB
:101AD000CB01243F4CE5340731F188F4293DFCE586
:101AE0003F07D9F02A3D4CE5340779F1283D3C45C4
:101AF000A9F506E221EE41EE68ED7CE52BC0263F1C
:101B0000FCE53F07E1F0A8F0273F3C4539F507E247
:101B100025EE46EE67EF7CE51DC007E225EE45EEBB
:101B200069ED7CE517C006E221EE40EE64EF7CE54E
:101B300011C007E225EE44EE65EF7CE50BC006E23E
:101B400021EE42EE66EF7CE505C008E221E045EEBD
:101B50006AED7CE50E94F30C80E008C0FC01828104
:101B6000882319F01092A10101C081E00F9108951E
:101B7000CF93DF93EC01FB018281882309F41FC11D
:101B8000C230FCE5DF0708F41BC1C6319CE5D9076C
:101B900038F09E012B5F3C452930310508F010C11B
:101BA0000E94A71A9093CA028093C902C031ECE543
:101BB000DE0709F4C3C008F041C0C8308CE5D8077F
:101BC00009F49AC0F0F4C430ECE5DE0709F487C0EC
:101BD00068F4C2308CE5D80709F477C0C330DC451F
:101BE00009F0E3C08091C902826076C0C630ECE59E
:101BF000DE0709F46EC008F07BC08091C9028860DE
:101C00006BC0CC308CE5D80709F485C068F4CA30C5
:101C1000ECE5DE0709F474C008F079C00E94E21315
:101C20008091C902806858C0CE308CE5D80709F48D
:101C300076C008F07FC08091C9028BC0CC3FECE534
:101C4000DE0709F44FC018F5C3318CE5D80709F455
:101C50007DC078F4C131ECE5DE0709F473C0C23110
:101C6000DC4509F0A2C00E94E2138091C9028F777F
:101C700033C0C5318CE5D80709F472C008F486C0BA
:101C8000CB3FDC4509F091C08091CA023EC0C1152E
:101C9000FDE5DF0709F45FC058F4CE3F9CE5D907A6
:101CA00009F444C008F43FC08091CA0282602DC08C
:101CB000C230FDE5DF0709F475C008F45DC0C3302C
:101CC000DD4509F072C080E06EC08091C90281607C
:101CD00003C08091C90280618093C90266C080916F
:101CE000C90211C08091CA0282608093CA025DC09D
:101CF0008091C9028062F0CF8091C9028064ECCFEC
:101D00008091C90288608460E7CF8160EECF8091C6
:101D1000C9028E7FE1CF8091C9028D7FDDCF809196
:101D2000C902877FD9CF8091CA0218C08091CA02A8
:101D30008D7FDBCF8091C9028F7ECECF8091C9028B
:101D40008F7DCACF8091C9028F7BC6CF8091C90297
:101D5000877F8B7FC1CF8091CA028D7F8E7FC5CF59
:101D60008091C90282FB222720F991E0922790FB03
:101D700082F990FB83F9B0CF8091CA02982F909599
:101D800091708E7F892B90FB81F9AFCF0E94E21377
:101D90008091C90287FB222720F991E0922790FBCE
:101DA00087F99ACF81E00E943E1B8091C9029091F1
:101DB000CA020E94B81A0E94E21380E001C081E0CA
:101DC000DF91CF910895CF93DF9386319C4541F504
:101DD000EB010E94CD19982F8A8120910801309142
:101DE0000901882379F09A7A81E009F480E08093F0
:101DF000A201911102C069E201C065E3C9010E941C
:101E0000851B0AC08091A201811102C069E201C054
:101E100065E3C9010E94871B0E94251A80E001C06A
:101E200081E0DF91CF9108959093A8018093A7015D
:101E30000895E091A701F091A801309721F0019059
:101E4000F081E02D099480E00895E091A701F091E0
:101E5000A801309711F480E008950190F081E02D01
:101E600009950895E091A701F091A801309721F01C
:101E70000280F381E02D09940895E091A701F0918B
:101E8000A801309739F022E0DC012C930480F58121
:101E9000E02D099408952091A5013091A6012817FD
:101EA000390771F09093A6018093A501E091A701F5
:101EB000F091A801309721F00680F781E02D099478
:101EC00008952091A3013091A4012817390771F0DA
:101ED0009093A4018093A301E091A701F091A80140
:101EE000309721F00084F185E02D099408950E9437
:101EF000241C6093BA017093BB018093BC01909342
:101F0000BD016093B6017093B7018093B8019093BF
:101F1000B901089581E008950C948A0F08950C94F6
:101F20008E0F0C948E0F0C94910F0C948E0F0C94BA
:101F3000950F0C948E0F82E99AE10E947A1C0E9400
:101F4000990F0C94970F0E948F0F0C948E0F0E9484
:101F50000F1C0E94CC070C94930F6F927F928F926C
:101F60009F92AF92BF92CF92DF92EF92FF920F9328
:101F70001F93CF93DF93CDB7DEB72A970FB6F894B0
:101F8000DEBF0FBECDBF0E94F40781110E94770F04
:101F90003AEA832E31E0932E00E010E0C02E802F2D
:101FA0000E949A075C01F401619071904F016826CC
:101FB000792661147104B1F40F5F1F4F06301105CB
:101FC00069F78FEF89838A831B820E94181C8160C6
:101FD000782F9D838C8349815A816B818D810E94EA
:101FE00063103AC08091340281FD0E94A307D12C76
:101FF000EE24E394F12CC3018E219F21892B29F13A
:102000000E948C0F8823A9F0DE82CF82AE20BF20F1
:1020100081E0AB2809F480E088870E94181C816069
:10202000782F9A8789874E815F8168858A850E948B
:102030006310000F111FF801E655FE4F808191815A
:10204000E826F926F182E08207C0D394EE0CFF1C4B
:10205000FAE0DF12D0CFB0CF0E942F0A0E94190FF2
:102060009091A9018917D1F00E94190F8093A901BD
:102070002A960FB6F894DEBF0FBECDBFDF91CF9189
:102080001F910F91FF90EF90DF90CF90BF90AF9096
:102090009F908F907F906F900C945E052A960FB65C
:1020A000F894DEBF0FBECDBFDF91CF911F910F918E
:1020B000FF90EF90DF90CF90BF90AF909F908F9068
:1020C0007F906F900895DF92EF92FF920F931F938E
:1020D000CF93DF93CDB7DEB72B970FB6F894DEBF63
:1020E0000FBECDBFF42E052F162FE72ED82E61116F
:1020F0000E94F319FE01319686E0DF011D928A9558
:10210000E9F77E2D4F2D502F612F8D2D9E810E943E
:102110009B162B960FB6F894DEBF0FBECDBFDF9196
:10212000CF911F910F91FF90EF90DF900895FC01E8
:10213000808191810E946D190895CF93882309F4BD
:1021400050C0C82F8CEF8C0F813AD0F46C2F809147
:102150000801909109010E944F1B882349F06C2FC0
:1021600080910801909109010E94871B0E94251A05
:102170006C2F80910801909109010E94851B0CC071
:1021800080E28C0F883058F4C77081E001C0880F5E
:10219000CA95EAF70E94D019CF910C94251AEBE565
:1021A000EC0FE33040F4F0E0E857FE4F808190E020
:1021B000CF910C944B0FE8E5EC0FE73150F4F0E0D1
:1021C000EE0FFF1FE65AFE4F80819181CF910C9454
:1021D000610FCD3E30F08C2F0E943F09CF910C94BF
:1021E000110ACF910895882389F19CEF980F913AB5
:1021F00040F4682F80910801909109010E94871B8B
:102200000DC090E2980F983058F4877091E001C0AB
:10221000990F8A95EAF7892F0E94D6190C94251AEE
:102220009BE5980F933020F480E090E00C944B0FE6
:1022300098E5980F973120F480E090E00C94610FBE
:102240008D3E20F00E949A090C94110A08951F9364
:10225000CF93DF93182FEB010E949D10209741F040
:102260008FE99FE00197F1F700C000002197F6CFBA
:10227000812FDF91CF911F910C94F310893319F0C6
:1022800060E070E002C060E570E00C9427118823E4
:1022900021F00E94D0190C94251A0895882321F06A
:1022A0000E94D6190C94251A0895CF92DF92EF92CE
:1022B000FF920F931F93CF93DF937C01062FC72FBD
:1022C000FC01D281158112951F700E94A5198823E7
:1022D00099F0DD2389F08C2F807F803421F080E21B
:1022E000800F883048F082E00E94751A0E94A5197C
:1022F00091E0D82ED92601C0D12CCC2EC2948FE0EB
:10230000C8228C2D90E0FC01EC5CFF4F0C94A51FC3
:102310008C2F807FCF70882311F0C295C07FDD2382
:1023200099F0CC2309F48DC180E2800F883010F041
:10233000011104C08C2F0E94D01903C08C2F0E9461
:10234000E6190E94251A7DC1802F0E94F310CC232C
:1023500009F49CC180E2800F883010F0011104C0A4
:102360008C2F0E94D61903C08C2F0E94EC190E945A
:10237000251A8CC18C2F807FCF70803211F0C295CE
:10238000C07F002319F00130C9F022C0DD2371F0B5
:10239000112341F0113031F40E94061A8C2B0E9457
:1023A0000E1A74C10E94061A8C2B1DC0112319F03D
:1023B000113009F46BC10E941B1A25C0DD2321F0E6
:1023C000163008F063C10EC0153008F05FC11BC0A5
:1023D000DD2361F0112331F0F701858180FF31C1E8
:1023E0008F7085838C2F0E94471150C1112359F0A3
:1023F000093309F037C1FFEF27EE83E0F1502040A9
:102400008040E1F72DC18C2F0E944E113FC18C2FCF
:1024100086958695837019F0813061F037C1DD2390
:1024200021F0802F9C2F937002C080E090E00E94EA
:102430004B0F34C1DD2321F0802F9C2F937002C0FD
:1024400080E090E00E94610F29C1802FDD2319F008
:102450000E943F0902C00E949A090E94110A1EC1EF
:102460008C2F837009F045C0D11114C1402F4295C3
:1024700046954770440F440F602F6F70862F90E091
:10248000A0E0B0E0042E04C0880F991FAA1FBB1F54
:102490000A94D2F704FF10C00FE010E020E030E013
:1024A00004C0000F111F221F331F4A95D2F7009559
:1024B00010952095309503C000E010E09801C69576
:1024C000C695C370BC01CD01602B712B822B932B61
:1024D000C23049F058F4C13019F00E94EC17DAC04C
:1024E0000E94DA17D7C00E94FE17D4C00E94D817E6
:1024F000D1C0DD2319F08C2F817001C0869588230F
:1025000009F4C8C0402F429546954770440F440FC8
:10251000602F6F70862F90E0A0E0B0E0042E04C022
:10252000880F991FAA1FBB1F0A94D2F704FF10C07F
:102530000FE010E020E030E004C0000F111F221F68
:10254000331F4A95D2F7009510952095309503C01A
:1025500000E010E09801C695C695C370BC01CD019E
:10256000602B712B822B932BC23049F058F4C13071
:1025700019F00E94AF188EC00E949D188BC00E9457
:10258000C11888C00E94101885C0CF70DD2339F0B3
:102590008C2F0E943618802F0E9447117BC0802FFD
:1025A0000E944E118C2F0E94571874C0023F01F1F7
:1025B00028F4003F41F0013FA1F03FC0033FF9F094
:1025C000043F39F13AC0DD2341F0153008F05EC018
:1025D0008C2F8F710E947C1859C0163008F056C09D
:1025E000F7CFDD2339F08C2F8F710E9436184EC043
:1025F000DD23C9F38C2F8F710E94571847C0DD234C
:1026000029F08C2F8F710E94211840C00E941C1845
:102610003DC0DD2349F0CF718C2F0E94361863E056
:102620008C2F0E945A1A32C081E00E94751A123013
:1026300068F182E00E94751A29C0DD2331F0112370
:1026400091F2802F0E949D1021C0112399F209332D
:1026500049F49FEFE7EEF3E09150E040F040E1F7FE
:1026600000C00000802F0E94F31010C04C2F4F704C
:10267000602FC7010E9467050E9449170FC04C2FA9
:102680004F70602FC7010E946A0508C088EF8C0D4B
:10269000843020F40E94190F0E945E05DD20C9F0ED
:1026A0000E94A11980FD15C0F70112820E949B199A
:1026B0000E943618C7010E948A130E949B19DF915D
:1026C000CF911F910F91FF90EF90DF90CF900C94DE
:1026D0005718DF91CF911F910F91FF90EF90DF90EE
:1026E000CF9008950F931F93CF93DF93EC016881F0
:1026F00079818A810E9478198C010E94D3180E94E6
:10270000C617B801CE010E945511DF91CF911F91DC
:102710000F910895CF93DF93EC01988189812B81EC
:102720003C81232B31F08F3F31F481E09F3F19F43E
:1027300003C081E001C080E080FD19C0CE010E948D
:10274000800481110CC00E94A519882381F08A8120
:10275000882369F082E0DF91CF910C94751ACE0145
:102760000E947213CE01DF91CF910C945B04DF9134
:10277000CF910895882321F00E94E6190C94251A20
:102780000895882321F00E94EC190C94251A0895CD
:1027900080E090E00E944B0F80E090E00E94610F8B
:1027A0000E94F3190E94031A0E94251A0E94420BEC
:1027B0000C94110A80910801909109010E94891BD3
:1027C0000C94C8130E94E0190C94DA13E92FE295D7
:1027D000EF704E2F50E0FA013297EE30F105B0F471
:1027E000EC5BFF4F0C94A51F803F91F018F4883EDE
:1027F00068F40EC0843F51F40BC0883E48F0813F1E
:1028000029F406C093FB882780F9089580E0089595
:1028100081E008950E946D190E94E6130895CF93F8
:10282000DF9300D000D01F92CDB7DEB70F900F908E
:102830000F900F900F90DF91CF910895CF93DF937A
:1028400000D000D000D0CDB7DEB726960FB6F894F2
:10285000DEBF0FBECDBFDF91CF9108951F93CF9301
:10286000DF93C091BF0116E08091C001C81799F0B5
:10287000D0E01C9FF0011D9FF00D1124EF53FE4F7F
:102880004081518162817381848195810E941E14EF
:102890002196C770E9CFDF91CF911F9108954091A4
:1028A000F1015091F2016091F3017091F401809176
:1028B000F5019091F6010C941E140F931F93CF9382
:1028C000DF938091F60182958F7009F05DC0809151
:1028D000F301882309F458C08091BF011091C00111
:1028E0006091F1017091F201C091F401D091F50174
:1028F00091E06F3F09F090E0292F06E0811709F47D
:1029000043C0209721F07F3F21F030E003C031E049
:1029100001C0322F90E030FD34C0089FF001099FC4
:10292000F00D1124DF01AF53BE4F11963C9111976A
:10293000371327C03C91361324C012963C9112974E
:1029400031111FC013964D915C9114974C1B5D0B78
:10295000483C5105B0F48091F6018F7080618093FE
:10296000F601EA53FE4F80818F708061808381EF92
:1029700091E00E948A13DF91CF911F910F910C94E7
:102980002E1401968770BACFDF91CF911F910F91CE
:1029900008959F92AF92BF92CF92DF92EF92FF92F3
:1029A0000F931F93CF93DF93CDB7DEB761970FB629
:1029B000F894DEBF0FBECDBF8C0185E0F801DE01CB
:1029C0001D9601900D928A95E1F7F80140815181A1
:1029D000E2809091F1016091F2012091F401309137
:1029E000F5012115310531F06F3F31F481E09F3F52
:1029F00019F403C081E001C080E0F82FF1709F2E30
:102A000080FD46C1F801A380B48081EFC82E81E02B
:102A1000D82EF090F301F501E21BF30BFF2009F42F
:102A2000DFC08091F601E83CF10508F09BC0282F3B
:102A3000207F09F052C0561313C0491311C0FE2C59
:102A4000E1100EC08F7080618093F6010E944F14D8
:102A5000C6010E948A138091F601F801858358C14E
:102A6000AB2831F05F3F31F481E04F3F19F403C0F0
:102A700081E001C080E080FD03C081E08E2502C0BE
:102A800080E090E0F82FF170FF2E80FF1CC0809155
:102A9000BF012091C00136E0821709F417C190E010
:102AA000389FF001399FF00D1124EF53FE4F6181E3
:102AB000561306C06081461303C06281E61203C04C
:102AC00001968770E9CFFE2CEE2009F421C1809198
:102AD000F60181608093F6015AC0561306C049136F
:102AE00004C0E11002C0F8019FC04D875E878D854C
:102AF0009E850E940A14882379F1EE2069F12091C5
:102B0000F601822F82958F7090E0029774F0809189
:102B1000F1019091F20198878F831986BB86AA866E
:102B20002C87CE0107960E948A1386E0F801A1EF58
:102B3000B1E001900D928A95E1F70E945D140E9428
:102B40004F140DC0561729F14D875E878D859E85E0
:102B50000E940A1481112CC0C8010E948A13FF240C
:102B6000F394D6C0282F207F69F77A2DB98AA88AD6
:102B70006E2D89890E940F1481EF91E00E948A13C3
:102B800086E0F60111928A95E9F70E944F14F12C24
:102B9000BFC04913D9CFE110D7CFF8018583C80151
:102BA0000E948A1386E0F60111928A95E9F7B0C077
:102BB000EE2091F22091F601822F82958F7090E0A5
:102BC00002970CF4B2CF8091F1019091F2019A83B7
:102BD00089831B82BD82AC822E83CE010196A3CF56
:102BE000E83CF10508F047C0FE2CEE2009F4B4CF14
:102BF000561330C049132EC02091F60120FD21C08C
:102C0000822F82958F70482F50E041155105C9F0F1
:102C1000F80125834F30510541F08F5F982F929531
:102C2000907F822F8F70892B8583C8010E948A1321
:102C300086E0F801A1EFB1E001900D928A95E1F7ED
:102C400042C086E0F801A1EFB1E001900D928A95B3
:102C5000E1F75EC04D875E878D859E850E940A14D0
:102C6000811163CF8091F60181608093F601C801E4
:102C70000E948A134DC07A2DB98AA88A6E2D89893F
:102C80000E940F1486E0F60111928A95E9F71BC0A5
:102C9000EE2009F461CF4D875E878D859E850E9469
:102CA0000A14F82E882309F457CF86E0F801A1EF23
:102CB000B1E001900D928A95E1F781EF91E00E94D9
:102CC00097100E945D140E944F1422C04D875E87AA
:102CD0008D859E850E946D19292F22952F70223097
:102CE00028F49F7039F0811105C00BC0243028F4FE
:102CF0009F7049F4805E883020F0C8010E948A13DA
:102D00009F2CF92C05C0F8019581907F99F7F9CF98
:102D10008F2D61960FB6F894DEBF0FBECDBFDF9149
:102D2000CF911F910F91FF90EF90DF90CF90BF90C8
:102D3000AF909F9008951F93CF93DF93CDB7DEB7E9
:102D40002C970FB6F894DEBF0FBECDBF4F835887C8
:102D500069877A878B879C87CE0107960E94C91462
:102D60008823D1F09F8188852A853B85232B31F0EC
:102D70008F3F31F481E09F3F19F403C081E001C02F
:102D800080E080FD47C04F81588569857A858B85B5
:102D90009C850E941E143EC086E0FE013796DE012F
:102DA000119601900D928A95E1F7FF81E8856A8579
:102DB0007B856115710531F0EF3F31F481E0FF3F14
:102DC00019F403C081E001C080E080FD23C02091A0
:102DD000C00130E0C9010196877099274091BF0179
:102DE00050E084179507F1F1F983EA837D836C83C2
:102DF00096E0929FD001939FB00D1124AF53BE4F28
:102E0000FE01319601900D929A95E1F78093C001F1
:102E10000E942E1416E08091BF019091C001891785
:102E200071F1189FC00111248F539E4F0E94C91445
:102E3000882329F1E091BF011E9FF0011124EF5377
:102E4000FE4F4081518162817381848195810E940E
:102E50001E148091BF0190E001968770992780939E
:102E6000BF01D9CF0E94E2131092C0011092BF019E
:102E7000E1EFF1E086E0DF011D928A95E9F72C96FB
:102E80000FB6F894DEBF0FBECDBFDF91CF911F917B
:102E90000895EF92FF920F931F93CF93DF938C01CE
:102EA000892B09F46CC0F12CEE24E394E8012196FF
:102EB000F8018491843740F4843008F051C08130A7
:102EC00081F0823019F15BC0853709F444C0A8F164
:102ED0009CE7980F903708F052C08F770E94F3104C
:102EE00041C00E5F1F4FFE01849190E2980F983011
:102EF00050F48770FE2D01C0FF0F8A95EAF78F2FDF
:102F00000E94F61914C00E949D102DC00E5F1F4F25
:102F1000FE01849190E2980F983060F48770FE2D46
:102F200001C0FF0F8A95EAF78F2F0E94FC190E94BB
:102F3000251A19C00E94F31016C00E5F1F4FFE0124
:102F4000C491CC2381F08FE99FE00197F1F700C095
:102F50000000C150F6CF0E5F1F4FFE01F49003C07A
:102F60000E949D108E018F2D882309F49FCFEFE9D9
:102F7000FFE03197F1F700C000008150F5CFDF91FD
:102F8000CF911F910F91FF90EF90089508950895AC
:102F90000C94C7170C94C8170E94CA176093230299
:102FA0007093240280932502909326020C94C813F8
:102FB0000C94CC170F931F930091230210912402BD
:102FC0002091250230912602602B712B822B932BAE
:102FD0001F910F910C94CC170F931F930091230214
:102FE0001091240220912502309126026023712342
:102FF000822393231F910F910C94CC170F931F934F
:103000000091230210912402209125023091260282
:1030100060277127822793271F910F910C94CC175B
:103020000E94AB0360931F027093200280932102E1
:10303000909322020C94C81360E070E0CB010C94D2
:1030400010180F931F9341E050E060E070E08A0198
:103050009B0104C0000F111F221F331F8A95D2F756
:10306000C901B8011F910F910C9410180F931F9371
:1030700041E050E060E070E004C0440F551F661F5F
:10308000771F8A95D2F780911F0290912002A0911C
:103090002102B09122028A019B01082B192B2A2BB5
:1030A0003B2BC901B8011F910F910C9410180F937D
:1030B0001F9341E050E060E070E004C0440F551FF2
:1030C000661F771F8A95D2F7409550956095709549
:1030D00080911F0290912002A0912102B0912202C2
:1030E0008A019B01082319232A233B23C901B80124
:1030F0001F910F910C9410180F931F9341E050E013
:1031000060E070E004C0440F551F661F771F8A956A
:10311000D2F780911F0290912002A0912102B091DC
:1031200022028A019B01082719272A273B27C90168
:10313000B8011F910F910C9410180F931F930091D9
:103140001F02109120022091210230912202602B57
:10315000712B822B932B1F910F910C9410180F93AE
:103160001F9300911F0210912002209121023091A3
:10317000220260237123822393231F910F910C94C9
:1031800010180F931F9300911F021091200220919D
:1031900021023091220260277127822793271F91F5
:1031A0000F910C94101808952AE0929F800D11241D
:1031B000E82FE695E695E695877051E001C0550F3A
:1031C0008A95EAF785E0E89FF0011124E950FE4F67
:1031D00020E030E070E04081CB01022E02C09695E5
:1031E00087950A94E2F78170819584278523842747
:1031F00081932F5F3F4F2530310569F708952AE00D
:10320000929F800D1124682F669566956695982F7C
:10321000977085E0689FB001112440E050E080E0A5
:10322000FB01E40FF51FE950FE4F208130E0092E2D
:1032300002C0369527950A94E2F721703327042EB1
:1032400001C0220F0A94EAF7822B4F5F5F4F45308F
:10325000510531F70895BF92CF92DF92EF92FF921E
:103260000F931F93CF93DF938C01C0901F02D090D8
:103270002002E0902102F09022028091230290919E
:103280002402A0912502B0912602C82AD92AEA2A4E
:10329000FB2ACFE1D0E0D701C6010C2E04C0B695C1
:1032A000A795979587950A94D2F780FD04C021973A
:1032B00090F7B12C07C0BC2EB8018C2F0E94860558
:1032C0000197A9F38B2DDF91CF911F910F91FF9063
:1032D000EF90DF90CF90BF900895CF93DF93EC01F4
:1032E0000E942B19BE010E948605DF91CF9108959F
:1032F0001F93CF93DF93EB019091BE01992321F0AF
:10330000CB010E946D1913C0882349F0CB010E94A4
:103310002B19182F682FCE010E94D41804C0CB019E
:103320000E94FF18182FBE01812F0E948605DF9191
:10333000CF911F9108958091270285958595859558
:1033400008958091270287700895909127029770C1
:1033500081E009F480E008959091CA0292FB22274F
:1033600020F9281751F080FB92F99093CA028091BE
:10337000C9029091CA020C94B81A08958091CA02A9
:1033800082FB882780F991E089270C94AC1981E0B1
:103390000C94AC1980E00C94AC1980913302089520
:1033A00090913302892B80933302089580959091F8
:1033B0003302892380933302089580933302089562
:1033C0001092330208958091320208959091320252
:1033D000892B80933202089580959091320289233F
:1033E0008093320208951092320208959091310232
:1033F000892B809331020895809590913102892321
:10340000809331020895109231020895809128022C
:10341000089508950C94091A0C940A1A9091CA02FE
:1034200092FD08C090912802981721F080932802FD
:103430000C940C1A089580912802882329F0109288
:10344000280280E00C940C1A0895E0910801F09194
:103450000901809133028083E0910801F091090114
:10346000908180913202892B8083E0910801F09154
:103470000901908180913102892B808380912802FB
:10348000882381F0E0910801F09109019081892B56
:10349000808380910801909109010E94431B811152
:1034A0000E941B1A80910801909109010C94320F1F
:1034B0000C94091A9091CA0292FD10C098E0899F5D
:1034C00090011124262B209327020E943618809108
:1034D00027028595859585950C94581A0C94361875
:1034E0001092270280E00C94581A209127028095B0
:1034F000822380932702982F977041F430E0482F61
:10350000082E000C550B2417350721F49091CA02A0
:1035100092FF07C08595859585950E9457180C9454
:10352000701A089580E0089580E090E00E94C71F1F
:1035300021E08A3E9E4F09F020E0822F089582E02C
:1035400090E00C94BF1F83E090E00C94BF1FCF93DA
:1035500084E090E00E94BF1FC82F82E290E00E94AA
:10356000BF1F2C2F30E0A901582BCA01CF9108951D
:10357000CF93C92F682F84E090E00E94CD1F6C2F5D
:1035800082E290E0CF910C94CD1FAB01BC018FE0A3
:1035900090E00C94DF1FAB01BC0183E190E00C9440
:1035A000DF1F60E070E0CB010C94CB1A60E070E0AC
:1035B000CB010E94C51A0C94D11A6AEE7EEF80E00E
:1035C00090E00E94EB1F60E082E090E00E94CD1F3F
:1035D00060E083E090E00E94CD1F109223021092E1
:1035E0002402109225021092260260E084E090E00E
:1035F0000E94CD1F60E082E290E00E94CD1F60E05B
:1036000085E090E00E94CD1F60E086E090E00E949F
:10361000CD1F6FEF87E090E00E94CD1F40E050E0AB
:10362000BA0188E090E00E94DF1F60E08DE090E04A
:103630000E94CD1F40E050E0BA0188E190E00E9476
:10364000DF1F60E087E190E00E94CD1F40E050E086
:10365000BA018CE190E00E94DF1F60E070E080E240
:1036600090E00E94EB1F40E050E0BA0188E190E05A
:103670000E94DF1F0C94D61A0C94DD1A682F8EE07E
:1036800090E00C94CD1FFC01329697E080E09150C1
:1036900029F021912223D9F38F5FF9CF0895662372
:1036A00049F0FC01329608962191621729F0E8173B
:1036B000F907D1F780E0089581E008959C01FC01AD
:1036C00032969FEF80E04191461789F09F3F19F4B1
:1036D000411101C0982F8F5F8630A9F79F3F39F0C5
:1036E000F901E90FF11D97FDFA9562830895089598
:1036F0009C012A5F3F4FFC014281461301C01282A8
:10370000019682179307B9F708950C945E1B0C94E9
:10371000781B029626E0FC0111922A95E9F708959C
:1037200008950C94901B0C94901BCF930E94931BB4
:103730000E94F4070E94911BC0E08C2F0E949A0700
:10374000892B29F4CF5FC630C1F780E001C081E04A
:10375000CF9108950C94901B0C94AA1B8091360273
:10376000882349F10E94AC1B80E00E945E05109204
:10377000350220E488E190E00FB6F894A895809394
:1037800060000FBE2093600083B7817F846083BF99
:1037900083B7816083BF7894889583B78E7F83BF1A
:1037A0000FB6F894A89580916000886180936000BE
:1037B000109260000FBE08950C94901B0E94E213BB
:1037C0000E94190F0E945E050C94DC1B1F920F9241
:1037D0000FB60F9211248F939F93AF93BF93809155
:1037E0003502811113C08091E9029091EA02A09103
:1037F000EB02B091EC024196A11DB11D8093E9024C
:103800009093EA02A093EB02B093EC02BF91AF91C8
:103810009F918F910F900FBE0F901F90189582E08F
:1038200084BD93E095BD9AEF97BD80936E00089597
:103830002FB7F8948091E9029091EA02A091EB02EF
:10384000B091EC022FBF08952FB7F8946091E90270
:103850007091EA028091EB029091EC022FBF0895E3
:103860009C014FB7F8948091E9029091EA02A091EF
:10387000EB02B091EC024FBF821B930B089578943A
:103880001F920F920FB60F9211248F939F93AF93B5
:10389000BF938091E9029091EA02A091EB02B0916E
:1038A000EC020196A11DB11D8093E9029093EA02FA
:1038B000A093EB02B093EC02BF91AF919F918F91D7
:1038C0000F900FBE0F901F90189598E088E10FB6EB
:1038D000F894A895809360000FBE90936000A8951F
:1038E000F894D8E0CEEF28E3299320E0299314BE82
:1038F000FFCF089590938D0180938C0108950F93CD
:103900001F93CF93DF930E94181CEC0190E080E896
:103910000FB6F89480936100909361000FBE0E94EF
:103920009B0F0E94761F539A80E0815041F0A8952A
:10393000EFE9FFE03197F1F700C00000F6CF5398B0
:1039400078940E94A70F0E94991D0E94140FFFEF08
:1039500020E732E0F15020403040E1F700C00000A5
:1039600001E01CE080911403882371F0109214038D
:103970000E94181CEC0180913602882391F010926D
:1039800036020E94DE1B0DC080913602811109C0F3
:10399000CE010E94301C069720F0009336020E9450
:1039A000AE1B809136028823F9F00E94AE1B0E9464
:1039B000951B8823B9F2F8949AB15B9A892F8C6091
:1039C0008AB98BB181278BB98FE7E8E3F1E08150A9
:1039D000E040F040E1F700C000008BB181278BB9D7
:1039E0009AB95B987894BECF0E947F1E80911A038B
:1039F000882329F08091F80284FD0E94AD0F0E9477
:103A0000401D0E94A30FAECF8091C8020895CF93AE
:103A1000DF9300D01F92CDB7DEB790913902981393
:103A200007C020913702309138022617370791F0EE
:103A300080933902709338026093370289837B83C5
:103A40006A838091310384FF05C063E0CE01019653
:103A50000E947B1E0F900F900F90DF91CF910895E1
:103A6000BC0184E00C94071DBC0183E00C94071D8D
:103A70002091310324FF03C066E00C947B1E08955F
:103A8000CF93DF93CAE0D0E08091F80284FF18C0A2
:103A900080914502909146029817E1F028E0829FBC
:103AA000C001112468E0895B9D4F0E94771E8091C0
:103AB000450290E001968F709927809345020AC0D5
:103AC0000E947F1E8FE99FE00197F1F700C0000080
:103AD0002197D1F6DF91CF910895CF93DF93EC0139
:103AE000A0914602B0E0CD0101968F7099272091F8
:103AF0004502281779F093E0AA0FBB1F9A95E1F7CA
:103B0000A95BBD4F98E0FE0101900D929A95E1F7F7
:103B1000809346020E947F1E0E94401D88E0FE01A5
:103B2000ADE3B2E001900D928A95E1F7DF91CF917C
:103B300008958AE091E00895FC01808180768032CA
:103B4000A1F58181813061F484819581892B69F5AA
:103B50008DE392E0909316038093150388E0089517
:103B6000823041F487EC92E0909316038093150322
:103B700081E008958A3021F483818093C70215C0C3
:103B8000893099F4828193818115924081F48481F6
:103B90009581892B61F481E080933C028681978135
:103BA00090933B0280933A0202C080E008958FEF29
:103BB000089520913A0230913B02232B71F020911D
:103BC0003C02213051F4FC0180818093C8021092A4
:103BD0003B0210923A0281E008958FEF0895089514
:103BE000FC0193819330D9F068F4913081F09230E8
:103BF00009F059C08CED92E0909316038093150361
:103C00008BE30895913249F19232B9F14CC087E1CA
:103C100093E0909316038093150382E108958281C7
:103C2000813099F050F08230F1F589E293E0909381
:103C300016038093150386E108958DE493E0909335
:103C400016038093150384E0089581E493E0909334
:103C50001603809315038AE008958281882329F052
:103C6000813009F587E093E002C08EEE92E09093F8
:103C700016038093150389E0089584819581009748
:103C800051F0019781F481E593E0909316038093BE
:103C900015038BE708958CEC93E0909316038093C3
:103CA000150380E4089580E008951F93CF93DF9378
:103CB000162FEA01288124FF05C0398128E823272F
:103CC000298302C02AE52883212FFC01CE01029618
:103CD000DC0131913D9321501216DCF3612F0E94DB
:103CE00064021C5F1883DF91CF911F91089548EF04
:103CF00052E00C94551E41E353E00C94551ECF93B3
:103D0000DF9360911703635067FD93C080911303A5
:103D1000CCE0D0E0C81BD109C55EDC4F8091120316
:103D2000803120F4CE010E94EF1D81C08D3209F058
:103D30006EC0683009F07BC083EC8093ED028AE5A9
:103D400080931501109211038881807621F0CE01B5
:103D50000E949C1D49C09A811092F60289818111AE
:103D600006C01092F70226EF32E082E038C08530BC
:103D700019F49093180330C08630A1F48B81813000
:103D800041F0823031F0833021F0813211F0823203
:103D900021F4CE010E94F01D01C080E090E49093D8
:103DA000110322C0883089F0893019F490931A03E6
:103DB00013C08A3069F08B3079F48BE48093F90278
:103DC000809332038093050307C02AE133E002C0E9
:103DD00026EF32E081E003C026EF32E080E030934E
:103DE00016032093150309C08F3F39F4988197FD7E
:103DF0008E8190E89093110307C09F81911104C0B8
:103E00009E81981708F4892F8093140110C0809127
:103E1000110387FF0CC0CE010E94D91D8F3F21F4F2
:103E20008EE18093150103C081111092140110924C
:103E300017038091150184FF4CC0809114018F3FBE
:103E400009F447C0C82F893008F0C8E08C1B809364
:103E500014019091ED0288E889278093ED02CC232C
:103E600059F180911503909116032091110326FFBB
:103E700012C0ADEEB2E02C2FAC014D5E5240FA0103
:103E8000EA0FFB1FE4911196EC93119721501196C4
:103E90002111F5CF08C0EEEEF2E0DC012C2F3D91B0
:103EA00031932150E1F701962FEF2C0F820F911DD6
:103EB00090931603809315036C2F8EEE92E00E9470
:103EC0006402CC5FCC3019F08FEF80931401C09363
:103ED000150184E199B19C7031F48150D9F71092A9
:103EE000180310921003DF91CF910895CF93DF93C1
:103EF000E9E6F0E0808188608083E99AC8EFD2E04B
:103F00008BE48983A1E3B3E011968C931197E4E0ED
:103F1000F3E081838AE588838C938083DF91CF915E
:103F2000089597FB072E16F4009407D077FD09D06B
:103F30000E94AB1F07FC05D03EF4909581959F4FE2
:103F40000895709561957F4F0895EE0FFF1F0590BE
:103F5000F491E02D0994AA1BBB1B51E107C0AA1FD5
:103F6000BB1FA617B70710F0A61BB70B881F991F1A
:103F70005A95A9F780959095BC01CD010895F999BE
:103F8000FECF92BD81BDF89A992780B50895A8E12A
:103F9000B0E042E050E00C94F31F262FF999FECFD9
:103FA00092BD81BDF89A019700B4021639F01FBA8C
:103FB00020BD0FB6F894FA9AF99A0FBE08950396A9
:103FC000272F0E94CE1F0E94CD1F252F0E94CE1F9B
:103FD000242F0C94CE1F0196272F0E94CE1F0C94E5
:103FE000CD1FDC01CB01FC01F999FECF06C0F2BD6B
:103FF000E1BDF89A319600B40D9241505040B8F7A7
:064000000895F894FFCFC3
:104006002808641E140A321E2902041D6D1D381D5F
:10401600341D301DFF5AE200E900EA00B500B60083
:10402600B700CD008301CC008A01920194012102E0
:10403600230224022502260227022A02B300B40024
:104046006F0070008182833097969594919061629B
:1040560063603534333231040102E200E900EA00DC
:10406600B500B600B700CD008301CC008A019201ED
:1040760094012102230224022502260227022A0293
:0C408600B300B4006F0070008182830062
:00000001FF
