:100000000C9491020C94D8020C94D8020C94D8024F
:100010000C94D8020C94D8020C94D8020C94D802F8
:100020000C94D8020C94D8020C9448190C9484189F
:100030000C946C140C94D8020C94D8020C94D80232
:100040000C94D8020C94D8020C94D8020C94D802C8
:100050000C94D8020C943A140C94D8020C94D80244
:100060000C94D8020C94D8020C94D8020C94D802A8
:100070000C94D8020C94D8020C94D8020C94D80298
:100080000C94D8020C94D8020C94D8020C94D80288
:100090000C94D8020C94D8020C94D8020C94D80278
:1000A0000C94D8020C94D8020C94D802A907A90782
:1000B000DB07DB074D08F509F509F509690847096C
:1000C000580958099D16C4165C18C4165C180C17FC
:1000D0002F175C181E18311898209820AB20AB20E1
:1000E000A120AB20AB20AB2098209820A620AB20ED
:1000F000AB20A6200000000000000000000000006F
:1001000000000000000000000000000000000000EF
:1001100000000000000000007E0F00D4FFFFFFC7BA
:100120000000007800000000000000002A2B2800DA
:100130000000000000000000000000000000002996
:10014000000000002C1E3420212224342627252ED6
:10015000362D3738271E1F2021222324252633330E
:10016000362E37381F0405060708090A0B0C0D0E3A
:100170000F101112131415161718191A1B1C1D2F06
:100180003130232D350405060708090A0B0C0D0E26
:100190000F101112131415161718191A1B1C1D2FE6
:1001A0003130354C303000A80000000153A600006B
:1001B00000530054005500560000005F00600061CD
:1001C00000000057005C005D005E00000000005968
:1001D000005A005B000000280000000000630000DF
:1001E000006200010000000153005C0000C65CC812
:1001F0005CCA5CC35C0000C75CC95CCB5C0000C42B
:100200005C500051004F000000000049004A004DC2
:10021000000000C55C000000004C00000029002226
:1002200023252628292A2C2D2F3032333536383AEB
:100230003B3D3E4042434547494A4C4E5051535541
:1002400057595A5C5E6062646668696B6D6F717362
:100250007577797B7D7F81838587898A8C8E909263
:100260009496989A9C9E9FA1A3A5A7A8AAACAEAF6E
:10027000B1B3B4B6B8B9BBBCBEBFC1C2C3C5C6C7B3
:10028000C9CACBCCCDCED0D1D2D2D3D4D5D6D7D764
:10029000D8D9D9DADADBDBDBDCDCDCDCDCDDDDDDAC
:1002A000DDDCDCDCDCDCDBDBDBDADAD9D9D8D7D7A8
:1002B000D6D5D4D3D2D2D1D0CECDCCCBCAC9C7C655
:1002C000C5C3C2C1BFBEBCBBB9B8B6B4B3B1AFAE93
:1002D000ACAAA8A7A5A3A19F9E9C9A989694929039
:1002E0008E8C8A89878583817F7D7B797775737111
:1002F0006F6D6B6968666462605E5C5A59575553EE
:1003000051504E4C4A4947454342403E3D3B3A38A6
:1003100036353332302F2D2C2A2928262523220545
:10032000010980A101850319012AB700150126B72B
:1003300000950175108100C0050C0901A10185041B
:1003400019012AA002150126A0029501751081004D
:10035000C005010906A101050719E029E7150025D7
:10036000019508750181029501750881010507193C
:100370000029FF150026FF00950675088100050875
:1003800019012905950575019102950175039101E2
:10039000C009023B00020100A0FA090400000103A9
:1003A000010100092111010001224000070581031C
:1003B00008000A09040100010300000009211101DD
:1003C00000012232000705820320000A1201000208
:1003D00000000008464602000100010200010A0375
:1003E00050007500630061000000180346006F00B4
:1003F0006F007400460069006E00670065007200BF
:1004000073000000040309041E0F0500047F3F1F52
:10041000643214643214783C1E1E140A0500010173
:1004200001010101010101020202020202020202B3
:100430000303030303030303040404040404040583
:100440000505050506060606060707070707080847
:100450000808090909090A0A0A0B0B0B0C0C0C0DF8
:100460000D0D0E0E0E0F0F0F101011111112121391
:10047000131414151516161717181819191A1A1B0C
:100480001B1C1D1D1E1E1F2020212222232424256B
:100490002626272829292A2B2C2D2D2E2F303132A4
:1004A00032333435363738393A3B3C3D3E3F4041B4
:1004B00042434445464748494A4C4D4E4F5051539C
:1004C00054555658595A5B5D5E5F61626465666853
:1004D000696B6C6D6F7072737577787A7B7D7E80D7
:1004E00082838587888A8C8E8F91939596989A9C23
:1004F0009EA0A2A3A5A7A9ABADAFB1B3B5B7BABC37
:10050000BEC0C2C4C6C9CBCDCFD1D4D6D8DBDDDF07
:10051000E2E4E7E9EBEEF0F3F5F8FAFDFFFFAA7F7E
:10052000554011241FBECFEFDAE0DEBFCDBF04B6C9
:1005300003FE27C080918F0290919002A0919102BA
:10054000B09192028730904BA740B04BD1F41092FB
:100550008F0210929002109291021092920214BE99
:1005600084B7877F84BF0FB6F894A8958091600008
:10057000886180936000109260000FBEE0E0F8E3B5
:10058000099511E0A0E0B1E0E4E9F6E402C00590CD
:100590000D92A639B107D9F722E0A6E9B1E001C072
:1005A0001D92AF38B207E1F70E941F1A0C9448233E
:1005B0000C9400001F93CF93DF93CDB7DEB76797FE
:1005C0000FB6F894DEBF0FBECDBF4B8B5C8B6D8B2F
:1005D0007E8B8F8B61111092DB0186E09E01235F81
:1005E0003F4FD901E82F1D92EA95E9F795E0FE010A
:1005F0007396D90101900D929A95E1F79C894E89E5
:100600005F897B897D879E876F87598B488BF9012E
:10061000DE01179601900D928A95E1F7CE010796BB
:100620000E949A0E81113EC086E0FE013796DE01DF
:10063000119601900D928A95E1F7FF81E8856A8510
:100640007B856115710531F0EF3F31F481E0FF3FAB
:1006500019F403C081E001C080E080FD23C0209137
:10066000A70130E0C9010196877099274091D80110
:1006700050E08417950779F1F983EA837D836C83D1
:1006800096E0929FD001939FB00D1124A855BE4FC4
:10069000FE01319601900D929A95E1F78093A701A2
:1006A0000E94080E16E08091D8019091A701891749
:1006B000F9F0189FC001112488559E4F0E949A0E90
:1006C0008823B1F08091D80190E001968770992736
:1006D0008093D801E8CF0E94AF201092A70110921A
:1006E000D801E1EAF1E086E0DF011D928A95E9F7A1
:1006F00067960FB6F894DEBF0FBECDBFDF91CF91E6
:100700001F9108954F925F926F927F928F929F9266
:10071000AF92BF92CF92DF92EF92FF920F931F930F
:10072000CF93DF93CDB7DEB72A970FB6F894DEBF2D
:100730000FBECDBFFC010081D18083819481892BC4
:1007400039F01FEFD11206C091E00F3F19F403C03A
:1007500091E001C090E090FDACC67F0185E0DE0134
:10076000169601900D928A95E1F7F70122818E810C
:100770009F81222349F00E94771F182F682F8E81B6
:100780009F810E94FD1F03C00E94D01F182F2EE1E1
:10079000129FF001112435E0D39EE00DF11D1124CC
:1007A000E00FF11DEE0FFF1FE955FE4F059114916B
:1007B000063A8DE5180709F0B2C0F7018281882357
:1007C00009F4F4C044EAC42E41E0D42E5AE0452E88
:1007D000F6012491222309F4E9C0213009F047C031
:1007E00031968491813031F4F2E0CF0ED11CF601C4
:1007F00084918DC0823041F4F2E0CF0ED11CF6011D
:1008000084910E94222187C0833041F4F2E0CF0E10
:10081000D11CF60184910E94CB207DC0843009F068
:1008200079C0F2E0CF0ED11CF601249180E090E077
:1008300030E0205331092A30310570F4489EA00180
:10084000499E500D1124C901840F951FFFEFCF1A47
:10085000DF0AF6012491ECCF009709F45CC0EFE9C0
:10086000FFE03197F1F700C000000197F5CFE22FCC
:10087000F0E0EC5DFE4F5490822F8695869586952C
:1008800090E0FC01EC5EFE4F64902770712C022E0C
:1008900002C0759467940A94E2F7F1E06F2277241E
:1008A000FC01EC5FFE4F8490912C022E02C09594C7
:1008B00087940A94E2F731E083229924FC01EC50FA
:1008C000FF4FA490B12C02C0B594A7942A95E2F7EB
:1008D00081E0A822BB246114710419F081EE0E940A
:1008E00022218114910419F086EE0E942221852D87
:1008F0000E94D521892819F086EE0E94CB20672816
:1009000019F081EE0E94CB20AB2829F08CE20E94E6
:10091000D52101C06F019FEFC91AD90A59CF043FF1
:10092000ECE51E0759F190F4093D2CE51207E9F0BA
:100930000A3D3CE51307A1F1083D8CE51807B1F528
:1009400006E221EE41EE68ED7CE514C0063F9CE531
:10095000190701F1C8F0073FFCE51F0739F507E269
:1009600025EE46EE67EF7CE505C007E225EE45EE95
:1009700069ED7CE5C7010E94F41474C506E221EE1E
:1009800040EE64EF7CE5F6CF07E225EE44EE65EF3E
:100990007CE5F0CF06E221EE42EE66EF7CE5EACFA1
:1009A00008E221E045EE6AED7CE5E4CFF7018281C3
:1009B000882309F445C110922F020430FDE51F077A
:1009C00058F40B3F2CE5120760F4C80182509C4597
:1009D000449708F01FC105C002363DE5130709F032
:1009E00019C10E94180D90935A0280935902003148
:1009F0008CE5180709F4CAC008F041C00830ECE5DE
:100A00001E0709F4A4C0F0F404302CE5120709F421
:100A10008CC068F402308CE5180709F482C00330FA
:100A20001C4509F0E7C0809159028260E1C00630A0
:100A3000ECE51E0709F483C008F085C080915902D7
:100A40008860D6C00C302CE5120709F490C068F419
:100A50000A308CE5180709F47EC008F084C00E94B3
:100A6000AF20809159028068C3C00E30ECE51E07AC
:100A700009F481C008F086C08091590294C00D3FEE
:100A80002CE5120709F47BC038F504318CE5180712
:100A900009F49AC058F40231ECE51E0709F47AC053
:100AA00008F07EC0809159028F7BA2C00B3F2CE5DD
:100AB0001207F1F108F03FC005311C4509F09AC05A
:100AC0008091590282FB222720F991E0922790FB26
:100AD00082F990FB83F98CC001309DE5190709F478
:100AE00067C050F480915A020F3FFCE51F07C1F127
:100AF00008F05BC08D7F65C003303DE5130709F446
:100B000071C008F46DC002361D4509F073C08091B4
:100B1000590284FB222720F991E0922790FB84F967
:100B200067C080915902816063C08091590216C0EC
:100B300080915A0216C080915A02826042C0809110
:100B40005902806155C080915902806251C08091E4
:100B5000590280644DC0809159028860846048C009
:100B6000826081602EC0809159028E7F41C0809149
:100B700059028D7F3DC080915902877F39C0809195
:100B80005A0214C0809159028F7E32C0809159025E
:100B90008F7D2EC00E94AF20809159028F7728C090
:100BA00080915902877F8B7F23C08D7F8E7F09C004
:100BB00080915A02982F909591708E7F892B90FB8F
:100BC00081F980935A0216C00E94AF208091590289
:100BD00087FB222720F991E0922790FB87F908C034
:100BE00061E001C060E08EE090E00E944E2202C011
:100BF000809359026091590210915A0284E090E06A
:100C00000E944E22612F82E290E00E944E220E94BA
:100C1000AF2028C48091DC0106312CE5120709F5CC
:100C20008A7A91E009F490E090939801882311F07A
:100C300065E301C069E289E991E00E94A2140EC057
:100C400006311C4509F029C180919801882309F4D7
:100C50002EC465E389E991E00E9495140E94A10DDC
:100C600001C482720D3CECE51E0709F4C4C008F013
:100C700045C0073C2CE5120709F4A9C0D8F4043C90
:100C80009CE5190709F499C030F4033CFCE51F0703
:100C900009F46EC0D1C0053C2CE5120709F492C0DE
:100CA000063C3CE5130709F0C7C042E05FE16BE09A
:100CB0007FE1A5C00A3C9CE5190709F492C078F4CD
:100CC000083CFCE51F0709F487C0093C2CE5120726
:100CD00009F0B2C046EF5EE16AEE7EE190C00B3CE7
:100CE0003CE5130709F482C00C3C9CE5190709F0A8
:100CF000A3C04AE55DE16BE67DE181C0023DECE524
:100D00001E0709F488C0A0F40F3C2CE5120709F473
:100D10007CC008F477C0003D8CE5180709F478C062
:100D2000013D9CE5190709F087C06EE089E081C0AC
:100D3000053DECE51E0709F474C068F4033D2CE59D
:100D4000120709F46BC0043D3CE5130709F074C0B9
:100D500061E088E16BC0063D8CE5180709F464C0CA
:100D60000E359DE5190709F067C06AE285E261C0AA
:100D70008091280280FF1BC08E7F809328026091A3
:100D800028027091290280912A0290912B020E94E0
:100D9000481D10927A02EFEFF0E702E0E150F040D8
:100DA0000040E1F700C000000E94EE1C5BC38160C0
:100DB0008093280261E0869539C046E55FE16FE5E2
:100DC0007FE11DC04FE55FE166E57FE118C04BE0C4
:100DD0005FE162E07FE113C04AEE5EE166EF7EE133
:100DE0000EC042ED5EE16EED7EE109C04EED5EE1CA
:100DF00062ED7EE104C04BE65DE16AE57DE10E94C3
:100E0000851530C361E081E011C065E082E011C06A
:100E100068E086E00EC064E18FE00BC067E185E129
:100E200008C062E289E105C061E083E20E94141F0C
:100E300019C30E94731516C30B352DE5120741F136
:100E400050F401158CE51807A9F00F3D1C4529F554
:100E50000E94290D07C30C35EDE51E07D9F00D35AD
:100E60001D45D9F480915A0282FB882780F991E0D0
:100E7000892711C00E94AF200FEF14E32CE001502E
:100E800010402040E1F700C000000E942914EAC28F
:100E900081E001C080E00E94EB0DF70182810081BA
:100EA000D180882359F0802F9D2D0E94771F182F05
:100EB000682F802F9D2D0E94FD1F05C0802F9D2D26
:100EC0000E94D01F182F2EE1129FF001112435E04F
:100ED000D39EE00DF11D1124E00FF11DEE0FFF1F59
:100EE000E955FE4F859194910E948F0B8C01982EAD
:100EF000F701D280A580A2943FE0A3228091D9017E
:100F00008770B9F0DD20A9F0812F807F803421F037
:100F100080E2800F883068F080915A0282FD09C01B
:100F200082E00E94CE0D8091D9018770CC24C394B9
:100F30008111C12CB12EB2949FE0B9228B2D90E08B
:100F40008C30910508F051C2FC01EA5AFF4F0C9415
:100F50001923812F807F1F70882311F01295107F35
:100F6000DD20B9F0112309F42DC280E2800F883012
:100F700010F0911006C08091DC01182B1093DC0159
:100F800005C08091DB01182B1093DB010E94A10D9D
:100F900019C2802F0E94CB20112309F426C2005EC3
:100FA000083078F1992069F110958091DB011823C0
:100FB0001093DB0129C0812F807F1F70803211F0D8
:100FC0001295107F992021F0F1E09F16D9F149C0C8
:100FD00080915A0282FF1BC0DD2069F0112339F095
:100FE0008091DC01182B1093DC010E94A10D80E0A0
:100FF0000E942221FAC180E00E94CB20112309F433
:10100000F4C1812F0E949A0D0E94A10DEEC1DD2036
:1010100081F08091DD01AA2051F001E0A01207C00B
:10102000182B181709F4E1C11093DD01DEC1812BE3
:1010300010C0AA2021F021E0A21609F4D6C10E9416
:10104000940D27C0DD2041F035E03A1508F4CDC1FC
:10105000812F0E94C120C9C184E08A1508F4C5C14E
:1010600018C0DD2049F0AA2099F3F701858180FF9F
:10107000A9C18F708583ECCFAA2059F0093309F0FC
:10108000B1C1FFEF17EE23E0F15010402040E1F72F
:10109000A7C1812F0E94BA20A8C1812F869586956D
:1010A000837019F0813059F0A0C1DD2019F0C8011A
:1010B000937002C080E090E00E94D2149CC1DD20B9
:1010C00019F0C801937002C080E090E00E94BC1447
:1010D00092C1812F837009F069C0D1108AC1902F0D
:1010E000929596959770990F990F802F8F70882EF3
:1010F000912CA12CB12C092E04C0880C991CAA1C7F
:10110000BB1C0A94D2F704FF12C04FE050E060E02D
:1011100070E004C0440F551F661F771F9A95D2F7E1
:10112000DB01CA0180959095A095B09503C080E041
:1011300090E0DC0116951695412F4370423019F16D
:10114000C8F40091DE011091DF012091E00130919F
:10115000E101413059F088299929AA29BB29BC010C
:10116000CD0160237123822393230AC0802A912A10
:10117000A22AB32ABC01CD01682979298A299B2991
:101180000E94792036C188299929AA29BB29009172
:10119000DE011091DF012091E0013091E101BC01FD
:1011A000CD016027712782279327EACFDD2019F030
:1011B000812F817001C08695882309F41AC1902F70
:1011C000929596959770990F990F802F8F70882E12
:1011D000912CA12CB12C092E04C0880C991CAA1C9E
:1011E000BB1C0A94D2F704FF12C04FE050E060E04D
:1011F00070E004C0440F551F661F771F9A95D2F701
:10120000DB01CA0180959095A095B09503C080E060
:1012100090E0DC0116951695412F43704230D9F0CD
:1012200068F50091550210915602209157023091B5
:101230005802413059F088299929AA29BB29BC01B3
:10124000CD0160237123822393231EC0802A912A1B
:10125000A22AB32A13C088299929AA29BB29009157
:101260005502109156022091570230915802BC014C
:10127000CD01602771278227932706C0BC01CD01CD
:10128000682979298A299B290E942920B2C01F70C8
:10129000DD2039F0812F0E945820802F0E94C1202C
:1012A000A8C0802F0E94BA20812F0E943320A1C0A5
:1012B000802F32EF931609F443C0391538F090EFC0
:1012C000991659F0E1EF9E16B1F177C0F3EF9F1632
:1012D000F1F124EF921659F170C0DD2019F134E0DC
:1012E0003A1508F482C01F7181E090E0A0E0B0E000
:1012F000AC01BD0104C0440F551F661F771F1A952E
:10130000D2F78091550290915602A0915702B09168
:1013100058028A019B01082719272A273B27C90160
:10132000B80129C025E02A1508F45FC0DCCF809100
:101330005A0282FF23C0DD2029F0812F8F7130C037
:10134000DD20D9F3812F8F710E9433204EC0DD2024
:1013500079F01F7181E090E0A0E0B0E0BC01CD0128
:1013600004C0660F771F881F991F1A95D2F703C014
:1013700060E070E0CB010E94292037C0DD2099F0A9
:101380001F71812F0E94582080915A0282FD07C050
:1013900038E0139FC001112483608093D901812F0D
:1013A0000E94582022C081E00E94CE0D81E08A1563
:1013B000E0F482E00E94CE0D18C0DD2029F0AA20C2
:1013C00009F4BBCF802F14CEAA2009F4BBCF8933F8
:1013D00049F49FEFE7EEF3E09150E040F040E1F791
:1013E00000C00000802F0E94CB2088EF8B0D84303E
:1013F00010F40E94E814CC20A9F08091D90180FD5E
:1014000011C0F70112828595859585950E94582017
:10141000C7010E9482038091D901859585958595A4
:101420000E94332085E0F701DE01119601900D92B4
:101430008A95E1F789819A810E94D01F9A810EE1F5
:10144000809FF001112415E0919FE00DF11D112402
:101450008981E80FF11DEE0FFF1FE955FE4F8591C1
:10146000949127C08091D901877019F1F701828189
:101470008823F9F080915A0282FD1BC082E02A96EF
:101480000FB6F894DEBF0FBECDBFDF91CF911F9195
:101490000F91FF90EF90DF90CF90BF90AF909F9013
:1014A0008F907F906F905F904F900C94CE0D69E27B
:1014B000D1CB2A960FB6F894DEBF0FBECDBFDF9119
:1014C000CF911F910F91FF90EF90DF90CF90BF9041
:1014D000AF909F908F907F906F905F904F90089506
:1014E00080E008959091590292FF0DC0282F287135
:1014F000283019F4877F846006C0282F2471243097
:1015000011F48B7F886093FF0DC0282F287128313C
:1015100019F4877E846106C0282F2471243111F4C8
:101520008B7E886120915A0220FF0DC0382F3871C0
:10153000383019F4877F816006C0382F317131301F
:1015400011F48E7F886021FF0DC0282F287128316B
:1015500019F4877E816106C0282F2171213111F491
:101560008E7E886194FD877E0895F894E82FE29539
:10157000EF70F0E031A1282F2F7081E090E001C0E2
:10158000880F2A95EAF7982F9095932391A392A11B
:10159000892B82A3789408959F92AF92BF92CF92A5
:1015A000DF92EF92FF920F931F93CF93DF9300D0C0
:1015B00000D000D0CDB7DEB7AE014F5F5F4F7A01EC
:1015C00086E0FA0111928A95E9F700E511E06A01D7
:1015D000AA24A394B12CF80180818F3F09F441C063
:1015E000F894E82FE295EF70F0E021A18F70A5014B
:1015F00002C0440F551F8A95E2F7CA01922F982B1B
:1016000091A392A18095892382A3789400C0E6E5F6
:10161000F1E0912C31E021912F3F89F0A22FA2958A
:10162000AF70B0E090968C9190E02F7002C09595CD
:1016300087952A95E2F780FD02C0832F01C080E0E4
:10164000982A330F51E0EB35F50729F7F80180812F
:101650008F3F11F00E94B50AF0EAFA95F1F7F60112
:1016600090820F5F1F4FFFEFCF1ADF0A41E0063570
:10167000140709F0B0CF46E050E0B7018BE592E0E7
:101680000E943B2311E0009709F410E0892B89F0B8
:1016900086E0F701ABE5B2E001900D928A95E1F7A3
:1016A00081E08093E4010E9460149093E3018093B1
:1016B000E2018091E4018823F9F02091E201309168
:1016C000E3014FB7F8948091370290913802A091CE
:1016D0003902B0913A024FBF821B930B059760F01D
:1016E000EBE5F2E0A2E6B2E081918D9352E0E136C3
:1016F000F507D1F71092E401812F26960FB6F894E2
:10170000DEBF0FBECDBFDF91CF911F910F91FF9034
:10171000EF90DF90CF90BF90AF909F900895CF93C0
:10172000DF938238910569F1B0F48133910509F4B2
:101730006FC048F48932910509F465C08A32910579
:1017400009F46BC08AC08533910509F457C0893309
:101750009105B9F082C0833E910571F138F4803E65
:101760009105B1F0823E910511F177C0863E910559
:10177000B9F1873E9105C9F1843E910509F06DC02C
:1017800024C02091590220FD53C021FD51C065C0E5
:101790008091590280FD46C080915A0280FF48C066
:1017A0008091590284FD3FC183EE90E03EC180915B
:1017B000590282FF3AC0F4CF8091590282FD35C0B0
:1017C00080915A0280FD34C0EBCF80915A0281FF94
:1017D00035C08091590284FD26C187EE90E025C175
:1017E0008091590283FF27C0F4CF8091590283FD75
:1017F00022C080915A0281FD21C0EBCF8091590215
:1018000085FD1FC021C08091590285FD1DC019C0F2
:101810008091590286FD1BC01DC08091590286FD32
:1018200019C015C089E390E000C182EE90E0FDC0D0
:1018300080EE90E0FAC086EE90E0F7C084EE90E093
:10184000F4C089E290E0F1C085E390E0EEC08AE266
:1018500090E0EBC081E390E0E8C0811532E59307AA
:1018600008F069C0811541E5940728F0982F882772
:10187000816F906ADAC0883E910568F5803E9105D7
:1018800008F0D3C0883A9105B8F4853A910548F03C
:10189000855AE82FF0E0E15EFE4F808190E0906491
:1018A000C4C08130910509F4BBC008F4BCC08430C9
:1018B000910508F4B8C0B9C08F3B910508F0B3C0DA
:1018C000885AE82FF0E0EE0FFF1FEE5DFE4F80819B
:1018D00091819464AAC0811520E59207F0F09C01E3
:1018E00074E0369527957A95E1F7922F9370482FFB
:1018F000437021E030E002C0220F331F4A95E2F727
:101900003C68392B8F70982F9695969540E2949F5E
:10191000C0011124822B932B88C0811530E49307DA
:1019200018F09F70906A81C09C013A9521153F4143
:1019300008F47BC078C0EC01C11586E5D807E8F54E
:10194000C11525E5D20748F08C2F0E94720A8F71CD
:1019500090E0982F8827906268C0C11534E5D307BE
:1019600028F09C2F8827846F906A5FC0AE01437077
:1019700055272C2F26952695C115D34578F481E05F
:1019800090E002C0880F991F4A95E2F740E2249F39
:1019900090011124822B932B9C6847C081E090E03A
:1019A00002C0880F991F4A95E2F740E2249F9001F8
:1019B0001124822B932B9A6838C0C1152AE5D207CF
:1019C000F8F4C11539E5D30790F08C2F8F700E9481
:1019D000720A94E0D695C7959A95E1F7CF70D0E05A
:1019E000DC2FCC27D0699E01282BC9011EC0C11550
:1019F00048E5D407C0F09C2F8827806F906A15C0F7
:101A0000CE0190568115904270F48D2F8F710E94F7
:101A1000720A282F2F71CE0199279062922B05C050
:101A200081E090E002C080E090E0DF91CF910895E6
:101A3000CF9384E090E00E943A22C82F82E290E0A7
:101A40000E943A222C2F30E0A901582BCA01CF91D5
:101A5000089569EE7EEF80E090E00E946C2260E0E5
:101A600082E090E00E944E2260E083E090E00E94DD
:101A70004E221092DE011092DF011092E0011092CE
:101A8000E10160E084E090E00E944E2260E082E2AA
:101A900090E00E944E2260E085E090E00E944E229D
:101AA00060E086E090E00E944E226FEF87E090E0D9
:101AB0000E944E2240E050E0BA0188E090E00E948F
:101AC000602260E08DE090E00E944E2240E050E015
:101AD000BA0188E190E00E94602260E087E190E036
:101AE0000E944E2240E050E0BA018CE190E00E945A
:101AF000602260E070E080E290E00E946C2240E0B2
:101B000050E0BA0188E190E00E94602240E050E09D
:101B1000BA018FE090E00E94602240E050E0BA01FC
:101B200083E190E00C9460228091DD01811110929C
:101B3000DD01089580959091DC0189238093DC017B
:101B400008959091DC018091DB01892B2091DA01CD
:101B5000982F922B909399018091DD01882389F031
:101B6000892B80939901EBE9F1E097E080E09150B7
:101B700029F021912223D9F38F5FF9CF81110E949F
:101B8000940DE0913202F0913302309731F00280EF
:101B9000F381E02D89E991E0099408952091D9011C
:101BA000809582238093D901982F977099F430E023
:101BB000482F082E000C550B2417350759F090912B
:101BC0005A0292FD07C08595859585950E94332020
:101BD0001092D9010895CF93C0915A02C2FB992760
:101BE00090F9981799F080FBC2F9C0935A0260915E
:101BF000590284E090E00E944E226C2F82E290E035
:101C00000E944E2282E0CF910C94CE0DCF91089588
:101C10008091D8019091A701891719F08F5F877083
:101C2000FBCF08950F931F93CF93DF938091A6016D
:101C300082958F7009F05DC08091A301882309F41B
:101C400058C08091D8011091A7016091A1017091B5
:101C5000A201C091A401D091A50191E06F3F09F0CC
:101C600090E0292F06E0811709F443C0209721F066
:101C70007F3F21F030E003C031E001C0322F90E01F
:101C800030FD34C0089FF001099FF00D1124DF01E1
:101C9000A855BE4F11963C911197371327C03C9120
:101CA000361324C012963C91129731111FC013961F
:101CB0004D915C9114974C1B5D0B483C5105B0F461
:101CC0008091A6018F7080618093A601E355FE4F3D
:101CD00080818F708061808381EA91E00E9482031D
:101CE000DF91CF911F910F910C94080E0196877090
:101CF000BACFDF91CF911F910F910895CF93DF93CA
:101D0000EC010E94771F2EE1829FC0011124FC018B
:101D100025E0D29FE00DF11D1124EC0FF11DEE0F17
:101D2000FF1FE955FE4F859194910E948F0BDF9123
:101D3000CF9108959F92AF92BF92CF92DF92EF9290
:101D4000FF920F931F93CF93DF93CDB7DEB76197C9
:101D50000FB6F894DEBF0FBECDBF8C0185E0F80151
:101D6000DE011D9601900D928A95E1F7F801E2805F
:101D70009091A1016091A2014091A4015091A5010F
:101D80004115510531F06F3F31F481E09F3F19F467
:101D900003C081E001C080E0F82FF1709F2E80FD2C
:101DA0001AC1F80130812181C380D48081EAA82E34
:101DB00081E0B82EF090A301F601E41BF50BFF20A3
:101DC00009F4C6C08091A601E83CF10508F091C075
:101DD000482F407F09F050C0621311C093130FC009
:101DE000FE2CE1100CC08F7080618093A601C501AC
:101DF0000E9482038091A601F801858329C1CD2824
:101E000031F02F3F31F481E03F3F19F403C081E00E
:101E100001C080E080FD03C081E08E2502C080E02B
:101E200090E0F82FF170FF2E80FF1CC08091D80148
:101E30004091A70156E0841709F4E8C090E0589F4C
:101E4000F001599FF00D1124E855FE4F61812613D2
:101E500006C06081631303C06281E61203C001966D
:101E60008770E9CFFE2CEE2009F4F2C08091A60124
:101E700081608093A60149C0621306C0931304C019
:101E8000E11002C0F80186C0C8010E9483208823A7
:101E900051F1EE2041F12091A601822F82958F70A1
:101EA00090E0029774F08091A1019091A20198872F
:101EB0008F831986DB86CA862C87CE0107960E94FF
:101EC000820386E0F801A1EAB1E001900D928A95C3
:101ED000E1F70E94120E0AC06217C9F0C8010E9401
:101EE000832081111EC0C8010E948203FF24F39445
:101EF000AFC0482F407F81F781EA91E00E948203C2
:101F000086E0F50111928A95E9F7F12CA1C09313AF
:101F1000E5CFE110E3CFF8018583C8010E94820379
:101F200054C0EE2001F32091A601822F82958F707C
:101F300090E0029734F28091A1019091A2019A83DE
:101F400089831B82DD82CC822E83CE010196B7CF9E
:101F5000E83CF105D0F5FE2CEE2029F2621327C0F3
:101F6000931325C02091A60120FD18C0822F8295D1
:101F70008F70482F50E04115510581F0F8012583FD
:101F80004F30510541F08F5F982F9295907F822FAF
:101F90008F70892B8583C8010E94820386E0F80137
:101FA000A1EAB1E001900D928A95E1F751C0C80114
:101FB0000E948320811185CF8091A601816080934A
:101FC000A601C8010E94820343C086E0F501119278
:101FD0008A95E9F73DC0EE2009F485CFC8010E943B
:101FE0008320F82E882309F47ECF86E0F801A1EA49
:101FF000B1E001900D928A95E1F78091A101909155
:10200000A2010E947E0E0E94120E22C03D872E87E2
:102010008D859E850E947E0E292F22952F7022305D
:1020200028F49F7039F0811105C00BC0243028F4CA
:102030009F7049F4805E883020F0C8010E948203BE
:102040009F2CF92C05C0F8019581907F99F7F9CF65
:102050008F2D61960FB6F894DEBF0FBECDBFDF9116
:10206000CF911F910F91FF90EF90DF90CF90BF9095
:10207000AF909F900895089508950895809140022B
:10208000089580933B0270933D0260933C028091DF
:102090004B02843001F582E08093E9008FEF90914C
:1020A000E800815095FD06C095ED9A95F1F7000086
:1020B0008111F5CF8091E80085FF0DC040E050E030
:1020C00063E070E08BE392E00E948B158091E80062
:1020D0008E778093E8000895BC0184E00C94411051
:1020E000BC0183E00C944110CF93DF9321E0209357
:1020F000E9002FEF3091E800215035FD06C035EDA5
:102100003A95F1F700002111F5CF2091E80025FF65
:1021100014C0EC0140E050E068E070E00E948B15D4
:102120008091E8008E778093E80088E0FE01A1E4CA
:10213000B2E001900D928A95E1F7DF91CF91089579
:102140009F92AF92BF92CF92DF92EF92FF920F9346
:102150001F93CF93DF93FC01A280948081E084835E
:10216000EFE1F2E0B490EEE9F2E0E491C0E0D2E019
:10217000F8EEEF2EF1E0FF2ECC24CA94D12CEB190F
:102180000E2F10E022E02A1530F08091290288837A
:1021900080912A028983911003C01B821A8255C044
:1021A0008B818823F9F081508B832FEF829FC001B0
:1021B00011246C8170E00E94F122FB01FF27E15E97
:1021C000FD4F8491E82FEB192FEFE29FC0011124FE
:1021D000B8010E94F12280912B02689FB001112466
:1021E0007A8333C00E942A2220912B0226952158FF
:1021F00030E0A901440F551F322F2227240F351F2D
:10220000232F33278217930704F582E08A1588F479
:102210000E942A22B6010E94052388830E942A2256
:1022200020912A022695622F70E00E940523280F34
:1022300029831A8280912B02843120F0893C18F086
:1022400088EC01C084E18C838B8397014A8169818A
:1022500088810E948B1D259623E0E20EF11C82E00E
:10226000C832D80709F08ECFDF91CF911F910F911F
:10227000FF90EF90DF90CF90BF90AF909F900C9425
:10228000EE1CEF92FF920F931F93CF93DF938C017D
:10229000C8EED1E0E12CF12CF8018481F4E0EF16D6
:1022A000F1041CF4882339F002C0811104C09E019E
:1022B00040912B0202C09E0140E060912A02809171
:1022C00029020E948B1D8FEFE81AF80A239698E0E6
:1022D000E916F10409F70E94EE1CF801848190E0F0
:1022E0000196817099278483DF91CF911F910F917F
:1022F000FF90EF9008958F929F92AF92BF92CF92EE
:10230000DF92EF92FF920F931F93CF93DF93EC0135
:102310004C81042F10E09801D8010E94D6229B0125
:10232000AC010E94A1226B017C01E0E2F0E0E01B25
:10233000F10BA5E5B0E09B01AC010E94A1224B018D
:102340005C019F01DF010E941F239B01AC010E94E1
:10235000AC229B01AC012C0D3D1D4E1D5F1DC50126
:10236000B4010E94B422822FF22E99E2921728F033
:1023700093E0299F900111240DC025E530E0281B32
:102380003109C901880F991F280F391F37FF02C073
:102390002F5F3F4F35952795122F109598EEC92E38
:1023A00091E0D92E00E085E5E82EEF1801FD02C08E
:1023B0008E2D01C08F2D9601412F60912A020E941F
:1023C0008B1D0F5F83E0C80ED11C083079F70E9487
:1023D000EE1C8C81811102C091E003C0803219F49F
:1023E0009FEF9093060190910601890F8C83DF91F6
:1023F000CF911F910F91FF90EF90DF90CF90BF9002
:10240000AF909F908F9008950F931F93CF93DF937A
:10241000C8EED1E0FE01118210821282339682E072
:10242000E030F807C1F700E010E08091E601082EE7
:10243000000C990B0817190794F080910501082EDC
:10244000000C990B8017910754F09E0140912B02CC
:1024500060912A02809129020E948B1D03C019827B
:1024600018821A820F5F1F4F239608301105E9F674
:102470000E94EE1C809104019091E601980F9093C8
:10248000E60120910501280F20930501121614F48E
:1024900097301CF0819580930401DF91CF911F91BB
:1024A0000F910895CF92DF92EF92FF920F931F93B7
:1024B000CF93DF93FC01828180FF03C0DD24DA9497
:1024C00002C0DD24D394C8EED1E000E010E0198210
:1024D00018821A8294E0E92EF12CC12C8091E5013A
:1024E0008C0D893014F0877002C087FD885F082E3C
:1024F000000C990B0817190791F480912B028E9DFF
:10250000A0018F9D500D11245595479555954795E0
:102510009E0160912A02809129020E948B1DCD0CA0
:10252000F1E0EF1AF108D1F60F5F1F4F2396083044
:10253000110569F60E94EE1C8091E50191E0D91227
:1025400006C0811102C087E006C0815004C090E03F
:102550000196877099278093E501DF91CF911F91B4
:102560000F91FF90EF90DF90CF900895EF92FF9240
:102570001F93CF93DF93EC0188EEE82E81E0F82ED5
:1025800010E08C81970140912B0260912A02810F0B
:102590000E948B1D115E83E0E80EF11C183F89F745
:1025A0000E94EE1C9A818C8190FF02C08F5F01C057
:1025B00081508C83DF91CF911F91FF90EF90089510
:1025C0000F931F93CF93DF9300D01F92CDB7DEB749
:1025D0008C018091E70181110AC09E012F5F3F4F5E
:1025E0004FEF6FEF0E948B1D8A818093E701F80106
:1025F0008481813051F028F0823061F44091E7010C
:102600000AC08091E70140E007C06091E70140E027
:1026100080E003C040E080E060E00E94241DF801FB
:10262000848190E0019663E070E00E94052384833A
:102630000F900F900F90DF91CF911F910F91089500
:10264000CF93DF93EC01E8E2F2E0438162818C8179
:102650000E94211E8C818F5F8C83DF91CF91089522
:10266000CF93DF93EC01EC81F0E0E15EFD4F44910C
:10267000E8E2F2E0628181810E94211E8C818F5FFD
:102680008C83DF91CF9108952091E4003091E50093
:1026900095E64091EC00842F817040FF23C080912B
:1026A000E80080FD1DC080914B02882399F08530A1
:1026B00099F08091EB0085FD11C04091E4005091AC
:1026C000E5002417350729F3915011F09A01E1CF65
:1026D00084E0089582E0089583E0089581E00895FC
:1026E00080E008954091E80042FFDDCF0895809199
:1026F0004D0287FF11C08091E80082FD05C08091E6
:102700004B028111F8CF11C08091E8008B770BC08C
:1027100080914B02882349F08091E80080FFF8CF38
:102720008091E8008E778093E8000895982F973085
:1027300068F59093E900981739F07091EC002091BA
:10274000ED005091F00003C0242F762F50E021FDC2
:1027500002C09F5FECCF3091EB003E7F3093EB00E7
:102760003091ED003D7F3093ED003091EB00316012
:102770003093EB007093EC002093ED005093F00049
:102780002091EE0027FDE5CF80E008958F708093C3
:10279000E90081E0089520915302309154022617F8
:1027A000370748F06115710539F42091E8002E775C
:1027B0002093E80001C0B901FC0120E0611571051A
:1027C00079F180914B028823F1F18530F1F180910C
:1027D000E80083FD3CC08091E80082FD2EC080911E
:1027E000E80080FFEBCF2091F3008091F20090E0B1
:1027F000922B6115710551F08830910538F42191C3
:102800002093F100615071090196F3CF21E0089700
:1028100009F020E08091E8008E778093E800CECF29
:102820002111CFCF0AC080914B02882361F08530FF
:1028300061F08091E80083FD0AC08091E80082FF8A
:10284000F2CF80E0089582E0089583E0089581E06A
:10285000089587E797E790930108809300089AE02E
:1028600088E10FB6F894A895809360000FBE90930E
:102870006000FFCF78941F920F920FB60F92112431
:102880008F939F93AF93BF938091370290913802BB
:10289000A0913902B0913A020196A11DB11D809319
:1028A000370290933802A0933902B0933A02BF9155
:1028B000AF919F918F910F900FBE0F901F90189521
:1028C0002FB7F8948091370290913802A091390285
:1028D000B0913A022FBF08951F920F920FB60F9238
:1028E00011248F939F93AF93BF93809136028111F0
:1028F00013C08091370290913802A0913902B091B3
:102900003A024196A11DB11D80933702909338027F
:10291000A0933902B0933A02BF91AF919F918F91EA
:102920000F900FBE0F901F9018959C012A5F3F4F8C
:10293000FC014281461301C012820196821793075F
:10294000B9F708959C01FC0132969FEF80E0419118
:10295000461789F09F3F19F4411101C0982F8F5FEE
:102960008630A9F79F3F39F0F901E90FF11D97FD76
:10297000FA956283089508952091340230913502CA
:102980002817390771F09093350280933402E09153
:102990003202F0913302309721F00084F185E02D6E
:1029A0000994089520913002309131022817390797
:1029B00071F09093310280933002E0913202F091F5
:1029C0003302309721F00680F781E02D09940895B5
:1029D000E0913202F0913302309721F00190F081C2
:1029E000E02D099480E008950F931F93CF93DF9318
:1029F000C42F122FFC0182818823C9F040932F023B
:102A00000E94601490932E0280932D0280E28C0F1E
:102A1000883008F063C0C77081E001C0880FCA9594
:102A2000EAF7DF91CF911F910F910C94C120809113
:102A30002F0248133CC020912D0230912E024FB737
:102A4000F8948091370290913802A0913902B091A8
:102A50003A024FBF821B930B883C910540F5D0E2B0
:102A6000D10FC117B9F080E28C0F883040F4C770E5
:102A700081E001C0880FCA95EAF70E94BA20D830D9
:102A800030F581E0912F977001C0880F9A95EAF791
:102A90000E94C120802F0E94D521D830F8F4212F28
:102AA000277081E001C0880F2A95EAF70AC080E20A
:102AB0008C0F883098F4C77081E001C0880FCA95E8
:102AC000EAF7DF91CF911F910F910C94BA20802FDC
:102AD000DF91CF911F910F910C94D521DF91CF9170
:102AE0001F910F9108959091280290FF04C0969530
:102AF000981740F003C0811105C090E0961710F4BC
:102B00000C945F1F61E00C94141F882311F0FA01EC
:102B100001C0FB010994EF92FF920F931F93CF9393
:102B2000DF937C018B010E944413811119C0E701DE
:102B300001151105A1F08091E80085FD0AC0809182
:102B4000E8008E778093E8000E944413882381F385
:102B500007C089918093F10001501109E9CF80E00D
:102B6000DF91CF911F910F91FF90EF9008951F93E8
:102B7000CF93DF93CDB7DEB7AA970FB6F894DEBF39
:102B80000FBECDBFEDE4F2E085E592E02091F100CB
:102B900021938E179F07D1F780914E02833009F45D
:102BA00061C030F4813071F0823009F49BC0B2C052
:102BB0008A3009F487C08B3009F46CC0893009F081
:102BC000A9C020C080914D02813A09F0A3C0809134
:102BD000E800877F8093E800809151029091520233
:102BE000892B21F468E081E492E003C060E080E09A
:102BF00090E070E00E94CB138091E8008B77809387
:102C0000E80088C080914D02813209F083C0809134
:102C1000510290915202029708F07CC08091E80026
:102C2000877F8093E8008091E80082FD05C0809155
:102C30004B028111F8CF6EC02091F3008091F20019
:102C400090E0922B029731F48091F100813011F0E5
:102C5000863021F48091F100809340028091E80059
:102C60008B7754C080914D02813A09F053C0809116
:102C7000510290915202892B09F04CC08091E800DA
:102C8000877F8093E8008091E80080FFFCCF8091EF
:102C9000070137C080914D028132E1F580915102E8
:102CA00090915202892BB1F58091E800877F809343
:102CB000E8000E94771380914F02809307010E94E1
:102CC000AF2028C080914D02813221F58091E8002B
:102CD000877F8093E8000E94771380915002809351
:102CE0003F0218C080914D02813AA1F48091E80022
:102CF000877F8093E8008091E80080FFFCCF80917F
:102D00003F028093F1008091E8008E778093E80085
:102D10000E9477138091E80083FFCEC180914D021D
:102D200090914E02492F50E04A30510508F0C4C13D
:102D3000FA01EE59FF4F0C941923803821F08238A4
:102D400009F0BAC108C08091490290914A029923C2
:102D500089F082600FC0809151028F70873008F037
:102D6000ABC18093E9008091EB0085FB882780F957
:102D70001092E9009091E800977F9093E80080938B
:102D8000F1001092F10065C1282F2D7F09F094C148
:102D9000882319F0823061F08FC180914F02813019
:102DA00009F08AC1933009F080E080934A022EC076
:102DB00080914F0281112AC0809151028F702FEFB4
:102DC000280F263008F078C18093E9002091EB00AD
:102DD00020FF1CC0933021F48091EB00806214C06E
:102DE0009091EB0090619093EB0021E030E0A9011D
:102DF00002C0440F551F8A95E2F74093EA001092F3
:102E0000EA008091EB0088608093EB001092E9006B
:102E10008091E800877F20C181114EC110914F023F
:102E20001F778091E3008078812B8093E30080916D
:102E3000E800877F8093E8000E9477138091E80084
:102E400080FFFCCF8091E30080688093E300111144
:102E500002C082E001C083E080934B022DC1805804
:102E6000823008F029C180914F02909150028C3D30
:102E700053E0950779F583E08A838AE289834FB727
:102E8000F894DE01139620E03EE051E2E32FF0E0FB
:102E900050935700E49120FF03C0E295EF703F5F2D
:102EA000EF708E2F90E0EA3010F0C79601C0C09608
:102EB0008D939D932F5F243149F74FBF8091E80098
:102EC000877F8093E8006AE270E0CE0101960E945D
:102ED000CB13AEC04091510250915202292F33279B
:102EE00023303105A9F068F42130310509F4F3C02D
:102EF0002230310509F0E0C08BE390E0E1E9F3E036
:102F000044C02132310521F12232310571F1D4C0A2
:102F1000992781309105A1F058F0029709F0CCC0B3
:102F2000EEEDF3E0E4918E2F90E0EEEDF3E02AC0B9
:102F3000E4E0F4E0E4918E2F90E0E4E0F4E022C0DD
:102F4000EAEEF3E0E4918E2F90E0EAEEF3E01AC0AF
:102F50004115510509F4C4C04130510509F0ACC018
:102F600089E090E0ECEBF3E010C04115510509F465
:102F7000BCC04130510509F09FC082E390E0EFE111
:102F8000F3E003C0009709F497C02091E800277F81
:102F90002093E80020915302309154028217930746
:102FA00008F49C0140E02115310589F180914B0224
:102FB000882309F43DC08530D9F18091E80083FD74
:102FC00037C08091E80082FD2FC08091E80080FF2B
:102FD000EACF4091F3008091F20090E0942B21150C
:102FE000310559F08830910540F444914093F10047
:102FF0003196215031090196F2CF41E0089709F04E
:1030000040E08091E8008E778093E800CCCF4111BA
:10301000CDCF0AC080914B02882351F0853041F01A
:103020008091E80083FD04C08091E80082FFF2CF28
:103030008091E8008B778093E8003EC08038E1F50E
:103040008091E800877F8093E80080914C02809314
:10305000F1008091E8008E778093E8000E9477135A
:103060002BC0811129C080914F0290915002992765
:10307000029714F58091E800877F8093E800109113
:103080004F0210934C020E947713111106C08091D9
:10309000E30087FD02C081E001C084E080934B0221
:1030A00042E061EC81E00E94961342E261EC82E032
:1030B0000E94961380914B028091E80083FF1AC012
:1030C0008091E800877F8093E8008091EB00806228
:1030D0008093EB000FC082E190E0ECECF3E055CF81
:1030E00089E090E0E3EAF3E050CF80E490E0E1E5AE
:1030F000F3E04BCFAA960FB6F894DEBF0FBECDBF5C
:10310000DF91CF911F9108951F920F920FB60F92EA
:1031100011242F933F934F935F936F937F938F93DC
:103120009F93AF93BF93CF93DF93EF93FF93C091A0
:10313000E900CF708091EC00D82FD17080FDD0E8ED
:103140001092E9008091F000877F8093F0007894DE
:103150000E94B7151092E9008091F000886080937A
:10316000F000CD2BCF70C093E900FF91EF91DF917C
:10317000CF91BF91AF919F918F917F916F915F910F
:103180004F913F912F910F900FBE0F901F90189568
:10319000E8EDF0E080818E7F80831092E200109253
:1031A000DA001092E100A0EEB0E08C9181608C9387
:1031B00080818F77808319BCA7EDB0E08C918E7FE2
:1031C0008C9380818F7E808310923E020895CF92EF
:1031D000DF92EF92FF920F931F93CF93DF93C8ED8F
:1031E000D0E088818F7E8883E7EDF0E08081816088
:1031F000808384E082BF81E080933E0288818E7F5D
:10320000888302EE10E0F80110821092DA0081EE5D
:10321000C82ED12CF601108288818F77888388810F
:103220008068888388818F7D888319BC10924B02C7
:1032300010924C0210924A021092490290EEE92E2E
:10324000F12CF70180818B7F808388818160888366
:1032500042E060E080E00E949613F60180818E7F5C
:103260008083F80180818160808380818860808391
:10327000F70180818E7F8083888180618883DF91E0
:10328000CF911F910F91FF90EF90DF90CF90089515
:103290001F920F920FB60F9211242F933F934F93CB
:1032A0005F936F937F938F939F93AF93BF93EF93AE
:1032B000FF938091E10082FF09C08091E20082FFCC
:1032C00005C08091E1008B7F8093E1008091DA005E
:1032D00080FF2AC08091D80080FF26C08091DA004C
:1032E0008E7F8093DA008091D90080FF18C080E142
:1032F00089BD82E189BD09B400FEFDCF81E08093E4
:103300004B0280913E0281110FC00E94C8180E949A
:10331000E7188091E20084608093E20005C019BC48
:1033200010924B0210923E028091E10080FF17C084
:103330008091E20080FF13C08091E2008E7F809335
:10334000E2008091E20080618093E2008091D800E9
:1033500080628093D80019BC85E080934B028091F5
:10336000E10084FF30C08091E20084FF2CC080E146
:1033700089BD82E189BD09B400FEFDCF8091D800EE
:103380008F7D8093D8008091E1008F7E8093E10053
:103390008091E2008F7E8093E2008091E200816064
:1033A0008093E20080914C02882311F084E007C0F2
:1033B0008091E30087FD02C081E001C083E080933B
:1033C0004B0280914B028091E10083FF27C08091E6
:1033D000E20083FF23C08091E100877F8093E100BA
:1033E00082E080934B0210924C028091E1008E7F2C
:1033F0008093E1008091E2008E7F8093E2008091D3
:10340000E20080618093E20042E060E080E00E94A0
:1034100096138091F00088608093F000FF91EF9107
:10342000BF91AF919F918F917F916F915F914F91DC
:103430003F912F910F900FBE0F901F901895CF9333
:10344000DF93CDB7DEB72A970FB6F894DEBF0FBE75
:10345000CDBF84B7877F84BF0FB6F894A8958091BD
:103460006000886180936000109260000FBE90E061
:1034700080E80FB6F89480936100909361000FBECE
:1034800085B7806885BF85B7806885BF80E79AE08B
:1034900090939701809396010E94C8180E94E718A4
:1034A0008091E20084608093E200789480914B02E6
:1034B0008823A1F01091E9001F709091EC00892FF2
:1034C000817090FD80E8182B1092E9008091E8004F
:1034D00083FD0E94B7151F701093E90082E084BD40
:1034E00093E095BD9AEF97BD80936E0000E511E0E3
:1034F00096E5C92E91E0D92ED8018D918D018F3F8F
:1035000011F00E94B50AC016D106B1F706E511E028
:103510008BE5C82E81E0D82EF80181918F018F3F75
:1035200011F00E94B50AC016D106B1F786E0E2E6B6
:10353000F2E0DF01282F1D922A95E9F7EBE5F2E092
:10354000DF011D928A95E9F780E090E00E94482211
:10355000893E9E4F11F00E94290D82E090E00E946A
:103560003A2280936C020E94180D90935A02809325
:1035700059020E94CC0AEFE3FCE93197F1F700C051
:1035800000000E94CC0A8091620280FF08C06FEFA9
:103590007FEF80E090E00E946C220E94291483E07B
:1035A00090E00E943A22682F70E080E090E00E9454
:1035B000792080916102811136C080E090E00E9404
:1035C0004822893E9E4F21F00E94290D0E947C1DB9
:1035D00088E090E00E9442226093280270932902C2
:1035E00080932A0290932B026E7F71F40E947C1DBF
:1035F00088E090E00E9442226093280270932902A2
:1036000080932A0290932B020E94351D10927A0219
:103610008091280280FF04C060E086950E94141FFC
:1036200081E08093610284988C9A85988D9A8FB1FD
:10363000829581707D9902C090E001C092E0892B53
:1036400080936A0288E091E0909333028093320283
:10365000A8E1CA2ED12CB0E46B2E18E6A12E12E000
:10366000B12E00E1702E80914B02853009F03EC0F2
:1036700012E180914B02853009F034C080914B02F9
:10368000843009F1109236020FB6F894A895C092D2
:1036900060000FBE6092600083B7817F846083BF4B
:1036A00083B7816083BF7894889583B78E7F83BF0B
:1036B0000FB6F894A89580916000886180936000AF
:1036C000109260000FBE80914A02882391F20E94FE
:1036D000CC0AE2E6F2E0819181116AC1AE16BF0622
:1036E000D1F7C7CF0E94AF200E94E8140E94CC0AF5
:1036F000882359F08FB7F8944091370250913802DF
:103700006091390270913A028FBFA2E6B2E0EDE615
:10371000F2E000E010E0302F2D919191922721F1FD
:1037200080E099249394492F4921D1F089833A83E9
:10373000292181E009F480E08B830E94601481607C
:10374000782F9D838C8349815A816B818D810E9462
:10375000DA02F801E359FD4F80819826908219C062
:103760008F5F990C8530F9F60F5F1F4F06301105FA
:1037700091F68FEF8E838F8318860E94601481608C
:10378000782F9A8789874E815F8168858A850E9414
:10379000DA0280917A02882309F4A5C08091790227
:1037A000E0912802E695E81BE0937502823059F417
:1037B000F0E0E75EFB4FE4910E2F10E0F0E38F2E78
:1037C000F3E19F2E6BC0863059F4F0E0EA5EFB4FC8
:1037D000E4910E2F10E0E0E28E2EE3E19E2E5EC01B
:1037E000893061F4E695F0E0ED5EFB4FE4910E2F39
:1037F00010E076EB872E72E1972E50C08F3061F487
:10380000E695F0E0E05FFB4FE4910E2F10E062E5FB
:10381000862E62E1962E42C0853159F4F0E0E35FD6
:10382000FB4FE4910E2F10E054E0852E52E1952ECF
:1038300035C08831F9F0833249F4EBE0F4E00591CA
:10384000149140EE842E42E1942E28C08432C9F0B7
:103850008532F1F48E2F63E00E94E522E92FF0E03B
:10386000E85FFB4FE4910E2F10E030EA832E30E149
:10387000932E14C008E210E02BE7822E21E1922E55
:103880000DC004EF11E091E4892E91E1992E06C05C
:1038900000ED17E08CE3882E80E1982E809176026F
:1038A000882361F0109276020E9460149093740253
:1038B0008093730210927802109277020E94601433
:1038C000E0917302F09174028E1B9F0B8F3F9F4714
:1038D00050F40E0F1F1F109374020093730283E7BE
:1038E00092E0F401099580916A02E82FEE0FEE0F45
:1038F000E0936A028FB184FBEE24E0F8F12C7D990D
:1039000003C080E090E002C082E090E08E299F2911
:103910008E2B80936A028F70E82FF0E0E55AFE4FFD
:10392000908180916902890F80936902843064F0EC
:10393000809168028F5F809368026AE070E08AEA93
:103940000E94BE2121E001C020E0809169028D3FEC
:103950005CF4809168028150809368026AE070E0B4
:1039600089EA0E94BE2121E080916902082E000CA4
:10397000990B64E070E00E94052380936902222382
:1039800059F08FB7F8944091370250913802609106
:10399000390270913A028FBF0E94E81490916B0235
:1039A000891709F460CE0E94E81480936B025BCE05
:1039B00079BC19BD09B400FEFDCF8091D8008F7D80
:1039C0008093D8008091E00082608093E000809135
:1039D000E00081FDFCCF0E94AF204BCE80912802F9
:1039E00080FF0AC0549A8BB18F7E9BB190612FB734
:1039F000F894E8EEF1E00BC0E8EEF1E011821082FD
:103A00001282339632E0E030F307C1F7EBCF32E0B9
:103A1000E030F30789F0319148E09BB9000000C025
:103A200037FF8BB9330F000000C000C000C08BB956
:103A300000C04A9591F7EBCF2FBF8FE594E0019737
:103A4000F1F700C0000008959091280290FF0CC08B
:103A5000E8EEF1E0818360834283339692E0E030C8
:103A6000F907C1F70C94EE1C089580912802282FC5
:103A7000269530E02115310519F48170826005C06A
:103A80002B32310524F081708465809328020895DB
:103A9000CF92DF92EF92FF926B017C010E94351D65
:103AA000B701A60188E090E0FF90EF90DF90CF9003
:103AB0000C94602280912C02882319F0815080930D
:103AC0002C02609128027091290280912A02909123
:103AD0002B020C94481D80912C02833018F48F5FC8
:103AE00080932C02609128027091290280912A0211
:103AF00090912B020C94481DE8E2F2E083E0808371
:103B000011828FEF8283838314826081718182812D
:103B100093810C94481DAF92BF92CF92DF92EF92A7
:103B2000FF920F931F93CF93DF93E82EF62EE901B8
:103B3000E42FF0E0611106C0E35EFB4FE4914E2FED
:103B40002E2F71C0062F10E0E35EFB4F4491F42F3F
:103B5000C42ED12C26E0829FC00111242FEF30E02B
:103B6000B9010E94F1225BEA5603C001579F900DF4
:103B700011248E0D911D8E0D911D582F550F580F2C
:103B8000D901A01BB10BAC9DC001AD9D900DBC9D9A
:103B9000900D1124E92FF59ED0011124AB2FBB27E6
:103BA0007901EA1AFB0AEC9CD001ED9CB00DFC9C5B
:103BB000B00D11245901A51AB108A09E7001A19E53
:103BC000F00CB09EF00C1124EF2CFF242E193F09AD
:103BD0002C9D80012D9D100D3C9D100D1124212F39
:103BE0006230710591F048F461157105E1F06130C2
:103BF0007105B9F4242F4B2F16C06430710569F09C
:103C000040F06630710579F00CC0242F492FE12F68
:103C10000AC0492FEF2F2B2F06C0292FE42F412F49
:103C200002C0292FEB2F49832883EA83DF91CF91AC
:103C30001F910F91FF90EF90DF90CF90BF90AF90CA
:103C40000895CF93DF9300D01F92CDB7DEB7909148
:103C5000280290FF0AC09E012F5F3F4F0E948B1DDC
:103C60004B8169818A810E94241D0F900F900F90D3
:103C7000DF91CF9108957F928F929F92AF92BF92E2
:103C8000CF92DF92EF92FF920F931F93CF93DF9328
:103C900000D01F92CDB7DEB7182FD62E042FC22E1C
:103CA0009091280290FF6DC0E92FE695AE2FB0E00D
:103CB000A559BE4F8C91809379029E7F923061F41A
:103CC0009E012F5F3F4F812F0E948B1D4B81698189
:103CD0008A810E94241D43C0823019F400912B0276
:103CE0003EC0863019F41091290239C08930D9F3C9
:103CF0008931A9F5E9512E2F2170722EE695F0E059
:103D0000E35EFA4F8590949038EEA32E31E0B32E07
:103D1000E12CF12C99248E9CC0018F9C900D9E9CCF
:103D2000900D112423E0969587952A95E1F771105F
:103D300002C0810F03C0212F281B822F9501402F25
:103D40006D2D0E948B1D8FEFE81AF80A23E0A20E5A
:103D5000B11C88E0E816F104F1F60E94EE1C109305
:103D60002902D0922A0200932B02CC2051F06091BC
:103D700028027091290280912A0290912B020E94C0
:103D8000481D0F900F900F90DF91CF911F910F91D1
:103D9000FF90EF90DF90CF90BF90AF909F908F906B
:103DA0007F900895E8E2F2E0438121E1421B08F4AC
:103DB00040E021E0628181810C943B1EE8E2F2E068
:103DC000438121E1420F08F44FEF21E062818181BC
:103DD0000C943B1EE8E2F2E0628121E1621B08F4F0
:103DE00060E021E0438181810C943B1EE8E2F2E037
:103DF000628121E1620F08F46FEF21E0438181814C
:103E00000C943B1EE8E2F2E0818121E04381628173
:103E100088500C943B1EE8E2F2E0818121E043816E
:103E20006281885F0C943B1E9091280290FF3DC0F8
:103E30009170811102C0926006C08B3210F09465BF
:103E400002C0880F982B90932802662351F060914E
:103E500028027091290280912A0290912B020E94DF
:103E6000481D60912802669570E04BE050E084E1C7
:103E700091E00E942E23892B19F010927A0209C03A
:103E800081E080937A020E94601490937402809380
:103E9000730281E08093760220E040912B026091D2
:103EA0002A02809129020C943B1E089580912802D9
:103EB0008695815009F48AE261E00C94141F809188
:103EC000280286958F5F8B3208F081E061E00C94C8
:103ED000141F80E090E00E94D21480E090E00E94E5
:103EE000BC141092DB011092DA010C94A10D8F9298
:103EF0009F92AF92BF92DF92EF92FF920F931F9328
:103F0000CF93DF938090550290905602A090570275
:103F1000B09058024091DE015091DF016091E001C4
:103F20007091E101842A952AA62AB72ACFE1D0E030
:103F300025E0929F700111249EE1D92E082F10E0F8
:103F4000D501C4010C2E04C0B695A7959795879509
:103F50000A94D2F780FD04C0219790F780E014C046
:103F6000DC9EF001DD9EF00D1124EE0DFF1DE00F33
:103F7000F11FEE0FFF1FE955FE4F859194910E94AE
:103F80008F0B019749F38C2FDF91CF911F910F91E8
:103F9000FF90EF90DF90BF90AF909F908F9008952B
:103FA00024E0929F900D1124890F682F66956695E5
:103FB0006695982F977085E0689FB001112440E0C6
:103FC00050E080E0FB01E40FF51FE558FD4F208134
:103FD00030E0092E02C0369527950A94E2F7217049
:103FE0003327042E01C0220F0A94EAF7822B4F5F79
:103FF0005F4F4530510531F7089524E0929F900DB1
:104000001124890FE82FE695E695E695877051E033
:1040100001C0550F8A95EAF785E0E89FF001112469
:10402000E558FD4F20E030E070E04081CB01022EEA
:1040300002C0969587950A94E2F78170819584274E
:104040008523842781932F5F3F4F2530310569F702
:10405000089560935502709356028093570290938F
:1040600058020C94691F0F931F9341E050E060E0E9
:1040700070E004C0440F551F661F771F8A95D2F762
:10408000409550956095709580915502909156029B
:10409000A0915702B09158028A019B01082319236D
:1040A0002A233B23C901B8011F910F910C942920A9
:1040B0000F931F9341E050E060E070E004C0440FB4
:1040C000551F661F771F8A95D2F7809155029091F0
:1040D0005602A0915702B09158028A019B01082B09
:1040E000192B2A2B3B2BC901B8011F910F910C945E
:1040F00029206093DE017093DF018093E0019093AB
:10410000E1010C94691FFC01808191810E947E0E67
:10411000292F2F70E92FE295EF704E2F50E0FA0112
:104120003297EE30F105B8F4E459FF4F0C9419239F
:10413000803F99F018F4883E70F40FC0843F59F422
:104140000CC0883E50F0813F31F407C0822F869525
:1041500086958695089580E0089581E008951092EF
:10416000DC0186E0EBE9F1E0DF011D928A95E9F7D9
:104170000C94691F882321F00E949A0D0C94A10DC4
:104180000895882339F09091DC01892B8093DC011C
:104190000C94A10D0895882309F453C0682F823828
:1041A00069F40E94E81481FF4CC069E389E991E059
:1041B0000E94A2140E94A10D69E30EC0833891F4FD
:1041C0000E94E81480FF3DC063E589E991E00E9408
:1041D000A2140E94A10D63E589E991E00E94951463
:1041E0000C94A10D843869F40E94E81482FF29C060
:1041F00067E489E991E00E94A2140E94A10D67E49E
:10420000EBCF8CEF860F813A38F380E2860F88304F
:1042100048F4677081E001C0880F6A95EAF70E9450
:104220009A0DDECF8BE5860F833020F480E090E09E
:104230000C94D214685A673120F480E090E00C941A
:10424000BC140895CF93882309F496C0C82F8238F0
:10425000B1F40E94E81481FD8FC069E389E991E01F
:104260000E94A2140E94A10D2FEF81EE94E0215034
:1042700080409040E1F700C0000069E317C0833838
:10428000E1F40E94E81480FD77C063E589E991E0DC
:104290000E94A2140E94A10D2FEF81EE94E0215004
:1042A00080409040E1F700C0000063E589E991E0BB
:1042B0000E949514CF910C94A10D8438B1F40E9402
:1042C000E81482FD59C067E489E991E00E94A214D4
:1042D0000E94A10D2FEF81EE94E02150804090408C
:1042E000E1F700C0000067E4E1CF8CEF8C0F813A6A
:1042F00080F4EBE9F1E081EA91E02191C217A1F1AC
:104300008E179F07D1F76C2F89E991E00E94A214C4
:10431000D1CF80E28C0F883068F4C77081E090E0E4
:1043200001C0880FCA95EAF79091DC01892B809330
:10433000DC01C0CFEBE5EC0FE33040F4F0E0E15EF0
:10434000FE4F808190E0CF910C94D214C85AC731AF
:1043500098F4EC2FF0E0EE0FFF1FEE5DFE4F808132
:104360009181CF910C94BC146C2F89E991E00E944B
:1043700095140E94A10DC7CFCF9108951F93CF939D
:10438000DF93182FEB010E942221209741F08FE943
:104390009FE00197F1F700C000002197F6CF812F31
:1043A000DF91CF911F910C94CB20893319F060E0FD
:1043B00070E002C060E570E00C94BE218F929F9285
:1043C000AF92BF92CF92DF92EF92FF92CF93DF93A3
:1043D000EC01688179818A819B8161157105810574
:1043E000910521F464E279ED8BE597E02DE133EF5F
:1043F00041E050E00E94822249015A019B01AC0138
:10440000A7EAB1E40E94A1226B017C01ACEEB4EFFB
:10441000A50194010E94AF22DC01CB018C0D9D1DF2
:10442000AE1DBF1DB7FF03C00197A109B048888327
:104430009983AA83BB839F77DF91CF91FF90EF9001
:10444000DF90CF90BF90AF909F908F9008950E9483
:10445000DE21089580E091E00E94DE210895A0E031
:10446000B0E08093000190930101A0930201B0930A
:1044700003010895F999FECF92BD81BDF89A99275D
:1044800080B50895A6E1B0E044E050E00C947422B9
:10449000A8E1B0E042E050E00C947422262FF99994
:1044A000FECF92BD81BDF89A019700B4021639F093
:1044B0001FBA20BD0FB6F894FA9AF99A0FBE089564
:1044C0000396272F0E944F220E944E22252F0E94E2
:1044D0004F22242F0C944F220196272F0E944F2207
:1044E0000C944E22DC01CB01FC01F999FECF06C0F1
:1044F000F2BDE1BDF89A319600B40D9241505040A2
:10450000B8F70895052E97FB1EF400940E94992297
:1045100057FD07D00E94B42207FC03D04EF40C9440
:10452000992250954095309521953F4F4F4F5F4FC1
:10453000089590958095709561957F4F8F4F9F4F0F
:1045400008950E94D622A59F900DB49F900DA49F20
:10455000800D911D11240895B7FF0C94A1220E9493
:10456000A122821B930B0895A1E21A2EAA1BBB1B4A
:10457000FD010DC0AA1FBB1FEE1FFF1FA217B3072F
:10458000E407F50720F0A21BB30BE40BF50B661F45
:10459000771F881F991F1A9469F760957095809509
:1045A00090959B01AC01BD01CF010895A29FB00180
:1045B000B39FC001A39F700D811D1124911DB29F57
:1045C000700D811D1124911D0895991B79E004C07F
:1045D000991F961708F0961B881F7A95C9F7809542
:1045E0000895AA1BBB1B51E107C0AA1FBB1FA6173A
:1045F000B70710F0A61BB70B881F991F5A95A9F78C
:1046000080959095BC01CD01089597FB072E16F477
:10461000009407D077FD09D00E94F12207FC05D055
:104620003EF4909581959F4F0895709561957F4FC9
:104630000895EE0FFF1F0590F491E02D09940E945C
:10464000D622332312F48A1B9B0B0C9429230E943D
:10465000D622B7FF0895821B930B0895FC014150A9
:10466000504030F001900616D1F73197CF010895F0
:10467000882799270895FB01DC0104C08D910190E2
:10468000801921F441505040C8F7881B990B0895B8
:04469000F894FFCFCC
:1046940001000000010201013E1074103D10701071
:1046A4006C103B1001191A1B1C1D1E1F2021228196
:1046B4008283E200E900EA00B500B600B700CD004D
:1046C4008301CC008A019201940121022302240275
:1046D4002502260227022A02B300B4006F007000EC
:1046E40034C6973566F6F73133323600FF010001E0
:1046F4000000FFFF0000010001FF000001020202B0
:10470400020606060909090909090F0F0F0F0F0F01
:1047140015151518191919191919191919192324FD
:06472400252525252525B1
:00000001FF
