:100000000C9469030C94B0030C94B0030C94B003EB
:100010000C94B0030C94B0030C94B0030C94B00394
:100020000C94B0030C94B0030C948F2E0C94612F9D
:100030000C94F6290C94B0030C94B0030C94B00308
:100040000C94B0030C94B0030C94B0030C94B00364
:100050000C9429240C944F2A0C94B0030C94B003F4
:100060000C94B0030C94B0030C94B0030C94B00344
:100070000C94B0030C94B0030C94B0030C94B00334
:100080000C94B0030C94B0030C94B0030C94B00324
:100090000C94B0030C94B0030C94B0030C94B00314
:1000A0000C94B0030C94B0030C94B003FF09FF0947
:1000B0002B0A2B0AB90B930AB90BB90BAC0A450BE7
:1000C000560B560B630C630C750C750C6C0C750C95
:1000D000750C750C630C630C710C750C750C710C44
:1000E00038233A233F234223452348234B23CE2F53
:1000F000F52FED30F52FED3041306430ED30BB3071
:10010000CA30290014001A000800150017003941F0
:1001100004001600070009000A00E1001D001B0092
:100120000600190005001C0018000C001200130046
:100130002A000B000D000E000F00330028001100F4
:100140001000360037003800E500E3612C000000A5
:100150000151025100002B001E001F002000210051
:100160002200010001000000F100F2000100E100A6
:100170000100010001002D002E00230024002500B5
:10018000260027004C005000510052004F00010093
:1001900031002F003000340001000100E500E300D1
:1001A000010001000100E05C0000350001000100D9
:1001B000068001000100010080C0078001000100ED
:1001C0000100E1003A003B003C003D003E00010020
:1001D00082C1010084C20100010001000100010090
:1001E0000100010001003F004000410042004300C7
:1001F000E500440045000100035101000000CA5C15
:10020000C85CC65CC45C0000C35CCB5CC95CC75CFA
:10021000C55C0000000000000000000000000000BD
:1002200000000000000000000000000000000000CE
:1002300000000000000000000000005C0000000062
:1002400000000000000001000100000001000100AA
:100250000000E4000000C4000000FC000000DC001E
:100260000000F6000000D6000000AC200000DF0017
:10027000000000000000000000002A2B2800000001
:100280000000000000000000000000000029000045
:1002900000002C1E3420212224342627252E362D22
:1002A0003738271E1F202122232425263333362EBC
:1002B00037381F0405060708090A0B0C0D0E0F102E
:1002C0001112131415161718191A1B1C1D2F313073
:1002D000232D350405060708090A0B0C0D0E0F1017
:1002E0001112131415161718191A1B1C1D2F313053
:1002F000354C00000000000000000000000000007D
:1003000000000000000000000000000000000000ED
:100310000000000000007E0F00D4FFFFFFC70000B8
:10032000007800047F3F1F643214643214783C1E4E
:100330001E140A052223252628292A2C2D2F303287
:10034000333536383A3B3D3E4042434547494A4CB7
:100350004E5051535557595A5C5E606264666869E5
:100360006B6D6F71737577797B7D7F8183858789ED
:100370008A8C8E90929496989A9C9E9FA1A3A5A7F2
:10038000A8AAACAEAFB1B3B4B6B8B9BBBCBEBFC11E
:10039000C2C3C5C6C7C9CACBCCCDCED0D1D2D2D3A9
:1003A000D4D5D6D7D7D8D9D9DADADBDBDBDCDCDCBD
:1003B000DCDCDDDDDDDDDCDCDCDCDCDBDBDBDADA80
:1003C000D9D9D8D7D7D6D5D4D3D2D2D1D0CECDCCF7
:1003D000CBCAC9C7C6C5C3C2C1BFBEBCBBB9B8B60C
:1003E000B4B3B1AFAEACAAA8A7A5A3A19F9E9C9A97
:1003F00098969492908E8C8A89878583817F7D7B65
:1004000079777573716F6D6B6968666462605E5C45
:100410005A5957555351504E4C4A4947454342400B
:100420003E3D3B3A3836353332302F2D2C2A2928A1
:1004300026252322FFAA7F5540000000000000006F
:100440000000000001010203040506080A0C0F1158
:1004500014181C2024292E33393F464C535B626A02
:100460007179818A929AA2AAB2B9C1C8CFD5DCE1CA
:10047000E7EBF0F4F7FAFCFDFEFFFEFDFCFAF7F403
:10048000F0EBE7E1DCD5CFC8C1B9B2AAA29A928A53
:100490008179716A625B534C463F39332E2924209F
:1004A0001C1814110F0C0A080605040302010100B0
:1004B0000000000000000000000001010101010136
:1004C000010101020202020202020202030303030B
:1004D00003030303040404040404040505050505DB
:1004E0000606060606070707070708080808090999
:1004F00009090A0A0A0B0B0B0C0C0C0D0D0D0E0E44
:100500000E0F0F0F101011111112121313141415D6
:100510001516161717181819191A1A1B1B1C1D1D4A
:100520001E1E1F20202122222324242526262728A0
:1005300029292A2B2C2D2D2E2F30313232333435D0
:10054000363738393A3B3C3D3E3F404142434445D3
:10055000464748494A4C4D4E4F50515354555658B2
:10056000595A5B5D5E5F616264656668696B6C6D5C
:100570006F7072737577787A7B7D7E8082838587D2
:10058000888A8C8E8F91939596989A9C9EA0A2A310
:10059000A5A7A9ABADAFB1B3B5B7BABCBEC0C2C415
:1005A000C6C9CBCDCFD1D4D6D8DBDDDFE2E4E7E9D5
:1005B000EBEEF0F3F5F8FAFDFF180365006400694F
:1005C000006E006200750072006700680034003140
:1005D000000000220373006300680077006100726E
:1005E000007A00650072002D0067006500690067F1
:1005F000006500720000000403090409023B0002C8
:100600000100A0FA09040000010301010009211101
:100610000100012240000705810308000A090401C6
:100620000001030000000921110100012249000717
:1006300005820320000A1201000200000008EDFEFE
:10064000000001000102000105010902A10185026B
:100650000901A100050919012908150025019508BE
:10066000750181020501093009311581257F950247
:100670007508810609381581257F95017508810661
:10068000050C0A38021581257F950175088106C081
:10069000C005010906A101050719E029E715002594
:1006A00001950875018102950175088101050719F9
:1006B0000029FF150026FF00950675088100050832
:1006C000190129059505750191029501750391019F
:1006D000C00011241FBECFEFDAE0DEBFCDBF04B6ED
:1006E00003FE27C08091A4029091A502A091A602CA
:1006F000B091A7028730904BA740B04BD1F4109235
:10070000A4021092A5021092A6021092A70214BE93
:1007100084B7877F84BF0FB6F894A8958091600056
:10072000886180936000109260000FBEE0E0F8E303
:10073000099511E0A0E0B1E0ECE2F4E602C005901A
:100740000D92A436B107D9F722E0A4E6B1E001C0CA
:100750001D92A43AB207E1F70E9495170C94143247
:100760000C940000873941F178F4863349F130F474
:10077000843321F1853331F584E208958439D1F051
:10078000863901F581E20895843F71F030F4803FAD
:10079000D9F0813FB9F481E00895863F49F030F007
:1007A000873F81F487E0089584E0089585E0089507
:1007B00086E0089580E2089582E2089583E2089534
:1007C00085E208958FE1089580E0089596E890937A
:1007D0007A00982F9072906890937B008F7190911F
:1007E0000001892B80937C0080917A008064809343
:1007F0007A0080917A0086FDFCCF8091780020916C
:10080000790090917A009F7790937A0090E0922BF4
:1008100008950E94B2030C94E603282F882329F040
:10082000269F212D1124822F0895269F212D1124EA
:10083000822F8195089510924502109244021092E1
:100840004302109242021092270208950E94090466
:10085000811522E092070CF40396925097FD0396BF
:100860009595879595958795089580932702089586
:100870000F931F93CF93DF93182F682F880F770B59
:10088000072F77FF03C0719561957109611102C04F
:1008900080E001C085E0660F0E940D0421E030E099
:1008A000111614F020E030E0C02FCC1FCC27CC1F55
:1008B00090E0D92F2C1B3D0B829F802D1124DF91BE
:1008C000CF911F910F9108950F931F93CF93DF93B3
:1008D000182F682F880F770B072F77FF03C07195AC
:1008E00061957109611102C080E001C082E0660F6C
:1008F0000E940D0421E030E0111614F020E030E0F9
:10090000C02FCC1FCC27CC1F90E0D92F2C1B3D0B28
:10091000829F802D1124DF91CF911F910F91089517
:10092000FF920F931F93CF93DF93DB01EC019B01A9
:1009300077FF04C022273327261B370BF22F8C01A9
:10094000D7FF04C000271127081B190BF02E41E028
:100950000F1708F040E081E0FF1608F480E08F9D5B
:10096000E02D11244F9FE00D11243327201B310966
:1009700037FF03C0319521953109EE2339F0D7FFB8
:1009800005C0283731052CF0682F05C060E070E005
:1009900002C061E070E06170EE2349F01C161D0694
:1009A00034F4283731052CF481E090E002C080E077
:1009B00090E08170EE2341F0B7FF06C02837310583
:1009C0002CF441E050E002C040E050E0942F9170E0
:1009D000EE2349F01A161B0634F471E0283731056E
:1009E0001CF0FF1608F070E07170DF91CF911F913D
:1009F0000F91FF900895CF93DF930E94282A909340
:100A000045028093440285E30E942604C7E2D2E0B7
:100A1000082E000C990B9A83898386E30E94260492
:100A2000082E000C990B9C838B83DF91CF91089546
:100A300080912702813089F018F0823009F1089501
:100A4000809128020E94380480933E0280912A02FD
:100A50000E94380480933F020895609128027091AB
:100A6000290280912A0290912B020E9490046093A7
:100A70002C0270932D0280932E0290932F020895E2
:100A8000809128020E9464048093410280912A028E
:100A90000E946404809340020895641729F0411174
:100AA0000C9421060C943A060895FC0180912702CB
:100AB000813061F020F0823009F441C008958091C6
:100AC0003E02828380913F028383089540912C02ED
:100AD0006091380280913002909131020E944D0560
:100AE00040912E0260913A0280913202909133023D
:100AF0000E944D0540912F0260913B02809134028B
:100B0000909135020E944D0540912D02609139026D
:100B100080913602909137020E944D0580912C02FF
:100B200090912D02A0912E02B0912F028093380255
:100B300090933902A0933A02B0933B0208958091BA
:100B400041028583809140028195848308950C94AD
:100B50001B04CF93DF9300D000D000D0CDB7DEB719
:100B600080914402909145020E94402A0B97D0F058
:100B70000E94A41A29833A834B835C836D837E830E
:100B80000E94FB040E941805CE0101960E945505A3
:100B900049815A816B817C818D819E810E94C51A19
:100BA0000E946A1A26960FB6F894DEBF0FBECDBF1C
:100BB000DF91CF910895CF92DF92EF92FF926B0178
:100BC0007C010E94C107813029F010F0823029F4A5
:100BD00080E001C082E00E943504C701B601FF90A9
:100BE000EF90DF90CF9008959C013A9521153F41F9
:100BF00030F5BC0166277270AC01442754709C012B
:100C00002227387094FF0FC090FF02C080E101C01E
:100C100080E0672B09F08062452B09F08064232B6C
:100C200079F080680895892F8170672B09F08260C0
:100C3000452B09F08460232B19F08860089580E02B
:100C40000895CF93DF93EC01805E9109089710F02F
:100C5000209731F4CE010E94F4050E94B60905C028
:100C6000CE010E94F4050E94310C8C2FDF91CF91B0
:100C70000C949E08CF93DF93EC010E942E09CE01C5
:100C8000805E9109089710F0209739F4CE010E94F8
:100C9000F405DF91CF910C94BD09CE010E94F405BB
:100CA000DF91CF910C94380CCF93DF93EC010E942D
:100CB0002106CE01DF91CF910C943A0681E0089590
:100CC00081E008950C94600608950C9464061F93C7
:100CD000CF93DF9300D000D01F92CDB7DEB749830A
:100CE0005A836B833091660189819A81311114C0D6
:100CF000662359F0222349F00E94090E182F682F0D
:100D000089819A810E94B00D03C00E94DC0D182FCA
:100D100069817A81812F04C00E94090E69817A81DC
:100D20000F900F900F900F900F90DF91CF911F9128
:100D30000C941215FC01262F408151816281738130
:100D400084810C94670681E00895CF93DF93EC01D2
:100D500060E00E949A06BE01DF91CF910C94650677
:100D60000E941B160E9418080E94AF240E9448256A
:100D70000C9455160C94511608950C94BC060C94C2
:100D8000BD060E94BF0680E00E94E12380E00E9431
:100D900019080E94C01F0C94A9050C94BC060E945F
:100DA000510C0E94CD062FEF84E39CE0215080403F
:100DB0009040E1F700C000000C94752A0F931F9338
:100DC000CF93DF938C0161E00E949A06EC01B80199
:100DD0000E946206882309F452C0B801CE010E9425
:100DE0002923882309F44BC0B801CE010E948E2626
:100DF000882309F444C0B801CE010E9498288823B2
:100E0000F1F1B801CE010E94C2268823C1F1B801D8
:100E1000CE010E94F427882391F1B801CE010E94EF
:100E20004321882361F1F8018281882309F1CB35C0
:100E30008DE5D807C1F050F4C115FCE5DF0781F05E
:100E4000CF3DDC45A9F40E94391319C0CC35EDE53E
:100E5000DE0761F0CD35DD4559F40E947C1208C0F3
:100E60000E94CF060CC00E94851202C00E94881208
:100E7000C801DF91CF911F910F910C945E0680E025
:100E8000DF91CF911F910F9108950C94BC060E94A1
:100E90004D220E94F4280E9419080E948C200C9474
:100EA0004507DF92EF92FF920F931F93CF93DF934B
:100EB000E82FF0E0EE58FD4FD490282F2695269588
:100EC000269530E0F901EE5EFC4F0491877010E04A
:100ED000082E02C0159507950A94E2F701701127B4
:100EE000F901EE5FFC4FE490F12C082E02C0F5945E
:100EF000E7940A94E2F791E0E922FF24F901EE5029
:100F0000FD4FC491D0E002C0D595C7958A95E2F710
:100F1000C170DD270115110519F081EE0E949E08B0
:100F2000E114F10419F086EE0E949E088D2D0E94B6
:100F3000AD09EF2819F086EE0E942E09012B19F059
:100F400081EE0E942E09CD2B51F08CE2DF91CF91E2
:100F50001F910F91FF90EF90DF900C94AD09DF91FE
:100F6000CF911F910F91FF90EF90DF900895982FF0
:100F70009F709A50963010F0805D01C0895A0C9491
:100F80005107CF92DF92EF92FF926C01EE24FF2483
:100F9000C114D104E104F10421F0C701B60120E13C
:100FA00001C020E0C72ED82EE92EFF24C114D104A1
:100FB000E104F10419F0285FC701B6016B017C015F
:100FC00054E0F694E794D794C7945A95D1F7C11496
:100FD000D104E104F10419F02C5FC701B6016B01E3
:100FE0007C0142E0F694E794D794C7944A95D1F7F0
:100FF000C114D104E104F10419F02E5FC701B60158
:10100000DC01CB01B695A79597958795892B8A2BFF
:101010008B2B09F02F5F822FFF90EF90DF90CF9006
:10102000089508950C94110881E008950C94140813
:101030000895CF93C82F0E9412088C2F0E94160883
:10104000CF910895CF93DF93CDB7DEB72B970FB62F
:10105000F894DEBF0FBECDBF4F83588769877A876C
:101060008B8761110E94D5119E012F5F3F4F86E053
:10107000F90111928A95E9F785E0FE013796D901C9
:1010800001900D928A95E1F789819A814C815D8169
:10109000452B31F09F3F31F491E08F3F19F403C0AD
:1010A00091E001C090E090FF09C049815A816B81B5
:1010B0007C818D819E810E94F01005C0C9010E9433
:1010C000A3068111F2CF2B960FB6F894DEBF0FBEA8
:1010D000CDBFDF91CF910895FC01808191810E9465
:1010E0004B0E08950F931F93CF93DF9300D000D042
:1010F00000D0CDB7DEB7082F162F0E94A41A29837F
:101100004B835C836D837E83002319F0512F532B17
:1011100003C01095512F532349816B817C818D81B0
:101120009E810E94C51A26960FB6F894DEBF0FBEA8
:10113000CDBFDF91CF911F910F910895CF93882359
:1011400009F48AC0C82F8238C1F40E94F42881FDB6
:1011500083C069E380910301909104010E948A2970
:101160000E94FA112FEF81EE94E0215080409040D0
:10117000E1F700C0000069E319C0833801F50E945F
:10118000F42880FD69C063E580910301909104011A
:101190000E948A290E94FA112FEF81EE94E02150DB
:1011A00080409040E1F700C0000063E580910301BA
:1011B000909104010E948C29CF910C94FA118438EB
:1011C000C1F40E94F42882FD47C067E480910301C6
:1011D000909104010E948A290E94FA112FEF81EE5A
:1011E00094E0215080409040E1F700C0000067E4A7
:1011F000DDCF8CEF8C0F813AD0F46C2F80910301FE
:10120000909104010E945429882349F06C2F809109
:101210000301909104010E948C290E94FA116C2F05
:1012200080910301909104010E948A29C5CF80E238
:101230008C0F883048F4C77081E001C0880FCA95D0
:10124000EAF70E94B211B8CFCD3E30F08C2F0E9449
:101250002418CF910C94F618CF910895882309F49F
:1012600064C0823879F40E94F42881FF5EC069E38B
:1012700080910301909104010E948A290E94FA1131
:1012800069E310C08338B1F40E94F42880FF4DC098
:1012900063E580910301909104010E948A290E94D4
:1012A000FA1163E580910301909104010E948C2959
:1012B0000C94FA11843879F40E94F42882FF35C026
:1012C00067E480910301909104010E948A290E94A1
:1012D000FA1167E4E7CF9CEF980F913A10F4682F6A
:1012E000E1CF90E2980F983050F4877091E001C000
:1012F000990F8A95EAF7892F0E94B811D9CF9BE5FB
:10130000980F933020F480E090E00C941C2998E52D
:10131000980F973120F480E090E00C9432298D3EB4
:1013200020F00E947F180C94F61808951F93CF9315
:10133000DF93182FEB010E949E08209741F08FE960
:101340009FE00197F1F700C000002197F6CF812FB1
:10135000DF91CF911F910C942E09893319F060E031
:1013600070E002C060E570E00C949609882321F0DB
:101370000E94B2110C94FA110895882321F00E9462
:10138000B8110C94FA110895CF92DF92EF92FF9268
:101390000F931F93CF93DF937C01D62FC72FFC01B0
:1013A0001281058102950F700E94A8118823B9F05F
:1013B0001123A9F08C2F807F803421F080E28D0FE3
:1013C000883068F08091470282FD09C082E00E9467
:1013D0004A120E94A81191E0D82ED92601C0D12C22
:1013E000CC2EC2948FE0C8228C2D90E08C309105D9
:1013F00008F0BFC1FC01EA5AFF4F0C947B318C2FDF
:10140000807FCF70882311F0C295C07F112399F09F
:10141000CC2309F49AC180E28D0F883010F0D111ED
:1014200004C08C2F0E94B21103C08C2F0E94C811DF
:101430000E94FA118AC18D2F0E942E09CC2309F433
:1014400098C180E28D0F883038F1DD2329F18C2F8F
:101450000E94CE1124C08C2F807FCF70803211F07B
:10146000C295C07FDD2319F0D130A1F13DC080913C
:10147000470282FF17C0112349F0CC2329F08C2F9B
:101480000E94B2110E94FA1180E060C180E00E94C7
:101490002E09CC2309F46DC18C2F0E94B8110E9433
:1014A000FA1167C1112371F0002341F0013031F4CA
:1014B0000E94DB118C2B0E94E3115BC10E94DB11A7
:1014C0008C2B1DC0002319F0013009F452C10E9479
:1014D000F01125C0112321F0063008F04AC10EC0DA
:1014E000053008F046C11BC0112361F0002331F024
:1014F000F701858180FF29C18F7085838C2F0E9421
:10150000B60937C1002359F0D93309F02FC1FFEFD5
:1015100007EE13E0F15000401040E1F725C18C2F99
:101520000E94BD0926C18D2F112319F00E94241895
:1015300002C00E947F188FE08D0F883050F461E068
:1015400070E001C0660F8A95EAF7812F0E94720849
:1015500018C10E94F61815C18C2F837009F047C07E
:1015600011110BC12D2F229526952770220F220FC6
:101570006D2F6F70862F90E0A0E0B0E0022E04C0C7
:10158000880F991FAA1FBB1F0A94D2F7D4FF10C05F
:101590004FE050E060E070E004C0440F551F661F4C
:1015A000771F2A95D2F7409550956095709503C0A6
:1015B00040E050E0BA01C695C695C3708A019B0110
:1015C000082B192B2A2B3B2BC901B801C23049F03B
:1015D00058F4C13019F00E94C60CCFC00E94B40C60
:1015E000CCC00E94D80CC9C00E94B20CC6C0112346
:1015F00019F08C2F817001C08695882309F4BDC035
:101600002D2F229526952770220F220F6D2F6F7098
:10161000862F90E0A0E0B0E0022E04C0880F991F52
:10162000AA1FBB1F0A94D2F7D4FF10C04FE050E0AE
:1016300060E070E004C0440F551F661F771F2A95B5
:10164000D2F7409550956095709503C040E050E00A
:10165000BA01C695C695C3708A019B01082B192B48
:101660002A2B3B2BC901B801C23049F058F4C130D4
:1016700019F00E948B0D81C00E94790D7EC00E94DE
:101680009D0D7BC00E94EC0C78C0CF70112339F007
:101690008C2F0E94120D8D2F0E94B6096EC08D2FC7
:1016A0000E94BD098C2F0E94330D67C0D23F21F1EB
:1016B00028F4D03F41F0D13FC1F043C0D33F19F1EE
:1016C000D43F79F03EC0112341F0053008F051C0FD
:1016D0008C2F8F710E94580D4CC0063008F049C005
:1016E000F7CF8091470282FF18C0112339F08C2F69
:1016F0008F710E94120D3DC01123C9F38C2F8F7181
:101700000E94330D36C0112329F08C2F8F710E9457
:10171000FD0C2FC00E94F80C2CC0112349F0CF7192
:101720008C2F0E94120D63E08C2F0E942F1221C07B
:1017300081E00E944A120230E0F082E00E944A12E8
:1017400018C0112331F0002391F28D2F0E949E08C2
:1017500010C0002399F2D93349F41FEF27EE33E08C
:10176000115020403040E1F700C000008D2F0E9452
:101770002E0988EF8C0D843020F40E94F4280E94FA
:101780001908DD20C9F00E94A41180FD15C0F701E1
:1017900012820E949E110E94120DC7010E94FD0B31
:1017A0000E949E11DF91CF911F910F91FF90EF90BA
:1017B000DF90CF900C94330DDF91CF911F910F915B
:1017C000FF90EF90DF90CF9008950F931F93CF93EA
:1017D000DF93EC01688179818A810E94560E8C0129
:1017E0000E94AF0D0E94A00CB801CE010E94C40956
:1017F000DF91CF911F910F910895CF93DF93EC016B
:10180000988189812B813C81232B31F08F3F31F4EA
:1018100081E09F3F19F403C081E001C080E080FDBA
:101820001DC0CE010E94DE06811110C00E94A811C9
:101830008823A1F08A81882389F08091470282FD64
:101840000DC082E0DF91CF910C944A12CE010E942C
:10185000E50BCE01DF91CF910C94A506DF91CF91DE
:101860000895882321F00E94C8110C94FA1108955C
:10187000882321F00E94CE110C94FA1108950E9441
:10188000D5110E94D8110E94FA110E94271A0C94B7
:10189000F61880910301909104010E948E290C9406
:1018A0003F0C0E94C2110C94490CE92FE295EF7095
:1018B0004E2F50E0FA013297EE30F105B0F4EE59B8
:1018C000FF4F0C947B31803F91F018F4883E68F410
:1018D0000EC0843F51F40BC0883E48F0813F29F48C
:1018E00006C093FB882780F9089580E0089581E081
:1018F0000895FC01808191810E944B0E0E94550C3D
:101900000895CF93DF9300D000D01F92CDB7DEB7FC
:101910000F900F900F900F900F90DF91CF9108953F
:10192000CF93DF9300D000D000D0CDB7DEB726969E
:101930000FB6F894DEBF0FBECDBFDF91CF910895F3
:10194000089508950C94A10C0C94A20C0E94A40C70
:101950006093890170938A0180938B0190938C012D
:101960000C943F0C0C94A60C0F931F9300918901CB
:1019700010918A0120918B0130918C01602B712B89
:10198000822B932B1F910F910C94A60C0F931F93F6
:101990000091890110918A0120918B0130918C0175
:1019A00060237123822393231F910F910C94A60C23
:1019B0000F931F930091890110918A0120918B014F
:1019C00030918C0160277127822793271F910F91F7
:1019D0000C94A60C0C94DB050E94EA0C6093850124
:1019E0007093860180938701909388010C943F0C3B
:1019F00060E070E0CB010C94EC0C0F931F9341E07E
:101A000050E060E070E08A019B0104C0000F111FEC
:101A1000221F331F8A95D2F7C901B8011F910F9178
:101A20000C94EC0C0F931F9341E050E060E070E0E9
:101A300004C0440F551F661F771F8A95D2F7809107
:101A4000850190918601A0918701B09188018A015A
:101A50009B01082B192B2A2B3B2BC901B8011F9185
:101A60000F910C94EC0C0F931F9341E050E060E059
:101A700070E004C0440F551F661F771F8A95D2F788
:101A80004095509560957095809185019091860163
:101A9000A0918701B09188018A019B010823192335
:101AA0002A233B23C901B8011F910F910C94EC0C20
:101AB0000F931F9341E050E060E070E004C0440FDA
:101AC000551F661F771F8A95D2F7809185019091E7
:101AD0008601A0918701B09188018A019B010827A6
:101AE00019272A273B27C901B8011F910F910C9490
:101AF000EC0C0F931F9300918501109186012091AA
:101B0000870130918801602B712B822B932B1F91C1
:101B10000F910C94EC0C0F931F9300918501109181
:101B200086012091870130918801602371238223EF
:101B300093231F910F910C94EC0C0F931F93009122
:101B400085011091860120918701309188016027DD
:101B50007127822793271F910F910C94EC0C089505
:101B6000292F220F920F990F890FE82FE695E695FE
:101B7000E695877051E001C0550F8A95EAF785E038
:101B8000E89FF0011124E959FE4F20E030E070E0B9
:101B90004081CB01022E02C0969587950A94E2F708
:101BA0008170819584278523842781932F5F3F4F00
:101BB0002530310569F70895292F220F920F990FCB
:101BC000890F682F669566956695982F977085E0C2
:101BD000689FB001112440E050E080E0FB01E40F79
:101BE000F51FE959FE4F208130E0092E02C03695DD
:101BF00027950A94E2F721703327042E01C0220FA3
:101C00000A94EAF7822B4F5F5F4F4530510531F759
:101C10000895BF92CF92DF92EF92FF920F931F939E
:101C2000CF93DF938C01C0908501D0908601E09026
:101C30008701F09088018091890190918A01A0919B
:101C40008B01B0918C01C82AD92AEA2AFB2ACFE15C
:101C5000D0E0D701C6010C2E04C0B695A795979584
:101C600087950A94D2F780FD04C0219790F7B12C94
:101C700007C0BC2EB8018C2F0E9425150197A9F32F
:101C80008B2DDF91CF911F910F91FF90EF90DF90FF
:101C9000CF90BF900895CF93DF93EC010E94090E7F
:101CA000BE010E942515DF91CF9108951F93CF9318
:101CB000DF93EB0190916601992321F0CB010E9403
:101CC0004B0E13C0882349F0CB010E94090E182F38
:101CD000682FCE010E94B00D04C0CB010E94DC0D24
:101CE000182FBE01812F0E942515DF91CF911F91E2
:101CF00008951F93CF93DF93C0918D0116E08091DB
:101D00008E01C81799F0D0E01C9FF0011D9FF00DC7
:101D10001124E157FE4F408151816281738184819A
:101D200095810E94900C2196C770E9CFDF91CF91E9
:101D30001F9108954091BF015091C0016091C10170
:101D40007091C2018091C3019091C4010C94900CD8
:101D5000EF92FF920F931F93CF93DF938091C40173
:101D600082958F7009F065C08091C101882309F4C4
:101D700060C080918D01F0908E011091BF010091A3
:101D8000C0016091C2017091C30191E01F3F09F051
:101D900090E0C0910101D0910201292F96E0E92E37
:101DA0008F1509F446C06115710521F00F3F21F030
:101DB00030E003C031E001C0322F90E030FD36C08A
:101DC000E89EF001E99EF00D1124DF01A157BE4FFE
:101DD00011963C911197301329C03C91311326C0C4
:101DE00012963C911297311121C013964D915C913E
:101DF0001497461B570B4C175D07C0F48091C40124
:101E00008F7080618093C401EC56FE4F80818F708B
:101E1000806180838FEB91E00E94FD0BDF91CF9179
:101E20001F910F91FF90EF900C94790E019687709F
:101E3000B7CFDF91CF911F910F91FF90EF90089551
:101E40009F92AF92BF92CF92DF92EF92FF920F9349
:101E50001F93CF93DF93CDB7DEB761970FB6F8949A
:101E6000DEBF0FBECDBF8C0185E0F801DE011D96FF
:101E700001900D928A95E1F7D8011296EC9090911D
:101E8000BF01E091C0012091C2013091C301211531
:101E9000310531F0EF3F31F481E09F3F19F403C089
:101EA00081E001C080E0B82FB1709B2E80FD47C15A
:101EB000D8014C9111965C9111971396AD90BC90FE
:101EC00014978FEBC82E81E0D82EF090C101B50198
:101ED000621B730B2091010130910201FF2009F474
:101EE000D9C08091C4016217730708F095C0282FEC
:101EF000207F09F052C05E1313C0491311C0FE2C9D
:101F0000E1100EC08F7080618093C4010E949A0E10
:101F1000C6010E94FD0B8091C401F80185834DC16B
:101F2000AB2831F05F3F31F481E04F3F19F403C03B
:101F300081E001C080E080FD03C081E08E2502C009
:101F400080E090E0F82FF170FF2E80FF1CC08091A0
:101F50008D0120918E0136E0821709F40BC190E0CB
:101F6000389FF001399FF00D1124E157FE4F618138
:101F7000561306C06081461303C06281E61203C097
:101F800001968770E9CFFE2CEE2009F416C18091EE
:101F9000C40181608093C40154C05E1306C049131C
:101FA00004C0E11002C0F80199C0C8010E94790C78
:101FB000882361F1EE2051F12091C401822F829596
:101FC0008F7090E0029774F08091BF019091C001F2
:101FD00098878F831986BB86AA862C87CE010796A1
:101FE0000E94FD0B86E0F801AFEBB1E001900D928D
:101FF0008A95E1F70E94A80E0E949A0E0AC05E1709
:1020000011F1C8010E94790C81112CC0C8010E94F5
:10201000FD0BFF24F394D1C0282F207F81F77A2D68
:10202000B98AA88A6E2D89890E94810C8FEB91E074
:102030000E94FD0B86E0D6011D928A95E9F70E9469
:102040009A0EF12CBAC04913DCCFE110DACFF801B7
:102050008583C8010E94FD0B86E0D6011D928A95FA
:10206000E9F7ABC0EE2091F22091C401822F829556
:102070008F7090E002970CF4B5CF8091BF019091E2
:10208000C0019A8389831B82BD82AC822E83CE01DC
:102090000196A6CF6217730708F044C0FE2CEE200D
:1020A00009F4B4CF5E1330C049132EC02091C4018F
:1020B00020FD21C0822F82958F70482F50E041155E
:1020C0005105C9F0F80125834F30510541F08F5F6C
:1020D000982F9295907F822F8F70892B8583C801CE
:1020E0000E94FD0B86E0F801AFEBB1E001900D928C
:1020F0008A95E1F73CC086E0F801AFEBB1E00190D2
:102100000D928A95E1F759C0C8010E94790C81119E
:1021100069CF8091C40181608093C401C8010E948D
:10212000FD0B4BC07A2DB98AA88A6E2D89890E9431
:10213000810C86E0D6011D928A95E9F718C0EE2041
:1021400009F464CFC8010E94790CF82E882309F4A1
:102150005DCF86E0F801AFEBB1E001900D928A957A
:10216000E1F78FEB91E00E946C080E94A80E0E949C
:102170009A0E23C04D875E878D859E850E944B0EEB
:10218000292F22952F70223028F49F7039F0811169
:1021900005C00BC0243028F49F7049F4805E88305D
:1021A00020F0C8010E94FD0B9F2CF92C06C0D8011D
:1021B00015969C91907F91F7F8CF8F2D61960FB671
:1021C000F894DEBF0FBECDBFDF91CF911F910F916D
:1021D000FF90EF90DF90CF90BF90AF909F900895C9
:1021E0001F93CF93DF93CDB7DEB72C970FB6F8943C
:1021F000DEBF0FBECDBF4F83588769877A878B8735
:102200009C87CE0107960E94200F8823D1F09F81E2
:1022100088852A853B85232B31F08F3F31F481E07F
:102220009F3F19F403C081E001C080E080FD47C0FA
:102230004F81588569857A858B859C850E94900C95
:102240003EC086E0FE013796DE01119601900D92A8
:102250008A95E1F7FF81E8856A857B8561157105BF
:1022600031F0EF3F31F481E0FF3F19F403C081E02A
:1022700001C080E080FD23C020918E0130E0C901C3
:1022800001968770992740918D0150E0841795073A
:10229000F1F1F983EA837D836C8396E0929FD0010C
:1022A000939FB00D1124A157BE4FFE0131960190AE
:1022B0000D929A95E1F780938E010E94790E16E0B7
:1022C00080918D0190918E01891771F1189FC00145
:1022D000112481579E4F0E94200F882329F1E091FD
:1022E0008D011E9FF0011124E157FE4F4081518165
:1022F00062817381848195810E94900C80918D010F
:1023000090E001968770992780938D01D9CF0E9424
:10231000510C10928E0110928D01EFEBF1E086E0EE
:10232000DF011D928A95E9F72C960FB6F894DEBF6F
:102330000FBECDBFDF91CF911F9108958091C50150
:1023400085958595859508958091C5018770089537
:102350009091C501977081E009F480E00895809123
:10236000D10108959091D101892B8093D1010895D5
:1023700080959091D10189238093D1010895809314
:10238000D10108951092D10108958091D00108954E
:102390009091D001892B8093D001089580959091E0
:1023A000D00189238093D00108951092D00108951F
:1023B0001092CF0108958091C601089508950C945C
:1023C000DE110C94DF119091470292FD08C09091AC
:1023D000C601981721F08093C6010C94E11108956D
:1023E0008091C601882329F01092C60180E00C94E8
:1023F000E1110895E0910301F09104018091D10170
:102400008083E0910301F091040190818091D001DB
:10241000892B8083E0910301F091040190818091E8
:10242000CF01892B80838091C601882381F0E091C0
:102430000301F09104019081892B80838091030135
:10244000909104010E94482981110E94F01180910D
:102450000301909104010C9403290C94DE119091D6
:10246000470292FD10C098E0899F90011124262B0D
:102470002093C5010E94120D8091C5018595859517
:1024800085950C942D120C94120D1092C50180E0CC
:102490000C942D122091C501809582238093C50153
:1024A000982F977099F430E0482F082E000C550BA8
:1024B0002417350759F09091470292FD07C0859582
:1024C000859585950E94330D0C9445120895909141
:1024D000470292FB222720F9281769F080FB92F926
:1024E0009093470280914602909147020E94B51254
:1024F00082E00C944A1208958091470282FB88275B
:1025000080F991E089270C94671281E00C9467129E
:1025100080E00C9467126FEF7FEF80E090E00C9406
:10252000FE3180E090E00E94DA3121E0893E9E4F4A
:1025300009F020E0822F089582E090E00C94CC31E5
:1025400083E090E00C94CC31CF9384E090E00E9443
:10255000CC31C82F82E290E00E94CC312C2F30E0A9
:10256000A901582BCA01CF910895CF93C92F682F85
:1025700084E090E00E94E0316C2F82E290E0CF9105
:102580000C94E031AB01BC018FE090E00C94F2318F
:10259000AB01BC0183E190E00C94F23160E070E0AB
:1025A000CB010C94C81260E070E0CB010E94C21213
:1025B0000C94CE1269EE7EEF80E090E00E94FE3136
:1025C00060E082E090E00E94E03160E083E090E033
:1025D0000E94E0311092890110928A0110928B01C1
:1025E00010928C0160E084E090E00E94E03160E0B5
:1025F00082E290E00E94E03160E085E090E00E949D
:10260000E03160E086E090E00E94E0316FEF87E02B
:1026100090E00E94E03140E050E0BA0188E090E0B4
:102620000E94F23160E08DE090E00E94E03140E0F5
:1026300050E0BA0188E190E00E94F23160E087E169
:1026400090E00E94E03140E050E0BA018CE190E07F
:102650000E94F23160E070E080E290E00E94FE3182
:1026600040E050E0BA0188E190E00E94F2310C9421
:10267000D3120C94DA12682F8EE090E00C94E031C3
:102680000E94342A6093DE017093DF018093E001A1
:102690009093E1016093DA017093DB018093DC0198
:1026A0009093DD01089585B7806885BF85B7806800
:1026B00085BF089581E008950C945A1308950C94F1
:1026C0005E130C945E130C9461130C945E130C94C3
:1026D00065130C945E130E94531381E096E10E94EF
:1026E000EA280E9469130C9467130E945F130C94EC
:1026F0005E130E941F2A0E94F2160E944D220E9421
:1027000051200E94A7050C9463139F92AF92BF9231
:10271000CF92DF92EF92FF920F931F93CF93DF93AD
:10272000CDB7DEB72A970FB6F894DEBF0FBECDBF88
:102730000E94071781110E94401383EDA82E81E0AB
:10274000B82E00E010E0902E802F0E943F16D82E69
:10275000F501C1905F01C826B1F40F5F1F4F07302C
:10276000110589F78FEF89838A831B820E94282AAB
:102770008160782F9D838C8349815A816B818D8103
:102780000E9422082FC08091E20181FD0E9445161F
:10279000E12CFF24F3948C2D8F21F1F00E945C1327
:1027A000882399F0EE829F82DF2081E009F480E0A7
:1027B00088870E94282A8160782F9A8789874E818E
:1027C0005F8168858A850E942208F801ED52FE4FDC
:1027D0008081F826F08206C0E394FF0CF6E0EF1249
:1027E000DACFBBCF0E9495200E9413240E941419B7
:1027F0000E94A9050E94F4289091D2018917B9F08E
:102800000E94F4288093D2012A960FB6F894DEBF76
:102810000FBECDBFDF91CF911F910F91FF90EF9031
:10282000DF90CF90BF90AF909F900C9419082A969C
:102830000FB6F894DEBF0FBECDBFDF91CF911F91D1
:102840000F91FF90EF90DF90CF90BF90AF909F904F
:102850000895CF93DF930E942A15EC01811522E59C
:10286000920778F5811531E5930708F09DC08F3FF9
:10287000910509F0B8F48D3E910508F06FC0853AD6
:10288000910550F48430910508F0C8C0019709F013
:10289000C2C081E090E0C3C0805E9109089708F44F
:1028A000BDC0B9C0811540E5940708F05DC0811531
:1028B000904408F055C0C11580E2D80708F4AEC0B6
:1028C000AAC0811526E5920728F5811535E59307FD
:1028D00008F087C0811544E5940708F07CC0AC017E
:1028E00043705527282F26952695C115D34508F006
:1028F00061C081E090E002C0880F991F4A95E2F71D
:1029000040E2249F90011124EC01C22BD32BCE0175
:102910009C6885C081152AE5920780F4811539E508
:10292000930708F067C0811548E5940708F473C061
:10293000D82FCC27CE01806F906A71C09056811538
:10294000904208F068C08D2F8F710E94BE15DD2760
:10295000D0628F71AE01582BCA0161C090655FC013
:10296000DF70CE01906A5BC074E0969587957A958A
:10297000E1F7282F23703C2F337081E090E002C0F4
:10298000880F991F3A95E2F79C68AC01522B9A0187
:102990009C2F9F709695969550E2959FE00111248B
:1029A000C9018C2B9D2B3BC0D82FCC27CE01816F2A
:1029B000906A35C081E090E002C0880F991F4A9567
:1029C000E2F750E2259F90011124EC01C22BD32B9A
:1029D000CE019A6824C0D82FCC27CE01846F906A8C
:1029E0001EC00E94BE158F7190E0D82FCC27CE015B
:1029F000906215C08F700E94BE1594E0D695C79561
:102A00009A95E1F7CF70D0E0DC2FCC27D0699E01FA
:102A1000282BC90104C080E090E001C0CE01DF9105
:102A2000CF9108952AE2829FC0011124FC0126E083
:102A3000729FE00DF11D1124E60FF11DEE0FFF1F37
:102A4000EE5FFE4F8591949108950E9412150E94A9
:102A5000291408958238910569F1B0F48133910504
:102A600009F46DC048F48932910509F463C08A32D3
:102A7000910509F469C008958533910509F455C09D
:102A800089339105B9F00895833E910569F138F4D1
:102A9000803E9105B1F0823E910509F10895863E90
:102AA0009105A9F1873E9105B9F1843E910509F0A0
:102AB00064C023C02091460220FD4FC021FD4DC0BF
:102AC00008958091460280FD44C08091470280FFB6
:102AD00044C08091460284FD42C083EE4DC0809187
:102AE000460282FF38C0F5CF8091460282FD33C096
:102AF0008091470280FD31C0ECCF8091470281FF79
:102B000032C08091460284FD2AC087EE35C0809194
:102B1000460283FF26C0F5CF8091460283FD21C087
:102B20008091470281FD1FC0ECCF8091460285FD58
:102B30001CC01DC08091460285FD19C016C0809141
:102B4000460286FD16C017C08091460286FD13C05E
:102B500010C089E311C082EE0FC080EE0DC080E08E
:102B60000BC086EE09C084EE07C089E205C085E38C
:102B700003C08AE201C081E390E00895909146028B
:102B800092FF0DC0282F2871283019F4877F8460A8
:102B900006C0282F2471243011F48B7F886093FFA6
:102BA0000DC0282F2871283119F4877E846106C052
:102BB000282F2471243111F48B7E886120914702E3
:102BC00020FF0DC0382F3871383019F4877F8160AD
:102BD00006C0382F3171313011F48E7F886021FFAB
:102BE0000DC0282F2871283119F4877E816106C015
:102BF000282F2171213111F48E7E886194FD877E0A
:102C0000089580E008950C948B120E9407178FE3BB
:102C10009CE90197F1F700C000000E94071780E0CF
:102C20000E943F1680FF04C00E9403160C94752A70
:102C300008950C9405160E949112811102C00E9401
:102C400039130E949C128093E2010E94A412909377
:102C50004702809346020E9419160E94A012682F14
:102C600070E080E090E00E94B20C6091850170916C
:102C7000860180918701909188010C94EA0CE82FDD
:102C8000F0E0E15BFD4F80810895089580EA8A9528
:102C9000F1F7089500C008950C94461608950C9419
:102CA0004E160C944F160C944E160C945316F89422
:102CB000E82FE295EF70F0E031A1282F2F7081E02E
:102CC00090E001C0880F2A95EAF7982F90959323FA
:102CD00091A392A1892B82A3789408950F931F93B7
:102CE000CF93DF93C5E3D1E089918F3F11F00E942C
:102CF000571681E0CC33D807B9F7CFE2D1E005E32E
:102D000011E089918F3F11F00E9457160C171D0793
:102D1000C1F7DF91CF911F910F910895CF92DF926C
:102D2000EF92FF920F931F93CF93DF938C01C62FE7
:102D3000D0E0CE018B5C9E4F7C01FC0190819F3FD7
:102D400009F447C0D62EF894E92FE295EF70F0E031
:102D500081A19F7021E030E001C0220F9A95EAF72F
:102D6000822B81A382A12095282322A378940E94FC
:102D70004A16EFE2F1E045E351E031E0C12C219148
:102D80002F3F89F0A22FA295AF70B0E090968C9162
:102D900090E02F7002C0959587952A95E2F780FD07
:102DA00002C0832F01C080E0C82A330F4E175F078F
:102DB00031F7F70180818F3F11F00E94571661E0D3
:102DC000C11001C060E08D2D0E944C16C00FD11FB4
:102DD000C882DF91CF911F910F91FF90EF90DF900C
:102DE000CF9008950E946E1687E0EFE4F2E0DF01D5
:102DF000982F1D929A95E9F7E8E4F2E0DF011D9221
:102E00008A95E9F787E00E9452170C94B006FF926A
:102E10000F931F93CF93DF93CDB7DEB727970FB6EE
:102E2000F894DEBF0FBECDBF8E010F5F1F4F87E04E
:102E3000F80111928A95E9F7F12C6F2DC8010E94D3
:102E40008E16F394F7E0FF12F8CF47E050E0B80198
:102E500088E492E00E94BF31FF24F394009709F4C4
:102E6000F12C892B41F087E0F801A8E4B2E0019051
:102E70000D928A95E1F72F2D47E06FE472E088E428
:102E800092E00E9453170E94BA068F2D27960FB624
:102E9000F894DEBF0FBECDBFDF91CF911F910F9190
:102EA000FF9008950895FF920F931F93CF93DF93A0
:102EB0008C01F62ED72FC42F222349F081E0809376
:102EC000E5010E94282A9093E4018093E301809118
:102ED000E5018823C1F08091E3019091E4010E9413
:102EE000402A059780F0EF2DFD2FD8014C2F50E0A0
:102EF000CD01801B910B841795071CF48D91819354
:102F0000F7CF1092E501DF91CF911F910F91FF90C4
:102F100008950E94E72B0E9479130C94F32B0E94D2
:102F2000F72B0E9485130C94112C0E94AF290E944C
:102F3000CE2B0E946B130E9489170E948F170E944C
:102F40007513FBCF8091EC0180FF0BC060910A01EB
:102F500085E0689FB0011124759567957595679513
:102F60002BC081FF09C060910A0185E0689FB00114
:102F700011247595679520C082FF07C060910A01F2
:102F800085E0689FB001112417C09091EB0199234F
:102F9000D1F060910901961788F720910A0185E028
:102FA000289F90011124929FA001939F500D1124FE
:102FB00070E0CA010E9445316038710540F4611526
:102FC000710519F406C065E070E0862F08958FE75B
:102FD000089581E008958091EC0180FF08C0609120
:102FE000060170E0759567957595679521C081FF1D
:102FF00006C06091060170E07595679519C082FF63
:1030000004C06091060170E010C09091EA0199231C
:1030100099F0609105019617A0F780910601899FAC
:10302000C001112470E00E9445316038710540F400
:103030006115710519F406C061E070E0862F0895EE
:103040008FE7089581E008958D3E21F40E94A21734
:10305000819504C08E3E29F40E94A2178093F0014E
:1030600008958F3E21F40E94A217819504C0803FED
:1030700029F40E94A2178093EF010895893F19F463
:103080000E94EB1705C08A3F31F40E94EB1781952F
:103090008093F10108958B3F21F40E94EB178195F5
:1030A00004C08C3F29F40E94EB178093F20108952D
:1030B0009FE0980F983078F421E030E0A90102C039
:1030C000440F551F9A95E2F7CA019091EE01892BA2
:1030D0008093EE0108958D3F21F48091EC01816091
:1030E0000BC08E3F21F48091EC01826005C08F3FC0
:1030F00029F48091EC0184608093EC0108958D3E69
:1031000039F49091F00197FF35C01092F00159C049
:103110008E3E29F49091F0011916BCF32BC09091CA
:10312000EF018F3E29F497FF25C01092EF0149C0AF
:10313000803F19F41916CCF31DC09091F101893F1D
:1031400029F41916BCF41092F1013BC08A3F19F41E
:1031500097FF10C0F8CF8B3F39F49091F20197FFA1
:1031600009C01092F2012DC08C3F21F49091F20120
:103170001916BCF39FE0980F983080F421E030E0FE
:10318000A90102C0440F551F9A95E2F7CA01809524
:103190009091EE0189238093EE0113C08D3F21F4BD
:1031A0008091EC018E7F0BC08E3F21F48091EC0169
:1031B0008D7F05C08F3F29F48091EC018B7F809338
:1031C000EC018091EF01811106C08091F001811125
:1031D00002C01092EB018091F101811106C0809133
:1031E000F201811102C01092EA0108950E94282A7A
:1031F0002091EF01211104C02091F001222321F040
:103200009093E9018093E8012091F101211104C01C
:103210002091F201222321F09093E7018093E601AF
:103220008DEE91E00C940E29EF92FF920F931F9375
:10323000CF93DF9300D000D000D0CDB7DEB786E0CB
:10324000EDEEF1E0DE01119601900D928A95E1F725
:10325000E090EF01F090F0010091F1011091F20186
:103260001092EF011092F0011092F1011092F20110
:10327000E11003C0FF2009F45DC08091E801909146
:10328000E9010E94402AAC019091EB01992339F0A9
:1032900020910B0130E02417350758F04BC02091E6
:1032A0000C018AE0289F900111242417350718F09B
:1032B00041C09F3F19F09F5F9093EB01EE2061F0BA
:1032C0000E94A2171E1414F09FEF01C091E0989F76
:1032D000902D11249093EF01FF2061F00E94A2171E
:1032E0001F1414F09FEF01C091E0989F902D1124BE
:1032F0009093F0013091EF013323E1F02091F00140
:103300002223C1F045EB3403C0011124992319F0A5
:103310009093EF0103C081E08093EF0135EB23032D
:10332000C0011124992319F09093F00103C081E0AA
:103330008093F001011103C0112309F45DC0809155
:10334000E6019091E7010E94402AAC019091EA01C8
:10335000992339F02091070130E02417350758F000
:103360004BC0209108018AE0289F90011124241766
:10337000350718F041C09F3F19F09F5F9093EA0115
:10338000002361F00E94EB17101614F09FEF01C0AC
:1033900091E0989F902D11249093F101112361F0F9
:1033A0000E94EB17111614F09FEF01C091E0989F57
:1033B000902D11249093F2013091F1013323E1F02B
:1033C0002091F2012223C1F045EB3403C001112406
:1033D000992319F09093F10103C081E08093F101EA
:1033E00035EB2303C0011124992319F09093F201C6
:1033F00003C081E08093F2018091EF0181110BC045
:103400008091F001811107C08091F101811103C009
:103410008091F20181110E94F618EB82FC820D83EB
:103420001E8386E0FE013196ADEEB1E001900D9273
:103430008A95E1F726960FB6F894DEBF0FBECDBF92
:10344000DF91CF911F910F91FF90EF900895EDEED6
:10345000F1E086E0DF011D928A95E9F71092EB0119
:103460001092EA011092EC010895EF92FF920F93EF
:103470001F93CF93DF93CDB7DEB72C970FB6F89499
:10348000DEBF0FBECDBF49835A836B837C838D83A0
:103490009E83EF82F88609871A872B873C8746E050
:1034A00050E0BE01695F7F4FCE0101960E94BF319F
:1034B00021E0892B09F420E0822F2C960FB6F89496
:1034C000DEBF0FBECDBFDF91CF911F910F91FF9057
:1034D000EF900895EF92FF920F931F93E090F30106
:1034E000F090F4010091F5011091F6012091F7019F
:1034F0003091F8014091F9015091FA016091FB017E
:103500007091FC018091FD019091FE010E94351A9D
:10351000882321F089EF91E00E940E291092FB018F
:103520001092FC011092FD011092FE0186E0E9EF7D
:10353000F1E0A3EFB1E001900D928A95E1F71F91C0
:103540000F91FF90EF900895CF93DF9300D000D0BC
:1035500000D0CDB7DEB786E0E9EFF1E0DE011196ED
:1035600001900D928A95E1F729813A814B815C8126
:103570006D817E8180E090E026960FB6F894DEBFE4
:103580000FBECDBFDF91CF910895CF93DF9300D0D1
:1035900000D000D0CDB7DEB749835A836B837C83DC
:1035A0008D839E8386E0FE013196A9EFB1E0019004
:1035B0000D928A95E1F726960FB6F894DEBF0FBEFE
:1035C000CDBFDF91CF910895EF92FF920F931F939C
:1035D000CF93DF938B01682F11110AC0442329F088
:1035E000E82FF0E0E754FB4F6491762F862F75C0EB
:1035F000212F30E0E82FF0E0442321F0E754FB4F87
:10360000E491F0E046E0049FC0011124CFEFD0E048
:10361000BE010E9431314BEA4603C001479F900D25
:103620001124800F911D800F911D982F990F890FE4
:10363000AE01421B530B4E9FD0014F9FB00D5E9FBA
:10364000B00D11249B2F189FA0011124452F552741
:103650008E01041B150B0E9FA0010F9F500D1E9F86
:10366000500D11247E01E81AF108E29E8001E39ECC
:10367000100DF29E100D1124212F3327C21BD30BE6
:10368000CE9F9001CF9F300DDE9F300D1124623010
:103690007105A9F048F46115710569F06130710593
:1036A000C9F48B2F752F0DC06430710581F058F06F
:1036B0006630710579F47E2F8B2F932F0DC0832FE9
:1036C0007B2F9E2F09C08E2F7B2F952F05C08E2F0D
:1036D000732F02C07E2F852F692FDF91CF911F910D
:1036E0000F91FF90EF90089541E00E94E41A089531
:1036F00008950E94741B0895CF93DF93762FE901FC
:10370000682F842F0E94791B798368838A83DF91D5
:10371000CF91089580915602282F269530E02115EB
:10372000310519F48170826005C02532310524F01D
:103730008170886480935602089588E090E00C942C
:10374000D431CF92DF92EF92FF926B017C010E9405
:103750008A1BB701A60188E090E0FF90EF90DF9010
:10376000CF900C94F231E6E5F2E083E080831182A1
:103770008FEF828383831482608171818281938140
:103780000C94A11B8091560280FF02C0869508957B
:1037900080E0089590915A02933018F49F5F9093BF
:1037A0005A02882351F0609156027091570280911D
:1037B0005802909159020C94A11B089581E00C9439
:1037C000CA1B90915A02992319F0915090935A0272
:1037D000882351F0609156027091570280915802EF
:1037E000909159020C94A11B089581E00C94E11B67
:1037F00070E00C94C524609111018091560280FF05
:103800000AC08091100123E0829FC0011124855AD3
:103810009D4F0C94F81B8091120190911301891710
:1038200080F7E82FF0E09F01220F331FE20FF31F14
:10383000E55AFD4F1182108212828F5FF0CF909176
:10384000560290FF16C09091120120911301921719
:1038500070F4E92FF0E0DF01AA0FBB1FEA0FFB1F96
:10386000E55AFD4F8183608342839F5FF0CF0C94C4
:10387000FB1B0895CF93DF9300D01F92CDB7DEB727
:103880009091560290FF0AC09E012F5F3F4F0E9409
:103890007C1B4B8169818A810E941F1C0F900F90B5
:1038A0000F90DF91CF910895CF93DF93EC01EC81DE
:1038B000F0E0EC5CFC4F4491E6E5F2E0628181814E
:1038C0000E943A1C8C818F5F8C83DF91CF91089589
:1038D000CF93DF93EC01E6E5F2E0438162818C81D6
:1038E0000E943A1C8C818F5F8C83DF91CF91089569
:1038F0000F931F93CF93DF9300D01F92CDB7DEB706
:103900008C018091FF0181110AC09E012F5F3F4F02
:103910004FEF6FEF0E947C1B8A818093FF01F801BB
:103920008481813051F028F0823061F44091FF01B0
:103930000AC08091FF0140E007C06091FF0140E0B4
:1039400080E003C040E080E060E00E941F1CF801BE
:10395000848190E0019663E070E00E9445318483A9
:103960000F900F900F90DF91CF911F910F910895BD
:10397000AF92BF92CF92DF92EF92FF920F931F937D
:10398000CF93DF9300D01F92CDB7DEB7182FF62E5E
:10399000042FE22E9091560290FF6DC0E92FE6951C
:1039A000AE2FB0E0A45CBE4F8C9180930B029E7F43
:1039B000923061F49E012F5F3F4F812F0E947C1B4C
:1039C0004B8169818A810E941F1C43C0823019F497
:1039D000009159023EC0863019F41091570239C047
:1039E0008930D9F38931A9F5E9518E2F8170D82E0C
:1039F000E695F0E0EC5CFB4FA590B490C12CBB24A5
:103A000060911401C61618F52C2D30E0A29EC0015D
:103A1000A39E900DB29E900D112470E00E94313152
:103A2000812FD11002C0860F01C0861B9091120118
:103A3000290F311DA901440F551F240F351F255A89
:103A40003D4F402F6F2D0E947C1BC394D9CF0E9405
:103A5000FB1B10935702F092580200935902EE207C
:103A600051F06091560270915702809158029091E6
:103A700059020E94A11B0F900F900F90DF91CF91E0
:103A80001F910F91FF90EF90DF90CF90BF90AF907C
:103A90000895E6E5F2E09181282F4381628188E074
:103AA000890F0C94B81C81E00C94491DE6E5F2E006
:103AB0009181282F4381628188EF890F0C94B81C73
:103AC00081E00C94561DE6E5F2E0628128E0620F89
:103AD00008F46FEF282F438181810C94B81C81E09A
:103AE0000C94631DE6E5F2E0628128E0621B08F4B5
:103AF00060E0282F438181810C94B81C81E00C94F4
:103B0000721DE6E5F2E0438128E0420F08F44FEF32
:103B1000282F628181810C94B81C81E00C94811D56
:103B2000E6E5F2E0438128E0421B08F440E0282F5C
:103B3000628181810C94B81C81E00C94901D20E07E
:103B40000C94B81CFF920F931F93CF93DF93EC015B
:103B5000F12C0FEF10E060911401F616F0F4809153
:103B600012012F2D30E0280F311DC901880F991F38
:103B7000280F391F255A3D4F70E0C8010E9445317A
:103B8000962F8C814091590260915802F99E800DC8
:103B900011240E947C1BF394DECF0E94FB1B9A81B0
:103BA0008C8190FF02C08F5F01C081508C83DF91B8
:103BB000CF911F910F91FF900895BF92CF92DF9206
:103BC000EF92FF920F931F93CF93DF93FC018281BB
:103BD00080FF02C00FEF01C001E010E080911401EE
:103BE000181708F040C080911201C12ED12CE601B7
:103BF000C80FD11DCE01880F991FC80FD91FC55AF4
:103C0000DD4F198218821A8234E0E32EF12CB12C98
:103C1000809101028B0D813114F08F7005C087FFF8
:103C200003C090911401890F082E000C990BC8163F
:103C3000D90691F4809159028E9DA0018F9D500D5F
:103C4000112455954795559547959E0160915802C9
:103C5000809157020E947C1BB00EF1E0EF1AF10830
:103C6000B9F61F5FBBCF0E94FB1B809101020130A0
:103C700031F4811102C080911401815007C090E09D
:103C800001966091140170E00E9445318093010219
:103C9000DF91CF911F910F91FF90EF90DF90CF9028
:103CA000BF900895CF9380911201909113018917CD
:103CB00070F4E82FF0E09F01220F331FE20FF31F93
:103CC000E55AFD4F1182108212828F5FF0CFC0E063
:103CD00060911401C617C0F5EC2FF0E070E0CF0141
:103CE0000E94453120911201820F20910002022E84
:103CF000000C330B90E0E217F307CCF020910F019A
:103D0000022E000C330B2E173F078CF09C01220F64
:103D1000331F820F931F9C01255A3D4F409159023A
:103D200060915802809157020E947C1B0BC0FC01DD
:103D3000EE0FFF1F8E0F9F1FFC01E55AFD4F1182F2
:103D400010821282CF5FC4CF0E94FB1B20910E0114
:103D500080910002820F8093000290910F01920FD8
:103D600090930F0119165CF4082E000C990B4091EA
:103D7000140150E041505109841795071CF021951A
:103D800020930E01CF9108958F929F92AF92BF9290
:103D9000CF92DF92EF92FF920F931F93CF93DF9317
:103DA0008C01FC014481C42FD0E09E01DE010E9401
:103DB00089319B01AC010E949F316B017C01E0E2E3
:103DC000F0E0EC1BFD0BA5E5B0E09B01AC010E940F
:103DD0009F314B015C019F01DF010E9481319B01FA
:103DE000AC010E94AA319B01AC012C0D3D1D4E1D62
:103DF0005F1DC501B4010E945931C22FD22F2A3252
:103E000028F4F3E02F9F900111240DC025E530E048
:103E10002C1B3109C901880F991F280F391F37FF43
:103E200002C02F5F3F4F35952795C22FC095F12CCB
:103E300085E5E82EED1A80911401F816C8F4F1FC1E
:103E400002C08E2D01C08D2F909112012F2D30E0D8
:103E5000290F311DA901440F551F240F351F255A65
:103E60003D4F4C2F609158020E947C1BF394E3CF8E
:103E70000E94FB1BF8018481811102C091E003C004
:103E8000803219F49FEF90930D0190910D01890FED
:103E9000F8018483DF91CF911F910F91FF90EF90F4
:103EA000DF90CF90BF90AF909F908F9008950F9329
:103EB0001F93CF93DF93EC0100E010E08091140199
:103EC000282F30E00217130724F590911201980172
:103ED000290F311DA901440F551F240F351F255AE5
:103EE0003D4F869590E04C81081719071CF4442338
:103EF00031F002C0411103C04091590201C040E0BD
:103F000060915802809157020E947C1B0F5F1F4FE7
:103F1000D5CF0E94FB1B8C8190E001968170992780
:103F20008C83DF91CF911F910F910895E6E5F2E028
:103F300080818E7F808360817181828193810E94E4
:103F4000A11B10920C022FEF80E792E021508040DD
:103F50009040E1F700C000000C94FB1BE6E5F2E0A6
:103F600080818E7F808310920C022FEF80E792E099
:103F7000215080409040E1F700C000000C94FB1BF2
:103F800010920C028091090281110AC081E0809395
:103F90000902809156028170809308020C94AE1F32
:103FA000089560915602669570E04BE050E085E11F
:103FB00091E00E94B231892B19F481E080930C02C8
:103FC0000E94282A90930302809302020895909100
:103FD000560290FF35C09170811102C0926006C0F8
:103FE000853210F0986402C0880F982B9093560287
:103FF000662351F0609156027091570280915802E9
:10400000909159020E94A11B60915602669570E042
:104010004BE050E085E191E00E94B231892B19F02C
:1040200010920C0202C00E94D11F81E08093050211
:104030004091590260915802809157020C949F1D43
:104040000895682F90915602969581E0890F8532E8
:1040500008F081E00C94E71F81E00C942120682F88
:104060009091560296958FEF890F09F484E20C9493
:10407000E71F81E00C942F2061E00C94E71FE6E538
:10408000F2E080818160808386950C943C20809151
:10409000560280FD0C94961F0C943F2060E00C9417
:1040A000E71F80910A0281112EC00E949112811196
:1040B00004C00E9439130E94B31B0E949D1B609391
:1040C00056027093570280935802909359026E7F64
:1040D00061F40E94B31B0E949D1B60935602709373
:1040E000570280935802909359020E948A1B1092A3
:1040F0000C028091560280FF03C086950E944E20DC
:1041000081E080930A020895E6E5F2E08081816013
:10411000808386950C944E201092090280910802AB
:1041200081110E9484200C94D11F0F931F93CF9371
:10413000DF9380910C02882309F485C080910B02E3
:10414000E0915602E695E81BE0930402823049F4C0
:10415000F0E0E05DFC4FE491CE2FD0E004E51CE1FF
:1041600049C0863049F4F0E0E35DFC4FE491CE2F86
:10417000D0E008E61CE13EC0893051F4E695F0E05D
:10418000E65DFC4FE491CE2FD0E002EA1DE132C0A3
:104190008F3051F4E695F0E0E95DFC4FE491CE2FCD
:1041A000D0E00DED1DE126C0853149F4F0E0EC5D75
:1041B000FC4FE491CE2FD0E002E51EE11BC0883118
:1041C00081F0833239F4E2E2F3E0C591D49108E75B
:1041D0001CE110C0843251F4C4EFD1E007E51FE1C7
:1041E00009C0C8E2D0E004EC1EE104C0C0EDD7E095
:1041F00008E71BE180910502882361F01092050217
:104200000E94282A909303028093020210920702D0
:10421000109206020E94282AE0910202F091030205
:104220008E1B9F0B8F3F9F4770F4EC0FFD1FF09389
:104230000302E093020282E092E0F801DF91CF9165
:104240001F910F910994DF91CF911F910F910895C4
:10425000882311F0FA0101C0FB010994CF93DF9389
:10426000C82FD62F0E94C21B8C1740F00E94C21B81
:104270008D1720F4DF91CF910C942C208C2FDF919F
:10428000CF910C943C201F93CF93DF93FB011281BD
:10429000112309F4BCC0EC010E94AF118272CD3C25
:1042A000FCE5DF0709F497C008F043C0C73CECE524
:1042B000DE0709F47CC0D8F4C43C9CE5D90709F4B6
:1042C0006AC038F4C33CDC4509F0A4C00E94472012
:1042D000A0C0C53C9CE5D90709F462C0C63CDC45DA
:1042E00009F098C040E65DE163E57DE15DC0CA3C50
:1042F000FCE5DF0709F465C070F4C83CECE5DE07B7
:1043000009F45AC0C93CDC4509F084C04FE65DE1C0
:104310006EE77DE149C0CB3C9CE5D90709F456C066
:10432000CC3CDC4509F076C045EF5BE16EED7BE10E
:104330003BC0C23DFCE5DF0709F45AC098F4CF3C0E
:104340009CE5D90709F44EC008F44AC0C03DFCE51D
:10435000DF0709F44AC0C13DDC4509F05BC06EE0EF
:1043600089E04EC0C53D9CE5D90709F447C050F42B
:10437000C33DFCE5DF07F9F1C43DDC4509F04AC067
:1043800088E142C0C63D9CE5D907E9F1CE35DD455F
:1043900009F43FC03FC049E350E26CE270E204C060
:1043A0004CE250E269E370E20E94282132C043E50A
:1043B0005DE160E67DE1F8CF4EE75DE16FE67DE12E
:1043C000F3CF4CE95DE16DE87DE1EECF4DE85DE1D5
:1043D0006CE97DE1E9CF4EED5BE165EF7BE1E4CF98
:1043E00081E012C065E082E00BC068E086E008C0B2
:1043F00064E18FE005C067E185E102C062E289E126
:104400000E942E2106C083E20E943C2002C011E0DF
:1044100001C010E0812FDF91CF911F91089586E0B8
:1044200090E00C94CC31682F86E090E00C94E03161
:1044300080918B028470896180938B020C9413228B
:1044400080918B02869586958695089580918B0242
:1044500081FD07C0826080938B020E9413220C941E
:104460001424089580918B0281FF07C08D7F809373
:104470008B020E9413220C942024089580918B02B9
:1044800081FD0C9432220C94262280918B02869519
:10449000817008958091200108950E9491128111E8
:1044A00004C00E9439130E9418220E940F22809398
:1044B0008B02282F26952695269530E0243031054D
:1044C00024F08770886180938B0280918B0280FF3B
:1044D00004C086958695869501C080E00C94E12302
:1044E00020918B02822F869586958695482F50E0E5
:1044F0004330510554F48F5F982F990F990F990FFE
:10450000822F8770892B80938B0280918B02816030
:1045100080938B020E94132280918B028695869550
:1045200086950C94E12380918B02982F9695969511
:104530009695A1F0915E990F990F990F8770892B2D
:1045400080938B02887F91E009F490E080918B0248
:1045500090FB80F980938B020E94132280918B0242
:104560008695869586950C94E12380918B0280FD3B
:1045700013C0816080938B02813019F489E08093AD
:104580008B0280918B020E94132280918B02869570
:10459000869586950C94E123089580918B0280FF87
:1045A00008C08E7F80938B020E94132280E00C94BF
:1045B000E123089580918B0280FD0C94CD220C9410
:1045C000B52290918B02892F8695869586958F5F6F
:1045D0008F719770843038F4880F880F880F892B7B
:1045E00080938B0202C090938B0280918B02887F14
:1045F00091E009F490E080918B0290FB80F9809328
:104600008B020E94132280918B0286958695869557
:104610000C94E123843008F083E090918B02977032
:10462000282F220F220F220F922B90938B02987F1C
:1046300021E009F420E090918B0220FB90F9909307
:104640008B020C94E1230E940A2380918B020C942C
:104650001322FC01DB0112968C918823F9F0EC5BAC
:10466000FC45E730F105D8F4E059FF4F0C947B315D
:1046700083E001C080E00E94232380E008950E942F
:104680009322FBCF0E947022F8CF0E94DA22F5CF4E
:104690000E94E122F2CF0E943E22EFCF81E00895F6
:1046A000279A2F9808952F9808958F929F92AF92EE
:1046B000BF92CF92DF92EF92FF920F931F93CF930F
:1046C000DF938C0180918600909187006CE070E010
:1046D0000E9431316017710730F0C80169E070E065
:1046E0000E94313160C08091860090918700E090F7
:1046F0008600F0908700E0918600F0918700C6E088
:10470000D0E0BE010E94313120E030E0060F171FDB
:10471000211D311D4801590185E0880C991CAA1CF6
:10472000BB1C8A95D1F7C701BE010E9431316F01D0
:10473000E12CF12CA7019601260F371F411D511DB9
:10474000C501B4010E94593169017A01E0918600E6
:10475000F0918700CA01B9010E9421319B01AC018F
:10476000DF010E949F319B01AC01C701B6010E948D
:104770002131DC01CB012FE0B695A7959795879560
:104780002A95D1F7009186001091870020E030E053
:10479000081719072A073B0728F4609186007091D3
:1047A0008700CB01BC01CB01DF91CF911F910F910D
:1047B000FF90EF90DF90CF90BF90AF909F908F9041
:1047C0000895CF93C82F843050F4811109C080918F
:1047D0008000877F809380000E94532306C0C3E03F
:1047E00080918000886080938000A0918600B091C5
:1047F00087002C2F30E00E94893123E030E040E038
:1048000050E00E945931B42FA32F922F8827892F6F
:104810009A2FAB2FBB270E94552390938D00809336
:104820008C00CF910895089510920E0210920D02FF
:1048300010920F02EFE6F0E080818160808308959E
:10484000EFE6F0E080818E7F80830E9420220C942E
:10485000E1231F920F920FB60F9211240F931F9313
:104860002F933F934F935F936F937F938F939F9378
:10487000AF93BF93CF93EF93FF938091210191E08A
:10488000980F823019F09093210155C081E08093F8
:1048900021010E944A22C82F00910D0210910E02A0
:1048A0000F5F1F4F0E944A2228E7829FB001112408
:1048B000C8010E94313190930E0280930D0228E7C7
:1048C000C29FB0011124660F672F661F770B719589
:1048D0000E9431316F7780910F02823019F4603479
:1048E00051F404C0813039F46F3729F480916F009E
:1048F0008E7F80936F00E62FF0E0E75CFB4FC49162
:1049000000918600109187000E942022282FC09FCE
:10491000C001C19F900D11246DEF72E00E943131F2
:10492000269FC001279F900D11240E94552390932C
:104930008D0080938C00FF91EF91CF91BF91AF914B
:104940009F918F917F916F915F914F913F912F91A7
:104950001F910F910F900FBE0F901F9018950E94FE
:1049600050238AE08093800089E1809381008FEF5B
:104970009FEF90938700809386000E944D220E94B3
:10498000452281110C94142408956A9A2EB12B7F2C
:104990003EB134604FB7F894FC01CB01880F991FEA
:1049A000680F791F6E0F7F1FE617F70789F0819157
:1049B00098E03EB9000000C087FF2EB9880F0000C4
:1049C00000C000C000C02EB900C09A9591F7ECCF8E
:1049D0004FBF8FE594E00197F1F700C00000089504
:1049E0000F931F93CF93DF93811520EC920700F173
:1049F000EC01D05C0E94AF11182F0E94C511012F4D
:104A0000082B0E94DB11182F0E940029102B127214
:104A100091E009F490E086958170981729F0CC0F09
:104A2000CD2FCC1FDD0BD195CE018F77992701C0FB
:104A30009058DF91CF911F910F91089597FF13C068
:104A4000FB012281222379F00E94F024880F991F14
:104A5000880F991FFC01EE5AFD4F65917591859164
:104A600094910E943B2681E0089590918D029230AE
:104A700069F48A3040F490E009966AE070E00E94A0
:104A80004531875A01C086500C94AD090C94B70784
:104A90008CE090E00E94CC3190E0A0E0B0E0809308
:104AA0008D0290938E02A0938F02B0939002843077
:104AB00029F0813029F0823039F403C080E001C050
:104AC00081E08093100208951092100284E0809398
:104AD0008D02089560918D028CE090E00C94E0319D
:104AE00020911002082E000C990B820F911D27FDBA
:104AF0009A9563E070E00E94453187FD8D5F809359
:104B00001002E09110020E2E000CFF0BEF59FE4F29
:104B1000808180938D020C946A250E9400298695DD
:104B20008170809392020E940029817080938C0290
:104B300080918D02813039F480919202882319F09E
:104B400089E30E94AD090E94AF11809391020E94F7
:104B5000C21180918D02813071F048F0823081F075
:104B6000843009F586EE0E94AD0988E11AC082EE14
:104B70000E949E0818C088E193E00E94540613C06A
:104B800080918C02811103C083E50E94AD0982EE01
:104B90000E949E088FE39CE90197F1F700C0000096
:104BA00087E50E94AD098FE39CE90197F1F700C00A
:104BB0000000089580918D02813059F030F08230EC
:104BC00089F08430C9F488E215C082EE0E942E0973
:104BD00013C08CE20E94AD0980919202882361F09B
:104BE00089E308C082EE0E942E0980918C02811117
:104BF00003C083E50E94AD09809191020C94BF111E
:104C0000BF92CF92DF92EF92FF920F931F93CF93B9
:104C1000DF936B017C01C7E0D0E00CE110E0BB2426
:104C2000B394D701C601002E04C0B695A7959795F9
:104C300087950A94D2F78F7029F4B11006C00E94AC
:104C4000352503C00E943525B12C21970450110948
:104C5000CF3F8FEFD80729F0C430D10514F7B12C1E
:104C6000E0CFDF91CF911F910F91FF90EF90DF90F8
:104C7000CF90BF900895CF92DF92EF92FF9261158F
:104C8000710521E18207910508F043C061157105A6
:104C900021E08207910520F020918D022230C9F198
:104CA0006B017C010E948D25C114D10481E0E806CE
:104CB000F10428F180918D02811121C021E0E21AD6
:104CC000F108D701C60188279C7FAF70BB272AE077
:104CD000B695A795979587952A95D1F7BC01CD01F3
:104CE00078528F4F9F4F0E94002683E0D822EE24F7
:104CF000FF24C701B60174528F4F9F4F02C0C701F6
:104D0000B6010E940026FF90EF90DF90CF900C94A8
:104D1000DA25FF90EF90DF90CF9008950F931F93C7
:104D2000CF93DF93EC018B01FB018281882311F18A
:104D30000E94AF118272C13EFCE5DF07A1F028F4AA
:104D4000C03EECE5DE0761F015C0C73EFCE5DF07BD
:104D500088F48C2F825E80938D020E946A250AC09F
:104D6000882329F002C0811102C08FEF01C081E0C9
:104D70000E947025B801CE01DF91CF911F910F9154
:104D80000C941E25CF93DF93EC01FB0182818823D5
:104D900009F426C1C430FDE5DF0760F4CB3F9CE594
:104DA000D90768F49E0122503C452431310508F0B2
:104DB00018C105C0C236EDE5DE0709F012C10E9438
:104DC000A4129093470280934602C031FCE5DF07AE
:104DD00009F4CAC008F041C0C8309CE5D90709F4FD
:104DE000A4C0F0F4C430FCE5DF0709F48CC068F41B
:104DF000C2309CE5D90709F482C0C330DC4509F014
:104E0000E5C0809146028260DFC0C630FCE5DF0766
:104E100009F483C008F085C0809146028860D4C040
:104E2000CC309CE5D90709F490C068F4CA30FCE5A1
:104E3000DF0709F47EC008F084C00E94510C809105
:104E400046028068C1C0CE309CE5D90709F481C014
:104E500008F086C08091460294C0CD3FFCE5DF0794
:104E600009F47BC038F5C4319CE5D90709F49AC030
:104E700058F4C231FCE5DF0709F47AC008F07EC0BF
:104E8000809146028F7BA0C0CB3F9CE5D907F1F112
:104E900008F03FC0C531DC4509F098C0809146025A
:104EA00082FB222720F991E0922790FB82F990FB68
:104EB00083F98AC0C1308DE5D80709F467C050F482
:104EC00080914702CF3FECE5DE07C1F108F05BC0FF
:104ED0008D7F65C0C3308DE5D80709F471C008F433
:104EE0006DC0C236DD4509F071C08091460284FB79
:104EF000222720F991E0922790FB84F965C08091E8
:104F00004602816061C08091460216C080914702CE
:104F100016C080914702826042C080914602806143
:104F200053C08091460280624FC0809146028064E7
:104F30004BC0809146028860846046C08260816078
:104F40002EC0809146028E7F3FC0809146028D7FA9
:104F50003BC080914602877F37C08091470214C0D2
:104F6000809146028F7E30C0809146028F7D2CC09A
:104F70000E94510C809146028F7726C08091460294
:104F8000877F8B7F21C08D7F8E7F09C080914702F4
:104F9000982F909591708E7F892B90FB81F980934B
:104FA000470214C00E94510C8091460287FB2227C1
:104FB00020F991E0922790FB87F906C081E001C0BB
:104FC00080E00E943B1302C080934602809146021B
:104FD000909147020E94B5120E94510C80E001C0DE
:104FE00081E0DF91CF910895CF93DF9386319C4587
:104FF00041F5EB010E94AF11982F8A8120910301A6
:1050000030910401882379F09A7A81E009F480E0F4
:1050100080931102911102C069E201C065E3C901E8
:105020000E948A290AC080911102811102C069E29E
:1050300001C065E3C9010E948C290E94FA1180E039
:1050400001C081E0DF91CF9108950F931F93CF931B
:10505000DF93C42FD22FFC0182818823C9F04093B3
:1050600014020E94282A909313028093120280E275
:105070008C0F883008F057C0C77081E001C0880FDE
:10508000CA95EAF7DF91CF911F910F910C94B60961
:1050900080911402481330C0809112029091130243
:1050A0000E94402A883C910538F510E21D0FCD176B
:1050B000B9F080E28C0F883040F4C77081E001C005
:1050C000880FCA95EAF70E94BD09183028F581E0DB
:1050D0009D2F977001C0880F9A95EAF70E94B60934
:1050E000802F0E94AD091830F0F4D77081E001C024
:1050F000880FDA95EAF70AC080E28C0F883098F4BE
:10510000C77081E001C0880FCA95EAF7DF91CF919F
:105110001F910F910C94BD09802FDF91CF911F91AA
:105120000F910C94AD09DF91CF911F910F910895CC
:105130000F939C01CB01243F4CE5340731F188F4F7
:10514000293DFCE53F07D9F02A3D4CE5340779F1CC
:10515000283D3C45A9F506E221EE41EE68ED7CE5EF
:105160002BC0263FFCE53F07E1F0A8F0273F3C4578
:1051700039F507E225EE46EE67EF7CE51DC007E254
:1051800025EE45EE69ED7CE517C006E221EE40EE26
:1051900064EF7CE511C007E225EE44EE65EF7CE5A7
:1051A0000BC006E221EE42EE66EF7CE505C008E2A8
:1051B00021E045EE6AED7CE50E94252880E008C0EC
:1051C000FC018281882319F01092140201C081E051
:1051D0000F910895909365018093640108959093D1
:1051E0001A02809319020895E0911902F0911A02AF
:1051F000309721F00190F081E02D099480E008952E
:105200000E94F4280895E0911902F0911A02309753
:1052100021F00280F381E02D09940895E0911902B4
:10522000F0911A02309739F022E0DC012C930480CF
:10523000F581E02D0994089520911702309118020C
:105240002817390771F09093180280931702E091A4
:105250001902F0911A02309721F00680F781E02DB3
:1052600009940895209115023091160228173907E4
:1052700071F09093160280931502E0911902F0915B
:105280001A02309721F00084F185E02D09940895E9
:10529000FC01329697E080E0915029F02191222381
:1052A000D9F38F5FF9CF0895662349F0FC01329658
:1052B00008962191621729F0E817F907D1F780E0E5
:1052C000089581E008959C01FC0132969FEF80E0F3
:1052D0004191461789F09F3F19F4411101C0982F61
:1052E0008F5F8630A9F79F3F39F0F901E90FF11D73
:1052F00097FDFA956283089508959C012A5F3F4FB8
:10530000FC014281461301C0128201968217930765
:10531000B9F708950C9463290C947D29029626E030
:10532000FC0111922A95E9F7089508950C949529A6
:1053300083E080931B020C949629811102C081E0C6
:1053400001C082E080931B020C9496290C949D2945
:1053500081E080931B020C9496290C94A82908954F
:1053600080919B02843031F10E94C10610921C0290
:1053700020E488E190E00FB6F894A895809360004F
:105380000FBE2093600083B7817F846083BF83B7A3
:10539000816083BF7894889583B78E7F83BF0FB673
:1053A000F894A895809160008861809360001092C5
:1053B00060000FBE089508950C94DB29CF930E94DE
:1053C000DC290E9407170E94DB29C0E08C2F0E9475
:1053D0003F16811104C0CF5FC730C1F701C081E023
:1053E000CF9108950E94510C0C9447071F920F9281
:1053F0000FB60F9211248F939F93AF93BF93809119
:105400001C02811113C08091930290919402A0918B
:105410009502B09196024196A11DB11D8093930211
:1054200090939402A0939502B0939602BF91AF918E
:105430009F918F910F900FBE0F901F90189582E053
:1054400084BD93E095BD9AEF97BD80936E0008955B
:105450002FB7F8948091930290919402A0919502B5
:10546000B09196022FBF08952FB7F89460919302E0
:105470007091940280919502909196022FBF0895A9
:105480009C014FB7F8948091930290919402A0915F
:105490009502B09196024FBF821B930B08957894AA
:1054A0001F920F920FB60F9211248F939F93AF9379
:1054B000BF938091930290919402A0919502B09134
:1054C00096020196A11DB11D8093930290939402C0
:1054D000A0939502B0939602BF91AF919F918F9147
:1054E0000F900FBE0F901F90189587E797E7909346
:1054F0000108809300089AE088E10FB6F894A89517
:10550000809360000FBE90936000FFCF80912502D2
:1055100008950895089522E02093E9002FEF309137
:10552000E800215035FD06C035ED3A95F1F7000051
:105530002111F5CF2091E80025FF0BC040E050E09D
:1055400066E070E00E94832C8091E8008E77809363
:10555000E8000895CF93DF9321E02093E9002FEF37
:105560003091E800215035FD06C035ED3A95F1F750
:1055700000002111F5CF2091E80025FF14C0EC01B7
:1055800040E050E068E070E00E94832C8091E800E9
:105590008E778093E80088E0FE01ADE1B2E00190F3
:1055A0000D928A95E1F7DF91CF910895089580914A
:1055B0009A02811109C00E94142E0E94712E8091BE
:1055C000E20084608093E200089510929A020895A8
:1055D0000C94AD296091970281E0611101C080E0D7
:1055E0000C94982990919B0281E0943009F080E01E
:1055F000609197020C949D2942E061EC81E00E9449
:105600008D2D42E261EC82E00E948D2D90919B02F3
:1056100081E0943009F080E0609197020C94A62913
:1056200080919D02833009F461C030F4813071F0C3
:10563000823009F49AC008958A3009F486C08B300C
:1056400009F46CC0893009F0A8C020C080919C0288
:10565000813A09F0A2C08091E800877F8093E8003A
:105660008091A0029091A102892B21F468E08DE144
:1056700092E003C060E080E090E070E00E94CE2CF9
:105680008091E8008B778093E800089580919C02D8
:10569000813209F082C08091A0029091A10202970C
:1056A00008F07BC08091E800877F8093E8008091BC
:1056B000E80082FD05C080919B028111F8CF6DC08A
:1056C0002091F3008091F20090E0922B029731F448
:1056D0008091F100813011F0863021F48091F10049
:1056E000809325028091E8008B7753C080919C02C3
:1056F000813A09F052C08091A0029091A102892BB9
:1057000009F04BC08091E800877F8093E80080918A
:10571000E80080FFFCCF80912E0136C080919C0272
:105720008132D9F58091A0029091A102892BA9F52F
:105730008091E800877F8093E8000E94C22D8091CD
:105740009E0280932E010C94510C80919C02813218
:1057500021F58091E800877F8093E8000E94C22DA8
:1057600080919F0280932602089580919C02813A45
:10577000A1F48091E800877F8093E8008091E800A1
:1057800080FFFCCF809126028093F1008091E80099
:105790008E778093E8000C94C22D089584B7877F9C
:1057A00084BF0FB6F894A8958091600088618093BB
:1057B0006000109260000FBE90E080E80FB6F89491
:1057C00080936100909361000FBE0C94A8290E9401
:1057D000142E0E94712EE2EEF0E0808184608083BE
:1057E00078940C94063182E291E00C94EF28809139
:1057F0009B028530A9F480919B02853079F40E9448
:10580000B029809199028823B1F30E94DE29882370
:1058100091F30E946D2C0E94510CEDCF0C94F22953
:10582000089508950C94142C292F33272330310523
:10583000C9F060F42130310581F02230310509F0E2
:1058400044C08BE390E02BEF35E043C021323105BB
:10585000E1F02232310549F138C082E190E026E3DF
:1058600036E037C099278130910549F028F002973A
:1058700061F5E9EBF5E005C0E7EFF5E002C0E3ED27
:10588000F5E0849190E09F0124C06115710541F01D
:1058900061307105D1F489E090E026E236E019C06C
:1058A00089E090E02DE036E014C06115710541F00B
:1058B0006130710551F489E490E028E436E009C0D4
:1058C00080E490E021E936E004C080E090E020E050
:1058D00030E0FA0131832083089580E189BD82E1BF
:1058E00089BD09B400FEFDCF8091D8008F7D8093E3
:1058F000D8008091E00082608093E0008091E00019
:1059000081FDFCCF0895CF92DF92EF92FF920F932B
:105910001F93CF93DF93EC018B017A010E94E12D5D
:10592000811133C0E114F10439F0F70180819181D4
:10593000081B190BC80FD91FC12CD12C011511053B
:1059400019F18091E80085FD16C08091E8008E77FE
:105950008093E800E114F10449F0F701808191811E
:10596000C80ED91ED182C08285E00FC00E94E12DF1
:10597000882321F30AC089918093F1000150110915
:10598000FFEFCF1ADF0ADACF80E0DF91CF911F91CE
:105990000F91FF90EF90DF90CF9008952091A20299
:1059A0003091A3022617370748F06115710539F4C5
:1059B0002091E8002E772093E80001C0B901FC0196
:1059C00020E06115710579F180919B028823F1F146
:1059D0008530F1F18091E80083FD3CC08091E800C2
:1059E00082FD2EC08091E80080FFEBCF2091F30074
:1059F0008091F20090E0922B6115710551F0883092
:105A0000910538F421912093F100615071090196BC
:105A1000F3CF21E0089709F020E08091E8008E772D
:105A20008093E800CECF2111CFCF0AC080919B0296
:105A3000882361F0853061F08091E80083FD0AC021
:105A40008091E80082FFF2CF80E0089582E008951F
:105A500083E0089581E008952091A2023091A3028D
:105A60002617370748F06115710539F42091E800D1
:105A70002E772093E80001C0B901FC0120E06115F8
:105A8000710591F180919B02882309F440C0853013
:105A900009F43FC08091E80083FD3DC08091E8009B
:105AA00082FD2FC08091E80080FFE9CF2091F300B4
:105AB0008091F20090E0922B6115710559F08830C9
:105AC000910540F424912093F100319661507109C1
:105AD0000196F2CF21E0089709F020E08091E800DC
