:100000000C94BA020C9401030C9401030C940103A8
:100010000C9401030C9401030C9401030C94010350
:100020000C9401030C9401030C94BA280C948C29B1
:100030000C9421240C9401030C9401030C940103EF
:100040000C9401030C9401030C9401030C94010320
:100050000C9401030C947A240C9401030C94010376
:100060000C9401030C9401030C9401030C94010300
:100070000C9401030C9401030C9401030C940103F0
:100080000C9401030C9401030C9401030C940103E0
:100090000C9401030C9401030C9401030C940103D0
:1000A0000C9401030C9401030C940103BF08BF08D6
:1000B000EB08EB08790A5309790A790A6C09050AF1
:1000C000160A160A230B230B350B350B2C0B350B9D
:1000D000350B350B230B230B310B350B350B310B4C
:1000E000F929202A182B202A182B6C2A8F2A182B42
:1000F000E62AF52A290014001A0008001500170046
:10010000394104001600070009000A002B141D00E5
:100110001B000600190005001C0018000C0012004E
:1001200013002A000B000D000E000F003300280002
:1001300011001000360037003800330008612C64CD
:1001400000000151025100002B001E001F00200082
:1001500021002200010001000000F100F200010076
:10016000E1000100010001002D002E002300240009
:100170002500260027004C005000510052004F007F
:10018000010031002F003000340001000100E500C3
:10019000E300010001000100E05C00003500010007
:1001A0000100068001000100010080C007800100FD
:1001B00001000100E1003A003B003C003D003E0030
:1001C000010082C1010084C20100010001000100A0
:1001D00001000100010001003F0040004100420019
:1001E0004300E50044004500010003510100000008
:1001F000CA5CC85CC65CC45C0000C35CCB5CC95C08
:10020000C75CC55C000000000000000000000000AA
:1002100000000000000000000000000000000000DE
:10022000000000000000000000000000005C000072
:1002300000000000000000000100010000000100BB
:100240000100000000047F3F1F6432146432147800
:100250003C1E1E140A052223252628292A2C2D2F70
:100260003032333536383A3B3D3E404243454749CC
:100270004A4C4E5051535557595A5C5E6062646601
:1002800068696B6D6F71737577797B7D7F8183850D
:1002900087898A8C8E90929496989A9C9E9FA1A30F
:1002A000A5A7A8AAACAEAFB1B3B4B6B8B9BBBCBE33
:1002B000BFC1C2C3C5C6C7C9CACBCCCDCED0D1D2AF
:1002C000D2D3D4D5D6D7D7D8D9D9DADADBDBDBDCB1
:1002D000DCDCDCDCDDDDDDDDDCDCDCDCDCDBDBDB5D
:1002E000DADAD9D9D8D7D7D6D5D4D3D2D2D1D0CEBD
:1002F000CDCCCBCAC9C7C6C5C3C2C1BFBEBCBBB9C2
:10030000B8B6B4B3B1AFAEACAAA8A7A5A3A19F9E3F
:100310009C9A98969492908E8C8A89878583817F07
:100320007D7B79777573716F6D6B696866646260E8
:100330005E5C5A5957555351504E4C4A49474543B4
:1003400042403E3D3B3A3836353332302F2D2C2A51
:10035000292826252322FFAA7F55400001010101FB
:100360000101010101020202020202020202030370
:100370000303030303030404040404040405050540
:100380000505060606060607070707070808080802
:10039000090909090A0A0A0B0B0B0C0C0C0D0D0DAF
:1003A0000E0E0E0F0F0F1010111111121213131445
:1003B00014151516161717181819191A1A1B1B1CBD
:1003C0001D1D1E1E1F202021222223242425262617
:1003D000272829292A2B2C2D2D2E2F30313232334C
:1003E0003435363738393A3B3C3D3E3F4041424355
:1003F0004445464748494A4C4D4E4F505153545539
:100400005658595A5B5D5E5F616264656668696BE8
:100410006C6D6F7072737577787A7B7D7E80828366
:100420008587888A8C8E8F91939596989A9C9EA0AA
:10043000A2A3A5A7A9ABADAFB1B3B5B7BABCBEC0B7
:10044000C2C4C6C9CBCDCFD1D4D6D8DBDDDFE2E480
:10045000E7E9EBEEF0F3F5F8FAFDFF180365006449
:100460000069006E00620075007200670068003469
:100470000031000000220373006300680077006110
:100480000072007A00650072002D00670065006947
:100490000067006500720000000403090409023BC4
:1004A00000020100A0FA0904000001030101000993
:1004B00021110100012240000705810308000A09FB
:1004C000040100010300000009211101000122497B
:1004D000000705820320000A120100020000000844
:1004E000EDFE000001000102000105010902A10169
:1004F00085020901A1000509190129081500250136
:100500009508750181020501093009311581257FA2
:1005100095027508810609381581257F95017508B2
:100520008106050C0A38021581257F950175088121
:1005300006C0C005010906A101050719E029E71554
:100540000025019508750181029501750881010555
:1005500007190029FF150026FF0095067508810080
:100560000508190129059505750191029501750385
:100570009101C00011241FBECFEFDAE0DEBFCDBF76
:1005800004B603FE27C08091940290919502A09139
:100590009602B09197028730904BA740B04BD1F4B0
:1005A0001092940210929502109296021092970265
:1005B00014BE84B7877F84BF0FB6F894A895809146
:1005C0006000886180936000109260000FBEE0E0E0
:1005D000F8E3099511E0A0E0B1E0E2E6F8E502C039
:1005E00005900D92A036B107D9F722E0A0E6B1E060
:1005F00001C01D92A439B207E1F70E944B160C947A
:100600002F2C0C940000873941F178F4863349F19E
:1006100030F4843321F1853331F584E2089584394F
:10062000D1F0863901F581E20895843F71F030F40C
:10063000803FD9F0813FB9F481E00895863F49F0C9
:1006400030F0873F81F487E0089584E0089585E0E5
:10065000089586E0089580E2089582E2089583E295
:10066000089585E208958FE1089580E0089596E861
:1006700090937A00982F9072906890937B008F717E
:1006800090910001892B80937C0080917A00806496
:1006900080937A0080917A0086FDFCCF809178006B
:1006A0002091790090917A009F7790937A0090E062
:1006B000922B08950E9403030C943703282F88235C
:1006C00029F0269F212D1124822F0895269F212D68
:1006D0001124822F8195089510923D0210923C02C0
:1006E00010923B0210923A0210921F0208950E944B
:1006F0005A03811522E092070CF40396925097FD5D
:1007000003969595879595958795089580931F02F3
:1007100008950F931F93CF93DF93182F682F880F9F
:10072000770B072F77FF03C07195619571096111F0
:1007300002C080E001C085E0660F0E945E0321E0F8
:1007400030E0111614F020E030E0C02FCC1FCC2791
:10075000CC1F90E0D92F2C1B3D0B829F802D1124A4
:10076000DF91CF911F910F9108950F931F93CF9316
:10077000DF93182F682F880F770B072F77FF03C0A1
:10078000719561957109611102C080E001C082E03C
:10079000660F0E945E0321E030E0111614F020E0A5
:1007A00030E0C02FCC1FCC27CC1F90E0D92F2C1BC2
:1007B0003D0B829F802D1124DF91CF911F910F91CE
:1007C0000895FF920F931F93CF93DF93DB01EC010A
:1007D0009B0177FF04C022273327261B370BF22FFC
:1007E0008C01D7FF04C000271127081B190BF02E1E
:1007F00041E00F1708F040E081E0FF1608F480E0C8
:100800008F9DE02D11244F9FE00D11243327201BD5
:10081000310937FF03C0319521953109EE2339F0B5
:10082000D7FF05C0283731052CF0682F05C060E0E0
:1008300070E002C061E070E06170EE2349F01C16C8
:100840001D0634F4283731052CF481E090E002C015
:1008500080E090E08170EE2341F0B7FF06C02837BA
:1008600031052CF441E050E002C040E050E0942F0C
:100870009170EE2349F01A161B0634F471E0283704
:1008800031051CF0FF1608F070E07170DF91CF9118
:100890001F910F91FF900895CF93DF930E945324EF
:1008A00090933D0280933C0285E30E947703CFE161
:1008B000D2E0082E000C990B9A83898386E30E946C
:1008C0007703082E000C990B9C838B83DF91CF91CB
:1008D000089580911F02813089F018F0823009F16B
:1008E0000895809120020E948903809336028091AE
:1008F00022020E94890380933702089560912002AA
:100900007091210280912202909123020E94E103C2
:10091000609324027093250280932602909327020D
:100920000895809120020E94B5038093390280913E
:1009300022020E94B503809338020895641729F0BB
:1009400041110C9472050C948B050895FC01809163
:100950001F02813061F020F0823009F441C0089517
:10096000809136028283809137028383089540917B
:1009700024026091300280912802909129020E9405
:100980009E04409126026091320280912A02909149
:100990002B020E949E0440912702609133028091B5
:1009A0002C0290912D020E949E044091250260919C
:1009B000310280912E0290912F020E949E0480911C
:1009C000240290912502A0912602B09127028093E3
:1009D000300290933102A0933202B0933302089513
:1009E00080913902858380913802819584830895AE
:1009F0000C946C03CF93DF9300D000D000D0CDB720
:100A0000DEB780913C0290913D020E946B240B97CF
:100A1000D0F00E945A1929833A834B835C836D83FB
:100A20007E830E944C040E946904CE0101960E94BC
:100A3000A60449815A816B817C818D819E810E94AF
:100A40007B190E94201926960FB6F894DEBF0FBEC0
:100A5000CDBFDF91CF910895CF92DF92EF92FF92B9
:100A60006B017C010E948106813029F010F08230F8
:100A700029F480E001C082E00E948603C701B6012C
:100A8000FF90EF90DF90CF9008959C013A9521154B
:100A90003F4130F5BC0166277270AC0144275470A9
:100AA0009C012227387094FF0FC090FF02C080E1A4
:100AB00001C080E0672B09F08062452B09F080645B
:100AC000232B79F080680895892F8170672B09F0B6
:100AD0008260452B09F08460232B19F0886008950B
:100AE00080E00895CF93DF93EC01805E9109089731
:100AF00010F0209731F4CE010E9445050E9476083F
:100B000005C0CE010E9445050E94F10A8C2FDF919D
:100B1000CF910C945E07CF93DF93EC010E94EE0718
:100B2000CE01805E9109089710F0209739F4CE012C
:100B30000E944505DF91CF910C947D08CE010E9463
:100B40004505DF91CF910C94F80A81E0089581E08A
:100B500008950C94A70508950C94AB051F93CF93AB
:100B6000DF9300D000D01F92CDB7DEB749835A8300
:100B70006B833091620189819A81311114C066239F
:100B800059F0222349F00E94C90C182F682F89813F
:100B90009A810E94700C03C00E949C0C182F6981DE
:100BA0007A81812F04C00E94C90C69817A810F90DB
:100BB0000F900F900F900F90DF91CF911F910C9499
:100BC000C813FC01262F4081518162817381848189
:100BD0000C94AE0581E00895CF93DF93EC0160E0C3
:100BE0000E94E105BE01DF91CF910C94AC050E94FB
:100BF000D1140E94D8060C940B150C940715089577
:100C00000C94FF050C9400060E94020680E00E94EE
:100C1000D9060E94761E0C94FA040C94FF050E94DB
:100C2000110B0E940D062FEF84E39CE021508040C1
:100C30009040E1F700C000000C94A0240F931F9394
:100C4000CF93DF938C0161E00E94E105EC01B801D4
:100C50000E94A905882309F444C0B801CE010E946E
:100C6000C6228823F1F1B801CE010E94F02088232A
:100C7000C1F1B801CE010E942222882391F1B8016E
:100C8000CE010E94F91F882361F1F8018281882337
:100C900009F1CB358DE5D807C1F050F4C115FCE55D
:100CA000DF0781F0CF3DDC45A9F40E94F31119C0A4
:100CB000CC35EDE5DE0761F0CD35DD4559F40E9418
:100CC000361108C00E940F060CC00E943F1102C0DE
:100CD0000E944211C801DF91CF911F910F910C9496
:100CE000A50580E0DF91CF911F910F9108950C949D
:100CF000FF050E9422230E94D9060E94421F0C94E5
:100D00007706CF92DF92EF92FF926C01EE24FF24E0
:100D1000C114D104E104F10421F0C701B60120E1BE
:100D200001C020E0C72ED82EE92EFF24C114D10423
:100D3000E104F10419F0285FC701B6016B017C01E1
:100D400054E0F694E794D794C7945A95D1F7C11418
:100D5000D104E104F10419F02C5FC701B6016B0165
:100D60007C0142E0F694E794D794C7944A95D1F772
:100D7000C114D104E104F10419F02E5FC701B601DA
:100D8000DC01CB01B695A79597958795892B8A2B82
:100D90008B2B09F02F5F822FFF90EF90DF90CF9089
:100DA000089508950C94D10681E008950C94D4061A
:100DB0000895CF93C82F0E94D2068C2F0E94D6068A
:100DC000CF910895CF93DF93CDB7DEB72B970FB6B2
:100DD000F894DEBF0FBECDBF4F83588769877A87EF
:100DE0008B8761110E948F109E012F5F3F4F86E01D
:100DF000F90111928A95E9F785E0FE013796D9014C
:100E000001900D928A95E1F789819A814C815D81EB
:100E1000452B31F09F3F31F491E08F3F19F403C02F
:100E200091E001C090E090FF09C049815A816B8137
:100E30007C818D819E810E94B00F05C0C9010E94F6
:100E4000EA058111F2CF2B960FB6F894DEBF0FBEE4
:100E5000CDBFDF91CF910895FC01808191810E94E7
:100E60000B0D08950F931F93CF93DF9300D000D005
:100E700000D0CDB7DEB7082F162F0E945A1929834C
:100E80004B835C836D837E83002319F0512F532B9A
:100E900003C01095512F532349816B817C818D8133
:100EA0009E810E947B1926960FB6F894DEBF0FBE76
:100EB000CDBFDF91CF911F910F910895CF938823DC
:100EC00009F48AC0C82F8238C1F40E94222381FD10
:100ED00083C069E380910301909104010E94B523CE
:100EE0000E94B4102FEF81EE94E02150804090409A
:100EF000E1F700C0000069E319C0833801F50E94E2
:100F0000222380FD69C063E5809103019091040173
:100F10000E94B5230E94B4102FEF81EE94E021507F
:100F200080409040E1F700C0000063E5809103013C
:100F3000909104010E94B723CF910C94B41084388F
:100F4000C1F40E94222382FD47C067E4809103011F
:100F5000909104010E94B5230E94B4102FEF81EEFE
:100F600094E0215080409040E1F700C0000067E429
:100F7000DDCF8CEF8C0F813AD0F46C2F8091030180
:100F8000909104010E947F23882349F06C2F809167
:100F90000301909104010E94B7230E94B4106C2FAA
:100FA00080910301909104010E94B523C5CF80E296
:100FB0008C0F883048F4C77081E001C0880FCA9553
:100FC000EAF70E947210B8CFCD3E30F08C2F0E940D
:100FD000DA16CF910C94AC17CF910895882309F4B9
:100FE00064C0823879F40E94222381FF5EC069E3E5
:100FF00080910301909104010E94B5230E94B410D6
:1010000069E310C08338B1F40E94222380FF4DC0F1
:1010100063E580910301909104010E94B5230E9431
:10102000B41063E580910301909104010E94B723FD
:101030000C94B410843879F40E94222382FF35C0C6
:1010400067E480910301909104010E94B5230E94FE
:10105000B41067E4E7CF9CEF980F913A10F4682F33
:10106000E1CF90E2980F983050F4877091E001C082
:10107000990F8A95EAF7892F0E947810D9CF9BE5BE
:10108000980F933020F480E090E00C94472398E58B
:10109000980F973120F480E090E00C945D238D3E12
:1010A00020F00E9435170C94AC1708951F93CF932E
:1010B000DF93182FEB010E945E07209741F08FE924
:1010C0009FE00197F1F700C000002197F6CF812F34
:1010D000DF91CF911F910C94EE07893319F060E0F6
:1010E00070E002C060E570E00C945608882321F09F
:1010F0000E9472100C94B4100895882321F00E946D
:1011000078100C94B4100895CF92DF92EF92FF9272
:101110000F931F93CF93DF937C01D62FC72FFC0132
:101120001281058102950F700E9468108823B9F022
:101130001123A9F08C2F807F803421F080E28D0F65
:10114000883068F080913F0282FD09C082E00E94F1
:1011500004110E94681091E0D82ED92601C0D12C2C
:10116000CC2EC2948FE0C8228C2D90E08C3091055B
:1011700008F0BFC1FC01EA5AFF4F0C94962B8C2F4C
:10118000807FCF70882311F0C295C07F112399F022
:10119000CC2309F49AC180E28D0F883010F0D11170
:1011A00004C08C2F0E94721003C08C2F0E948210EA
:1011B0000E94B4108AC18D2F0E94EE07CC2309F43F
:1011C00098C180E28D0F883038F1DD2329F18C2F12
:1011D0000E94881024C08C2F807FCF70803211F045
:1011E000C295C07FDD2319F0D130A1F13DC08091BF
:1011F0003F0282FF17C0112349F0CC2329F08C2F26
:101200000E9472100E94B41080E060C180E00E94D1
:10121000EE07CC2309F46DC18C2F0E9478100E9438
:10122000B41067C1112371F0002341F0013031F493
:101230000E9495108C2B0E949D105BC10E949510FE
:101240008C2B1DC0002319F0013009F452C10E94FB
:10125000AA1025C0112321F0063008F04AC10EC0A3
:10126000053008F046C11BC0112361F0002331F0A6
:10127000F701858180FF29C18F7085838C2F0E94A3
:10128000760837C1002359F0D93309F02FC1FFEF99
:1012900007EE13E0F15000401040E1F725C18C2F1C
:1012A0000E947D0826C18D2F112319F00E94DA16A5
:1012B00002C00E9435178FE08D0F883050F461E036
:1012C00070E001C0660F8A95EAF7812F0E9432070D
:1012D00018C10E94AC1715C18C2F837009F047C04C
:1012E00011110BC12D2F229526952770220F220F49
:1012F0006D2F6F70862F90E0A0E0B0E0022E04C04A
:10130000880F991FAA1FBB1F0A94D2F7D4FF10C0E1
:101310004FE050E060E070E004C0440F551F661FCE
:10132000771F2A95D2F7409550956095709503C028
:1013300040E050E0BA01C695C695C3708A019B0192
:10134000082B192B2A2B3B2BC901B801C23049F0BD
:1013500058F4C13019F00E94860BCFC00E94740B64
:10136000CCC00E94980BC9C00E94720BC6C011234A
:1013700019F08C2F817001C08695882309F4BDC0B7
:101380002D2F229526952770220F220F6D2F6F701B
:10139000862F90E0A0E0B0E0022E04C0880F991FD5
:1013A000AA1FBB1F0A94D2F7D4FF10C04FE050E031
:1013B00060E070E004C0440F551F661F771F2A9538
:1013C000D2F7409550956095709503C040E050E08D
:1013D000BA01C695C695C3708A019B01082B192BCB
:1013E0002A2B3B2BC901B801C23049F058F4C13057
:1013F00019F00E944B0C81C00E94390C7EC00E94E3
:101400005D0C7BC00E94AC0B78C0CF70112339F00B
:101410008C2F0E94D20B8D2F0E9476086EC08D2FCC
:101420000E947D088C2F0E94F30B67C0D23F21F1F0
:1014300028F4D03F41F0D13FC1F043C0D33F19F170
:10144000D43F79F03EC0112341F0053008F051C07F
:101450008C2F8F710E94180C4CC0063008F049C0C8
:10146000F7CF80913F0282FF18C0112339F08C2FF3
:101470008F710E94D20B3DC01123C9F38C2F8F7145
:101480000E94F30B36C0112329F08C2F8F710E941C
:10149000BD0B2FC00E94B80B2CC0112349F0CF7197
:1014A0008C2F0E94D20B63E08C2F0E94E91021C088
:1014B00081E00E9404110230E0F082E00E940411F9
:1014C00018C0112331F0002391F28D2F0E945E0786
:1014D00010C0002399F2D93349F41FEF27EE33E00F
:1014E000115020403040E1F700C000008D2F0E94D5
:1014F000EE0788EF8C0D843020F40E9422230E9496
:10150000D906DD20C9F00E94641080FD15C0F701E6
:1015100012820E945E100E94D20BC7010E94BD0A77
:101520000E945E10DF91CF911F910F91FF90EF907D
:10153000DF90CF900C94F30BDF91CF911F910F911F
:10154000FF90EF90DF90CF9008950F931F93CF936C
:10155000DF93EC01688179818A810E94160D8C01EC
:101560000E946F0C0E94600BB801CE010E9484089B
:10157000DF91CF911F910F910895CF93DF93EC01ED
:10158000988189812B813C81232B31F08F3F31F46D
:1015900081E09F3F19F403C081E001C080E080FD3D
:1015A0001DC0CE010E941E06811110C00E9468104D
:1015B0008823A1F08A81882389F080913F0282FDEF
:1015C0000DC082E0DF91CF910C940411CE010E94F6
:1015D000A50ACE01DF91CF910C94EC05DF91CF915C
:1015E0000895882321F00E9482100C94B41008956D
:1015F000882321F00E9488100C94B41008950E9452
:101600008F100E9492100E94B4100E94DD180C945A
:10161000AC1780910301909104010E94B9230C94AE
:10162000FF0A0E947F100C94090BE92FE295EF70DE
:101630004E2F50E0FA013297EE30F105B0F4EE593A
:10164000FF4F0C94962B803F91F018F4883E68F47D
:101650000EC0843F51F40BC0883E48F0813F29F40E
:1016600006C093FB882780F9089580E0089581E003
:101670000895FC01808191810E940B0D0E94150B41
:101680000895CF93DF9300D000D01F92CDB7DEB77F
:101690000F900F900F900F900F90DF91CF910895C2
:1016A000CF93DF9300D000D000D0CDB7DEB7269621
:1016B0000FB6F894DEBF0FBECDBFDF91CF91089576
:1016C000089508950C94610B0C94620B0E94640BB6
:1016D00060938501709386018093870190938801C0
:1016E0000C94FF0A0C94660B0F931F9300918501D5
:1016F000109186012091870130918801602B712B18
:10170000822B932B1F910F910C94660B0F931F93B9
:101710000091850110918601209187013091880107
:1017200060237123822393231F910F910C94660BE6
:101730000F931F93009185011091860120918701DD
:101740003091880160277127822793271F910F917D
:101750000C94660B0C942C050E94AA0B60938101DB
:101760007093820180938301909384010C94FF0A0B
:1017700060E070E0CB010C94AC0B0F931F9341E041
:1017800050E060E070E08A019B0104C0000F111F6F
:10179000221F331F8A95D2F7C901B8011F910F91FB
:1017A0000C94AC0B0F931F9341E050E060E070E0AD
:1017B00004C0440F551F661F771F8A95D2F780918A
:1017C000810190918201A0918301B09184018A01ED
:1017D0009B01082B192B2A2B3B2BC901B8011F9108
:1017E0000F910C94AC0B0F931F9341E050E060E01D
:1017F00070E004C0440F551F661F771F8A95D2F70B
:1018000040955095609570958091810190918201ED
:10181000A0918301B09184018A019B0108231923BF
:101820002A233B23C901B8011F910F910C94AC0BE3
:101830000F931F9341E050E060E070E004C0440F5C
:10184000551F661F771F8A95D2F78091810190916D
:101850008201A0918301B09184018A019B01082734
:1018600019272A273B27C901B8011F910F910C9412
:10187000AC0B0F931F930091810110918201209175
:10188000830130918401602B712B822B932B1F914C
:101890000F910C94AC0B0F931F9300918101109149
:1018A000820120918301309184016023712382237E
:1018B00093231F910F910C94AC0B0F931F930091E6
:1018C0008101109182012091830130918401602770
:1018D0007127822793271F910F910C94AC0B0895C9
:1018E000292F220F920F990F890FE82FE695E69581
:1018F000E695877051E001C0550F8A95EAF785E0BB
:10190000E89FF0011124ED59FE4F20E030E070E037
:101910004081CB01022E02C0969587950A94E2F78A
:101920008170819584278523842781932F5F3F4F82
:101930002530310569F70895292F220F920F990F4D
:10194000890F682F669566956695982F977085E044
:10195000689FB001112440E050E080E0FB01E40FFB
:10196000F51FED59FE4F208130E0092E02C036955B
:1019700027950A94E2F721703327042E01C0220F25
:101980000A94EAF7822B4F5F5F4F4530510531F7DC
:101990000895BF92CF92DF92EF92FF920F931F9321
:1019A000CF93DF938C01C0908101D0908201E090B1
:1019B0008301F09084018091850190918601A0912E
:1019C0008701B0918801C82AD92AEA2AFB2ACFE1E7
:1019D000D0E0D701C6010C2E04C0B695A795979507
:1019E00087950A94D2F780FD04C0219790F7B12C17
:1019F00007C0BC2EB8018C2F0E94DB130197A9F3FE
:101A00008B2DDF91CF911F910F91FF90EF90DF9081
:101A1000CF90BF900895CF93DF93EC010E94C90C43
:101A2000BE010E94DB13DF91CF9108951F93CF93E6
:101A3000DF93EB0190916201992321F0CB010E9489
:101A40000B0D13C0882349F0CB010E94C90C182F3D
:101A5000682FCE010E94700C04C0CB010E949C0C28
:101A6000182FBE01812F0E94DB13DF91CF911F91B0
:101A700008951F93CF93DF93C091890116E0809161
:101A80008A01C81799F0D0E01C9FF0011D9FF00D4E
:101A90001124E557FE4F4081518162817381848119
:101AA00095810E94500B2196C770E9CFDF91CF91AD
:101AB0001F9108954091BB015091BC016091BD01FF
:101AC0007091BE018091BF019091C0010C94500BA8
:101AD000EF92FF920F931F93CF93DF938091C001FA
:101AE00082958F7009F065C08091BD01882309F44B
:101AF00060C080918901F0908A011091BB01009132
:101B0000BC016091BE017091BF0191E01F3F09F0DF
:101B100090E0C0910101D0910201292F96E0E92EB9
:101B20008F1509F446C06115710521F00F3F21F0B2
:101B300030E003C031E001C0322F90E030FD36C00C
:101B4000E89EF001E99EF00D1124DF01A557BE4F7C
:101B500011963C911197301329C03C91311326C046
:101B600012963C911297311121C013964D915C91C0
:101B70001497461B570B4C175D07C0F48091C001AA
:101B80008F7080618093C001E057FE4F80818F701D
:101B9000806180838BEB91E00E94BD0ADF91CF9141
:101BA0001F910F91FF90EF900C94390D0196877063
:101BB000B7CFDF91CF911F910F91FF90EF900895D4
:101BC0009F92AF92BF92CF92DF92EF92FF920F93CC
:101BD0001F93CF93DF93CDB7DEB761970FB6F8941D
:101BE000DEBF0FBECDBF8C0185E0F801DE011D9682
:101BF00001900D928A95E1F7D8011296EC909091A0
:101C0000BB01E091BC012091BE013091BF012115C3
:101C1000310531F0EF3F31F481E09F3F19F403C00B
:101C200081E001C080E0B82FB1709B2E80FD47C1DC
:101C3000D8014C9111965C9111971396AD90BC9080
:101C400014978BEBC82E81E0D82EF090BD01B50122
:101C5000621B730B2091010130910201FF2009F4F6
:101C6000D9C08091C0016217730708F095C0282F72
:101C7000207F09F052C05E1313C0491311C0FE2C1F
:101C8000E1100EC08F7080618093C0010E945A0DD8
:101C9000C6010E94BD0A8091C001F80185834DC133
:101CA000AB2831F05F3F31F481E04F3F19F403C0BE
:101CB00081E001C080E080FD03C081E08E2502C08C
:101CC00080E090E0F82FF170FF2E80FF1CC0809123
:101CD000890120918A0136E0821709F40BC190E056
:101CE000389FF001399FF00D1124E557FE4F6181B7
:101CF000561306C06081461303C06281E61203C01A
:101D000001968770E9CFFE2CEE2009F416C1809170
:101D1000C00181608093C00154C05E1306C04913A6
:101D200004C0E11002C0F80199C0C8010E94390B3B
:101D3000882361F1EE2051F12091C001822F82951C
:101D40008F7090E0029774F08091BB019091BC017C
:101D500098878F831986BB86AA862C87CE01079623
:101D60000E94BD0A86E0F801ABEBB1E001900D9254
:101D70008A95E1F70E94680D0E945A0D0AC05E170D
:101D800011F1C8010E94390B81112CC0C8010E94B9
:101D9000BD0AFF24F394D1C0282F207F81F77A2D2C
:101DA000B98AA88A6E2D89890E94410B8BEB91E03C
:101DB0000E94BD0A86E0D6011D928A95E9F70E942D
:101DC0005A0DF12CBAC04913DCCFE110DACFF8017B
:101DD0008583C8010E94BD0A86E0D6011D928A95BE
:101DE000E9F7ABC0EE2091F22091C001822F8295DD
:101DF0008F7090E002970CF4B5CF8091BB01909169
:101E0000BC019A8389831B82BD82AC822E83CE0162
:101E10000196A6CF6217730708F044C0FE2CEE208F
:101E200009F4B4CF5E1330C049132EC02091C00115
:101E300020FD21C0822F82958F70482F50E04115E0
:101E40005105C9F0F80125834F30510541F08F5FEE
:101E5000982F9295907F822F8F70892B8583C80150
:101E60000E94BD0A86E0F801ABEBB1E001900D9253
:101E70008A95E1F73CC086E0F801ABEBB1E0019058
:101E80000D928A95E1F759C0C8010E94390B811162
:101E900069CF8091C00181608093C001C8010E9418
:101EA000BD0A4BC07A2DB98AA88A6E2D89890E94F5
:101EB000410B86E0D6011D928A95E9F718C0EE2005
:101EC00009F464CFC8010E94390BF82E882309F465
:101ED0005DCF86E0F801ABEBB1E001900D928A9501
:101EE000E1F78BEB91E00E942C070E94680D0E94A5
:101EF0005A0D23C04D875E878D859E850E940B0DF0
:101F0000292F22952F70223028F49F7039F08111EB
:101F100005C00BC0243028F49F7049F4805E8830DF
:101F200020F0C8010E94BD0A9F2CF92C06C0D801E0
:101F300015969C91907F91F7F8CF8F2D61960FB6F3
:101F4000F894DEBF0FBECDBFDF91CF911F910F91EF
:101F5000FF90EF90DF90CF90BF90AF909F9008954B
:101F60001F93CF93DF93CDB7DEB72C970FB6F894BE
:101F7000DEBF0FBECDBF4F83588769877A878B87B7
:101F80009C87CE0107960E94E00D8823D1F09F81A7
:101F900088852A853B85232B31F08F3F31F481E002
:101FA0009F3F19F403C081E001C080E080FD47C07D
:101FB0004F81588569857A858B859C850E94500B59
:101FC0003EC086E0FE013796DE01119601900D922B
:101FD0008A95E1F7FF81E8856A857B856115710542
:101FE00031F0EF3F31F481E0FF3F19F403C081E0AD
:101FF00001C080E080FD23C020918A0130E0C9014A
:102000000196877099274091890150E084179507C0
:10201000F1F1F983EA837D836C8396E0929FD0018E
:10202000939FB00D1124A557BE4FFE01319601902C
:102030000D929A95E1F780938A010E94390D16E07E
:102040008091890190918A01891771F1189FC001CF
:10205000112485579E4F0E94E00D882329F1E091BD
:1020600089011E9FF0011124E557FE4F40815181E7
:1020700062817381848195810E94500B80918901D6
:1020800090E001968770992780938901D9CF0E94AB
:10209000110B10928A0110928901EBEBF1E086E0BE
:1020A000DF011D928A95E9F72C960FB6F894DEBFF2
:1020B0000FBECDBFDF91CF911F9108958091C101D7
:1020C00085958595859508958091C10187700895BE
:1020D0009091C101977081E009F480E008958091AA
:1020E000CD0108959091CD01892B8093CD01089564
:1020F00080959091CD0189238093CD010895109210
:10210000CD0108959091CC01892B8093CC01089545
:1021100080959091CC0189238093CC0108951092F1
:10212000CC0108951092CB0108958091C2010895C9
:1021300008950C9498100C94991090913F0292FD80
:1021400008C09091C201981721F08093C2010C94AD
:102150009B1008958091C201882329F01092C2013A
:1021600080E00C949B100895E0910301F09104012C
:102170008091CD018083E0910301F0910401908171
:102180008091CC01892B8083E0910301F0910401BF
:1021900090818091CB01892B80838091C20188231B
:1021A00081F0E0910301F09104019081892B8083FB
:1021B00080910301909104010E94732381110E9478
:1021C000AA1080910301909104010C942E230C9489
:1021D000981090913F0292FD10C098E0899F900165
:1021E0001124262B2093C1010E94D20B8091C101A2
:1021F0008595859585950C94E7100C94D20B1092DB
:10220000C10180E00C94E7102091C10180958223E8
:102210008093C101982F977099F430E0482F082ED1
:10222000000C550B2417350759F090913F0292FD91
:1022300007C08595859585950E94F30B0C94FF103A
:10224000089590913F0292FB222720F9281769F008
:1022500080FB92F990933F0280913E0290913F0261
:102260000E946F1182E00C940411089580913F0246
:1022700082FB882780F991E089270C94211181E065
:102280000C94211180E00C9421116FEF7FEF80E01E
:1022900090E00C94192C80E090E00E94F52B21E056
:1022A000893E9E4F09F020E0822F089582E090E061
:1022B0000C94E72B83E090E00C94E72BCF9384E021
:1022C00090E00E94E72BC82F82E290E00E94E72B6B
:1022D0002C2F30E0A901582BCA01CF910895CF933C
:1022E000C92F682F84E090E00E94FB2B6C2F82E2C4
:1022F00090E0CF910C94FB2BAB01BC018FE090E000
:102300000C940D2CAB01BC0183E190E00C940D2CDE
:1023100060E070E0CB010C94821160E070E0CB01D2
:102320000E947C110C94881169EE7EEF80E090E0B1
:102330000E94192C60E082E090E00E94FB2B60E09C
:1023400083E090E00E94FB2B1092850110928601A1
:10235000109287011092880160E084E090E00E9472
:10236000FB2B60E082E290E00E94FB2B60E085E0C6
:1023700090E00E94FB2B60E086E090E00E94FB2B47
:102380006FEF87E090E00E94FB2B40E050E0BA0145
:1023900088E090E00E940D2C60E08DE090E00E94CB
:1023A000FB2B40E050E0BA0188E190E00E940D2C48
:1023B00060E087E190E00E94FB2B40E050E0BA0132
:1023C0008CE190E00E940D2C60E070E080E290E0F3
:1023D0000E94192C40E050E0BA0188E190E00E9490
:1023E0000D2C0C948D110C949411682F8EE090E0BC
:1023F0000C94FB2B0E945F246093DA017093DB0145
:102400008093DC019093DD016093D6017093D70136
:102410008093D8019093D901089585B7806885BFCE
:1024200085B7806885BF089581E008950C941412E3
:1024300008950C9418120C9418120C941B120C94FE
:1024400018120C941F120C9418120E940D1287EB94
:1024500094E10E9418230E9423120C9421120E94DE
:1024600019120C9418120E944A240E94A8150E9466
:10247000071F0E94F8040C941D129F92AF92BF9206
:10248000CF92DF92EF92FF920F931F93CF93DF9340
:10249000CDB7DEB72A970FB6F894DEBF0FBECDBF1B
:1024A0000E94BD1581110E94FA118FECA82E81E0C7
:1024B000B82E00E010E0902E802F0E94F514D82E48
:1024C000F501C1905F01C826B1F40F5F1F4F0730BF
:1024D000110589F78FEF89838A831B820E94532419
:1024E0008160782F9D838C8349815A816B818D8196
:1024F0000E94E2062FC08091DE0181FD0E94FB1444
:10250000E12CFF24F3948C2D8F21F1F00E94161200
:10251000882399F0EE829F82DF2081E009F480E039
:1025200088870E9453248160782F9A8789874E81FB
:102530005F8168858A850E94E206F801E153FE4FBB
:102540008081F826F08206C0E394FF0CF6E0EF12DB
:10255000DACFBBCF0E944B1F0E94CA170E94FA0419
:102560000E9422239091CE018917B9F00E94222364
:102570008093CE012A960FB6F894DEBF0FBECDBF72
:10258000DF91CF911F910F91FF90EF90DF90CF904F
:10259000BF90AF909F900C94D9062A960FB6F894EE
:1025A000DEBF0FBECDBFDF91CF911F910F91FF9086
:1025B000EF90DF90CF90BF90AF909F900895CF9312
:1025C000DF930E94E013EC01811522E5920778F574
:1025D000811531E5930708F09DC08F3F910509F003
:1025E000B8F48D3E910508F06FC0853A910550F41E
:1025F0008430910508F0C8C0019709F0C2C081E09D
:1026000090E0C3C0805E9109089708F4BDC0B9C0CE
:10261000811540E5940708F05DC08115904408F0ED
:1026200055C0C11580E2D80708F4AEC0AAC0811514
:1026300026E5920728F5811535E5930708F087C050
:10264000811544E5940708F07CC0AC014370552720
:10265000282F26952695C115D34508F061C081E045
:1026600090E002C0880F991F4A95E2F740E2249F4C
:1026700090011124EC01C22BD32BCE019C6885C0A4
:1026800081152AE5920780F4811539E5930708F052
:1026900067C0811548E5940708F473C0D82FCC278C
:1026A000CE01806F906A71C090568115904208F0FB
:1026B00068C08D2F8F710E947414DD27D0628F71D6
:1026C000AE01582BCA0161C090655FC0DF70CE01BA
:1026D000906A5BC074E0969587957A95E1F7282F0C
:1026E00023703C2F337081E090E002C0880F991F67
:1026F0003A95E2F79C68AC01522B9A019C2F9F708F
:102700009695969550E2959FE0011124C9018C2B76
:102710009D2B3BC0D82FCC27CE01816F906A35C04E
:1027200081E090E002C0880F991F4A95E2F750E2DD
:10273000259F90011124EC01C22BD32BCE019A6866
:1027400024C0D82FCC27CE01846F906A1EC00E946F
:1027500074148F7190E0D82FCC27CE01906215C0F1
:102760008F700E94741494E0D695C7959A95E1F7FE
:10277000CF70D0E0DC2FCC27D0699E01282BC90177
:1027800004C080E090E001C0CE01DF91CF910895B8
:102790002AE2829FC0011124FC0126E0729FE00D15
:1027A000F11D1124E60FF11DEE0FFF1FEC50FF4F3E
:1027B0008591949108950E94C8130E94DF12089594
:1027C0008238910569F1B0F48133910509F46DC047
:1027D00048F48932910509F463C08A32910509F4FD
:1027E00069C008958533910509F455C08933910571
:1027F000B9F00895833E910569F138F4803E910562
:10280000B1F0823E910509F10895863E9105A9F146
:10281000873E9105B9F1843E910509F064C023C05B
:1028200020913E0220FD4FC021FD4DC008958091B2
:102830003E0280FD44C080913F0280FF44C08091F1
:102840003E0284FD42C083EE4DC080913E0282FF75
:1028500038C0F5CF80913E0282FD33C080913F02A7
:1028600080FD31C0ECCF80913F0281FF32C080916A
:102870003E0284FD2AC087EE35C080913E0283FF70
:1028800026C0F5CF80913E0283FD21C080913F029A
:1028900081FD1FC0ECCF80913E0285FD1CC01DC094
:1028A00080913E0285FD19C016C080913E0286FDD2
:1028B00016C017C080913E0286FD13C010C089E388
:1028C00011C082EE0FC080EE0DC080E00BC086EE1E
:1028D00009C084EE07C089E205C085E303C08AE22F
:1028E00001C081E390E0089590913E0292FF0DC0F7
:1028F000282F2871283019F4877F846006C0282F7C
:102900002471243011F48B7F886093FF0DC0282F31
:102910002871283119F4877E846106C0282F24711C
:10292000243111F48B7E886120913F0220FF0DC07D
:10293000382F3871383019F4877F816006C0382FFE
:102940003171313011F48E7F886021FF0DC0282F46
:102950002871283119F4877E816106C0282F2171E2
:10296000213111F48E7E886194FD877E089580E088
:1029700008950C9445110E94BD158FE39CE90197C1
:10298000F1F700C000000E94BD1580E00E94F51420
:1029900080FF04C00E94B9140C94A02408950C94E4
:1029A000BB140E944B11811102C00E94F3110E94BE
:1029B00056118093DE010E945E1190933F02809336
:1029C0003E020E94CF140E945A11682F70E080E0EE
:1029D00090E00E94720B6091810170918201809160
:1029E0008301909184010C94AA0BE82FF0E0E95B3D
:1029F000FD4F80810895089580EA8A95F1F7089542
:102A000000C008950C94FC1408950C9404150C94C3
:102A100005150C9404150C940915F894E82FE2950B
:102A2000EF70F0E031A1282F2F7081E090E001C01D
:102A3000880F2A95EAF7982F9095932391A392A156
:102A4000892B82A3789408950F931F93CF93DF93DC
:102A5000C3E3D1E089918F3F11F00E940D1581E011
:102A6000CA33D807B9F7CDE2D1E003E311E0899189
:102A70008F3F11F00E940D150C171D07C1F7DF9154
:102A8000CF911F910F910895CF92DF92EF92FF9215
:102A90000F931F93CF93DF938C01C62FD0E0CE010D
:102AA0008D5C9E4F7C01FC0190819F3F09F447C0E3
:102AB000D62EF894E92FE295EF70F0E081A19F7097
:102AC00021E030E001C0220F9A95EAF7822B81A322
:102AD00082A12095282322A378940E940015EDE27C
:102AE000F1E043E351E031E0C12C21912F3F89F027
:102AF000A22FA295AF70B0E090968C9190E02F70CD
:102B000002C0959587952A95E2F780FD02C0832F34
:102B100001C080E0C82A330F4E175F0731F7F70175
:102B200080818F3F11F00E940D1561E0C11001C03E
:102B300060E08D2D0E940215C00FD11FC882DF9169
:102B4000CF911F910F91FF90EF90DF90CF9008955C
:102B50000E94241587E0E7E4F2E0DF01982F1D9240
:102B60009A95E9F7E0E4F2E0DF011D928A95E9F732
:102B700087E00E9408160C94F705FF920F931F93AD
:102B8000CF93DF93CDB7DEB727970FB6F894DEBFAC
:102B90000FBECDBF8E010F5F1F4F87E0F80111926E
:102BA0008A95E9F7F12C6F2DC8010E944415F39422
:102BB000F7E0FF12F8CF47E050E0B80180E492E080
:102BC0000E94DA2BFF24F394009709F4F12C892B4F
:102BD00041F087E0F801A0E4B2E001900D928A95FF
:102BE000E1F72F2D47E067E472E080E492E00E9475
:102BF00009160E94FD058F2D27960FB6F894DEBFAB
:102C00000FBECDBFDF91CF911F910F91FF9008951F
:102C10000895FF920F931F93CF93DF938C01F62EAD
:102C2000D72FC42F222349F081E08093E1010E9435
:102C300053249093E0018093DF018091E101882388
:102C4000C1F08091DF019091E0010E946B24059713
:102C500080F0EF2DFD2FD8014C2F50E0CD01801BCF
:102C6000910B841795071CF48D918193F7CF1092E7
:102C7000E101DF91CF911F910F91FF9008950E9484
:102C800012260E9433120C941E260E9422260E94B5
:102C90003D120C943C260E94DA230E94F9250E94E2
:102CA00025120E943F160E9445160E942F12FBCF4C
:102CB0008091E80180FF0BC060910A0185E0689F68
:102CC000B001112475956795759567952BC081FFA7
:102CD00009C060910A0185E0689FB00111247595D3
:102CE000679520C082FF07C060910A0185E0689F58
:102CF000B001112417C09091E7019923D1F06091A0
:102D00000901961788F720910A0185E0289F900114
:102D10001124929FA001939F500D112470E0CA01CD
:102D20000E94602B6038710540F46115710519F43B
:102D300006C065E070E0862F08958FE7089581E072
:102D400008958091E80180FF08C06091060170E05D
:102D5000759567957595679521C081FF06C060914F
:102D6000060170E07595679519C082FF04C06091F7
:102D7000060170E010C09091E601992399F06091EE
:102D800005019617A0F780910601899FC0011124C3
:102D900070E00E94602B6038710540F46115710588
:102DA00019F406C061E070E0862F08958FE708955A
:102DB00081E008958D3E21F40E945816819504C04B
:102DC0008E3E29F40E9458168093EC0108958F3EA0
:102DD00021F40E945816819504C0803F29F40E9476
:102DE00058168093EB010895893F19F40E94A116AB
:102DF00005C08A3F31F40E94A11681958093ED01B0
:102E000008958B3F21F40E94A116819504C08C3F48
:102E100029F40E94A1168093EE0108959FE0980F77
:102E2000983078F421E030E0A90102C0440F551F2A
:102E30009A95E2F7CA019091EA01892B8093EA0101
:102E400008958D3F21F48091E80181600BC08E3F91
:102E500021F48091E801826005C08F3F29F48091C0
:102E6000E80184608093E80108958D3E39F49091E3
:102E7000EC0197FF35C01092EC0159C08E3E29F449
:102E80009091EC011916BCF32BC09091EB018F3E91
:102E900029F497FF25C01092EB0149C0803F19F437
:102EA0001916CCF31DC09091ED01893F29F4191634
:102EB000BCF41092ED013BC08A3F19F497FF10C09B
:102EC000F8CF8B3F39F49091EE0197FF09C0109233
:102ED000EE012DC08C3F21F49091EE011916BCF348
:102EE0009FE0980F983080F421E030E0A90102C003
:102EF000440F551F9A95E2F7CA0180959091EA0117
:102F000089238093EA0113C08D3F21F48091E80169
:102F10008E7F0BC08E3F21F48091E8018D7F05C02C
:102F20008F3F29F48091E8018B7F8093E8018091A5
:102F3000EB01811106C08091EC01811102C0109259
:102F4000E7018091ED01811106C08091EE018111B0
:102F500002C01092E60108950E9453242091EB01D3
:102F6000211104C02091EC01222321F09093E5016E
:102F70008093E4012091ED01211104C02091EE0124
:102F8000222321F09093E3018093E20189EE91E006
:102F90000C943923EF92FF920F931F93CF93DF93FB
:102FA00000D000D000D0CDB7DEB786E0E9EEF1E08A
:102FB000DE01119601900D928A95E1F7E090EB0108
:102FC000F090EC010091ED011091EE011092EB01F7
:102FD0001092EC011092ED011092EE01E11003C08D
:102FE000FF2009F45DC08091E4019091E5010E9409
:102FF0006B24AC019091E701992339F020910B01EA
:1030000030E02417350758F04BC020910C018AE0BE
:10301000289F900111242417350718F041C09F3FC5
:1030200019F09F5F9093E701EE2061F00E9458161F
:103030001E1414F09FEF01C091E0989F902D112471
:103040009093EB01FF2061F00E9458161F1414F0BA
:103050009FEF01C091E0989F902D11249093EC0177
:103060003091EB013323E1F02091EC012223C1F0F8
:1030700045EB3403C0011124992319F09093EB011F
:1030800003C081E08093EB0135EB2303C0011124E1
:10309000992319F09093EC0103C081E08093EC0137
:1030A000011103C0112309F45DC08091E2019091E8
:1030B000E3010E946B24AC019091E601992339F061
:1030C0002091070130E02417350758F04BC02091BC
:1030D00008018AE0289F900111242417350718F071
:1030E00041C09F3F19F09F5F9093E601002361F07C
:1030F0000E94A116101614F09FEF01C091E0989F56
:10310000902D11249093ED01112361F00E94A116DE
:10311000111614F09FEF01C091E0989F902D11249B
:103120009093EE013091ED013323E1F02091EE0117
:103130002223C1F045EB3403C0011124992319F077
:103140009093ED0103C081E08093ED0135EB230303
:10315000C0011124992319F09093EE0103C081E07E
:103160008093EE018091EB0181110BC08091EC0105
:10317000811107C08091ED01811103C08091EE01A2
:1031800081110E94AC17EB82FC820D831E8386E0C6
:10319000FE013196A9EEB1E001900D928A95E1F71A
:1031A00026960FB6F894DEBF0FBECDBFDF91CF914C
:1031B0001F910F91FF90EF900895E9EEF1E086E006
:1031C000DF011D928A95E9F71092E7011092E6015E
:1031D0001092E8010895EF92FF920F931F93CF93FF
:1031E000DF93CDB7DEB72C970FB6F894DEBF0FBED6
:1031F000CDBF49835A836B837C838D839E83EF820B
:10320000F88609871A872B873C8746E050E0BE0185
:10321000695F7F4FCE0101960E94DA2B21E0892B56
:1032200009F420E0822F2C960FB6F894DEBF0FBE73
:10323000CDBFDF91CF911F910F91FF90EF90089537
:10324000EF92FF920F931F93E090EF01F090F00147
:103250000091F1011091F2012091F3013091F401FC
:103260004091F5015091F6016091F7017091F801DC
:103270008091F9019091FA010E94EB18882321F0C6
:1032800085EF91E00E9439231092F7011092F80126
:103290001092F9011092FA0186E0E5EFF1E0AFEE4D
:1032A000B1E001900D928A95E1F71F910F91FF9087
:1032B000EF900895CF93DF9300D000D000D0CDB72A
:1032C000DEB786E0E5EFF1E0DE01119601900D92A8
:1032D0008A95E1F729813A814B815C816D817E81FC
:1032E00080E090E026960FB6F894DEBF0FBECDBF0B
:1032F000DF91CF910895CF93DF9300D000D000D01D
:10330000CDB7DEB749835A836B837C838D839E83DD
:1033100086E0FE013196A5EFB1E001900D928A950D
:10332000E1F726960FB6F894DEBF0FBECDBFDF9152
:10333000CF910895EF92FF920F931F93CF93DF9356
:103340008B01682F11110AC0442329F0E82FF0E007
:10335000E55AFC4F6491762F862F75C0212F30E0FF
:10336000E82FF0E0442321F0E55AFC4FE491F0E02F
:1033700046E0049FC0011124CFEFD0E0BE010E94BF
:103380004C2B4BEA4603C001479F900D1124800F40
:10339000911D800F911D982F990F890FAE01421B2F
:1033A000530B4E9FD0014F9FB00D5E9FB00D112467
:1033B0009B2F189FA0011124452F55278E01041B18
:1033C000150B0E9FA0010F9F500D1E9F500D112435
:1033D0007E01E81AF108E29E8001E39E100DF29E44
:1033E000100D1124212F3327C21BD30BCE9F900128
:1033F000CF9F300DDE9F300D112462307105A9F092
:1034000048F46115710569F061307105C9F48B2FBD
:10341000752F0DC06430710581F058F0663071056C
:1034200079F47E2F8B2F932F0DC0832F7B2F9E2F10
:1034300009C08E2F7B2F952F05C08E2F732F02C0B2
:103440007E2F852F692FDF91CF911F910F91FF90D4
:10345000EF90089541E00E949A19089508950E94FE
:103460002A1A0895CF93DF93762FE901682F842FCE
:103470000E942F1A798368838A83DF91CF91089500
:1034800080914E02282F269530E02115310519F440
:103490008170826005C02532310524F08170886416
:1034A00080934E02089588E090E00C94EF2BCF9229
:1034B000DF92EF92FF926B017C010E94401AB701EC
:1034C000A60188E090E0FF90EF90DF90CF900C9401
:1034D0000D2CEEE4F2E083E0808311828FEF828393
:1034E0008383148260817181828193810C94571A45
:1034F00080914E0280FF02C08695089580E0089575
:1035000090915202933018F49F5F90935202882357
:1035100051F060914E0270914F0280915002909153
:1035200051020C94571A089581E00C94801A9091DE
:103530005202992319F0915090935202882351F02E
:1035400060914E0270914F02809150029091510211
:103550000C94571A089581E00C94971A70E00C941B
:10356000C5206091110180914E0280FF0AC08091B8
:10357000100123E0829FC00111248D5A9D4F0C94AD
:10358000AE1A8091120190911301891780F7E82FEC
:10359000F0E09F01220F331FE20FF31FED5AFD4FA2
:1035A0001182108212828F5FF0CF90914E0290FFB5
:1035B00016C09091120120911301921770F4E92F17
:1035C000F0E0DF01AA0FBB1FEA0FFB1FED5AFD4F12
:1035D0008183608342839F5FF0CF0C94B11A08957A
:1035E000CF93DF9300D01F92CDB7DEB790914E02FC
:1035F00090FF0AC09E012F5F3F4F0E94321A4B81FD
:1036000069818A810E94D51A0F900F900F90DF91E7
:10361000CF910895CF93DF93EC01EC81F0E0EA5A6B
:10362000FD4F4491EEE4F2E0628181810E94F01A44
:103630008C818F5F8C83DF91CF910895CF93DF933F
:10364000EC01EEE4F2E0438162818C810E94F01A89
:103650008C818F5F8C83DF91CF9108950F931F939F
:10366000CF93DF9300D01F92CDB7DEB78C0180914E
:10367000FB0181110AC09E012F5F3F4F4FEF6FEF9B
:103680000E94321A8A818093FB01F8018481813083
:1036900051F028F0823061F44091FB010AC0809122
:1036A000FB0140E007C06091FB0140E080E003C007
:1036B00040E080E060E00E94D51AF801848190E04B
:1036C000019663E070E00E94602B84830F900F905E
:1036D0000F90DF91CF911F910F910895AF92BF92FC
:1036E000CF92DF92EF92FF920F931F93CF93DF93CE
:1036F00000D01F92CDB7DEB7182FF62E042FE22E82
:1037000090914E0290FF6DC0E92FE695AE2FB0E08C
:10371000A65CBE4F8C91809307029E7F923061F42D
:103720009E012F5F3F4F812F0E94321A4B8169818A
:103730008A810E94D51A43C0823019F40091510247
:103740003EC0863019F410914F0239C08930D9F348
:103750008931A9F5E9518E2F8170D82EE695F0E0D8
:10376000EA5AFC4FA590B490C12CBB24609114017F
:10377000C61618F52C2D30E0A29EC001A39E900D18
:10378000B29E900D112470E00E944C2B812FD1101D
:1037900002C0860F01C0861B90911201290F311DB6
:1037A000A901440F551F240F351F2D5A3D4F402F9F
:1037B0006F2D0E94321AC394D9CF0E94B11A109370
:1037C0004F02F092500200935102EE2051F06091AE
:1037D0004E0270914F0280915002909151020E94CE
:1037E000571A0F900F900F90DF91CF911F910F916B
:1037F000FF90EF90DF90CF90BF90AF900895EEE4F0
:10380000F2E09181282F4381628188E0890F0C9436
:103810006E1B81E00C94FF1BEEE4F2E09181282FF7
:103820004381628188EF890F0C946E1B81E00C94B8
:103830000C1CEEE4F2E0628128E0620F08F46FEF06
:10384000282F438181810C946E1B81E00C94191CFC
:10385000EEE4F2E0628128E0621B08F460E0282FC9
:10386000438181810C946E1B81E00C94281CEEE452
:10387000F2E0438128E0420F08F44FEF282F6281E5
:1038800081810C946E1B81E00C94371CEEE4F2E015
:10389000438128E0421B08F440E0282F62818181A7
:1038A0000C946E1B81E00C94461C20E00C946E1B63
:1038B000FF920F931F93CF93DF93EC01F12C0FEF47
:1038C00010E060911401F616F0F4809112012F2D92
:1038D00030E0280F311DC901880F991F280F391FAB
:1038E0002D5A3D4F70E0C8010E94602B962F8C81AD
:1038F0004091510260915002F99E800D11240E9466
:10390000321AF394DECF0E94B11A9A818C8190FF13
:1039100002C08F5F01C081508C83DF91CF911F91D6
:103920000F91FF900895BF92CF92DF92EF92FF9296
:103930000F931F93CF93DF93FC01828180FF02C01E
:103940000FEF01C001E010E080911401181708F09A
:1039500040C080911201C12ED12CE601C80FD11DAB
:10396000CE01880F991FC80FD91FCD5ADD4F19827C
:1039700018821A8234E0E32EF12CB12C8091FD01E3
:103980008B0D813114F08F7005C087FF03C09091BB
:103990001401890F082E000C990BC816D90691F452
:1039A000809151028E9DA0018F9D500D112455953F
:1039B0004795559547959E016091500280914F0221
:1039C0000E94321AB00EF1E0EF1AF108B9F61F5F4B
:1039D000BBCF0E94B11A8091FD01013031F48111F9
:1039E00002C080911401815007C090E0019660915F
:1039F000140170E00E94602B8093FD01DF91CF9154
:103A00001F910F91FF90EF90DF90CF90BF9008959E
:103A1000CF938091120190911301891770F4E82FD0
:103A2000F0E09F01220F331FE20FF31FED5AFD4F0D
:103A30001182108212828F5FF0CFC0E0609114017A
:103A4000C617C0F5EC2FF0E070E0CF010E94602BAC
:103A500020911201820F2091FC01022E000C330BE9
:103A600090E0E217F307CCF020910F01022E000C3A
:103A7000330B2E173F078CF09C01220F331F820F50
:103A8000931F9C012D5A3D4F40915102609150026D
:103A900080914F020E94321A0BC0FC01EE0FFF1FF3
:103AA0008E0F9F1FFC01ED5AFD4F11821082128272
:103AB000CF5FC4CF0E94B11A20910E018091FC010A
:103AC000820F8093FC0190910F01920F90930F0150
:103AD00019165CF4082E000C990B4091140150E06B
:103AE00041505109841795071CF0219520930E0130
:103AF000CF9108958F929F92AF92BF92CF92DF9213
:103B0000EF92FF920F931F93CF93DF938C01FC01F1
:103B10004481C42FD0E09E01DE010E94A42B9B01B2
:103B2000AC010E94BA2B6B017C01E0E2F0E0EC1BDF
:103B3000FD0BA5E5B0E09B01AC010E94BA2B4B0147
:103B40005C019F01DF010E949C2B9B01AC010E9444
:103B5000C52B9B01AC012C0D3D1D4E1D5F1DC501EC
:103B6000B4010E94742BC22FD22F2A3228F4F3E022
:103B70002F9F900111240DC025E530E02C1B310949
:103B8000C901880F991F280F391F37FF02C02F5F07
:103B90003F4F35952795C22FC095F12C85E5E82E2E
:103BA000ED1A80911401F816C8F4F1FC02C08E2DB4
:103BB00001C08D2F909112012F2D30E0290F311D62
:103BC000A901440F551F240F351F2D5A3D4F4C2F6F
:103BD000609150020E94321AF394E3CF0E94B11A0E
:103BE000F8018481811102C091E003C0803219F490
:103BF0009FEF90930D0190910D01890FF80184833F
:103C0000DF91CF911F910F91FF90EF90DF90CF90B8
:103C1000BF90AF909F908F9008950F931F93CF9375
:103C2000DF93EC0100E010E080911401282F30E0D8
:103C30000217130724F5909112019801290F311DE5
:103C4000A901440F551F240F351F2D5A3D4F86954E
:103C500090E04C81081719071CF4442331F002C08E
:103C6000411103C04091510201C040E060915002F7
:103C700080914F020E94321A0F5F1F4FD5CF0E94D2
:103C8000B11A8C8190E00196817099278C83DF9125
:103C9000CF911F910F910895EEE4F2E080818E7F25
:103CA000808360817181828193810E94571A109272
:103CB00008022FEF80E792E0215080409040E1F72A
:103CC00000C000000C94B11AEEE4F2E080818E7F17
:103CD0008083109208022FEF80E792E0215080400D
:103CE0009040E1F700C000000C94B11A1092080255
:103CF0008091050281110AC081E0809305028091C4
:103D00004E028170809304020C94641E08956091A9
:103D10004E02669570E04BE050E085E191E00E9434
:103D2000CD2B892B19F481E0809308020E94532443
:103D30009093FF018093FE01089590914E0290FFB1
:103D400035C09170811102C0926006C0853210F0BA
:103D5000986402C0880F982B90934E02662351F00E
:103D600060914E0270914F028091500290915102E9
:103D70000E94571A60914E02669570E04BE050E049
:103D800085E191E00E94CD2B892B19F01092080259
:103D900002C00E94871E81E080930102409151027F
:103DA0006091500280914F020C94551C0895682F29
:103DB00090914E02969581E0890F853208F081E05E
:103DC0000C949D1E81E00C94D71E682F90914E029A
:103DD00096958FEF890F09F484E20C949D1E81E083
:103DE0000C94E51E61E00C949D1EEEE4F2E08081EF
:103DF0008160808386950C94F21E80914E0280FD36
:103E00000C944C1E0C94F51E60E00C949D1E809149
:103E1000060281112EC00E944B11811104C00E9424
:103E2000F3110E94691A0E94531A60934E02709314
:103E30004F0280935002909351026E7F61F40E9472
:103E4000691A0E94531A60934E0270934F02809336
:103E50005002909351020E94401A109208028091E1
:103E60004E0280FF03C086950E94041F81E080936C
:103E700006020895EEE4F2E08081816080838695F9
:103E80000C94041F109205028091040281110E947B
:103E90003A1F0C94871E0F931F93CF93DF9380914B
:103EA0000802882309F485C080910702E0914E0240
:103EB000E695E81BE0930002823049F4F0E0EE5A08
:103EC000FD4FE491CE2FD0E00AE01BE149C08630DF
:103ED00049F4F0E0E15BFD4FE491CE2FD0E00EE13C
:103EE0001BE13EC0893051F4E695F0E0E45BFD4F04
:103EF000E491CE2FD0E008E51CE132C08F3051F4C0
:103F0000E695F0E0E75BFD4FE491CE2FD0E003E9CA
:103F10001CE126C0853149F4F0E0EA5BFD4FE491F5
:103F2000CE2FD0E008E01DE11BC0883181F0833244
:103F300039F4E4E4F2E0C591D4910EE21BE110C043
:103F4000843251F4C4EFD1E00DE01EE109C0C8E2B3
:103F5000D0E00AE71DE104C0C0EDD7E00EE21AE1AF
:103F600080910102882361F0109201020E94532483
:103F70009093FF018093FE011092030210920202BF
:103F80000E945324E091FE01F091FF018E1B9F0BD4
:103F90008F3F9F4770F4EC0FFD1FF093FF01E093FC
:103FA000FE018EEF91E0F801DF91CF911F910F910B
:103FB0000994DF91CF911F910F910895882311F0FB
:103FC000FA0101C0FB010994CF93DF93C82FD62FCC
:103FD0000E94781A8C1740F00E94781A8D1720F4EE
:103FE000DF91CF910C94E21E8C2FDF91CF910C9436
:103FF000F21E1F93CF93DF93FB011281112309F46B
:10400000BCC0EC010E946F108272CD3CFCE5DF0762
:1040100009F497C008F043C0C73CECE5DE0709F49B
:104020007CC0D8F4C43C9CE5D90709F46AC038F4D4
:10403000C33CDC4509F0A4C00E94FD1EA0C0C53CE5
:104040009CE5D90709F462C0C63CDC4509F098C07C
:1040500046E15CE169E07CE15DC0CA3CFCE5DF076C
:1040600009F465C070F4C83CECE5DE0709F45AC0F9
:10407000C93CDC4509F084C045E25CE164E37CE1D5
:1040800049C0CB3C9CE5D90709F456C0CC3CDC4583
:1040900009F076C04BEA5AE164E97AE13BC0C23DDF
:1040A000FCE5DF0709F45AC098F4CF3C9CE5D9073A
:1040B00009F44EC008F44AC0C03DFCE5DF0709F42E
:1040C0004AC0C13DDC4509F05BC06EE089E04EC0EE
:1040D000C53D9CE5D90709F447C050F4C33DFCE554
:1040E000DF07F9F1C43DDC4509F04AC088E142C070
:1040F000C63D9CE5D907E9F1CE35DD4509F43FC061
:104100003FC04FEE5EE162EE7EE104C042EE5EE152
:104110006FEE7EE10E94DE1F32C049E05CE166E1A5
:104120007CE1F8CF44E35CE165E27CE1F3CF42E57A
:104130005CE163E47CE1EECF43E45CE162E57CE1D9
:10414000E9CF44E95AE16BEA7AE1E4CF81E012C0B9
:1041500065E082E00BC068E086E008C064E18FE0C3
:1041600005C067E185E102C062E289E10E94E41FC7
:1041700006C083E20E94F21E02C011E001C010E0FE
:10418000812FDF91CF911F9108956A9A2EB12B7FD5
:104190003EB134604FB7F894FC01CB01880F991FF2
:1041A000680F791F6E0F7F1FE617F70789F081915F
:1041B00098E03EB9000000C087FF2EB9880F0000CC
:1041C00000C000C000C02EB900C09A9591F7ECCF96
:1041D0004FBF8FE594E00197F1F700C0000008950C
:1041E000CF93DF93EC01FB018281882309F426C180
:1041F000C430FDE5DF0760F4CB3F9CE5D90768F4E8
:104200009E0122503C452431310508F018C105C0FB
:10421000C236EDE5DE0709F012C10E945E119093EF
:104220003F0280933E02C031FCE5DF0709F4CAC0BB
:1042300008F041C0C8309CE5D90709F4A4C0F0F4E7
:10424000C430FCE5DF0709F48CC068F4C2309CE59B
:10425000D90709F482C0C330DC4509F0E5C080917C
:104260003E028260DFC0C630FCE5DF0709F483C090
:1042700008F085C080913E028860D4C0CC309CE5B7
:10428000D90709F490C068F4CA30FCE5DF0709F4E7
:104290007EC008F084C00E94110B80913E028068AD
:1042A000C1C0CE309CE5D90709F481C008F086C0B2
:1042B00080913E0294C0CD3FFCE5DF0709F47BC04E
:1042C00038F5C4319CE5D90709F49AC058F4C231D5
:1042D000FCE5DF0709F47AC008F07EC080913E0259
:1042E0008F7BA0C0CB3F9CE5D907F1F108F03FC020
:1042F000C531DC4509F098C080913E0282FB22273F
:1043000020F991E0922790FB82F990FB83F98AC013
:10431000C1308DE5D80709F467C050F480913F02A1
:10432000CF3FECE5DE07C1F108F05BC08D7F65C0D3
:10433000C3308DE5D80709F471C008F46DC0C236EA
:10434000DD4509F071C080913E0284FB222720F9EF
:1043500091E0922790FB84F965C080913E028160D4
:1043600061C080913E0216C080913F0216C08091CC
:104370003F02826042C080913E02806153C08091C2
:104380003E0280624FC080913E0280644BC08091AB
:104390003E028860846046C0826081602EC0809149
:1043A0003E028E7F3FC080913E028D7F3BC0809158
:1043B0003E02877F37C080913F0214C080913E0249
:1043C0008F7E30C080913E028F7D2CC00E94110BE9
:1043D00080913E028F7726C080913E02877F8B7F3F
:1043E00021C08D7F8E7F09C080913F02982F9095CC
:1043F00091708E7F892B90FB81F980933F0214C0CE
:104400000E94110B80913E0287FB222720F991E048
:10441000922790FB87F906C081E001C080E00E94EE
:10442000F51102C080933E0280913E0290913F02BE
:104430000E946F110E94110B80E001C081E0DF91AA
:10444000CF910895CF93DF9386319C4541F5EB01E1
:104450000E946F10982F8A812091030130910401EE
:10446000882379F09A7A81E009F480E08093090248
:10447000911102C069E201C065E3C9010E94B52340
:104480000AC080910902811102C069E201C065E39E
:10449000C9010E94B7230E94B41080E001C081E0EE
:1044A000DF91CF9108950F931F93CF93DF93C42F84
:1044B000D22FFC0182818823C9F040930C020E9414
:1044C000532490930B0280930A0280E28C0F883071
:1044D00008F057C0C77081E001C0880FCA95EAF79D
:1044E000DF91CF911F910F910C94760880910C026F
:1044F000481330C080910A0290910B020E946B24F5
:10450000883C910538F510E21D0FCD17B9F080E217
:104510008C0F883040F4C77081E001C0880FCA95C5
:10452000EAF70E947D08183028F581E09D2F9770EA
:1045300001C0880F9A95EAF70E947608802F0E94A2
:104540006D081830F0F4D77081E001C0880FDA955B
:10455000EAF70AC080E28C0F883098F4C77081E0D7
:1045600001C0880FCA95EAF7DF91CF911F910F9193
:104570000C947D08802FDF91CF911F910F910C94A7
:104580006D08DF91CF911F910F9108950F939C01BA
:10459000CB01243F4CE5340731F188F4293DFCE59B
:1045A0003F07D9F02A3D4CE5340779F1283D3C45D9
:1045B000A9F506E221EE41EE68ED7CE52BC0263F31
:1045C000FCE53F07E1F0A8F0273F3C4539F507E25D
:1045D00025EE46EE67EF7CE51DC007E225EE45EED1
:1045E00069ED7CE517C006E221EE40EE64EF7CE564
:1045F00011C007E225EE44EE65EF7CE50BC006E254
:1046000021EE42EE66EF7CE505C008E221E045EED2
:104610006AED7CE50E94532280E008C0FC018281A3
:10462000882319F010920C0201C081E00F910895C7
:10463000909361018093600108959093120280939A
:1046400011020895E0911102F0911202309721F0C9
:104650000190F081E02D099480E00895E09111022D
:10466000F0911202309721F00280F381E02D09943D
:104670000895E0911102F0911202309739F022E092
:10468000DC012C930480F581E02D0994089520919C
:104690000F02309110022817390771F09093100221
:1046A00080930F02E0911102F0911202309721F0F5
:1046B0000680F781E02D0994089520910D02309134
:1046C0000E022817390771F090930E0280930D02A5
:1046D000E0911102F0911202309721F00084F185EF
:1046E000E02D09940895FC01329697E080E0915006
:1046F00029F021912223D9F38F5FF9CF0895662302
:1047000049F0FC01329608962191621729F0E817CA
:10471000F907D1F780E0089581E008959C01FC013C
:1047200032969FEF80E04191461789F09F3F19F440
:10473000411101C0982F8F5F8630A9F79F3F39F054
:10474000F901E90FF11D97FDFA9562830895089527
:104750009C012A5F3F4FFC014281461301C0128237
:10476000019682179307B9F708950C948E230C9441
:10477000A823029626E0FC0111922A95E9F70895F4
:1047800008950C94C02383E0809313020C94C123FA
:10479000811102C081E001C082E0809313020C9479
:1047A000C1230C94C82381E0809313020C94C1238D
:1047B0000C94D323089580918B02843031F10E94B0
:1047C00004061092140220E488E190E00FB6F894F9
:1047D000A895809360000FBE2093600083B7817F0F
:1047E000846083BF83B7816083BF7894889583B7E3
:1047F0008E7F83BF0FB6F894A89580916000886182
:1048000080936000109260000FBE089508950C948C
:104810000624CF930E9407240E94BD150E940624FF
:10482000C0E08C2F0E94F514811104C0CF5FC73007
:10483000C1F701C081E0CF9108950E94110B0C9443
:1048400079061F920F920FB60F9211248F939F93A8
:10485000AF93BF9380911402811113C080918302A2
:1048600090918402A0918502B09186024196A11D8B
:10487000B11D8093830290938402A0938502B0932C
:104880008602BF91AF919F918F910F900FBE0F90B5
:104890001F90189582E084BD93E095BD9AEF97BD77
:1048A00080936E0008952FB7F894809183029091C1
:1048B0008402A0918502B09186022FBF08952FB780
:1048C000F8946091830270918402809185029091A6
:1048D00086022FBF08959C014FB7F8948091830200
:1048E00090918402A0918502B09186024FBF821BF5
:1048F000930B089578941F920F920FB60F92112484
:104900008F939F93AF93BF93809183029091840282
:10491000A0918502B09186020196A11DB11D8093E0
:10492000830290938402A0938502B0938602BF9184
:10493000AF919F918F910F900FBE0F901F90189580
:1049400087E797E790930108809300089AE088E151
:104950000FB6F894A895809360000FBE9093600006
:10496000FFCF80911D0208950895089522E02093BD
:10497000E9002FEF3091E800215035FD06C035EDFC
:104980003A95F1F700002111F5CF2091E80025FFBD
:104990000BC040E050E066E070E00E94AE268091DF
:1049A000E8008E778093E8000895CF93DF9321E0AD
:1049B0002093E9002FEF3091E800215035FD06C02B
:1049C00035ED3A95F1F700002111F5CF2091E8007F
:1049D00025FF14C0EC0140E050E068E070E00E9468
:1049E000AE268091E8008E778093E80088E0FE0193
:1049F000A5E1B2E001900D928A95E1F7DF91CF91A8
:104A00000895089580918A02811109C00E943F286B
:104A10000E949C288091E20084608093E2000895C7
:104A200010928A0208950C94D8236091870281E045
:104A3000611101C080E00C94C32390918B0281E04E
:104A4000943009F080E0609187020C94C82342E022
:104A500061EC81E00E94B82742E261EC82E00E94B2
:104A6000B82790918B0281E0943009F080E060914A
:104A700087020C94D12380918D02833009F461C0A8
:104A800030F4813071F0823009F49AC008958A3090
:104A900009F486C08B3009F46CC0893009F0A8C0D5
:104AA00020C080918C02813A09F0A2C08091E80078
:104AB000877F8093E8008091900290919102892BEA
:104AC00021F468E085E192E003C060E080E090E0DE
:104AD00070E00E94F9268091E8008B778093E800CF
:104AE000089580918C02813209F082C080919002F9
:104AF00090919102029708F07BC08091E800877F37
:104B00008093E8008091E80082FD05C080918B02CF
:104B10008111F8CF6DC02091F3008091F20090E0F8
:104B2000922B029731F48091F100813011F08630A0
:104B300021F48091F10080931D028091E8008B7731
:104B400053C080918C02813A09F052C0809190024A
:104B500090919102892B09F04BC08091E800877FEA
:104B60008093E8008091E80080FFFCCF80912C01C9
:104B700036C080918C028132D9F58091900290915B
:104B80009102892BA9F58091E800877F8093E80046
:104B90000E94ED2780918E0280932C010C94110BC2
:104BA00080918C02813221F58091E800877F80938B
:104BB000E8000E94ED2780918F0280931E020895E5
:104BC00080918C02813AA1F48091E800877F8093E4
:104BD000E8008091E80080FFFCCF80911E02809366
:104BE000F1008091E8008E778093E8000C94ED2727
:104BF000089584B7877F84BF0FB6F894A8958091F5
:104C00006000886180936000109260000FBE90E0A9
:104C100080E80FB6F89480936100909361000FBE16
:104C20000C94D3230E943F280E949C28E2EEF0E0DF
:104C300080818460808378940C94312B80E291E0B1
:104C40000C941D2380918B028530A9F480918B02F6
:104C5000853079F40E94DB23809189028823B1F3A7
:104C60000E940924882391F30E9498260E94110B28
:104C7000EDCF0C941D24089508950C943F26292F00
:104C8000332723303105C9F060F42130310581F03C
:104C90002230310509F044C08BE390E02DE934E087
:104CA00043C021323105E1F02232310549F138C0EB
:104CB00082E190E028ED34E037C0992781309105FA
:104CC00049F028F0029761F5EBE5F4E005C0E9E969
:104CD000F4E002C0E5E7F4E0849190E09F0124C095
:104CE0006115710541F061307105D1F489E090E002
:104CF00028EC34E019C089E090E02FEA34E014C0D9
:104D00006115710541F06130710551F489E490E05D
:104D10002AEE34E009C080E490E023E335E004C0EB
:104D200080E090E020E030E0FA01318320830895B4
:104D300080E189BD82E189BD09B400FEFDCF80918B
:104D4000D8008F7D8093D8008091E00082608093AE
:104D5000E0008091E00081FDFCCF0895CF92DF92CA
:104D6000EF92FF920F931F93CF93DF93EC018B0190
:104D70007A010E940C28811133C0E114F10439F04A
:104D8000F70180819181081B190BC80FD91FC12C15
:104D9000D12C0115110519F18091E80085FD16C08F
:104DA0008091E8008E778093E800E114F10449F0E7
:104DB000F70180819181C80ED91ED182C08285E021
:104DC0000FC00E940C28882321F30AC08991809388
:104DD000F10001501109FFEFCF1ADF0ADACF80E0AE
:104DE000DF91CF911F910F91FF90EF90DF90CF90C7
:104DF000089520919202309193022617370748F0C8
:104E00006115710539F42091E8002E772093E800B0
:104E100001C0B901FC0120E06115710579F18091B3
:104E20008B028823F1F18530F1F18091E80083FD58
:104E30003CC08091E80082FD2EC08091E80080FF98
:104E4000EBCF2091F3008091F20090E0922B61155E
:104E5000710551F08830910538F421912093F100CB
:104E6000615071090196F3CF21E0089709F020E025
:104E70008091E8008E778093E800CECF2111CFCFCC
:104E80000AC080918B02882361F0853061F08091A7
:104E9000E80083FD0AC08091E80082FFF2CF80E045
:104EA000089582E0089583E0089581E008952091B7
:104EB0009202309193022617370748F06115710569
:104EC00039F42091E8002E772093E80001C0B90161
:104ED000FC0120E06115710591F180918B0288231E
:104EE00009F440C0853009F43FC08091E80083FD9B
:104EF0003DC08091E80082FD2FC08091E80080FFD6
:104F0000E9CF2091F3008091F20090E0922B61159F
:104F1000710559F08830910540F424912093F100F7
:104F20003196615071090196F2CF21E0089709F09E
:104F300020E08091E8008E778093E800CBCF2111AC
:104F4000CCCF0AC080918B02882361F0853061F05C
:104F50008091E80083FD0AC08091E80082FFF2CFD3
:104F600080E0089582E0089583E0089581E0089547
:104F7000982F973068F59093E900981739F0709161
:104F8000EC002091ED005091F00003C0242F762F0B
:104F900050E021FD02C09F5FECCF3091EB003E7FDF
:104FA0003093EB003091ED003D7F3093ED00309178
:104FB000EB0031603093EB007093EC002093ED0038
:104FC0005093F0002091EE0027FDE5CF80E008959A
:104FD0008F708093E90081E0089580918C0287FFB3
:104FE00011C08091E80082FD05C080918B02811183
:104FF000F8CF11C08091E8008B770BC080918B02B5
:10500000882349F08091E80080FFF8CF8091E80084
:105010008E778093E80008952091E4003091E500B8
:1050200095E64091EC00842F817040FF23C0809171
:10503000E80080FD1DC080918B02882399F08530A7
:1050400099F08091EB0085FD11C04091E4005091F2
:10505000E5002417350729F3915011F09A01E1CFAB
:1050600084E0089582E0089583E0089581E0089542
:1050700080E008954091E80042FFDDCF08950E944E
:10508000AD280E94B528E0EEF0E080818160808349
:10509000E8EDF0E080818F77808319BCA7EDB0E068
:1050A0008C918E7F8C9380818F7E808310928A0278
:1050B00008950F931F93CF93DF930E94AD280E9412
:1050C000B528C8EDD0E088818F7788838881806893
:1050D000888388818F7D888319BC10928B021092FF
:1050E0008702109289021092880200EE10E0F80107
:1050F00080818B7F808388818160888342E060E04B
:1051000080E00E94B827E1EEF0E080818E7F80830E
:10511000E2EEF0E08081816080838081886080831E
:10512000F80180818E7F8083888180618883DF9110
:10513000CF911F910F910895E8EDF0E080818F7E6F
:105140008083E7EDF0E080818160808384E082BF2E
:1051500081E080938A020C945928E8EDF0E0808188
:105160008E7F80831092E20008951092DA001092F0
:10517000E10008951F920F920FB60F9211242F9302
:105180003F934F935F936F937F938F939F93AF93CF
:10519000BF93EF93FF938091E10082FF0BC080915A
:1051A000E20082FF07C08091E1008B7F8093E100E5
:1051B0000E94302B8091DA0080FF1FC08091D800C0
:1051C00080FF1BC08091DA008E7F8093DA0080918F
:1051D000D90080FF0DC080E189BD82E189BD09B49D
:1051E00000FEFDCF81E080938B020E94022505C066
:1051F00019BC10928B020E9410258091E10080FF63
:1052000019C08091E20080FF15C08091E2008E7F7E
:105210008093E2008091E20080618093E2008091BF
:10522000D80080628093D80019BC85E080938B02FF
:105230000E9415258091E10084FF30C08091E2003A
:1052400084FF2CC080E189BD82E189BD09B400FEE4
:10525000FDCF8091D8008F7D8093D8008091E100B0
:105260008F7E8093E1008091E2008F7E8093E20048
:105270008091E20081608093E20080918702882320
:1052800011F084E007C08091E30087FD02C081E057
:1052900001C083E080938B020E941D258091E10074
:1052A00083FF29C08091E20083FF25C08091E10047
:1052B000877F8093E10082E080938B0210928702C7
:1052C0008091E1008E7F8093E1008091E2008E7FEB
:1052D0008093E2008091E20080618093E20042E0EE
:1052E00060E080E00E94B8278091F00088608093A1
:1052F000F0000E941325FF91EF91BF91AF919F9114
:105300008F917F916F915F914F913F912F910F906E
:105310000FBE0F901F9018951F920F920FB60F920D
:1053200011242F933F934F935F936F937F938F93AA
:105330009F93AF93BF93CF93DF93EF93FF93C0916E
:10534000E900CF708091EC00D82FD17080FDD0E8BB
:105350001092E9008091F000877F8093F0007894AC
:105360000E94D0291092E9008091F000886080931B
:10537000F000CD2BCF70C093E900FF91EF91DF914A
:10538000CF91BF91AF919F918F917F916F915F91DD
:105390004F913F912F910F900FBE0F901F90189536
:1053A0001F93CF93DF93CDB7DEB7AA970FB6F894CC
:1053B000DEBF0FBECDBFECE8F2E08091F10081933B
:1053C00022E0E439F207C9F70E943B258091E8000A
:1053D00083FF2EC180918C0290918D02492F50E065
:1053E0004A30510508F024C1FA01E059FF4F0C94EE
:1053F000962B803821F0823809F01AC108C08091BC
:10540000880290918902992389F082600FC080916F
:1054100090028F70873008F00BC18093E900809173
:10542000EB0085FB882780F91092E9009091E80055
:10543000977F9093E8008093F1001092F100D1C023
:10544000282F2D7F09F0F4C0882319F0823061F0F5
:10545000EFC080918E02813009F0EAC0933009F0EC
:1054600080E0809389022EC080918E0281112AC033
:10547000809190028F702FEF280F263008F0D8C04F
:105480008093E9002091EB0020FF1CC0933021F4B1
:105490008091EB00806214C09091EB00906190933A
:1054A000EB0021E030E0A90102C0440F551F8A95AE
:1054B000E2F74093EA001092EA008091EB008860E6
:1054C0008093EB001092E9008091E800877F809341
:1054D000E8000E94ED27ACC08111AAC010918E0295
:1054E0001F778091E3008078812B8093E300809187
:1054F000E800877F8093E8000E94ED278091E80014
:1055000080FFFCCF8091E30080688093E30011115D
:1055100002C082E001C083E080938B0289C0805882
:10552000823008F085C080918E0290918F028C3D70
:1055300053E0950779F583E08A838AE289834FB740
:10554000F894DE01139620E03EE051E2E32FF0E014
:1055500050935700E49120FF03C0E295EF703F5F46
:10556000EF708E2F90E0EA3010F0C79601C0C09621
:105570008D939D932F5F243149F74FBF8091E800B1
:10558000877F8093E8006AE270E0CE0101960E9476
:10559000F92616C06091900270919102AE014F5FA2
:1055A0005F4F0E943D26BC01892B09F441C09091B8
:1055B000E800977F9093E80089819A810E9457279D
:1055C0008091E8008B778093E80032C0803881F5C5
:1055D0008091E800877F8093E80080918702809324
:1055E000F1008091E8008E7772CF811121C0809107
:1055F0008E0290918F0299270297D4F48091E8004F
:10560000877F8093E80080918E02809387020E94BA
:10561000ED2780918702811106C08091E30087FD0C
:1056200002C081E001C084E080938B020E942725A4
:105630008091E80083FF0AC08091E800877F809313
:10564000E8008091EB0080628093EB00AA960FB691
:10565000F894DEBF0FBECDBFDF91CF911F910895AB
:105660000895CF9380918B028823A1F0C091E90027
:10567000CF709091EC00892F817090FD80E8C82B4D
:105680001092E9008091E80083FD0E94D029CF703C
:10569000C093E900CF910895AA1BBB1B51E107C03D
:1056A000AA1FBB1FA617B70710F0A61BB70B881FB2
:1056B000991F5A95A9F780959095BC01CD01089541
:1056C00097FB072E16F4009407D077FD09D00E94AF
:1056D0004C2B07FC05D03EF4909581959F4F089583
:1056E000709561957F4F0895A1E21A2EAA1BBB1BEE
:1056F000FD010DC0AA1FBB1FEE1FFF1FA217B3079E
:10570000E407F50720F0A21BB30BE40BF50B661FB3
:10571000771F881F991F1A9469F760957095809577
:1057200090959B01AC01BD01CF010895EE0FFF1FC5
:105730000590F491E02D09940E94A42B332312F4D8
:105740008A1B9B0B0C94B52BA29FB001B39FC00189
:10575000A39F700D811D1124911DB29F700D811D9D
:105760001124911D08950E94A42BB7FF0895821B58
:10577000930B08950E94A42BA59F900DB49F900DAC
:10578000A49F800D911D11240895B7FF0C94BA2B8E
:105790000E94BA2B821B930B0895FC01415050408C
:1057A00030F001900616D1F73197CF010895882780
:1057B00099270895FB01DC0104C08D9101908019A7
:1057C00021F441505040C8F7881B990B0895F9996E
:1057D000FECF92BD81BDF89A992780B50895A6E1C4
:1057E000B0E044E050E00C94212CA8E1B0E042E0AD
:1057F00050E00C94212C262FF999FECF92BD81BD4B
:10580000F89A019700B4021639F01FBA20BD0FB6FE
:10581000F894FA9AF99A0FBE08950396272F0E94DA
:10582000FC2B0E94FB2B252F0E94FC2B242F0C9479
:10583000FC2B0196272F0E94FC2B0C94FB2BDC01E8
:10584000CB01FC01F999FECF06C0F2BDE1BDF89A8B
:10585000319600B40D9241505040B8F70895F89435
:02586000FFCF78
:1058620040C800C3012808641E140A321E01010246
:10587200001000101001191A1B1C1D1E1F202122CE
:10588200B124D524B6240125B424B524019194660B
:1058920097C634F4F5F6F731333200010202020200
:1058A2000606060909090909090F0F0F0F0F0F153F
:1058B2001515181919191919191919191923240063
:00000001FF
