:100000000C94F5010C943C020C943C020C943C02C0
:100010000C943C020C943C020C943C020C943C0268
:100020000C943C020C943C020C9458230C942A240B
:100030000C94BF1E0C943C020C943C020C943C02A9
:100040000C943C020C943C020C943C020C943C0238
:100050000C94F21A0C94181F0C943C020C943C0261
:100060000C943C020C943C020C943C020C943C0218
:100070000C943C020C943C020C943C020C943C0208
:100080000C943C020C943C020C943C020C943C02F8
:100090000C943C020C943C020C943C020C943C02E8
:1000A0000C943C020C943C020C943C02FD07FD07AE
:1000B00029082908B7099108B709B709AA08430907
:1000C00054095409610A610A730A730A6A0A730AB5
:1000D000730A730A610A610A6F0A730A730A6F0A64
:1000E000011A031A081A0B1A0E1A111A141A972455
:1000F000BE24B625BE24B6250A252D25B625842581
:100100009325290014001A00080015001700394132
:1001100004001600070009000A00E1001D001B0092
:100120000600190005001C0018000C001200130046
:100130002A000B000D000E000F00330028001100F4
:100140001000360037003800E500E3612C64000041
:100150000151025100002B001E001F002000210051
:100160002200010001000000F100F2000100E100A6
:100170000100010001002D002E00230024002500B5
:10018000260027004C005000510052004F00010093
:1001900031002F003000340001000100E500E300D1
:1001A000010001000100E05C0000350001000100D9
:1001B000068001000100010080C0078001000100ED
:1001C0000100E1003A003B003C003D003E00010020
:1001D00082C1010084C20100010001000100010090
:1001E0000100010001003F004000410042004300C7
:1001F000E500440045000100035101000000CA5C15
:10020000C85CC65CC45C0000C35CCB5CC95CC75CFA
:10021000C55C0000000000000000000000000000BD
:1002200000000000000000000000000000000000CE
:1002300000000000000000000000005C0000000062
:1002400000000000000001000100000001000100AA
:10025000000000000000000000000000000101029A
:1002600003040506080A0C0F1114181C2024292E5B
:1002700033393F464C535B626A7179818A929AA204
:10028000AAB2B9C1C8CFD5DCE1E7EBF0F4F7FAFCCC
:10029000FDFEFFFEFDFCFAF7F4F0EBE7E1DCD5CF65
:1002A000C8C1B9B2AAA29A928A8179716A625B5373
:1002B0004C463F39332E2924201C1814110F0C0AE8
:1002C0000806050403020101000000000000000010
:1002D000000018036500640069006E00620075008C
:1002E00072006700680034003100000022037300D0
:1002F000630068007700610072007A006500720098
:100300002D0067006500690067006500720000004D
:100310000403090409023B00020100A0FA090400D9
:100320000001030101000921110100012240000721
:1003300005810308000A0904010001030000000907
:1003400021110100012249000705820320000A1241
:1003500001000200000008EDFE00000100010200A3
:100360000105010902A10185020901A10005091980
:10037000012908150025019508750181020501096B
:100380003009311581257F950275088106093815D8
:1003900081257F950175088106050C0A38021581B3
:1003A000257F950175088106C0C005010906A101D8
:1003B000050719E029E71500250195087501810257
:1003C0009501750881010507190029FF150026FF11
:1003D0000095067508810005081901290595057520
:1003E000019102950175039101C011241FBECFEF49
:1003F000DAE0DEBFCDBF04B603FE27C080911F0246
:1004000090912002A0912102B09122028730904B5E
:10041000A740B04BD1F410921F021092200210920C
:1004200021021092220214BE84B7877F84BF0FB6C8
:10043000F894A89580916000886180936000109284
:1004400060000FBEE0E0F8E3099511E0A0E0B1E044
:10045000EAE6FDE402C005900D92AA32B107D9F791
:1004600022E0AAE2B1E001C01D92AF31B207E1F78C
:100470000E9489150C94B3260C940000873941F131
:1004800078F4863349F130F4843321F1853331F542
:1004900084E208958439D1F0863901F581E2089526
:1004A000843F71F030F4803FD9F0813FB9F481E0AE
:1004B0000895863F49F030F0873F81F487E0089542
:1004C00084E0089585E0089586E0089580E2089527
:1004D00082E2089583E2089585E208958FE1089508
:1004E00080E0089596E890937A00982F9072906833
:1004F00090937B008F7190910001892B80937C00F9
:1005000080917A00806480937A0080917A0086FDE1
:10051000FCCF809178002091790090917A009F77AC
:1005200090937A0090E0922B08950E943E020C94E2
:100530007202282F882329F0269F212D1124822F33
:100540000895269F212D1124822F819508951092C0
:10055000FC011092FB011092FA011092F901109225
:10056000DE0108950E949502811522E092070CF4A5
:100570000396925097FD0396959587959595879547
:1005800008958093DE0108950F931F93CF93DF9317
:10059000182F682F880F770B072F77FF03C07195EF
:1005A00061957109611102C080E001C085E0660FAC
:1005B0000E94990221E030E0111614F020E030E0B2
:1005C000C02FCC1FCC27CC1F90E0D92F2C1B3D0B6C
:1005D000829F802D1124DF91CF911F910F9108955B
:1005E0000F931F93CF93DF93182F682F880F770BEC
:1005F000072F77FF03C0719561957109611102C0E2
:1006000080E001C082E0660F0E94990221E030E0A4
:10061000111614F020E030E0C02FCC1FCC27CC1FE7
:1006200090E0D92F2C1B3D0B829F802D1124DF9150
:10063000CF911F910F910895FF920F931F93CF9326
:10064000DF93DB01EC019B0177FF04C022273327F6
:10065000261B370BF22F8C01D7FF04C00027112770
:10066000081B190BF02E41E00F1708F040E081E065
:10067000FF1608F480E08F9DE02D11244F9FE00DC0
:1006800011243327201B310937FF03C031952195F1
:100690003109EE2339F0D7FF05C0283731052CF09A
:1006A000682F05C060E070E002C061E070E061703A
:1006B000EE2349F01C161D0634F4283731052CF4BE
:1006C00081E090E002C080E090E08170EE2341F094
:1006D000B7FF06C0283731052CF441E050E002C0D6
:1006E00040E050E0942F9170EE2349F01A161B065B
:1006F00034F471E0283731051CF0FF1608F070E083
:100700007170DF91CF911F910F91FF900895CF935A
:10071000DF930E94F11E9093FC018093FB0185E31F
:100720000E94B202CEEDD1E0082E000C990B9A8304
:10073000898386E30E94B202082E000C990B9C83E9
:100740008B83DF91CF9108958091DE01813089F014
:1007500018F0823009F108958091DF010E94C402EF
:100760008093F5018091E1010E94C4028093F6011B
:1007700008956091DF017091E0018091E101909115
:10078000E2010E941C036093E3017093E4018093F3
:10079000E5019093E60108958091DF010E94F00247
:1007A0008093F8018091E1010E94F0028093F701AB
:1007B0000895641729F041110C94AD040C94C604FB
:1007C0000895FC018091DE01813061F020F08230DB
:1007D00009F441C008958091F50182838091F6016A
:1007E000838308954091E3016091EF018091E701D7
:1007F0009091E8010E94D9034091E5016091F101D7
:100800008091E9019091EA010E94D9034091E601AB
:100810006091F2018091EB019091EC010E94D9036B
:100820004091E4016091F0018091ED019091EE0121
:100830000E94D9038091E3019091E401A091E50128
:10084000B091E6018093EF019093F001A093F10144
:10085000B093F20108958091F80185838091F701AA
:100860008195848308950C94A702CF93DF9300D0E1
:1008700000D000D0CDB7DEB78091FB019091FC0194
:100880000E94091F0B97D0F00E94981829833A8381
:100890004B835C836D837E830E9487030E94A40345
:1008A000CE0101960E94E10349815A816B817C81CE
:1008B0008D819E810E94B9180E945E1826960FB6FF
:1008C000F894DEBF0FBECDBFDF91CF910895CF92D8
:1008D000DF92EF92FF926B017C010E94BF05813095
:1008E00029F010F0823029F480E001C082E00E94FB
:1008F000C102C701B601FF90EF90DF90CF9008953D
:100900009C013A9521153F4130F5BC016627727074
:10091000AC01442754709C012227387094FF0FC00B
:1009200090FF02C080E101C080E0672B09F0806287
:10093000452B09F08064232B79F080680895892F76
:100940008170672B09F08260452B09F08460232BAE
:1009500019F08860089580E00895CF93DF93EC014B
:10096000805E9109089710F0209731F4CE010E9423
:1009700080040E94B40705C0CE010E9480040E943A
:100980002F0A8C2FDF91CF910C949C06CF93DF938D
:10099000EC010E942C07CE01805E9109089710F0AF
:1009A000209739F4CE010E948004DF91CF910C94FE
:1009B000BB07CE010E948004DF91CF910C94360AD0
:1009C00081E0089581E008950C94E20408950C9468
:1009D000E6041F93CF93DF9300D000D01F92CDB7D2
:1009E000DEB749835A836B8330912C0189819A81C8
:1009F000311114C0662359F0222349F00E94070CDC
:100A0000182F682F89819A810E94AE0B03C00E9423
:100A1000DA0B182F69817A81812F04C00E94070C9C
:100A200069817A810F900F900F900F900F90DF9156
:100A3000CF911F910C940613FC01262F4081518108
:100A40006281738184810C94E90481E00895CF93DD
:100A5000DF93EC0160E00E941C05BE01DF91CF91A5
:100A60000C94E7040E940F140E9416060E94781B43
:100A70000C9449140C94451408950C943C050C9462
:100A80003D050E943F0580E00E94AA1A80E00E9476
:100A900017060C9435040C943C050E944F0A0E94E2
:100AA0004B052FEF84E39CE0215080409040E1F71C
:100AB00000C000000C943E1F0F931F93CF93DF9351
:100AC0008C0161E00E941C05EC01B8010E94E40465
:100AD000882309F444C0B801CE010E94F21988238A
:100AE000F1F1B801CE010E94641D8823C1F1B80163
:100AF000CE010E948E1B882391F1B801CE010E9485
:100B0000C01C882361F1F8018281882309F1CB356B
:100B10008DE5D807C1F050F4C115FCE5DF0781F081
:100B2000CF3DDC45A9F40E94311119C0CC35EDE56B
:100B3000DE0761F0CD35DD4559F40E94741008C020
:100B40000E944D050CC00E947D1002C00E948010C2
:100B5000C801DF91CF911F910F910C94E00480E0C8
:100B6000DF91CF911F910F9108950C943C050E9445
:100B700016190E94C01D0E9417060C94B505CF924D
:100B8000DF92EF92FF926C01EE24FF24C114D10496
:100B9000E104F10421F0C701B60120E101C020E029
:100BA000C72ED82EE92EFF24C114D104E104F1048C
:100BB00019F0285FC701B6016B017C0154E0F6947F
:100BC000E794D794C7945A95D1F7C114D104E1049E
:100BD000F10419F02C5FC701B6016B017C0142E002
:100BE000F694E794D794C7944A95D1F7C114D104E9
:100BF000E104F10419F02E5FC701B601DC01CB015D
:100C0000B695A79597958795892B8A2B8B2B09F0FD
:100C10002F5F822FFF90EF90DF90CF90089508957F
:100C20000C940F0681E008950C9412060895CF935A
:100C3000C82F0E9410068C2F0E941406CF91089591
:100C4000CF93DF93CDB7DEB72B970FB6F894DEBF07
:100C50000FBECDBF4F83588769877A878B87611115
:100C60000E94CD0F9E012F5F3F4F86E0F901119248
:100C70008A95E9F785E0FE013796D90101900D923A
:100C80008A95E1F789819A814C815D81452B31F00C
:100C90009F3F31F491E08F3F19F403C091E001C010
:100CA00090E090FF09C049815A816B817C818D81E0
:100CB0009E810E94EE0E05C0C9010E94250581118A
:100CC000F2CF2B960FB6F894DEBF0FBECDBFDF91EB
:100CD000CF910895FC01808191810E94490C089573
:100CE0000F931F93CF93DF9300D000D000D0CDB7E8
:100CF000DEB7082F162F0E94981829834B835C8338
:100D00006D837E83002319F0512F532B03C0109560
:100D1000512F532349816B817C818D819E810E945B
:100D2000B91826960FB6F894DEBF0FBECDBFDF917F
:100D3000CF911F910F910895CF93882309F48AC012
:100D4000C82F8238C1F40E94C01D81FD83C069E3B1
:100D500080910301909104010E94531E0E94F20FA2
:100D60002FEF81EE94E0215080409040E1F700C0E9
:100D7000000069E319C0833801F50E94C01D80FDA1
:100D800069C063E580910301909104010E94531EA4
:100D90000E94F20F2FEF81EE94E0215080409040AE
:100DA000E1F700C0000063E5809103019091040128
:100DB0000E94551ECF910C94F20F8438C1F40E940A
:100DC000C01D82FD47C067E480910301909104013A
:100DD0000E94531E0E94F20F2FEF81EE94E02150EB
:100DE00080409040E1F700C0000067E4DDCF8CEF69
:100DF0008C0F813AD0F46C2F809103019091040103
:100E00000E941D1E882349F06C2F80910301909150
:100E100004010E94551E0E94F20F6C2F8091030165
:100E2000909104010E94531EC5CF80E28C0F883040
:100E300048F4C77081E001C0880FCA95EAF70E94A4
:100E4000B00FB8CFCD3E30F08C2F0E941816CF9146
:100E50000C94EA16CF910895882309F464C082386F
:100E600079F40E94C01D81FF5EC069E38091030197
:100E7000909104010E94531E0E94F20F69E310C07A
:100E80008338B1F40E94C01D80FF4DC063E580919E
:100E90000301909104010E94531E0E94F20F63E52A
:100EA00080910301909104010E94551E0C94F20F51
:100EB000843879F40E94C01D82FF35C067E48091B8
:100EC0000301909104010E94531E0E94F20F67E4F7
:100ED000E7CF9CEF980F913A10F4682FE1CF90E2A2
:100EE000980F983050F4877091E001C0990F8A955F
:100EF000EAF7892F0E94B60FD9CF9BE5980F933060
:100F000020F480E090E00C94E51D98E5980F97316F
:100F100020F480E090E00C94FB1D8D3E20F00E94B8
:100F200073160C94EA1608951F93CF93DF93182F2E
:100F3000EB010E949C06209741F08FE99FE001970A
:100F4000F1F700C000002197F6CF812FDF91CF91FC
:100F50001F910C942C07893319F060E070E002C0F7
:100F600060E570E00C949407882321F00E94B00F94
:100F70000C94F20F0895882321F00E94B60F0C9470
:100F8000F20F0895CF92DF92EF92FF920F931F938B
:100F9000CF93DF937C01D62FC72FFC0112810581EF
:100FA00002950F700E94A60F8823B9F01123A9F0B3
:100FB0008C2F807F803421F080E28D0F883068F0A4
:100FC0008091FE0182FD09C082E00E9442100E94D1
:100FD000A60F91E0D82ED92601C0D12CCC2EC294D8
:100FE0008FE0C8228C2D90E08C30910508F0BFC1B5
:100FF000FC01EA5AFF4F0C9444268C2F807FCF705F
:10100000882311F0C295C07F112399F0CC2309F4F5
:101010009AC180E28D0F883010F0D11104C08C2F5E
:101020000E94B00F03C08C2F0E94C00F0E94F20FCD
:101030008AC18D2F0E942C07CC2309F498C180E22D
:101040008D0F883038F1DD2329F18C2F0E94C60FD7
:1010500024C08C2F807FCF70803211F0C295C07F6A
:10106000DD2319F0D130A1F13DC08091FE0182FF56
:1010700017C0112349F0CC2329F08C2F0E94B00F08
:101080000E94F20F80E060C180E00E942C07CC2318
:1010900009F46DC18C2F0E94B60F0E94F20F67C138
:1010A000112371F0002341F0013031F40E94D30F7D
:1010B0008C2B0E94DB0F5BC10E94D30F8C2B1DC0B9
:1010C000002319F0013009F452C10E94E80F25C035
:1010D000112321F0063008F04AC10EC0053008F097
:1010E00046C11BC0112361F0002331F0F701858157
:1010F00080FF29C18F7085838C2F0E94B40737C170
:10110000002359F0D93309F02FC1FFEF07EE13E0A8
:10111000F15000401040E1F725C18C2F0E94BB0721
:1011200026C18D2F112319F00E94181602C00E94AB
:1011300073168FE08D0F883050F461E070E001C0CD
:10114000660F8A95EAF7812F0E94700618C10E94E7
:10115000EA1615C18C2F837009F047C011110BC11D
:101160002D2F229526952770220F220F6D2F6F703D
:10117000862F90E0A0E0B0E0022E04C0880F991FF7
:10118000AA1FBB1F0A94D2F7D4FF10C04FE050E053
:1011900060E070E004C0440F551F661F771F2A955A
:1011A000D2F7409550956095709503C040E050E0AF
:1011B000BA01C695C695C3708A019B01082B192BED
:1011C0002A2B3B2BC901B801C23049F058F4C13079
:1011D00019F00E94C40ACFC00E94B20ACCC00E947B
:1011E000D60AC9C00E94B00AC6C0112319F08C2FBC
:1011F000817001C08695882309F4BDC02D2F2295EA
:1012000026952770220F220F6D2F6F70862F90E08A
:10121000A0E0B0E0022E04C0880F991FAA1FBB1FD8
:101220000A94D2F7D4FF10C04FE050E060E070E0C5
:1012300004C0440F551F661F771F2A95D2F74095AB
:1012400050956095709503C040E050E0BA01C69596
:10125000C695C3708A019B01082B192B2A2B3B2BA7
:10126000C901B801C23049F058F4C13019F00E94E8
:10127000890B81C00E94770B7EC00E949B0B7BC0B4
:101280000E94EA0A78C0CF70112339F08C2F0E9497
:10129000100B8D2F0E94B4076EC08D2F0E94BB07CC
:1012A0008C2F0E94310B67C0D23F21F128F4D03F30
:1012B00041F0D13FC1F043C0D33F19F1D43F79F0A1
:1012C0003EC0112341F0053008F051C08C2F8F71C2
:1012D0000E94560B4CC0063008F049C0F7CF8091F1
:1012E000FE0182FF18C0112339F08C2F8F710E94EC
:1012F000100B3DC01123C9F38C2F8F710E94310B4D
:1013000036C0112329F08C2F8F710E94FB0A2FC049
:101310000E94F60A2CC0112349F0CF718C2F0E9435
:10132000100B63E08C2F0E94271021C081E00E94E7
:1013300042100230E0F082E00E94421018C01123F7
:1013400031F0002391F28D2F0E949C0610C00023E3
:1013500099F2D93349F41FEF27EE33E011502040C2
:101360003040E1F700C000008D2F0E942C0788EF6D
:101370008C0D843020F40E94C01D0E941706DD20D1
:10138000C9F00E94A20F80FD15C0F70112820E94D1
:101390009C0F0E94100BC7010E94FB090E949C0F2A
:1013A000DF91CF911F910F91FF90EF90DF90CF9041
:1013B0000C94310BDF91CF911F910F91FF90EF9023
:1013C000DF90CF9008950F931F93CF93DF93EC019D
:1013D000688179818A810E94540C8C010E94AD0B36
:1013E0000E949E0AB801CE010E94C207DF91CF91F0
:1013F0001F910F910895CF93DF93EC01988189811C
:101400002B813C81232B31F08F3F31F481E09F3FD2
:1014100019F403C081E001C080E080FD1DC0CE0151
:101420000E945C05811110C00E94A60F8823A1F0C4
:101430008A81882389F08091FE0182FD0DC082E0BF
:10144000DF91CF910C944210CE010E94E309CE01AE
:10145000DF91CF910C942705DF91CF9108958823D8
:1014600021F00E94C00F0C94F20F0895882321F000
:101470000E94C60F0C94F20F08950E94CD0F0E9497
:10148000D00F0E94F20F0E941B180C94EA16809154
:101490000301909104010E94571E0C943D0A0E9482
:1014A000BD0F0C94470AE92FE295EF704E2F50E0E4
:1014B000FA013297EE30F105B0F4EE59FF4F0C947B
:1014C0004426803F91F018F4883E68F40EC0843FB3
:1014D00051F40BC0883E48F0813F29F406C093FBCD
:1014E000882780F9089580E0089581E00895FC013F
:1014F000808191810E94490C0E94530A0895CF93E4
:10150000DF9300D000D01F92CDB7DEB70F900F90C1
:101510000F900F900F90DF91CF910895CF93DF93AD
:1015200000D000D000D0CDB7DEB726960FB6F89425
:10153000DEBF0FBECDBFDF91CF910895089508950E
:101540000C949F0A0C94A00A0E94A20A60934F0177
:101550007093500180935101909352010C943D0A75
:101560000C94A40A0F931F9300914F011091500106
:101570002091510130915201602B712B822B932BC2
:101580001F910F910C94A40A0F931F9300914F0188
:10159000109150012091510130915201602371232B
:1015A000822393231F910F910C94A40A0F931F93EE
:1015B00000914F0110915001209151013091520141
:1015C00060277127822793271F910F910C94A40AFB
:1015D0000C9467040E94E80A60934B0170934C01DD
:1015E00080934D0190934E010C943D0A60E070E0B1
:1015F000CB010C94EA0A0F931F9341E050E060E0A6
:1016000070E08A019B0104C0000F111F221F331FCD
:101610008A95D2F7C901B8011F910F910C94EA0A7B
:101620000F931F9341E050E060E070E004C0440F6E
:10163000551F661F771F8A95D2F780914B019091B5
:101640004C01A0914D01B0914E018A019B01082BE4
:10165000192B2A2B3B2BC901B8011F910F910C9418
:10166000EA0A0F931F9341E050E060E070E004C08D
:10167000440F551F661F771F8A95D2F740955095E6
:101680006095709580914B0190914C01A0914D0116
:10169000B0914E018A019B01082319232A233B2381
:1016A000C901B8011F910F910C94EA0A0F931F937F
:1016B00041E050E060E070E004C0440F551F661F39
:1016C000771F8A95D2F780914B0190914C01A091A0
:1016D0004D01B0914E018A019B01082719272A2745
:1016E0003B27C901B8011F910F910C94EA0A0F938F
:1016F0001F9300914B0110914C0120914D013091AD
:101700004E01602B712B822B932B1F910F910C9408
:10171000EA0A0F931F9300914B0110914C01209105
:101720004D0130914E0160237123822393231F9139
:101730000F910C94EA0A0F931F9300914B011091A3
:101740004C0120914D0130914E0160277127822775
:1017500093271F910F910C94EA0A0895292F220FC5
:10176000920F990F890FE82FE695E695E695877019
:1017700051E001C0550F8A95EAF785E0E89FF00136
:101780001124E35DFE4F20E030E070E04081CB01AA
:10179000022E02C0969587950A94E2F78170819592
:1017A00084278523842781932F5F3F4F2530310580
:1017B00069F70895292F220F920F990F890F682F2B
:1017C000669566956695982F977085E0689FB0013D
:1017D000112440E050E080E0FB01E40FF51FE35DE1
:1017E000FE4F208130E0092E02C0369527950A94DD
:1017F000E2F721703327042E01C0220F0A94EAF782
:10180000822B4F5F5F4F4530510531F70895BF92EE
:10181000CF92DF92EF92FF920F931F93CF93DF93BC
:101820008C01C0904B01D0904C01E0904D01F090A4
:101830004E0180914F0190915001A0915101B091C2
:101840005201C82AD92AEA2AFB2ACFE1D0E0D701DF
:10185000C6010C2E04C0B695A795979587950A9456
:10186000D2F780FD04C0219790F7B12C07C0BC2EA1
:10187000B8018C2F0E9419130197A9F38B2DDF91CA
:10188000CF911F910F91FF90EF90DF90CF90BF907D
:101890000895CF93DF93EC010E94070CBE010E94D4
:1018A0001913DF91CF9108951F93CF93DF93EB012D
:1018B00090912C01992321F0CB010E94490C13C077
:1018C000882349F0CB010E94070C182F682FCE0106
:1018D0000E94AE0B04C0CB010E94DA0B182FBE0190
:1018E000812F0E941913DF91CF911F9108951F93AB
:1018F000CF93DF93C091530116E080915401C81734
:1019000099F0D0E01C9FF0011D9FF00D1124EB5ABF
:10191000FE4F4081518162817381848195810E9453
:101920008E0A2196C770E9CFDF91CF911F9108955C
:1019300040918501509186016091870170918801E5
:101940008091890190918A010C948E0AEF92FF9206
:101950000F931F93CF93DF9380918A0182958F70AD
:1019600009F065C080918701882309F460C08091E7
:101970005301F0905401109185010091860160910E
:1019800088017091890191E01F3F09F090E0C091BA
:101990000101D0910201292F96E0E92E8F1509F45B
:1019A00046C06115710521F00F3F21F030E003C002
:1019B00031E001C0322F90E030FD36C0E89EF001EA
:1019C000E99EF00D1124DF01AB5ABE4F11963C91F8
:1019D0001197301329C03C91311326C012963C91C7
:1019E0001297311121C013964D915C911497461BAB
:1019F000570B4C175D07C0F480918A018F7080618E
:101A000080938A01E65AFE4F80818F7080618083C7
:101A100085E891E00E94FB09DF91CF911F910F9122
:101A2000FF90EF900C94770C01968770B7CFDF9101
:101A3000CF911F910F91FF90EF9008959F92AF92D9
:101A4000BF92CF92DF92EF92FF920F931F93CF93AB
:101A5000DF93CDB7DEB761970FB6F894DEBF0FBE48
:101A6000CDBF8C0185E0F801DE011D9601900D923D
:101A70008A95E1F7D8011296EC9090918501E0915A
:101A8000860120918801309189012115310531F0BD
:101A9000EF3F31F481E09F3F19F403C081E001C0C2
:101AA00080E0B82FB1709B2E80FD47C1D8014C91CA
:101AB00011965C9111971396AD90BC90149785E8A0
:101AC000C82E81E0D82EF0908701B501621B730B00
:101AD0002091010130910201FF2009F4D9C08091C9
:101AE0008A016217730708F095C0282F207F09F03C
:101AF00052C05E1313C0491311C0FE2CE1100EC07A
:101B00008F70806180938A010E94980CC6010E94A8
:101B1000FB0980918A01F80185834DC1AB2831F022
:101B20005F3F31F481E04F3F19F403C081E001C011
:101B300080E080FD03C081E08E2502C080E090E05F
:101B4000F82FF170FF2E80FF1CC08091530120916F
:101B5000540136E0821709F40BC190E0389FF00180
:101B6000399FF00D1124EB5AFE4F6181561306C0C8
:101B70006081461303C06281E61203C0019687703C
:101B8000E9CFFE2CEE2009F416C180918A01816014
:101B900080938A0154C05E1306C0491304C0E1104B
:101BA00002C0F80199C0C8010E94770A882361F138
:101BB000EE2051F120918A01822F82958F7090E062
:101BC000029774F0809185019091860198878F83A8
:101BD0001986BB86AA862C87CE0107960E94FB0930
:101BE00086E0F801A5E8B1E001900D928A95E1F751
:101BF0000E94A60C0E94980C0AC05E1711F1C80141
:101C00000E94770A81112CC0C8010E94FB09FF24A1
:101C1000F394D1C0282F207F81F77A2DB98AA88A22
:101C20006E2D89890E947F0A85E891E00E94FB0958
:101C300086E0D6011D928A95E9F70E94980CF12C56
:101C4000BAC04913DCCFE110DACFF8018583C801AF
:101C50000E94FB0986E0D6011D928A95E9F7ABC088
:101C6000EE2091F220918A01822F82958F7090E070
:101C700002970CF4B5CF80918501909186019A83EB
:101C800089831B82BD82AC822E83CE010196A6CFB2
:101C90006217730708F044C0FE2CEE2009F4B4CF9D
:101CA0005E1330C049132EC020918A0120FD21C04F
:101CB000822F82958F70482F50E041155105C9F051
:101CC000F80125834F30510541F08F5F982F929591
:101CD000907F822F8F70892B8583C8010E94FB091A
:101CE00086E0F801A5E8B1E001900D928A95E1F750
:101CF0003CC086E0F801A5E8B1E001900D928A951C
:101D0000E1F759C0C8010E94770A811169CF80911B
:101D10008A01816080938A01C8010E94FB094BC03F
:101D20007A2DB98AA88A6E2D89890E947F0A86E059
:101D3000D6011D928A95E9F718C0EE2009F464CF08
:101D4000C8010E94770AF82E882309F45DCF86E047
:101D5000F801A5E8B1E001900D928A95E1F785E8D8
:101D600091E00E946A060E94A60C0E94980C23C073
:101D70004D875E878D859E850E94490C292F22956F
:101D80002F70223028F49F7039F0811105C00BC0EC
:101D9000243028F49F7049F4805E883020F0C80118
:101DA0000E94FB099F2CF92C06C0D80115969C9126
:101DB000907F91F7F8CF8F2D61960FB6F894DEBF24
:101DC0000FBECDBFDF91CF911F910F91FF90EF908C
:101DD000DF90CF90BF90AF909F9008951F93CF93C7
:101DE000DF93CDB7DEB72C970FB6F894DEBF0FBEEA
:101DF000CDBF4F83588769877A878B879C87CE01B1
:101E000007960E941E0D8823D1F09F8188852A8520
:101E10003B85232B31F08F3F31F481E09F3F19F454
:101E200003C081E001C080E080FD47C04F8158853C
:101E300069857A858B859C850E948E0A3EC086E0E6
:101E4000FE013796DE01119601900D928A95E1F719
:101E5000FF81E8856A857B856115710531F0EF3F6B
:101E600031F481E0FF3F19F403C081E001C080E05C
:101E700080FD23C02091540130E0C9010196877094
:101E800099274091530150E084179507F1F1F983A8
:101E9000EA837D836C8396E0929FD001939FB00D7F
:101EA0001124AB5ABE4FFE01319601900D929A95C6
:101EB000E1F7809354010E94770C16E08091530162
:101EC00090915401891771F1189FC00111248B5A08
:101ED0009E4F0E941E0D882329F1E09153011E9F01
:101EE000F0011124EB5AFE4F4081518162817381D0
:101EF000848195810E948E0A8091530190E0019621
:101F00008770992780935301D9CF0E944F0A10926E
:101F1000540110925301E5E8F1E086E0DF011D92E3
:101F20008A95E9F72C960FB6F894DEBF0FBECDBFA9
:101F3000DF91CF911F91089580918B0185958595B3
:101F40008595089580918B018770089590918B01FC
:101F5000977081E009F480E00895809197010895D9
:101F600090919701892B8093970108958095909186
:101F700097018923809397010895109297010895FE
:101F800090919601892B8093960108958095909168
:101F900096018923809396010895109296010895E1
:101FA00010929501089580918C01089508950C94E4
:101FB000D60F0C94D70F9091FE0192FD08C090911E
:101FC0008C01981721F080938C010C94D90F0895FF
:101FD00080918C01882329F010928C0180E00C9470
:101FE000D90F0895E0910301F091040180919701C8
:101FF0008083E0910301F09104019081809196012A
:10200000892B8083E0910301F091040190818091FC
:102010009501892B808380918C01882381F0E09148
:102020000301F09104019081892B80838091030149
:10203000909104010E94111E81110E94E80F80916D
:102040000301909104010C94CC1D0C94D60F909137
:10205000FE0192FD10C098E0899F90011124262B6B
:1020600020938B010E94100B80918B0185958595A3
:1020700085950C9425100C94100B10928B0180E028
:102080000C94251020918B018095822380938B01E5
:10209000982F977099F430E0482F082E000C550BBC
:1020A0002417350759F09091FE0192FD07C08595E0
:1020B000859585950E94310B0C943D100895909163
:1020C000FE0192FB222720F9281769F080FB92F984
:1020D0009093FE018091FD019091FE010E94AD1050
:1020E00082E00C94421008958091FE0182FB8827C3
:1020F00080F991E089270C945F1081E00C945F10C7
:1021000080E00C945F106FEF7FEF80E090E00C9424
:102110009D2680E090E00E94792621E0893E9E4F36
:1021200009F020E0822F089582E090E00C9471265F
:1021300083E090E00C947126CF9384E090E00E94BD
:102140007126C82F82E290E00E9471262C2F30E089
:10215000A901582BCA01CF910895CF93C92F682F99
:1021600084E090E00E947F266C2F82E290E0CF9185
:102170000C947F26AB01BC018FE090E00C9491267B
:10218000AB01BC0183E190E00C94912660E070E02B
:10219000CB010C94C01060E070E0CB010E94BA103B
:1021A0000C94C61069EE7EEF80E090E00E949D26C0
:1021B00060E082E090E00E947F2660E083E090E0B3
:1021C0000E947F2610924F011092500110925101EF
:1021D0001092520160E084E090E00E947F2660E06F
:1021E00082E290E00E947F2660E085E090E00E941D
:1021F0007F2660E086E090E00E947F266FEF87E018
:1022000090E00E947F2640E050E0BA0188E090E034
:102210000E94912660E08DE090E00E947F2640E0E1
:1022200050E0BA0188E190E00E94912660E087E1E9
:1022300090E00E947F2640E050E0BA018CE190E0FF
:102240000E94912660E070E080E290E00E949D266E
:1022500040E050E0BA0188E190E00E9491260C94A1
:10226000CB100C94D210682F8EE090E00C947F2657
:102270000E94FD1E6093A4017093A5018093A601A6
:102280009093A7016093A0017093A1018093A20194
:102290009093A301089585B7806885BF85B780684E
:1022A00085BF089581E008950C94521108950C940F
:1022B00056110C9456110C9459110C9456110C94FF
:1022C0005D110C9456110E944B1185EF93E10E9411
:1022D000B61D0E9461110C945F110E9457110C945D
:1022E00056110E94E81E0E94E6140E9416190E94D0
:1022F00033040C945B119F92AF92BF92CF92DF9206
:10230000EF92FF920F931F93CF93DF93CDB7DEB77A
:102310002A970FB6F894DEBF0FBECDBF0E94FB1404
:1023200081110E94381189E9A82E81E0B82E00E0C1
:1023300010E0902E802F0E943314D82EF501C1900A
:102340005F01C826B1F40F5F1F4F0730110589F7F1
:102350008FEF89838A831B820E94F11E8160782F10
:102360009D838C8349815A816B818D810E942006D7
:102370002FC08091A80181FD0E943914E12CFF2417
:10238000F3948C2D8F21F1F00E945411882399F041
:10239000EE829F82DF2081E009F480E088870E943E
:1023A000F11E8160782F9A8789874E815F816885C9
:1023B0008A850E942006F801E756FE4F8081F826A4
:1023C000F08206C0E394FF0CF6E0EF12DACFBBCF49
:1023D0000E94DC1A0E9408170E9435040E94C01D4A
:1023E000909198018917B9F00E94C01D80939801BF
:1023F0002A960FB6F894DEBF0FBECDBFDF91CF9106
:102400001F910F91FF90EF90DF90CF90BF90AF9012
:102410009F900C9417062A960FB6F894DEBF0FBE55
:10242000CDBFDF91CF911F910F91FF90EF90DF9083
:10243000CF90BF90AF909F900895CF93DF930E946D
:102440001E13EC01811522E5920778F5811531E51F
:10245000930708F09DC08F3F910509F0B8F48D3EB9
:10246000910508F06FC0853A910550F484309105CC
:1024700008F0C8C0019709F0C2C081E090E0C3C075
:10248000805E9109089708F4BDC0B9C0811540E588
:10249000940708F05DC08115904408F055C0C1153F
:1024A00080E2D80708F4AEC0AAC0811526E59207DD
:1024B00028F5811535E5930708F087C0811544E5B7
:1024C000940708F07CC0AC0143705527282F26954F
:1024D0002695C115D34508F061C081E090E002C0A7
:1024E000880F991F4A95E2F740E2249F900111243A
:1024F000EC01C22BD32BCE019C6885C081152AE547
:10250000920780F4811539E5930708F067C08115BB
:1025100048E5940708F473C0D82FCC27CE01806F0C
:10252000906A71C090568115904208F068C08D2F56
:102530008F710E94B213DD27D0628F71AE01582BCC
:10254000CA0161C090655FC0DF70CE01906A5BC058
:1025500074E0969587957A95E1F7282F23703C2FA4
:10256000337081E090E002C0880F991F3A95E2F73E
:102570009C68AC01522B9A019C2F9F709695969562
:1025800050E2959FE0011124C9018C2B9D2B3BC08B
:10259000D82FCC27CE01816F906A35C081E090E0C2
:1025A00002C0880F991F4A95E2F750E2259F9001DB
:1025B0001124EC01C22BD32BCE019A6824C0D82F52
:1025C000CC27CE01846F906A1EC00E94B2138F7117
:1025D00090E0D82FCC27CE01906215C08F700E945A
:1025E000B21394E0D695C7959A95E1F7CF70D0E0F5
:1025F000DC2FCC27D0699E01282BC90104C080E0C4
:1026000090E001C0CE01DF91CF9108952AE2829F30
:10261000C0011124FC0126E0729FE00DF11D112480
:10262000E60FF11DEE0FFF1FEE5FFE4F85919491B7
:1026300008950E9406130E941D1208958238910584
:1026400069F1B0F48133910509F46DC048F4893221
:10265000910509F463C08A32910509F469C00895AF
:102660008533910509F455C089339105B9F0089572
:10267000833E910569F138F4803E9105B1F0823EC8
:10268000910509F10895863E9105A9F1873E9105CE
:10269000B9F1843E910509F064C023C02091FD0189
:1026A00020FD4FC021FD4DC008958091FD0180FDAA
:1026B00044C08091FE0180FF44C08091FD0184FDF3
:1026C00042C083EE4DC08091FD0182FF38C0F5CF3E
:1026D0008091FD0182FD33C08091FE0180FD31C0FB
:1026E000ECCF8091FE0181FF32C08091FD0184FD1D
:1026F0002AC087EE35C08091FD0183FF26C0F5CF4B
:102700008091FD0183FD21C08091FE0181FD1FC0EC
:10271000ECCF8091FD0185FD1CC01DC08091FD01A5
:1027200085FD19C016C08091FD0186FD16C017C039
:102730008091FD0186FD13C010C089E311C082EEB7
:102740000FC080EE0DC080E00BC086EE09C084EEA5
:1027500007C089E205C085E303C08AE201C081E3C6
:1027600090E008959091FD0192FF0DC0282F2871EF
:10277000283019F4877F846006C0282F2471243004
:1027800011F48B7F886093FF0DC0282F28712831AA
:1027900019F4877E846106C0282F2471243111F436
:1027A0008B7E88612091FE0120FF0DC0382F38718B
:1027B000383019F4877F816006C0382F317131308D
:1027C00011F48E7F886021FF0DC0282F28712831D9
:1027D00019F4877E816106C0282F2171213111F4FF
:1027E0008E7E886194FD877E089580E008950C9424
:1027F00083100E94FB148FE39CE90197F1F700C05E
:1028000000000E94FB1480E00E94331480FF04C08B
:102810000E94F7130C943E1F08950C94F9130E9424
:102820008910811102C00E9431110E94941080937E
:10283000A8010E949C109093FE018093FD010E94CC
:102840000D140E949810682F70E080E090E00E94C4
:10285000B00A60914B0170914C0180914D019091B3
:102860004E010C94E80AE82FF0E0EA5FFD4F80810A
:102870000895089580EA8A95F1F7089500C00895B3
:102880000C943A1408950C9442140C9443140C9430
:1028900042140C944714F894E82FE295EF70F0E09E
:1028A00031A1282F2F7081E090E001C0880F2A9578
:1028B000EAF7982F9095932391A392A1892B82A355
:1028C000789408950F931F93CF93DF93C2E2D1E0E2
:1028D00089918F3F11F00E944B1481E0C932D807D3
:1028E000B9F7CCE1D1E002E211E089918F3F11F01C
:1028F0000E944B140C171D07C1F7DF91CF911F9158
:102900000F910895CF92DF92EF92FF920F931F9352
:10291000CF93DF938C01C62FD0E0CE018E5D9E4F0A
:102920007C01FC0190819F3F09F447C0D62EF894AA
:10293000E92FE295EF70F0E081A19F7021E030E097
:1029400001C0220F9A95EAF7822B81A382A12095DC
:10295000282322A378940E943E14ECE1F1E042E2A5
:1029600051E031E0C12C21912F3F89F0A22FA29597
:10297000AF70B0E090968C9190E02F7002C095956A
:1029800087952A95E2F780FD02C0832F01C080E081
:10299000C82A330F4E175F0731F7F70180818F3F49
:1029A00011F00E944B1461E0C11001C060E08D2D58
:1029B0000E944014C00FD11FC882DF91CF911F9198
:1029C0000F91FF90EF90DF90CF9008950E946214D6
:1029D00087E0E6E0F2E0DF01982F1D929A95E9F793
:1029E000EFEFF1E0DF011D928A95E9F787E00E94A1
:1029F00046150C943205FF920F931F93CF93DF93EC
:102A0000CDB7DEB727970FB6F894DEBF0FBECDBFA8
:102A10008E010F5F1F4F87E0F80111928A95E9F749
:102A2000F12C6F2DC8010E948214F394F7E0FF127D
:102A3000F8CF47E050E0B8018FEF91E00E946426A4
:102A4000FF24F394009709F4F12C892B41F087E0DF
:102A5000F801AFEFB1E001900D928A95E1F72F2DCB
:102A600047E066E072E08FEF91E00E9447150E9418
:102A70003A058F2D27960FB6F894DEBF0FBECDBF57
:102A8000DF91CF911F910F91FF9008950895FF92CC
:102A90000F931F93CF93DF938C01F62ED72FC42F64
:102AA000222349F081E08093AB010E94F11E9093B4
:102AB000AA018093A9018091AB018823C1F0809184
:102AC000A9019091AA010E94091F059780F0EF2D9E
:102AD000FD2FD8014C2F50E0CD01801B910B8417A6
:102AE00095071CF48D918193F7CF1092AB01DF9184
:102AF000CF911F910F91FF9008950E94B0200E94E6
:102B000071110C94BC200E94C0200E947B110C9477
:102B1000DA200E94781E0E9497200E9463110E9472
:102B20007D150E9483150E946D11FBCF8091B2012B
:102B300080FF0BC060910A0185E0689FB0011124FD
:102B400075956795759567952BC081FF09C0609154
:102B50000A0185E0689FB00111247595679520C032
:102B600082FF07C060910A0185E0689FB0011124CF
:102B700017C09091B1019923D1F060910901961786
:102B800088F720910A0185E0289F90011124929FE7
:102B9000A001939F500D112470E0CA010E940E26DF
:102BA0006038710540F46115710519F406C065E0DF
:102BB00070E0862F08958FE7089581E00895809151
:102BC000B20180FF08C06091060170E075956795BD
:102BD0007595679521C081FF06C06091060170E080
:102BE0007595679519C082FF04C06091060170E079
:102BF00010C09091B001992399F06091050196174A
:102C0000A0F780910601899FC001112470E00E9405
:102C10000E266038710540F46115710519F406C07F
:102C200061E070E0862F08958FE7089581E00895B0
:102C30008D3E21F40E949615819504C08E3E29F4A4
:102C40000E9496158093B60108958F3E21F40E944C
:102C50009615819504C0803F29F40E9496158093B3
:102C6000B5010895893F19F40E94DF1505C08A3F18
:102C700031F40E94DF1581958093B70108958B3F51
:102C800021F40E94DF15819504C08C3F29F40E9435
:102C9000DF158093B80108959FE0980F983078F47D
:102CA00021E030E0A90102C0440F551F9A95E2F7D8
:102CB000CA019091B401892B8093B40108958D3F8E
:102CC00021F48091B20181600BC08E3F21F480918C
:102CD000B201826005C08F3F29F48091B201846007
:102CE0008093B20108958D3E39F49091B60197FF1B
:102CF00035C01092B60159C08E3E29F49091B601AC
:102D00001916BCF32BC09091B5018F3E29F497FFA3
:102D100025C01092B50149C0803F19F41916CCF3B3
:102D20001DC09091B701893F29F41916BCF4109287
:102D3000B7013BC08A3F19F497FF10C0F8CF8B3F13
:102D400039F49091B80197FF09C01092B8012DC0D5
:102D50008C3F21F49091B8011916BCF39FE0980FB5
:102D6000983080F421E030E0A90102C0440F551FE3
:102D70009A95E2F7CA0180959091B40189238093D6
:102D8000B40113C08D3F21F48091B2018E7F0BC03E
:102D90008E3F21F48091B2018D7F05C08F3F29F4D1
:102DA0008091B2018B7F8093B2018091B501811136
:102DB00006C08091B601811102C01092B1018091CC
:102DC000B701811106C08091B801811102C0109233
:102DD000B00108950E94F11E2091B501211104C097
:102DE0002091B601222321F09093AF018093AE0190
:102DF0002091B701211104C02091B801222321F0B4
:102E00009093AD018093AC0183EB91E00C94D71DBE
:102E1000EF92FF920F931F93CF93DF9300D000D0D8
:102E200000D0CDB7DEB786E0E3EBF1E0DE0111962E
:102E300001900D928A95E1F7E090B501F090B6010E
:102E40000091B7011091B8011092B5011092B6012E
:102E50001092B7011092B801E11003C0FF2009F4ED
:102E60005DC08091AE019091AF010E94091FAC013D
:102E70009091B101992339F020910B0130E0241792
:102E8000350758F04BC020910C018AE0289F900133
:102E900011242417350718F041C09F3F19F09F5F98
:102EA0009093B101EE2061F00E9496151E1414F06B
:102EB0009FEF01C091E0989F902D11249093B50150
:102EC000FF2061F00E9496151F1414F09FEF01C0BF
:102ED00091E0989F902D11249093B6013091B50107
:102EE0003323E1F02091B6012223C1F045EB3403F6
:102EF000C0011124992319F09093B50103C081E01A
:102F00008093B50135EB2303C0011124992319F0F7
:102F10009093B60103C081E08093B601011103C014
:102F2000112309F45DC08091AC019091AD010E9424
:102F3000091FAC019091B001992339F0209107014C
:102F400030E02417350758F04BC0209108018AE083
:102F5000289F900111242417350718F041C09F3F86
:102F600019F09F5F9093B001002361F00E94DF157C
:102F7000101614F09FEF01C091E0989F902D11243E
:102F80009093B701112361F00E94DF15111614F020
:102F90009FEF01C091E0989F902D11249093B8016C
:102FA0003091B7013323E1F02091B8012223C1F021
:102FB00045EB3403C0011124992319F09093B70114
:102FC00003C081E08093B70135EB2303C0011124D6
:102FD000992319F09093B80103C081E08093B80160
:102FE0008091B50181110BC08091B601811107C09C
:102FF0008091B701811103C08091B80181110E94B5
:10300000EA16EB82FC820D831E8386E0FE01319678
:10301000A3EBB1E001900D928A95E1F726960FB6E9
:10302000F894DEBF0FBECDBFDF91CF911F910F91FE
:10303000FF90EF900895E3EBF1E086E0DF011D9251
:103040008A95E9F71092B1011092B0011092B20185
:103050000895EF92FF920F931F93CF93DF93CDB715
:10306000DEB72C970FB6F894DEBF0FBECDBF4983F5
:103070005A836B837C838D839E83EF82F8860987D6
:103080001A872B873C8746E050E0BE01695F7F4F7F
:10309000CE0101960E94642621E0892B09F420E0EC
:1030A000822F2C960FB6F894DEBF0FBECDBFDF91F6
:1030B000CF911F910F91FF90EF900895EF92FF92A3
:1030C0000F931F93E090B901F090BA010091BB01FA
:1030D0001091BC012091BD013091BE014091BF0112
:1030E0005091C0016091C1017091C2018091C301F2
:1030F0009091C4010E942918882321F08FEB91E060
:103100000E94D71D1092C1011092C2011092C301FA
:103110001092C40186E0EFEBF1E0A9EBB1E0019081
:103120000D928A95E1F71F910F91FF90EF9008950E
:10313000CF93DF9300D000D000D0CDB7DEB786E0CC
:10314000EFEBF1E0DE01119601900D928A95E1F727
:1031500029813A814B815C816D817E8180E090E0A4
:1031600026960FB6F894DEBF0FBECDBFDF91CF918C
:103170000895CF93DF9300D000D000D0CDB7DEB755
:1031800049835A836B837C838D839E8386E0FE0113
:103190003196AFEBB1E001900D928A95E1F726965A
:1031A0000FB6F894DEBF0FBECDBFDF91CF9108956B
:1031B00086E090E00C947126682F86E090E00C94F5
:1031C0007F2680910D028470896180930D020C949A
:1031D000DC1880910D0286958695869508958091DC
:1031E0000D0281FD07C0826080930D020E94DC18F1
:1031F0000C94DD1A089580910D0281FF07C08D7F28
:1032000080930D020E94DC180C94E91A08958091B5
:103210000D0281FD0C94FB180C94EF1880910D02A7
:1032200086958170089580910D0108950E948910FE
:10323000811104C00E9431110E94E1180E94D81827
:1032400080930D02282F26952695269530E0243070
:10325000310524F08770886180930D0280910D0202
:1032600080FF04C086958695869501C080E00C9409
:10327000AA1A20910D02822F869586958695482F51
:1032800050E04330510554F48F5F982F990F990FF8
:10329000990F822F8770892B80930D0280910D02E8
:1032A000816080930D020E94DC1880910D0286954A
:1032B000869586950C94AA1A80910D02982F969562
:1032C00096959695A1F0915E990F990F990F877039
:1032D000892B80930D02887F91E009F490E0809122
:1032E0000D0290FB80F980930D020E94DC18809102
:1032F0000D028695869586950C94AA1A80910D02EA
:1033000080FD13C0816080930D02813019F489E043
:1033100080930D0280910D020E94DC1880910D02B5
:103320008695869586950C94AA1A089580910D022B
:1033300080FF08C08E7F80930D020E94DC1880E021
:103340000C94AA1A089580910D0280FD0C94961990
:103350000C947E1990910D02892F869586958695FD
:103360008F5F8F719770843038F4880F880F880FC3
:10337000892B80930D0202C090930D0280910D0263
:10338000887F91E009F490E080910D0290FB80F934
:1033900080930D020E94DC1880910D02869586951F
:1033A00086950C94AA1A843008F083E090910D025F
:1033B0009770282F220F220F220F922B90930D022D
:1033C000987F21E009F420E090910D0220FB90F914
:1033D00090930D020C94AA1A0E94D31980910D02A9
:1033E0000C94DC18FC01DB0112968C918823F9F017
:1033F000EC5BFC45E730F105D8F4E059FF4F0C9445
:10340000442683E001C080E00E94EC1980E008952A
:103410000E945C19FBCF0E943919F8CF0E94A319B2
:10342000F5CF0E94AA19F2CF0E940719EFCF81E0D1
:103430000895279A2F9808952F9808958F929F9214
:10344000AF92BF92CF92DF92EF92FF920F931F93B2
:10345000CF93DF938C0180918600909187006CE080
:1034600070E00E94FA256017710730F0C80169E02A
:1034700070E00E94FA2560C08091860090918700DC
:10348000E0908600F0908700E0918600F091870040
:10349000C6E0D0E0BE010E94FA2520E030E0060F31
:1034A000171F211D311D4801590185E0880C991C09
:1034B000AA1CBB1C8A95D1F7C701BE010E94FA2540
:1034C0006F01E12CF12CA7019601260F371F411D3A
:1034D000511DC501B4010E94222669017A01E091C3
:1034E0008600F0918700CA01B9010E94EA259B017C
:1034F000AC01DF010E9459269B01AC01C701B60156
:103500000E94EA25DC01CB012FE0B695A79597959F
:1035100087952A95D1F7009186001091870020E0C9
:1035200030E0081719072A073B0728F46091860046
:1035300070918700CB01BC01CB01DF91CF911F912E
:103540000F91FF90EF90DF90CF90BF90AF909F9042
:103550008F900895CF93C82F843050F4811109C003
:1035600080918000877F809380000E941C1A06C093
:10357000C3E080918000886080938000A0918600E5
:10358000B09187002C2F30E00E944A2623E030E0E3
:1035900040E050E00E942226B42FA32F922F8827CC
:1035A000892F9A2FAB2FBB270E941E1A90938D0054
:1035B00080938C00CF91089508951092C6011092C7
:1035C000C5011092C701EFE6F0E080818160808341
:1035D0000895EFE6F0E080818E7F80830E94E918F5
:1035E0000C94AA1A1F920F920FB60F9211240F93E8
:1035F0001F932F933F934F935F936F937F938F937B
:103600009F93AF93BF93CF93EF93FF9380910E015E
:1036100091E0980F823019F090930E0155C081E02F
:1036200080930E010E941319C82F0091C5011091BB
:10363000C6010F5F1F4F0E94131928E7829FB00138
:103640001124C8010E94FA259093C6018093C501F8
:1036500028E7C29FB0011124660F672F661F770B02
:1036600071950E94FA256F778091C701823019F415
:10367000603451F404C0813039F46F3729F48091FB
:103680006F008E7F80936F00E62FF0E0EE5AFD4FC3
:10369000C49100918600109187000E94E918282F9C
:1036A000C09FC001C19F900D11246DEF72E00E9478
:1036B000FA25269FC001279F900D11240E941E1AF3
:1036C00090938D0080938C00FF91EF91CF91BF91EB
:1036D000AF919F918F917F916F915F914F913F91AA
:1036E0002F911F910F910F900FBE0F901F90189563
:1036F0000E94191A8AE08093800089E180938100FA
:103700008FEF9FEF90938700809386000E94161999
:103710000E940E1981110C94DD1A0895CF93DF9346
:10372000EC01FB018281882309F426C1C430FDE548
:10373000DF0760F4CB3F9CE5D90768F49E01225077
:103740003C452431310508F018C105C0C236EDE50D
:10375000DE0709F012C10E949C109093FE01809335
:10376000FD01C031FCE5DF0709F4CAC008F041C023
:10377000C8309CE5D90709F4A4C0F0F4C430FCE5D6
:10378000DF0709F48CC068F4C2309CE5D90709F45E
:1037900082C0C330DC4509F0E5C08091FD01826044
:1037A000DFC0C630FCE5DF0709F483C008F085C040
:1037B0008091FD018860D4C0CC309CE5D90709F424
:1037C00090C068F4CA30FCE5DF0709F47EC008F059
:1037D00084C00E944F0A8091FD018068C1C0CE3034
:1037E0009CE5D90709F481C008F086C08091FD01ED
:1037F00094C0CD3FFCE5DF0709F47BC038F5C43148
:103800009CE5D90709F49AC058F4C231FCE5DF07FA
:1038100009F47AC008F07EC08091FD018F7BA0C0C2
:10382000CB3F9CE5D907F1F108F03FC0C531DC453D
:1038300009F098C08091FD0182FB222720F991E0D8
:10384000922790FB82F990FB83F98AC0C1308DE505
:10385000D80709F467C050F48091FE01CF3FECE532
:10386000DE07C1F108F05BC08D7F65C0C3308DE518
:10387000D80709F471C008F46DC0C236DD4509F0FF
:1038800071C08091FD0184FB222720F991E09227ED
:1038900090FB84F965C08091FD01816061C08091D9
:1038A000FD0116C08091FE0116C08091FE0182606C
:1038B00042C08091FD01806153C08091FD01806212
:1038C0004FC08091FD0180644BC08091FD018860F4
:1038D000846046C0826081602EC08091FD018E7F31
:1038E0003FC08091FD018D7F3BC08091FD01877FAE
:1038F00037C08091FE0114C08091FD018F7E30C0E1
:103900008091FD018F7D2CC00E944F0A8091FD01A6
:103910008F7726C08091FD01877F8B7F21C08D7FAF
:103920008E7F09C08091FE01982F909591708E7FB7
:10393000892B90FB81F98093FE0114C00E944F0AED
:103940008091FD0187FB222720F991E0922790FBCF
:1039500087F906C081E001C080E00E94331102C0F7
:103960008093FD018091FD019091FE010E94AD10B8
:103970000E944F0A80E001C081E0DF91CF9108955D
:10398000CF93DF9386319C4541F5EB010E94AD0F4B
:10399000982F8A812091030130910401882379F0C6
:1039A0009A7A81E009F480E08093C801911102C005
:1039B00069E201C065E3C9010E94531E0AC08091FB
:1039C000C801811102C069E201C065E3C9010E941A
:1039D000551E0E94F20F80E001C081E0DF91CF917F
:1039E00008950F931F93CF93DF93C42FD22FFC0121
:1039F00082818823C9F04093CB010E94F11E9093ED
:103A0000CA018093C90180E28C0F883008F057C04A
:103A1000C77081E001C0880FCA95EAF7DF91CF91A6
:103A20001F910F910C94B4078091CB01481330C0C3
:103A30008091C9019091CA010E94091F883C91059B
:103A400038F510E21D0FCD17B9F080E28C0F8830E9
:103A500040F4C77081E001C0880FCA95EAF70E9460
:103A6000BB07183028F581E09D2F977001C0880FA3
:103A70009A95EAF70E94B407802F0E94AB0718308E
:103A8000F0F4D77081E001C0880FDA95EAF70AC038
:103A900080E28C0F883098F4C77081E001C0880FF5
:103AA000CA95EAF7DF91CF911F910F910C94BB0754
:103AB000802FDF91CF911F910F910C94AB07DF9175
:103AC000CF911F910F9108950F939C01CB01243F3B
:103AD0004CE5340731F188F4293DFCE53F07D9F086
:103AE0002A3D4CE5340779F1283D3C45A9F506E22D
:103AF00021EE41EE68ED7CE52BC0263FFCE53F075B
:103B0000E1F0A8F0273F3C4539F507E225EE46EE07
:103B100067EF7CE51DC007E225EE45EE69ED7CE52B
:103B200017C006E221EE40EE64EF7CE511C007E22B
:103B300025EE44EE65EF7CE50BC006E221EE42EE99
:103B400066EF7CE505C008E221E045EE6AED7CE524
:103B50000E94F11C80E008C0FC018281882319F0DA
:103B60001092CB0101C081E00F91089590932B0139
:103B700080932A0108959093D1018093D0010895F4
:103B8000E091D001F091D101309721F00190F081C6
:103B9000E02D099480E00895E091D001F091D101E9
:103BA000309721F00280F381E02D09940895E0918F
:103BB000D001F091D101309739F022E0DC012C9353
:103BC0000480F581E02D099408952091CE01309173
:103BD000CF012817390771F09093CF018093CE0160
:103BE000E091D001F091D101309721F00680F7816A
:103BF000E02D099408952091CC013091CD01281732
:103C0000390771F09093CD018093CC01E091D00100
:103C1000F091D101309721F00084F185E02D0994D5
:103C20000895FC01329697E080E0915029F02191AF
:103C30002223D9F38F5FF9CF0895662349F0FC0161
:103C4000329608962191621729F0E817F907D1F703
:103C500080E0089581E008959C01FC0132969FEF79
:103C600080E04191461789F09F3F19F4411101C04E
:103C7000982F8F5F8630A9F79F3F39F0F901E90F40
:103C8000F11D97FDFA956283089508959C012A5FBE
:103C90003F4FFC014281461301C0128201968217F8
:103CA0009307B9F708950C942C1E0C94461E0296A7
:103CB00026E0FC0111922A95E9F7089508950C94E5
:103CC0005E1E83E08093D2010C945F1E811102C0BE
:103CD00081E001C082E08093D2010C945F1E0C94BD
:103CE000661E81E08093D2010C945F1E0C94711EBD
:103CF000089580911602843031F10E94410510929E
:103D0000D30120E488E190E00FB6F894A895809361
:103D100060000FBE2093600083B7817F846083BF03
:103D200083B7816083BF7894889583B78E7F83BF84
:103D30000FB6F894A8958091600088618093600028
:103D4000109260000FBE089508950C94A41ECF93A6
:103D50000E94A51E0E94FB140E94A41EC0E08C2F8E
:103D60000E943314811104C0CF5FC730C1F701C076
:103D700081E0CF9108950E944F0A0C94B7051F92DD
:103D80000F920FB60F9211248F939F93AF93BF930F
:103D90008091D301811113C080910E0290910F0286
:103DA000A0911002B09111024196A11DB11D809306
:103DB0000E0290930F02A0931002B0931102BF91D4
:103DC000AF919F918F910F900FBE0F901F901895FC
:103DD00082E084BD93E095BD9AEF97BD80936E001D
:103DE00008952FB7F89480910E0290910F02A09140
:103DF0001002B09111022FBF08952FB7F89460916F
:103E00000E0270910F0280911002909111022FBF4B
:103E100008959C014FB7F89480910E0290910F0283
:103E2000A0911002B09111024FBF821B930B089515
:103E300078941F920F920FB60F9211248F939F9335
:103E4000AF93BF9380910E0290910F02A091100248
:103E5000B09111020196A11DB11D80930E029093A5
:103E60000F02A0931002B0931102BF91AF919F91E6
:103E70008F910F900FBE0F901F90189587E797E7CF
:103E800090930108809300089AE088E10FB6F894B7
:103E9000A895809360000FBE90936000FFCF809143
:103EA000DC0108950895089522E02093E9002FEFA2
:103EB0003091E800215035FD06C035ED3A95F1F717
:103EC00000002111F5CF2091E80025FF0BC040E054
:103ED00050E066E070E00E944C218091E8008E770F
:103EE0008093E8000895CF93DF9321E02093E900C9
:103EF0002FEF3091E800215035FD06C035ED3A95A1
:103F0000F1F700002111F5CF2091E80025FF14C042
:103F1000EC0140E050E068E070E00E944C218091AC
:103F2000E8008E778093E80088E0FE01A4EDB1E020
:103F300001900D928A95E1F7DF91CF910895089550
:103F400080911502811109C00E94DD220E943A234E
:103F50008091E20084608093E2000895109215023F
:103F600008950C94761E6091120281E0611101C0E7
:103F700080E00C94611E9091160281E0943009F06B
:103F800080E0609112020C94661E42E061EC81E0D8
:103F90000E94562242E261EC82E00E9456229091F9
:103FA000160281E0943009F080E0609112020C94D6
:103FB0006F1E80911802833009F461C030F48130A3
:103FC00071F0823009F49AC008958A3009F486C0ED
:103FD0008B3009F46CC0893009F0A8C020C08091F2
:103FE0001702813A09F0A2C08091E800877F809390
:103FF000E80080911B0290911C02892B21F468E05B
:1040000084ED91E003C060E080E090E070E00E9409
:1040100097218091E8008B778093E8000895809144
:104020001702813209F082C080911B0290911C021C
:10403000029708F07BC08091E800877F8093E800BA
:104040008091E80082FD05C0809116028111F8CFB1
:104050006DC02091F3008091F20090E0922B0297C6
:1040600031F48091F100813011F0863021F480919B
:10407000F1008093DC018091E8008B7753C0809140
:104080001702813A09F052C080911B0290911C02E4
:10409000892B09F04BC08091E800877F8093E8006E
:1040A0008091E80080FFFCCF80911B0136C0809199
:1040B00017028132D9F580911B0290911C02892B45
:1040C000A9F58091E800877F8093E8000E948B2209
:1040D0008091190280931B010C944F0A8091170262
:1040E000813221F58091E800877F8093E8000E946B
:1040F0008B2280911A028093DD010895809117022E
:10410000813AA1F48091E800877F8093E800809154
:10411000E80080FFFCCF8091DD018093F100809169
:10412000E8008E778093E8000C948B22089584B782
:10413000877F84BF0FB6F894A8958091600088614E
:1041400080936000109260000FBE90E080E80FB690
:10415000F89480936100909361000FBE0C94711EDF
:104160000E94DD220E943A23E2EEF0E0808184602A
:10417000808378940C94CF258FE091E00C94BB1D44
:10418000809116028530A9F480911602853079F469
:104190000E94791E809114028823B1F30E94A71E09
:1041A000882391F30E9436210E944F0AEDCF0C9490
:1041B000BB1E089508950C94DD20292F332723304A
:1041C0003105C9F060F42130310581F0223031052C
:1041D00009F044C08BE390E024E133E043C0213296
:1041E0003105E1F02232310549F138C082E190E039
:1041F0002FE433E037C099278130910549F028F04A
:10420000029761F5E2EDF2E005C0E0E1F3E002C003
:10421000ECEEF2E0849190E09F0124C061157105FD
:1042200041F061307105D1F489E090E02FE333E093
:1042300019C089E090E026E233E014C061157105F1
:1042400041F06130710551F489E490E021E633E0FA
:1042500009C080E490E02AEA33E004C080E090E006
:1042600020E030E0FA0131832083089580E189BDA8
:1042700082E189BD09B400FEFDCF8091D8008F7D19
:104280008093D8008091E00082608093E00080916C
:10429000E00081FDFCCF0895CF92DF92EF92FF9274
:1042A0000F931F93CF93DF93EC018B017A010E9450
:1042B000AA22811133C0E114F10439F0F7018081A1
:1042C0009181081B190BC80FD91FC12CD12C0115C6
:1042D000110519F18091E80085FD16C08091E80074
:1042E0008E778093E800E114F10449F0F7018081B2
:1042F0009181C80ED91ED182C08285E00FC00E9474
:10430000AA22882321F30AC089918093F1000150E9
:104310001109FFEFCF1ADF0ADACF80E0DF91CF91EA
:104320001F910F91FF90EF90DF90CF900895209113
:104330001D0230911E022617370748F061157105DE
:1043400039F42091E8002E772093E80001C0B901EC
:10435000FC0120E06115710579F180911602882336
:10436000F1F18530F1F18091E80083FD3CC080914E
:10437000E80082FD2EC08091E80080FFEBCF209105
:10438000F3008091F20090E0922B6115710551F0DD
:104390008830910538F421912093F1006150710922
:1043A0000196F3CF21E0089709F020E08091E80022
:1043B0008E778093E800CECF2111CFCF0AC08091B5
:1043C0001602882361F0853061F08091E80083FD5A
:1043D0000AC08091E80082FFF2CF80E0089582E079
:1043E000089583E0089581E0089520911D023091A1
:1043F0001E022617370748F06115710539F4209120
:10440000E8002E772093E80001C0B901FC0120E00C
:104410006115710591F180911602882309F440C05D
:10442000853009F43FC08091E80083FD3DC0809154
:10443000E80082FD2FC08091E80080FFE9CF209145
:10444000F3008091F20090E0922B6115710559F014
:104450008830910540F424912093F1003196615009
:1044600071090196F2CF21E0089709F020E08091D0
:10447000E8008E778093E800CBCF2111CCCF0AC023
:1044800080911602882361F0853061F08091E80008
:1044900083FD0AC08091E80082FFF2CF80E008959A
:1044A00082E0089583E0089581E00895982F973081
:1044B00068F59093E900981739F07091EC0020911D
:1044C000ED005091F00003C0242F762F50E021FD25
:1044D00002C09F5FECCF3091EB003E7F3093EB004A
:1044E0003091ED003D7F3093ED003091EB00316075
:1044F0003093EB007093EC002093ED005093F000AC
:104500002091EE0027FDE5CF80E008958F70809325
:10451000E90081E008958091170287FF11C0809122
:10452000E80082FD05C0809116028111F8CF11C00C
:104530008091E8008B770BC080911602882349F0A8
:104540008091E80080FFF8CF8091E8008E7780931B
:10455000E80008952091E4003091E50095E640914F
:10456000EC00842F817040FF23C08091E80080FD23
:104570001DC080911602882399F0853099F08091B2
:10458000EB0085FD11C04091E4005091E500241737
:10459000350729F3915011F09A01E1CF84E0089595
:1045A00082E0089583E0089581E0089580E0089511
:1045B0004091E80042FFDDCF08950E944B230E9406
:1045C0005323E0EEF0E0808181608083E8EDF0E04D
:1045D00080818F77808319BCA7EDB0E08C918E7FAE
:1045E0008C9380818F7E80831092150208950F93A3
:1045F0001F93CF93DF930E944B230E945323C8ED58
:10460000D0E088818F7788838881806888838881DB
:104610008F7D888319BC109216021092120210929C
:1046200014021092130200EE10E0F80180818B7FDB
:10463000808388818160888342E060E080E00E941E
:104640005622E1EEF0E080818E7F8083E2EEF0E0A2
:10465000808181608083808188608083F80180818F
:104660008E7F8083888180618883DF91CF911F91C5
:104670000F910895E8EDF0E080818F7E8083E7ED73
:10468000F0E080818160808384E082BF81E080935C
:1046900015020C94F722E8EDF0E080818E7F808394
:1046A0001092E20008951092DA001092E10008954D
:1046B0001F920F920FB60F9211242F933F934F9397
:1046C0005F936F937F938F939F93AF93BF93EF937A
:1046D000FF938091E10082FF0BC08091E20082FF96
:1046E00007C08091E1008B7F8093E1000E94CE257E
:1046F0008091DA0080FF1FC08091D80080FF1BC02E
:104700008091DA008E7F8093DA008091D90080FF5B
:104710000DC080E189BD82E189BD09B400FEFDCFF5
:1047200081E0809316020E94A01F05C019BC109260
:1047300016020E94AE1F8091E10080FF19C0809197
:10474000E20080FF15C08091E2008E7F8093E2003E
:104750008091E20080618093E2008091D8008062C5
:104760008093D80019BC85E0809316020E94B31F85
:104770008091E10084FF30C08091E20084FF2CC072
:1047800080E189BD82E189BD09B400FEFDCF809141
:10479000D8008F7D8093D8008091E1008F7E809338
:1047A000E1008091E2008F7E8093E2008091E20040
:1047B00081608093E20080911202882311F084E0EE
:1047C00007C08091E30087FD02C081E001C083E063
:1047D000809316020E94BB1F8091E10083FF29C0D5
:1047E0008091E20083FF25C08091E100877F809364
:1047F000E10082E080931602109212028091E100A3
:104800008E7F8093E1008091E2008E7F8093E200B2
:104810008091E20080618093E20042E060E080E00D
:104820000E9456228091F00088608093F0000E94E0
:10483000B11FFF91EF91BF91AF919F918F917F91A8
:104840006F915F914F913F912F910F900FBE0F90FD
:104850001F9018951F920F920FB60F9211242F934D
:104860003F934F935F936F937F938F939F93AF93F8
:10487000BF93CF93DF93EF93FF93C091E900CF7085
:104880008091EC00D82FD17080FDD0E81092E90023
:104890008091F000877F8093F00078940E946E24CE
:1048A0001092E9008091F00088608093F000CD2B99
:1048B000CF70C093E900FF91EF91DF91CF91BF914D
:1048C000AF919F918F917F916F915F914F913F91A8
:1048D0002F910F900FBE0F901F9018951F93CF939D
:1048E000DF93CDB7DEB7AA970FB6F894DEBF0FBE41
:1048F000CDBFE7E1F2E08091F100819322E0EF315A
:10490000F207C9F70E94D91F8091E80083FF2EC1EA
:104910008091170290911802492F50E04A305105BA
:1049200008F024C1FA01E958FF4F0C94442680385E
:1049300021F0823809F01AC108C0809113029091C9
:104940001402992389F082600FC080911B028F703E
:10495000873008F00BC18093E9008091EB0085FB64
:10496000882780F91092E9009091E800977F909352
:10497000E8008093F1001092F100D1C0282F2D7F24
:1049800009F0F4C0882319F0823061F0EFC0809103
:104990001902813009F0EAC0933009F080E0809379
:1049A00014022EC08091190281112AC080911B022D
:1049B0008F702FEF280F263008F0D8C08093E900C1
:1049C0002091EB0020FF1CC0933021F48091EB007C
:1049D000806214C09091EB0090619093EB0021E015
:1049E00030E0A90102C0440F551F8A95E2F74093B9
:1049F000EA001092EA008091EB0088608093EB005F
:104A00001092E9008091E800877F8093E8000E947F
:104A10008B22ACC08111AAC0109119021F7780911E
:104A2000E3008078812B8093E3008091E800877F0A
:104A30008093E8000E948B228091E80080FFFCCFE9
:104A40008091E30080688093E300111102C082E04E
:104A500001C083E08093160289C08058823008F03C
:104A600085C08091190290911A028C3D53E0950700
:104A700079F583E08A838AE289834FB7F894DE016F
:104A8000139620E03EE051E2E32FF0E05093570010
:104A9000E49120FF03C0E295EF703F5FEF708E2F2F
:104AA00090E0EA3010F0C79601C0C0968D939D93B8
:104AB0002F5F243149F74FBF8091E800877F8093B3
:104AC000E8006AE270E0CE0101960E94972116C0CC
:104AD00060911B0270911C02AE014F5F5F4F0E94FC
:104AE000DB20BC01892B09F441C09091E800977F3D
:104AF0009093E80089819A810E94F5218091E800D5
:104B00008B778093E80032C0803881F58091E8008F
:104B1000877F8093E800809112028093F10080915A
:104B2000E8008E7772CF811121C080911902909197
:104B30001A0299270297D4F48091E800877F809326
:104B4000E80080911902809312020E948B228091CA
:104B50001202811106C08091E30087FD02C081E04E
:104B600001C084E0809316020E94C51F8091E80076
:104B700083FF0AC08091E800877F8093E8008091DE
:104B8000EB0080628093EB00AA960FB6F894DEBF2C
:104B90000FBECDBFDF91CF911F9108950895CF93A0
:104BA000809116028823A1F0C091E900CF70909106
:104BB000EC00892F817090FD80E8C82B1092E900ED
:104BC0008091E80083FD0E946E24CF70C093E900BD
:104BD000CF910895DB018F939F930E945926BF9137
:104BE000AF91A29F800D911DA39F900DB29F900D3C
:104BF00011240895AA1BBB1B51E107C0AA1FBB1FAC
:104C0000A617B70710F0A61BB70B881F991F5A9558
:104C1000A9F780959095BC01CD01089597FB072ECB
:104C200016F4009407D077FD09D00E94FA2507FCFE
:104C300005D03EF4909581959F4F089570956195AC
:104C40007F4F0895A1E21A2EAA1BBB1BFD010DC0C8
:104C5000AA1FBB1FEE1FFF1FA217B307E407F5072C
:104C600020F0A21BB30BE40BF50B661F771F881F08
:104C7000991F1A9469F760957095809590959B019E
:104C8000AC01BD01CF010895EE0FFF1F0590F49117
:104C9000E02D0994A29FB001B39FC001A39F700DA6
:104CA000811D1124911DB29F700D811D1124911D34
:104CB00008950E944A26A59F900DB49F900DA49F31
:104CC000800D911D11240895FB01DC0104C08D911C
:104CD0000190801921F441505040C8F7881B990B6E
:104CE0000895F999FECF92BD81BDF89A992780B5B4
:104CF0000895A8E1B0E042E050E00C94A526262FEC
:104D0000F999FECF92BD81BDF89A019700B40216C1
:104D100039F01FBA20BD0FB6F894FA9AF99A0FBE6F
:104D200008950396272F0E9480260E947F26252F14
:104D30000E948026242F0C9480260196272F0E9403
:104D400080260C947F26DC01CB01FC01F999FECF73
:104D500006C0F2BDE1BDF89A319600B40D92415003
:0A4D60005040B8F70895F894FFCF13
:104D6A0040C8008D012808641E140A321E06014F2D
:104D7A001F731F541F9F1F521F531F019194669741
:0A4D8A00C634F4F5F6F731333200B9
:00000001FF
