:100000000C945C030C94A3030C94A3030C94A3031F
:100010000C94A3030C94A3030C94A3030C94A303C8
:100020000C94A3030C94A3030C9495300C946731A7
:100030000C94922B0C94A3030C94A3030C94A30391
:100040000C94A3030C94A3030C94A3030C94A30398
:100050000C94A3030C94072C0C94A3030C94A303FB
:100060000C94A3030C94A3030C94A3030C94A30378
:100070000C94A3030C94A3030C94A3030C94A30368
:100080000C94A3030C94A3030C94A3030C94A30358
:100090000C94A3030C94A3030C94A3030C94A30348
:1000A0000C94A3030C94A3030C94A303271513151A
:1000B000321537153C15411546154B15501555157C
:1000C0005A155F15641569156E15731578157D152C
:1000D000821587158C15911596159B15A0154C2129
:1000E0004C217E217E21CB21E921FD22FD22F4211C
:1000F0008D229E229E22AB23AB23BD23BD23B4239E
:10010000BD23BD23BD23AB23AB23B923BD23BD2317
:10011000B923D431FB31F332FB31F33247326A3247
:10012000F332C132D032165C1E001F0020002100C5
:100130002200230024002500260027002D002E0089
:100140002A004C002B0014001A00080015001700AC
:100150001C0018000C00120013002F0030003100AA
:100160004A00394104001600070009000A000B008C
:100170000D000E000F00330034000000280049007D
:10018000E1001D001B000600190005001100100011
:10019000360037003800E500000052004D00E00056
:1001A000E300E200000000002C000000000001510C
:1001B000E700E4005000000051004F00165C3A00D8
:1001C0003B003C003D003E003F004000410042003B
:1001D0004300440045000253C35CE05C01000100A1
:1001E000068001000100010082C1010084C20100FB
:1001F000010001003500A900010080C00780010056
:10020000010001005000510052004F0001000100A8
:1002100000000100AA00E10001000100010001004E
:10022000010001000100005CDF5C0100E50000004E
:10023000BD00C45C010001000100000000000100DD
:100240000000000001000100010001000000BE00EC
:100250005F5D165C1E001F002000210022002300AD
:1002600024002500260027002D002E002A004C0027
:100270002B0014001A000800150017001C001800BD
:100280000C00120013002F00300031004A003943E7
:1002900004001600070009000A000B000D000E0004
:1002A0000F0033003400000028004900E1001D0069
:1002B0001B00060019000500110010003600370071
:1002C0003800E500000052004D00E000E300E200CD
:1002D000000000002C00000000000351E700E400D3
:1002E0005000000051004F00165C3A003B003C00FB
:1002F0003D003E003F0040004100420043004400FA
:1003000045000253C35C010001000100010001002F
:1003100001000100010001000100010001000100D5
:100320003500A900010001000100010001000100E9
:100330005000510052004F00010001000000010078
:10034000AA00E1000100010001000100010001001C
:100350000100010001000100E5000000BD00C45CD7
:100360000100010001000000000001000000000089
:1003700001000100010001000000BE000100E400D6
:100380000000C4000000FC000000DC000000F600DB
:100390000000D6000000AC200000DF0000000000DC
:1003A0000000000000002A2B2800000000000000D0
:1003B00000000000000000000029000000002C1ECA
:1003C0003420212224342627252E362D3738271E87
:1003D0001F202122232425263333362E37381F04AD
:1003E00005060708090A0B0C0D0E0F101112131445
:1003F00015161718191A1B1C1D2F3130232D350403
:1004000005060708090A0B0C0D0E0F101112131424
:1004100015161718191A1B1C1D2F3130354C0000EA
:1004200000000000000000000000000000000000CC
:1004300000000000000000000000000000000000BC
:1004400000007E0F00D4FFFFFFC70000007800010E
:100450000101010101010101020202020202020284
:100460000203030303030303030404040404040456
:10047000050505050506060606060707070707081A
:10048000080808090909090A0A0A0B0B0B0C0C0CCD
:100490000D0D0D0E0E0E0F0F0F1010111111121267
:1004A00013131414151516161717181819191A1AE4
:1004B0001B1B1C1D1D1E1E1F202021222223242445
:1004C000252626272829292A2B2C2D2D2E2F303181
:1004D0003232333435363738393A3B3C3D3E3F4093
:1004E0004142434445464748494A4C4D4E4F50517E
:1004F0005354555658595A5B5D5E5F616264656638
:1005000068696B6C6D6F7072737577787A7B7D7EBE
:100510008082838587888A8C8E8F91939596989A0E
:100520009C9EA0A2A3A5A7A9ABADAFB1B3B5B7BA26
:10053000BCBEC0C2C4C6C9CBCDCFD1D4D6D8DBDDFA
:10054000DFE2E4E7E9EBEEF0F3F5F8FAFDFF100384
:1005500044005A00360035005200470042000000B7
:100560000E0344005A0054004500430048000000B8
:100570000403090409023B00020100A0FA09040077
:1005800000010301010009211101000122400007BF
:1005900005810308000A09040100010300000009A5
:1005A000211101000122B6000705820320000A1272
:1005B000011001000000085A442114020001020049
:1005C0000105010902A10185020901A1000509191E
:1005D0000129081500250195087501810205010909
:1005E0003009311581257F95027508810609381576
:1005F00081257F950175088106050C0A3802158151
:10060000257F950175088106C0C005010980A101FB
:10061000850319012AB700150126B7009501751049
:100620008100C0050C0901A101850419012AA0025D
:10063000150126A002950175108100C0050109066B
:10064000A1018505050719E029E715002501950891
:10065000750181020507190029EF1500250195F0A4
:100660007501810205081901290595057501910299
:10067000950175039101C005010906A1010507193E
:10068000E029E7150025019508750181029501759E
:100690000881010507190029FF150026FF009506AE
:1006A0007508810005081901290595057501910254
:1006B000950175039101C00011241FBECFEFDAE050
:1006C000DEBFCDBF04B603FE27C08091BA0690916D
:1006D000BB06A091BC06B091BD068730904BA740E9
:1006E000B04BD1F41092BA061092BB061092BC0621
:1006F0001092BD0614BE84B7877F84BF0FB6F894EE
:10070000A8958091600088618093600010926000DD
:100710000FBEE0E0F8E3099513E0A0E0B1E0E2EEFF
:10072000F8E602C005900D92A43EB107D9F726E085
:10073000A4EEB3E001C01D92AA3BB207E1F70E940C
:10074000CF2D0C946F340C9400000E94C21E81FFC8
:1007500007C02FEF4FEF6FEF8EE190E00C948B0E00
:1007600008958F359D4541F4FB018281882321F056
:1007700089E493E00E94FB1A81E008959C013A9578
:1007800021153F4138F5DC01AA27B270AC0144279E
:1007900054709C012227387094FF0FC090FF02C054
:1007A00080E101C080E0AB2B09F08062452B09F0AD
:1007B0008064232B69F080680BC0892F8170AB2B7C
:1007C00009F08260452B09F08460232B09F08860D2
:1007D000FB0109940895CF93DF93EC01805E9109AA
:1007E000089710F0209719F467E071E202C061E702
:1007F00073E2CE010E94BE038C2FDF91CF910C9447
:100800005D20CF93DF93EC010E94B320CE01805E88
:100810009109089710F0209719F46EE071E202C078
:1008200068E773E2CE01DF91CF910C94BE03CF93C2
:10083000DF93EC010E94EB03CE01DF91CF910C948A
:10084000010481E008950C94B10308950C942504EB
:100850001F93CF93DF9300D000D01F92CDB7DEB7A8
:1008600049835A836B8330916A0489819A8131115B
:1008700014C0662359F0222349F00E946728182FDC
:10088000682F89819A810E94102803C00E943B280A
:10089000182F69817A81812F04C00E94672869819D
:1008A0007A810F900F900F900F900F90DF91CF9162
:1008B0001F910C946905FC01262F408151816281B2
:1008C000738184810C942804CF93DF93EC0160E062
:1008D0000E945B04BE01DF91CF910C9426040E941C
:1008E0006D070E94B5150E94D1190C94AA070C94AB
:1008F000A60708950E9499230E9479042FEF84E3AC
:100900009CE0215080409040E1F700C000000C9432
:100910002D2C0F931F93CF93DF938C0161E00E94E6
:100920005B04EC01B8010E942304882309F44BC046
:10093000B801CE010E94A81B882309F444C0B80165
:10094000CE010E944F1C8823F1F1B801CE010E9414
:10095000A11C8823C1F1B801CE010E94CC1D8823BF
:1009600091F1B801CE010E94F018882361F1F801DD
:100970008281882309F1CB358DE5D807C1F050F489
:10098000C115FCE5DF0781F0CF3DDC45A9F40E94ED
:10099000712A19C0CC35EDE5DE0761F0CD35DD45B6
:1009A00059F40E94FA2808C00E947A040CC00E94E0
:1009B000032902C00E940629C801DF91CF911F912F
:1009C0000F910C94210480E0DF91CF911F910F9142
:1009D0000895DF92EF92FF920F931F93CF93DF93CF
:1009E000E82FF0E0E256FC4FD490282F269526956C
:1009F000269530E0F901E25CFB4F0491877010E02E
:100A0000082E02C0159507950A94E2F70170112788
:100A1000F901E25DFB4FE490F12C082E02C0F59441
:100A2000E7940A94E2F791E0E922FF24F901E25EFB
:100A3000FB4FC491D0E002C0D595C7958A95E2F7E7
:100A4000C170DD270115110519F081EE0E945D20AE
:100A5000E114F10419F086EE0E945D208D2D0E94B4
:100A6000FE20EF2819F086EE0E94B320012B19F02A
:100A700081EE0E94B320CD2B51F08CE2DF91CF911B
:100A80001F910F91FF90EF90DF900C94FE20DF916B
:100A9000CF911F910F91FF90EF90DF900895982FC5
:100AA0009F709A50963010F0805D01C0895A0C9466
:100AB000E90408950C94590581E008950C945C05AF
:100AC000CF93C82F0E945A058C2F0E945E05CF91AC
:100AD00008952BE4829FC0011124FC012FE0729F36
:100AE000E00DF11D1124E60FF11DEE0FFF1FEA5D71
:100AF000FE4F859194910895CF93DF930E946905ED
:100B00000E947E06EC01811521E5920708F043C0A2
:100B1000811540E5940708F08AC0883E910520F5CC
:100B2000803E910508F0E6C0883A910570F4853A58
:100B3000910508F074C08130910509F4DBC008F418
:100B4000D7C0049708F0D6C0D3C08F3B910508F0FA
:100B5000CFC0C85AD0E0CC0FDD1FC55ADC4F09907A
:100B6000D881C02DD464C6C0C11580E2D80758F41E
:100B7000C11521E0D20708F0BDC0CD3ED10508F473
:100B8000B7C0D065B7C0C11540E4D40708F4B0C001
:100B9000DF70D06AAFC0C11585E5D807A0F4C115D4
:100BA00024E5D20708F08AC0C11543E5D40708F050
:100BB0006FC0C11582E5D80708F054C0DC2FCC27E0
:100BC000C16FD06A97C0C11529E5D207A0F4C1153D
:100BD00048E5D40708F077C0C11586E5D80708F0C6
:100BE00087C08C2F0E9412078F71C82FD0E0DC2F96
:100BF000CC27D0627FC0C1152AE5D20708F468C0AF
:100C0000CE0190568115904208F072C08D2F8F71E1
:100C10000E941207DD27D0628F71D82B6BC0C55A96
:100C2000D0E0C757DC4FC881D0E0D06463C074E027
:100C3000969587957A95E1F783709C2F937021E0C4
:100C400030E002C0220F331F9A95E2F73C68382B40
:100C5000CF70C695C69580E2C89FE0011124C22BD3
:100C6000D32B48C0CE018370992721E030E002C029
:100C7000220F331F8A95E2F78C2F8695869540E2E6
:100C8000849FC0011124E901C82BD92BDC6832C034
:100C9000CE018370992721E030E002C0220F331F7C
:100CA0008A95E2F78C2F8695869540E2849FC00155
:100CB0001124E901C82BD92BDA681CC0DC2FCC2702
:100CC000C46FD06A17C0DC2FCC27C06FD06A12C0A7
:100CD0008C2F8F700E94120794E0D695C7959A9535
:100CE000E1F7CF70D0E0DC2FCC27D069C82B02C051
:100CF000C0E0D0E0CE01DF91CF9108958238910518
:100D000069F1B0F48133910509F46DC048F489327A
:100D1000910509F463C08A32910509F469C0089508
:100D20008533910509F455C089339105B9F00895CB
:100D3000833E910569F138F4803E9105B1F0823E21
:100D4000910509F10895863E9105A9F1873E910527
:100D5000B9F1843E910509F064C023C020912605B5
:100D600020FD4FC021FD4DC008958091260580FDD6
:100D700044C08091270580FF44C08091260584FDF2
:100D800042C083EE4DC08091260582FF38C0F5CF6A
:100D90008091260582FD33C08091270580FD31C0FA
:100DA000ECCF8091270581FF32C08091260584FD1C
:100DB0002AC087EE35C08091260583FF26C0F5CF77
:100DC0008091260583FD21C08091270581FD1FC0EC
:100DD000ECCF8091260585FD1CC01DC080912605A5
:100DE00085FD19C016C08091260586FD16C017C066
:100DF0008091260586FD13C010C089E311C082EEE4
:100E00000FC080EE0DC080E00BC086EE09C084EEFE
:100E100007C089E205C085E303C08AE201C081E31F
:100E200090E008959091260592FF0DC0282F28711B
:100E3000283019F4877F846006C0282F247124305D
:100E400011F48B7F886093FF0DC0282F2871283103
:100E500019F4877E846106C0282F2471243111F48F
:100E60008B7E88612091270520FF0DC0382F3871B7
:100E7000383019F4877F816006C0382F31713130E6
:100E800011F48E7F886021FF0DC0282F2871283132
:100E900019F4877E816106C0282F2171213111F458
:100EA0008E7E886194FD877E08950C94C3290E94EC
:100EB000F5078FEB9DE50197F1F700C000000E9458
:100EC000F50780E00E94910780FF04C00E9455074B
:100ED0000C942D2C08950C9457070E94C929811158
:100EE00002C00E94712A0E94D429809302050E94A8
:100EF000DC2990932705809326050E946B070E94AA
:100F0000D829682F70E080E090E00E94122760915D
:100F1000D5047091D6048091D7049091D8040C9494
:100F20004A27E82FF0E0EE0FFF1FEE5CFA4F8081BA
:100F300091810895089580EA8A95F1F7089500C097
:100F400008950C949B0708950C94A3070C94A40790
:100F50000C94A3070C94A807F894E82FE295EF707F
:100F6000F0E031A1282F2F7081E090E001C0880FC0
:100F70002A95EAF7982F9095932391A392A1892B14
:100F800082A3789408950F931F93CF93DF9380EFFC
:100F90000E94AC0781EF0E94AC0784EF0E94AC076F
:100FA00086EC0E94AC0786E60E94AC07CCE8D3E052
:100FB0000BE913E089910E94AC070C171D07D1F7CC
:100FC000E8E2F5E0A2E3B5E0119211921D921D92C4
:100FD00085E0E233F807C1F785E00E948308DF91DE
:100FE000CF911F910F910C946F047F928F929F92DB
:100FF000AF92BF92CF92DF92EF92FF920F931F9327
:10100000CF93DF93CBE9D3E088E2A82E85E0B82E1A
:1010100092E3E92E95E0F92E712C01E010E06E01CB
:101020008881F894E82FE295EF70F0E021A18F70AD
:10103000A80102C0440F551F8A95E2F7CA01922FFA
:10104000982B91A392A18095892382A378940E94E2
:101050009F07ECE8F3E020E030E0812C912C4191F7
:10106000A42FA295AF70B0E090968C9190E04F7055
:1010700002C0959587954A95E2F780FD08C0C801A2
:10108000022E02C0880F991F0A94E2F702C080E086
:1010900090E0882A992A2F5F3F4F2F303105F9F6CB
:1010A0002196F60180810E94AC070E94A107F501FC
:1010B000808191818816990621F09182808281E059
:1010C00001C080E0782AF2E0AF0EB11CEA14FB0404
:1010D00009F0A5CF272D45E062E375E088E295E0B1
:1010E0000E9484080E947704872DDF91CF911F9181
:1010F0000F91FF90EF90DF90CF90BF90AF909F90B7
:101100008F907F9008950895FF920F931F93CF9330
:10111000DF93F82E092F162FD72FC42F222349F043
:1011200081E08093E8030E94C42B9093E7038093AF
:10113000E6038091E8038823D9F08091E60390913B
:10114000E7030E94DC2B049798F0EF2DF02FA12FDE
:10115000BD2F80E090E04C2F50E08417950734F4C9
:10116000219131912D933D930196F7CF1092E80391
:10117000DF91CF911F910F91FF9008958091EF0320
:1011800080FF0BC06091200285E0689FB0011124B0
:1011900075956795759567952BC081FF09C060911E
:1011A000200285E0689FB00111247595679520C0E5
:1011B00082FF07C06091200285E0689FB001112482
:1011C00017C09091EE039923D1F060911F029617FA
:1011D00088F72091200285E0289F90011124929F9A
:1011E000A001939F500D112470E0CA010E943B336F
:1011F0006038710540F46115710519F406C065E0A9
:1012000070E0862F08958FE7089581E0089580911A
:10121000EF0380FF08C060911C0270E07595679530
:101220007595679521C081FF06C060911C0270E032
:101230007595679519C082FF04C060911C0270E02B
:1012400010C09091ED03992399F060911B029617BD
:10125000A0F780911C02899FC001112470E00E94B8
:101260003B336038710540F46115710519F406C00F
:1012700061E070E0862F08958FE7089581E008957A
:101280008D3E21F40E94BE08819504C08E3E29F453
:101290000E94BE088093F30308958F3E21F40E94BC
:1012A000BE08819504C0803F29F40E94BE08809347
:1012B000F2030895893F19F40E94070905C08A3F87
:1012C00031F40E94070981958093F40308958B3FC0
:1012D00021F40E940709819504C08C3F29F40E94E3
:1012E00007098093F50308959FE0980F983078F4EC
:1012F00021E030E0A90102C0440F551F9A95E2F7A2
:10130000CA019091F103892B8093F10308958D3FD9
:1013100021F48091EF0381600BC08E3F21F4809116
:10132000EF03826005C08F3F29F48091EF03846052
:101330008093EF0308958D3E39F49091F30397FF66
:1013400035C01092F30359C08E3E29F49091F303F7
:101350001916BCF32BC09091F2038F3E29F497FF2E
:1013600025C01092F20349C0803F19F41916CCF33E
:101370001DC09091F403893F29F41916BCF4109212
:10138000F4033BC08A3F19F497FF10C0F8CF8B3F9E
:1013900039F49091F50397FF09C01092F5032DC021
:1013A0008C3F21F49091F5031916BCF39FE0980F40
:1013B000983080F421E030E0A90102C0440F551FAD
:1013C0009A95E2F7CA0180959091F1038923809361
:1013D000F10313C08D3F21F48091EF038E7F0BC08A
:1013E0008E3F21F48091EF038D7F05C08F3F29F45C
:1013F0008091EF038B7F8093EF038091F203811143
:1014000006C08091F303811102C01092EE03809117
:10141000F403811106C08091F503811102C010927E
:10142000ED0308950E94C42B2091F203211104C002
:101430002091F303222321F09093EC038093EB039C
:101440002091F403211104C02091F503222321F0FF
:101450009093EA038093E90380EF93E00C94E91EF4
:10146000EF92FF920F931F93CF93DF9300D000D0A2
:1014700000D0CDB7DEB786E0E0EFF3E0DE011196F5
:1014800001900D928A95E1F7E090F203F090F3035A
:101490000091F4031091F5031092F2031092F303FC
:1014A0001092F4031092F503E11003C0FF2009F439
:1014B0005DC08091EB039091EC030E94DC2BAC01AA
:1014C0009091EE03992339F02091210230E0241706
:1014D000350758F04BC0209122028AE0289F9001E6
:1014E00011242417350718F041C09F3F19F09F5F62
:1014F0009093EE03EE2061F00E94BE081E1414F0DB
:101500009FEF01C091E0989F902D11249093F203DA
:10151000FF2061F00E94BE081F1414F09FEF01C06D
:1015200091E0989F902D11249093F3033091F20352
:101530003323E1F02091F3032223C1F045EB340380
:10154000C0011124992319F09093F20303C081E0A4
:101550008093F20335EB2303C0011124992319F082
:101560009093F30303C081E08093F303011103C060
:10157000112309F45DC08091E9039091EA030E9470
:10158000DC2BAC019091ED03992339F020911D02E1
:1015900030E02417350758F04BC020911E028AE036
:1015A000289F900111242417350718F041C09F3F50
:1015B00019F09F5F9093ED03002361F00E940709EB
:1015C000101614F09FEF01C091E0989F902D112408
:1015D0009093F403112361F00E940709111614F08F
:1015E0009FEF01C091E0989F902D11249093F503F7
:1015F0003091F4033323E1F02091F5032223C1F06D
:1016000045EB3403C0011124992319F09093F4039E
:1016100003C081E08093F40335EB2303C001112460
:10162000992319F09093F50303C081E08093F503AB
:101630008091F20381110BC08091F303811107C0E7
:101640008091F403811103C08091F50381110E9400
:10165000120AEB82FC820D831E8386E0FE01319626
:10166000A0EFB3E001900D928A95E1F726960FB6B0
:10167000F894DEBF0FBECDBFDF91CF911F910F91C8
:10168000FF90EF900895E0EFF3E086E0DF011D9218
:101690008A95E9F71092EE031092ED031092EF0392
:1016A0000895EF92FF920F931F93CF93DF938B01D7
:1016B000682F11110AC0442329F0E82FF0E0E25B03
:1016C000FB4F6491762F862F75C0212F30E0E82FD5
:1016D000F0E0442321F0E25BFB4FE491F0E046E0D0
:1016E000049FC0011124CFEFD0E0BE010E94273338
:1016F0004BEA4603C001479F900D1124800F911DB6
:10170000800F911D982F990F890FAE01421B530B2B
:101710004E9FD0014F9FB00D5E9FB00D11249B2FA7
:10172000189FA0011124452F55278E01041B150B6E
:101730000E9FA0010F9F500D1E9F500D11247E0182
:10174000E81AF108E29E8001E39E100DF29E100D52
:101750001124212F3327C21BD30BCE9F9001CF9F83
:10176000300DDE9F300D112462307105A9F048F470
:101770006115710569F061307105C9F48B2F752F02
:101780000DC06430710581F058F06630710579F450
:101790007E2F8B2F932F0DC0832F7B2F9E2F09C061
:1017A0008E2F7B2F952F05C08E2F732F02C07E2F7B
:1017B000852F692FDF91CF911F910F91FF90EF90AF
:1017C000089541E00E94510B089520E030E0869F8B
:1017D000212D969F200D311D1124C9010895BC01B2
:1017E0008230910508F40895613E8EE1780748F44F
:1017F0009B0195E0369527959A95E1F748E0420FD1
:1018000001C04FEF91E0242F30E0290F311D3595B5
:101810002795229FF001239FF00DF00D11246E17E4
:101820007F0718F44FEF420F04C02F3F39F091E0CB
:10183000920F491740F78FEF890F08958FEF0895A2
:10184000482F982F46FD9095E92FEF739F7046FD26
:101850009F5FE295EF70EE0FF0E0E056FC4F2181C4
:10186000299F802D212D112482958F702295207F14
:10187000822B3081982F930F892F47FD81958058B7
:101880000895E42FF0E0EE0FFF1FE15BFE4F408173
:1018900034EE439F412D1124E82FF0E050E0445EE8
:1018A0005F4FDA01A21BB1099D01B7FF03C031955B
:1018B0002195310993E0220F331F9A95E1F7AF018B
:1018C000421B530B9A0157FF02C020E030E0582F13
:1018D000259F212D1124822F0895622F0895E42F32
:1018E000F0E0EE0FFF1FE15BFE4F6081621B089589
:1018F000E42FF0E0EE0FFF1FE05BFE4F6081621B04
:101900000895A22F50E0FA01EE0FFF1FE05BFE4F9B
:101910009081905297FD9195440F551FFA01E15B1C
:10192000FE4F3081232F30E02A1B3109290F311D52
:1019300097FD3A95620F0895EF920F931F9393E0EE
:10194000099F80011124159507956E2D600F1F9139
:101950000F91EF9008950F93CF93DF93D72FC82F58
:1019600047FD4195E8E3F0E0CF01841B910947FD75
:101970009395889FB001899F700D700D1124229F4F
:10198000C001239F900D900D1124860F971F0E9478
:10199000EF0B682F660F860F682F600F7D2F8C2F3F
:1019A000DF91CF910F9108950F931F93522F10E065
:1019B000F801EE0FFF1FE05BFE4FE081F0E0B09713
:1019C0009F015203D001539FB00D1124000F111F2E
:1019D000F801E15BFE4F008110E000571109400360
:1019E0009001419F300D11242A0F3B1F37FF02C089
:1019F00021583F4F220F232F221F330B620F1F91BD
:101A00000F9108950F931F93522F10E0F801EE0FDE
:101A1000FF1FE05BFE4FE081F0E0B097EE0FFF1F8D
:101A20009F015203D001539FB00D1124000F111FCD
:101A3000F801E15BFE4F008110E000571109000F33
:101A4000111F40039001419F300D11242A0F3B1FAD
:101A500037FF02C021583F4F220F232F221F330B85
:101A6000620F1F910F9108950F931F9310E0F801DB
:101A7000EE0FFF1FE15BFE4F9081905797FD919510
:101A8000000F111FF801E05BFE4FE081F0E0B0971E
:101A9000DF01AA0FBB1F8D010E0F1F1F2003D001F6
:101AA000219FB00D1124E8E3F0E0E91BF10997FD57
:101AB000F3959F01220F331F89010E0F1F1F400353
:101AC0009001419F300D11242A0F3B1F37FF02C0A8
:101AD00021583F4F220F232F221F330B620F1F91DC
:101AE0000F9108950F931F93CF93DF93D62F072F56
:101AF000182FC42F822F0E94200CEC2FF0E0EE0F45
:101B0000FF1FE15BFE4F90819058890F87FD819503
:101B1000880F682F2CE0629F612D11246D0F702FAC
:101B2000812FDF91CF911F910F910895E42FF0E065
:101B3000EE0FFF1FE15BFE4F9081921B97FD919589
:101B4000292F38E1239F212D1124620F089522E8C7
:101B5000241B08F420E0620F0895FC019B0100970C
:101B600021F477FF2BC080E80895AC0197FF04C0F3
:101B700044275527481B590BB901640F751F37FDC2
:101B80000CC0241B350BC901A5E0880F991FAA952D
:101B9000E1F70E943B3380E20CC0CB0165E0880F87
:101BA000991F6A95E1F7BA01621B730B0E943B33E0
:101BB00080E6861BF7FF03C08195089580E00895B5
:101BC000FF920F931F93CF93DF93F62ED72F182FEB
:101BD000C901C12FC01BBA010E94AD0D982F990FEA
:101BE000890FC81B2C2F219F212D1124822F6F2D8F
:101BF0007D2FDF91CF911F910F91FF900895EF926C
:101C00000F931F93CF93DF93D62FC72F182FC901A0
:101C10000E19010FBA010E94AD0D081B202F219F44
:101C2000212D1124822F6D2F7C2FDF91CF911F91B9
:101C30000F91EF9008950F93CF93DF93D72FC82F75
:101C4000C901BA010E94AD0D682F600F7D2F8C2F46
:101C5000DF91CF910F910895EF920F93CF93DF9380
:101C6000D72FC82FC9010E19BA010E94AD0D602FE0
:101C7000681B7D2F8C2FDF91CF910F91EF900895EE
:101C80000E94E10B089546E050E06CE170E08CE3C7
:101C900095E00C94FB3346E050E06CE170E08CE39F
:101CA00095E00C941934ECE3F5E081E280838091B7
:101CB000360290913702A091380281839283A383E8
:101CC0008FE784838FEF85830C944B0E80E008951B
:101CD0000F931F93CF93DF93C82FD62F8A010E94B3
:101CE000660E9FE0C99FF0011124EC5FFE4FED0FDF
:101CF000F11D90819F3F29F0F801E80FF11D9083BD
:101D00008F5FDF91CF911F910F910895E091AE0306
:101D1000F091AF030994E091AA03F091AB03099409
:101D20004F925F926F927F928F929F92AF92BF92EB
:101D3000CF92DF92EF920F931F93CF93DF932C01FB
:101D40003B01FC01C081CC0FCC0FD4E0DC0FD534BB
:101D500008F0D4E460914005669580914205909129
:101D600043050E94E50B182FCD1708F044C08C2EB8
:101D7000912CF401E952FE4F9081F2018181892377
:101D8000C1F1F401EE0FFF1FE15BFE4FC080D12CCB
:101D9000F0E7CF1AD108F401EE0FFF1FE05BFE4F12
:101DA000A080B12C80E2A81AB108CC9C9001CD9CF7
:101DB000300D300D1124AA9CC001AB9C900D900DEC
:101DC0001124820F931F0E94EF0B082F60913D0595
:101DD00070913E0580913F05E12E9501A601F3012A
:101DE00009950E94400E462F282F672FC4010E949C
:101DF0008B0ECF5FB9CF81E0D43408F080E0DF9163
:101E0000CF911F910F91EF90DF90CF90BF90AF9047
:101E10009F908F907F906F905F904F9008956FEF9D
:101E20007DE00C94900E6CE97CE00C94900E6CE2DA
:101E30007EE00C94900EAF92BF92CF92DF92EF9221
:101E4000FF920F931F93CF93DF936C015B01FC0113
:101E5000C081CC0FCC0FD4E0DC0FD53408F0D4E433
:101E600060914005669580914205909143050E94DE
:101E7000E50B182FCD1778F5EC2EF12CF701E95270
:101E8000FE4F9081F6018181892319F1F701EE0F50
:101E9000FF1FE05BFE4F208130E020523109F70147
:101EA000EE0FFF1FE15BFE4F408150E040575109AC
:101EB00060913D0570913E0580913F05012FF50130
:101EC00009950E94400E462F282F672FC7010E94B8
:101ED0008B0ECF5FCFCF81E0D43408F080E0DF916C
:101EE000CF911F910F91FF90EF90DF90CF90BF9017
:101EF000AF90089560EE7DE00C941B0F6BEA7CE0E0
:101F00000C941B0F6BE17EE00C941B0FBF92CF92E1
:101F1000DF92EF92FF920F931F93CF93DF938C0189
:101F20007B01FC01C081CC0FCC0FD4E0DC0FD53499
:101F300008F0D4E4609140056695669521E0620F53
:101F400008F46FEF80914205909143050E94E50BE4
:101F5000B82ECD17F0F4CC2ED12CF601E952FE4F5D
:101F60009081F8018181892391F060913D05709104
:101F70003E0580913F052B2D4C2FF70109950E94BE
:101F8000400E462F282F672FC6010E948B0ECF5F71
:101F9000E0CF81E0D43408F080E0DF91CF911F9151
:101FA0000F91FF90EF90DF90CF90BF90089561E484
:101FB0007CE00C94860F6DE67CE00C94860F6FE657
:101FC0007CE00C94860F68E77CE00C94860F61E857
:101FD0007CE00C94860F62E77DE00C94860F66E946
:101FE0007DE00C94860F7F928F929F92AF92BF926A
:101FF000CF92DF92EF92FF920F931F93CF93DF93D5
:102000006C015B01FC01C081CC0FCC0FD4E0DC0F74
:10201000D53408F0D4E460914005669566958091CA
:102020004205909143050E94E50B182F80E4810F33
:102030000E94200C90E8F92EF80E812F0E94200CAF
:1020400020E8722E780ECD1700F58C2E912CF4011D
:10205000E952FE4F9081F60181818923A1F06091C0
:102060003D0570913E0580913F05E12E0C2F272DF7
:102070004F2DF50109950E94400E462F282F672FFE
:10208000C4010E948B0ECF5FDECF81E0D43408F014
:1020900080E0DF91CF911F910F91FF90EF90DF9043
:1020A000CF90BF90AF909F908F907F90089564EDF8
:1020B0007CE00C94F30F62E07DE00C94F30F64E39A
:1020C0007DE00C94F30FAF92BF92CF92DF92EF922C
:1020D000FF920F931F93CF93DF938C017B01FC0141
:1020E000C081CC0FCC0FD4E0DC0FD53408F0D4E4A1
:1020F0002091400531E0230F08F42FEF30E040E05D
:1021000050E06FEF7FEF80E090E00E944F33690175
:10211000CD1708F041C0AC2EB12CF501E952FE4FAD
:102120009081F80181818923A9F190914605915010
:1021300097FD15C0292F092E000C330BF901EA5B1E
:10214000FA4F8189C813F3CF220F331FF901EA5BDD
:10215000FA4F218D328D2C153D0548F701C09601AF
:102160006091400541E0640F08F46FEFC9010E94DF
:10217000E50BAC0160913D0570913E0580913F05F6
:10218000F70109950E94400E462F282F672FC501A1
:102190000E948B0ECF5FBCCF81E0D43408F080E08A
:1021A000DF91CF911F910F91FF90EF90DF90CF9033
:1021B000BF90AF90089567EA7DE00C946310DF92C2
:1021C000EF92FF920F931F93CF93DF938C01DC016B
:1021D000CC91CC0FCC0FD4E0DC0FD53408F0D4E494
:1021E00060913D0570913E0580913F050E94400E33
:1021F000F62EE72ED82ECD1798F4EC2FF0E0DF0165
:10220000A952BE4F8C91D80111969C91982331F020
:102210002D2D4F2D6E2DCF010E948B0ECF5FEBCF5A
:1022200081E0D43408F080E0DF91CF911F910F91CD
:10223000FF90EF90DF900895AF92BF92CF92DF9220
:10224000EF92FF920F931F93CF93DF938C01FC01CA
:10225000C081CC0FCC0FD4E0DC0FD53408F0D4E42F
:10226000E0903E05F0903F05D0903D056D2D7E2D10
:102270008F2D0E94400EC62EB72EA82E60914005CD
:102280006D0D7E2D8F2D0E94400EF62EE72ED82E3E
:10229000CD17B8F48C2F90E0FC01E952FE4F30814D
:1022A000F8012181232359F030FF04C02D2D4F2D3B
:1022B0006E2D03C02A2D4C2D6B2D0E948B0ECF5FEF
:1022C000E7CF81E0D43408F080E0DF91CF911F9117
:1022D0000F91FF90EF90DF90CF90BF90AF90089557
:1022E000BF92CF92DF92EF92FF920F931F93CF9303
:1022F000DF937C01FC01C081CC0FCC0FD4E0DC0F5C
:10230000D53408F0D4E4C0903E05B0903F0520914C
:10231000400530E4D32E3D2D329F312D1124D32E94
:10232000CD1738F50C2F10E0F801E952FE4F9081DF
:10233000F70181818923D9F0F801EE0FFF1FE15BDE
:10234000FE4F6081D69EB001112495E0759567958A
:102350009A95E1F780913D05680F7C2D8B2D0E94A9
:10236000400E462F282F672FC8010E948B0ECF5F8B
:10237000D7CF81E0D43408F080E0DF91CF911F9176
:102380000F91FF90EF90DF90CF90BF900895DF9274
:10239000EF92FF920F931F93CF93DF938C01DC0199
:1023A000CC91CC0FCC0FD4E0DC0FD53408F0D4E4C2
:1023B000E0903D05F0903E05D0903F0560914005CE
:1023C00066956695669580914205909143050E94B9
:1023D000E50B0E94200C805887FD8195880F282FDF
:1023E0003D2D239F212D1124822FB7010E94400EE5
:1023F000F62EE72ED82ECD1798F4EC2FF0E0DF0163
:10240000A952BE4F8C91D80111969C91982331F01E
:102410002D2D4F2D6E2DCF010E948B0ECF5FEBCF58
:1024200081E0D43408F080E0DF91CF911F910F91CB
:10243000FF90EF90DF900895DF92EF92FF920F935D
:102440001F93CF93DF93EC01FC01E952FE4F908183
:10245000692381F1D0903E0500913F0510913D0523
:10246000E12EF12C0E94E233282FC7018C549F4F9C
:1024700068E671E00E943B338E199F0997FD039631
:1024800095958795959587952370612F289F600D69
:1024900011247D2D802F0E94400E462F282F672F5C
:1024A000CE01DF91CF911F910F91FF90EF90DF90C0
:1024B0000C948B0EDF91CF911F910F91FF90EF90B5
:1024C000DF900895CF92DF92FF920F931F93CF93E7
:1024D000DF938C01FC01C281C1111DC060914005D8
:1024E00020E1620F08F46FEF80914205909143055F
:1024F0000E94E50B6AE070E00E942733892B49F5C2
:102500000E94E23364E470E00E943B33F801618191
:102510000E941C121EC0FC01C081CC0FCC0F94E0A5
:10252000F92EFC0EF4E4FF1510F484E4F82ED0E04C
:10253000CF2CD12CCC15DD053CF4F8016181CE0106
:102540000E941C122196F6CFC1E0F3E4FF1508F4B7
:10255000C0E08C2FDF91CF911F910F91FF90DF9002
:10256000CF9008951F93CF93DF93FC01E952FE4F64
:1025700020816223A9F0EC010E94E233182F0E940F
:10258000E233612F782F80913F050E94400E462F45
:10259000282F672FCE01DF91CF911F910C948B0EC6
:1025A000DF91CF911F910895CF92DF92FF920F9309
:1025B0001F93CF93DF938C01FC01C281C1111DC019
:1025C0006091400520E1620F08F46FEF80914205B1
:1025D000909143050E94E50B65E070E00E9427336F
:1025E000892B49F50E94E23364E470E00E943B339A
:1025F000F80161810E94B2121EC0FC01C081CC0FA3
:10260000CC0F94E0F92EFC0EF4E4FF1510F484E4F2
:10261000F82ED0E0CF2CD12CCC15DD053CF4F80100
:102620006181CE010E94B2122196F6CFC1E0F3E49F
:10263000FF1508F4C0E08C2FDF91CF911F910F910F
:10264000FF90DF90CF900895DF92EF92FF920F936B
:102650001F93CF93DF938C01DC01CC91CC0FCC0F77
:10266000D4E0DC0FD53408F0D4E4E0903E05F090DF
:102670003F05D0903D05609140056695669566954D
:1026800080914205909143050E94E50B0E94200C29
:10269000805887FD8195880F682F2CE0629F612DFF
:1026A00011246D0D7E2D8F2D0E94E10BF62EE72E4D
:1026B000D82ECD1798F4EC2FF0E0DF01A952BE4FD1
:1026C0008C91D80111969C91982331F02D2D4F2D8E
:1026D0006E2DCF010E948B0ECF5FEBCF81E0D43403
:1026E00008F080E0DF91CF911F910F91FF90EF9064
:1026F000DF900895E091AC03F091AD030994CF927F
:10270000DF92EF92FF920F931F93CF93DF93CDB79A
:10271000DEB728970FB6F894DEBF0FBECDBF182FD7
:10272000062FF42E0E943D1F882309F46DC0FF2060
:1027300049F0AE014F5F5F4F602F812F0E94680EFE
:10274000F82E01C0F12CE090F6030F2D10E0C80127
:102750008E0D911D099764F188E090E06C01C01A1C
:10276000D10AB80169507C4FA60187EF93E00E941F
:10277000F233B80161507C4FA6018FEF93E00E94C5
:10278000F233A601440F551FB801660F771F615F32
:102790007B4F8FE094E00E94F233B801695F7B4F7A
:1027A000A60187E094E00E94F233EA94E092F603F7
:1027B0001091F603DE01119640E0842F810FF4168C
:1027C00009F190E05D91252F30E0BC016A507C4F0B
:1027D000F901EE0FFF1FE15BFE4F0081FB0101835A
:1027E000220F331FF901E05BFE4F2081FB0121879F
:1027F000518B880F991FFC01EA50FC4F128E118EED
:102800004F5FDBCF8093F60328960FB6F894DEBFB8
:102810000FBECDBFDF91CF911F910F91FF90EF9031
:10282000DF90CF90089508950C9413140E9414140F
:102830000C94A50308950C941A14CF93DF93FC0114
:10284000C081CC0FCC0FC450D4E0DC0FD53408F0DD
:10285000D4E46D2F8C2F0E941B146D2F8C2FDF91D1
:10286000CF910C941A144F925F926F927F928F9235
:102870009F92AF92BF92CF92DF92EF92FF92CF934F
:1028800060911F0470912004809121049091220492
:102890000E94EB2B6B017C010E94D02B4B015C0151
:1028A00060931F047093200480932104909322046A
:1028B000A091F603E6EFF3E08A2F90E04FEF5FEF91
:1028C00060E070E04C195D096E097F09A91799F065
:1028D000218D328D2901612C712C44155505660519
:1028E000770510F4815004C02C0D3D1D328F218FCF
:1028F0009F5F3296EBCF8093F60380912304811182
:1029000008C0C0913C058C2F837019F0C695C69500
:1029100001C0C0E0809123028130E1F030F08230CC
:10292000E1F1833009F446C012C110922402809272
:10293000420590924305A0924405B092450589E274
:10294000E6EFF3E0A6E4B5E001900D928A95E1F799
:1029500081E02DC080912702C8130DC020913C0555
:10296000237030E04091280250E081E024173507C1
:1029700019F480E001C081E081708093260280918B
:10298000410590912502981741F18093250240E07E
:1029900060E080E00E947A1320C0C09327028091FB
:1029A0003C058370809328020E94860E83E080930A
:1029B0002302CDC06091420570914305809144058A
:1029C000909145050E94EB2B6A31710581059105B7
:1029D00008F4BDC010922302BAC08C2F90E0893158
:1029E000910580F1809124028F5F8093240282E020
:1029F0008093230280912602811120C0CC23B1F262
:102A00000E94161484E292E0CF91FF90EF90DF9045
:102A1000CF90BF90AF909F908F907F906F905F907E
:102A20004F900C941D1484E292E00E94DF1090916C
:102A300024029F5F909324028823C9F2CC2309F4D7
:102A400086C0DECFFC01EA5AFF4F0C946E338091B2
:102A50002602882309F479C040E060E080E00E940B
:102A60007A1373C084E292E00E941C11E0CF84E2EA
:102A700092E00E947011DBCF84E292E00E94C711C5
:102A8000D6CF84E292E00E94D70FD1CF84E292E0C9
:102A90000E947A0FCCCF84E292E00E940F0FC7CF42
:102AA00084E292E00E94DB0FC2CF84E292E00E94B7
:102AB000DF0FBDCF84E292E00E94E30FB8CF84E243
:102AC00092E00E94E70FB3CF84E292E00E94130FDE
:102AD000AECF84E292E00E947E0FA9CF84E292E022
:102AE0000E94820FA4CF84E292E00E94170F9FCF32
:102AF00084E292E00E9457109ACF84E292E00E9412
:102B00005B1095CF84E292E00E945F1090CF84E248
:102B100092E00E9462128BCF84E292E00E94D41273
:102B200086CF84E292E00E94241381CF84E292E077
:102B30000E94EB0F7CCF84E292E00E94EF0F77CFF0
:102B400084E292E00E94DB1072CF80E070CFCF91E0
:102B5000FF90EF90DF90CF90BF90AF909F908F90BD
:102B60007F906F905F904F900895E091A803F0914F
:102B7000A903099510924605EFE5F5E08FEF9FEF69
:102B80008193919325E0EF36F207D1F71092F60387
:102B9000EFE0F4E08FEF9FEF8193919324E0EF312A
:102BA000F207D1F70E94C929811104C00E94712A3D
:102BB0000E94530E0E94430E80913C058C7F11F4BD
:102BC0000C94530E0895CF93C82F882329F040E02A
:102BD00060E080E00E947A13C0932304CF910895AF
:102BE00020913C0591E0922790933C05109223029E
:102BF00081110C944B0E089581E00C94F015909186
:102C00003C05937091F0811102C0946007C0893136
:102C100010F0906603C0880F880F982B90933C05A6
:102C20001092230261110C944B0E089561E00C94F4
:102C3000FF15682F90913C05969596959F5F993169
:102C400010F4892F01C081E00C94FF1581E00C94F1
:102C50001916682F90913C0596959695915011F014
:102C6000892F01C088E10C94FF1581E00C9429168E
:102C700090913C05937061F080933D0560933E0513
:102C8000493C08F048EC40933F0521110C944B0E51
:102C90000895ACE3B5E01196EC911197F0E0282F80
:102CA00013964C91139712966C91CF0108960C9441
:102CB000381681E00C944916ACE3B5E01196EC911E
:102CC0001197F0E0282F13964C91139712966C9160
:102CD000CF0108970C94381681E00C945C16ECE355
:102CE000F5E0628120E1620F08F46FEF9181282FF7
:102CF0004381892F90E00C94381681E00C946F1674
:102D0000ECE3F5E0628120E1621B08F460E0918170
:102D1000282F4381892F90E00C94381681E00C9481
:102D20008016ECE3F5E0438120E1420F08F44FEF19
:102D30009181282F6281892F90E00C94381681E0D0
:102D40000C949116ECE3F5E0438120E1421B08F47A
:102D500040E09181282F6281892F90E00C943816F1
:102D600081E00C94A2162091400530E1230F08F475
:102D70002FEF2093400581110C944B0E089581E0B4
:102D80000C94B3162091400530E1231B08F420E099
:102D90002093400581110C944B0E089581E00C9412
:102DA000C21660E084E70E94A01861E087E70C94F7
:102DB000A018CF930E94FD1D84E70E94261787E785
:102DC0000E942617C0E021E041E061E08C2F0E94C4
:102DD000BC17CF5FC434B9F760E084E70E94B8182D
:102DE00061E087E7CF910C94B818EFE8F6E06083D4
:102DF000418324E630E042E050E0BF01880F0C94AC
:102E00008A1E0F931F93CF93DF93082F000FEB01C0
:102E100014E210938F06E0E9F6E0DE018D918193D4
:102E200086E0E03AF807D1F724E630E041E150E0EF
:102E30006FE876E0802F0E948A1E105F6096143B38
:102E400041F7DF91CF911F910F910895CF93DF93B9
:102E5000C82F4BE06DEF0E94F51640E06AE08C2F22
:102E60000E94F5168FE39CE90197F1F700C000007E
:102E700040E060E08C2F0E94F51640E061E08C2F6E
:102E80000E94F51640E066E08C2F0E94F51640E0A7
:102E90006DEF8C2F0E94F516D0E040E06D2F8C2F47
:102EA0000E94F516DF5FD231C1F740E06D2F8C2F05
:102EB0000E94F516DF5FD432C1F740E06D2F8C2FF2
:102EC0000E94F516DF5FD43BC1F74BE06DEF8C2F0E
:102ED0000E94F51641E06AE08C2F0E94F51640E052
:102EE0006DEF8C2FDF91CF910C94F5168434910502
:102EF00040F5880F991F880F991FFC01E75CFD4F73
:102F000052813381808183707181A82FB0E0E0E924
:102F10008E9FC001112481599A4FFC01E70FF11DCA
:102F2000B4976083FC01E50FF11DB4974083830FD4
:102F3000911DFC01B4972083FD01E65BFB4F81E00E
:102F400080830895FF920F931F93CF93DF93182FE1
:102F5000062FF42EC0E0D0E02F2D402F612FCE01A0
:102F60000E9476172196C434D105B1F7DF91CF9135
:102F70001F910F91FF9008957F928F929F92AF9231
:102F8000BF92CF92DF92EF92FF920F931F93CF9356
:102F9000DF93362F54E0859FC0011124FC01E75CCC
:102FA000FD4F60816370762E618170E0CB01849764
:102FB0008C0197FF02C0095F1F4FA3E0159507958D
:102FC000AA95E1F7628170E07B0154E2E51AF1080D
:102FD000E701F7FC279673E0D595C7957A95E1F759
:102FE000638170E04B0154E2851A9108F40197FC6B
:102FF000379653E0F595E7955A95E1F768E0A62EE8
:10300000B12CB5010E943B336C01C701B5010E9490
:103010003B337C01C401B5010E943B331127672D6E
:1030200070E0DD24332399F032E1369FD001379FE1
:10303000B00D1124AA5DBB4FA00FB11F01E010E03D
:1030400001C0000FCA94EAF73C91032B13C032E190
:10305000369FD001379FB00D1124AA5DBB4FA00F42
:10306000B11F01E010E001C0000FCA94EAF700951B
:103070003C9103230C93DD27FF2432E1442391F09C
:10308000369FA001379F500D11244A5D5B4FC40F3E
:10309000D51F41E050E001C0440FEA94EAF73881BF
:1030A000432B12C0369FA001379F500D11244A5D5B
:1030B0005B4FC40FD51F41E050E001C0440FEA94BC
:1030C000EAF74095388143234883AF015527992774
:1030D00092E1969FF001979FF00D1124EA5DFB4F5E
:1030E000E40FF51F222361F021E030E0A90102C0C6
:1030F000440F551F8A95E2F7CA019081892B0CC0B5
:1031000021E030E0A90102C0440F551F8A95E2F783
:10311000CA018095908189238083FB01EC5DFB4F80
:1031200081E08083DF91CF911F910F91FF90EF900D
:10313000DF90CF90BF90AF909F908F907F90089539
:10314000CF93DF93262F30E0E901C65BDB4F9881F8
:10315000992351F090E9929FB001939F700D112433
:1031600061597A4F0E9401171882DF91CF9108951B
:10317000DF92EF92FF920F931F93CF93DF93262F4F
:1031800030E0A9014C5D5B4F7A01FA019081911109
:103190000AC0F7011082DF91CF911F910F91FF902C
:1031A000EF90DF900895D82EF2E16F9FE001112497
:1031B00000E010E0F801EC0FFD1FEA5DFB4F4081DD
:1031C000602F8D2D0E94F5160F5F1F4F02311105E4
:1031D00089F7DFCF882311F0FA0101C0FB010994C0
:1031E0001F93CF93DF93FB011281112309F48CC04D
:1031F000EC010E9409298272CB3CFCE5DF0709F44F
:103200006EC048F5C63CECE5DE0709F454C070F426
:10321000C43C9CE5D90709F442C008F045C0C33C52
:10322000DC4509F074C00E94FC1570C0C83C9CE5E8
:10323000D90709F44AC008F443C0C93CFCE5DF07DC
:1032400009F448C0CA3CDC4509F061C040EB56E1D6
:103250006FE976E12DC0C03DECE5DE0709F450C012
:1032600088F4CD3C9CE5D90709F443C0E8F1CE3C95
:10327000FCE5DF0709F442C0CF3CDC4509F047C05C
:1032800084E03FC0C73D9CE5D90728F4C23DDC453A
:10329000E8F58EE036C0CE35DD45C1F138C045E3F6
:1032A00056E166E276E104C046E256E165E376E186
:1032B0000E94EA182BC04CE656E169E576E1F8CFAA
:1032C00049E556E16CE676E1F3CF4EE856E16DE76D
:1032D00076E1EECF4DE756E16EE876E1E9CF4FE9D2
:1032E00056E160EB76E1E4CF4EEC56E16FEB76E130
:1032F000DFCF4FEB56E16EEC76E1DACF81E001C033
:1033000089E00E94161602C011E001C010E0812F72
:10331000DF91CF911F9108950F931F93CF93DF9368
:10332000811520EC920700F1EC01D05C0E94092984
:10333000182F0E941F29012F082B0E943529182FB2
:103340000E94C21E102B127291E009F490E0869543
:103350008170981729F0CC0FCD2FCC1FDD0BD195A4
:10336000CE018F77992701C09058DF91CF911F919F
:103370000F91089597FF13C0FB012281222379F05A
:103380000E948C19880F991F880F991FFC01E25821
:10339000FC4F65917591859194910E94A81A81E0E6
:1033A00008958CE090E00E940B3490E0A0E0B0E043
:1033B0008093A3069093A406A093A506B093A606B7
:1033C000843029F0813029F0823039F403C080E064
:1033D00001C081E080934C04089510924C0484E075
:1033E0008093A30608956091A3068CE090E00C946E
:1033F000293420914C04082E000C990B820F911D4A
:1034000027FD9A9563E070E00E943B3387FD8D5F56
:1034100080934C04E0914C040E2E000CFF0BE05501
:10342000FC4F80818093A3060C94F3190E94C21E66
:10343000869581708093A8069091A306913029F417
:10344000882319F089E30E94FE200E9409298093B5
:10345000A7060E941C298091A306813071F048F0D4
:10346000823081F08430A1F486EE0E94FE2088E153
:103470000DC082EE0E945D200BC088E193E00E94A7
:10348000170406C082EE0E945D2087E50E94FE20A0
:103490008FE39CE90197F1F700C000000895809147
:1034A000A306813039F078F0823069F0843089F4F5
:1034B00088E20DC08CE20E94FE208091A80688233D
:1034C00041F089E304C082EE0E94B32002C00E9452
:1034D000FE208091A7060C941929BF92CF92DF920B
:1034E000EF92FF920F931F93CF93DF936B017C01B9
:1034F000C7E0D0E00CE110E0BB24B394D701C601D3
:10350000002E04C0B695A795979587950A94D2F793
:103510008F7029F4B11006C00E944F0503C00E94AD
:103520004F05B12C219704501109CF3F8FEFD807D9
:1035300029F0C430D10514F7B12CE0CFDF91CF9141
:103540001F910F91FF90EF90DF90CF90BF90089563
:10355000CF92DF92EF92FF926115710521E1820710
:10356000910508F043C06115710521E082079105BE
:1035700020F02091A3062230C9F16B017C010E944A
:10358000161AC114D10481E0E806F10428F18091F3
:10359000A306811121C021E0E21AF108D701C6017A
:1035A00088279C7FAF70BB272AE0B695A795979593
:1035B00087952A95D1F7BC01CD0178528F4F9F4F47
:1035C0000E946D1A83E0D822EE24FF24C701B601C1
:1035D00074528F4F9F4F02C0C701B6010E946D1AEF
:1035E000FF90EF90DF90CF900C944F1AFF90EF90E8
:1035F000DF90CF9008950F931F93CF93DF93EC014B
:10360000892B09F4A0C08881882309F49CC087FD18
:1036100006C0682F70E080E090E021967FC0982F70
:10362000907E903CA1F4682F6F71862F90E0A0E00F
:10363000B0E016E0880F991FAA1FBB1F1A95D1F79B
:1036400029812F73BC01CD01622B229667C0982F70
:10365000907F903E19F549814F7350E060E070E033
:10366000E6E0440F551F661F771FEA95D1F790E0FB
:10367000A0E0B0E0FCE0880F991FAA1FBB1FFA95DD
:10368000D1F7AA27BB27842B952BA62BB72B2A81F2
:103690002F73BC01CD01622B239640C0982F987FD9
:1036A000903FC1F5853FB0F549814F7350E060E030
:1036B00070E09CE0440F551F661F771F9A95D1F765
:1036C000877090E0A0E0B0E022E1880F991FAA1F68
:1036D000BB1F2A95D1F7842B952BA62BB72B2B81BB
:1036E0002F73AC01BD01422B8A818F7390E0A0E063
:1036F000B0E036E0880F991FAA1FBB1F3A95D1F79B
:103700008A019B01082B192B2A2B3B2BC901B801DD
:10371000249604C021966FEF7FEFCB018B019C01B3
:10372000185D21093109011518402105310508F4FA
:103730006ACF6F3F0FEF70078007900709F463CFE0
:103740000E94A81A60CFDF91CF911F910F91089529
:103750000F931F93CF93DF93EC018B01FB018281C9
:10376000882311F10E9409298272C13EFCE5DF071E
:10377000A1F028F4C03EECE5DE0761F015C0C73EBD
:10378000FCE5DF0788F48C2F825E8093A3060E94FD
:10379000F3190AC0882329F002C0811102C08FEFFB
:1037A00001C081E00E94F919B801CE01DF91CF91EB
:1037B0001F910F910C94BA190F931F93CF93DF931E
:1037C000C42FD22FFC0182818823C9F040934F047B
:1037D0000E94C42B90934E0480934D0480E28C0F82
:1037E000883008F057C0C77081E001C0880FCA95C3
:1037F000EAF7DF91CF911F910F910C9407218091EF
:103800004F04481330C080914D0490914E040E94A3
:10381000DC2B883C910538F510E21D0FCD17B9F06F
:1038200080E28C0F883040F4C77081E001C0880FBF
:10383000CA95EAF70E940E21183028F581E09D2FE5
:10384000977001C0880F9A95EAF70E940721802F90
:103850000E94FE201830F0F4D77081E001C0880F7C
:10386000DA95EAF70AC080E28C0F883098F4C770C6
:1038700081E001C0880FCA95EAF7DF91CF911F91CF
:103880000F910C940E21802FDF91CF911F910F91FA
:103890000C94FE20DF91CF911F910F9108950F930B
:1038A0009C01CB01243F4CE5340731F188F4293DDC
:1038B000FCE53F07D9F02A3D4CE5340779F1283D76
:1038C0003C45A9F506E221EE41EE68ED7CE52BC012
:1038D000263FFCE53F07E1F0A8F0273F3C4539F5DE
:1038E00007E225EE46EE67EF7CE51DC007E225EE18
:1038F00045EE69ED7CE517C006E221EE40EE64EF8F
:103900007CE511C007E225EE44EE65EF7CE50BC0D7
:1039100006E221EE42EE66EF7CE505C008E221E01A
:1039200045EE6AED7CE50E94DC1B80E008C0FC01EE
:103930008281882319F010924F0401C081E00F9119
:103940000895CF93DF93EC01FB018281882309F472
:103950001FC1C230FCE5DF0708F41BC1C6319CE57E
:10396000D90738F09E012B5F3C452930310508F01E
:1039700010C10E94DC299093270580932605C03151
:10398000ECE5DE0709F4C3C008F041C0C8308CE59F
:10399000D80709F49AC0F0F4C430ECE5DE0709F466
:1039A00087C068F4C2308CE5D80709F477C0C3300B
:1039B000DC4509F0E3C080912605826076C0C63000
:1039C000ECE5DE0709F46EC008F07BC080912605A7
:1039D00088606BC0CC308CE5D80709F485C068F4EA
:1039E000CA30ECE5DE0709F474C008F079C00E9423
:1039F000992380912605806858C0CE308CE5D80781
:103A000009F476C008F07FC0809126058BC0CC3FBA
:103A1000ECE5DE0709F44FC018F5C3318CE5D80793
:103A200009F47DC078F4C131ECE5DE0709F473C018
:103A3000C231DC4509F0A2C00E949923809126057D
:103A40008F7733C0C5318CE5D80709F472C008F40C
:103A500086C0CB3FDC4509F091C0809127053EC070
:103A6000C115FDE5DF0709F45FC058F4CE3F9CE5C2
:103A7000D90709F444C008F43FC08091270582604B
:103A80002DC0C230FDE5DF0709F475C008F45DC044
:103A9000C330DD4509F072C080E06EC0809126051C
:103AA000816003C08091260580618093260566C0F1
:103AB0008091260511C0809127058260809327059B
:103AC0005DC0809126058062F0CF809126058064DC
:103AD000ECCF8091260588608460E7CF8160EECFCF
:103AE000809126058E7FE1CF809126058D7FDDCFE9
:103AF00080912605877FD9CF8091270518C08091B6
:103B000027058D7FDBCF809126058F7ECECF8091DC
:103B100026058F7DCACF809126058F7BC6CF8091E9
:103B20002605877F8B7FC1CF809127058D7F8E7F74
:103B3000C5CF8091260582FB222720F991E09227AC
:103B400090FB82F990FB83F9B0CF80912705982FE5
:103B5000909591708E7F892B90FB81F9AFCF0E9459
:103B600099238091260587FB222720F991E092274F
:103B700090FB87F99ACF81E00E94732A80912605F5
:103B8000909127050E94ED290E94992380E001C0B1
:103B900081E0DF91CF910895CF93DF9386319C45EB
:103BA00041F5EB010E940929982F8A812091290271
:103BB00030912A02882379F09A7A81E009F480E032
:103BC00080935004911102C069E201C065E3C9010C
:103BD0000E940E2B0AC080915004811102C069E23C
:103BE00001C065E3C9010E94192B0E94542980E09D
:103BF00001C081E0DF91CF9108951092B9008CE06F
:103C00008093B8000895EF92FF920F931F93CF9384
:103C1000DF93182FEB011092BC0084EA8093BC0064
:103C20000E94C42B7C018091BC0087FD0EC0CF3F59
:103C30008FEFD807C1F30E94C42B8E199F098C17F0
:103C40009D0788F38EEF9FEF2EC08091B900887F8B
:103C5000883041F08091B900887F803119F08FEF72
:103C60009FEF21C01093BB0084E88093BC000E94AA
:103C7000C42B8C018091BC0087FD0CC0CF3F8FEF1F
:103C8000D807C1F30E94C42B801B910B8C179D0792
:103C900088F3D8CF8091B900887F883111F08034C3
:103CA000F1F680E090E0DF91CF911F910F91FF90AE
:103CB000EF9008950F931F93CF93DF93EB018093C1
:103CC000BB0084E88093BC000E94C42B8C018091CF
:103CD000BC0087FD0EC0CF3F8FEFD807C1F30E9415
:103CE000C42B801B910B8C179D0788F38EEF9FEFE1
:103CF0000CC02091B900287F81E090E0283211F4B7
:103D000080E090E0919581959109DF91CF911F918D
:103D10000F910895CF92DF92EF92FF920F931F932E
:103D2000CF93DF936B018A017901B9010E94031ED1
:103D3000E6010C0D1D1DC017D10761F424E9209385
:103D4000BC00DF91CF911F910F91FF90EF90DF901A
:103D5000CF90089597FDF2CFB70189910E945A1E26
:103D6000EACF90935604809355040895E09155044A
:103D7000F0915604309721F00190F081E02D0994E4
:103D800080E00895E0915504F0915604309711F4C5
:103D900080E008950190F081E02D09950895E0916B
:103DA0005504F0915604309799F020913502222362
:103DB00059F02091260527FF07C0DC012C911196B0
:103DC0002C93119725E02C930280F381E02D099428
:103DD0000895E0915504F0915604309739F022E0AF
:103DE000DC012C930480F581E02D09940895209145
:103DF0005304309154042817390771F090935404F8
:103E000080935304E0915504F0915604309721F0CB
:103E10000680F781E02D0994089520915104309196
:103E200052042817390771F090935204809351047B
:103E3000E0915504F0915604309721F00084F1850B
:103E4000E02D099408950E94D02B6093660470932E
:103E5000670480936804909369046093620470938C
:103E600063048093640490936504089585B7806823
:103E700085BF85B7806885BF089581E008950C945B
:103E80003D1F08950C94411F0C94411F0C94441F36
:103E90000C94411F0C94481F0C94411F0E94361F24
:103EA00081EC99E20E94512C0E944C1F0C944A1FF5
:103EB0000E94421F0C94411F0E94BB2B0E94C3070B
:103EC0000C94461F6F927F928F929F92AF92BF92F7
:103ED000CF92DF92EF92FF920F931F93CF93DF93D6
:103EE000CDB7DEB72A970FB6F894DEBF0FBECDBFB1
:103EF0000E94F50781110E94231F38E5832E34E0CC
:103F0000932E00E010E0E02E802F0E9491075C01CC
:103F1000F401619071904F01682679266114710453
:103F2000B1F40F5F1F4F0530110569F78FEF8983DB
:103F30008A831B820E94C42B8160782F9D838C838F
:103F400049815A816B818D810E94232043C08091D9
:103F5000020581FD0E949A07F12CCC24C394D12C38
:103F6000C3018C219D21892B71F10E943F1FAC2040
:103F7000BD208823A1F0FE82EF8281E0A114B1046C
:103F800009F480E088870E94C42B8160782F9A878B
:103F900089874E815F8168858A850E942320000F72
:103FA000111FF801E85AFB4F80819181C826D9265C
:103FB000D182C08241E0AB2809F440E06F2D8E2D04
:103FC0000E947F1307C0F394CC0CDD1CFFE0FF12AE
:103FD000C7CFA7CF0E9433140E94300A0E94B61E9A
:103FE000909157048917D1F00E94B61E8093570410
:103FF0002A960FB6F894DEBF0FBECDBFDF91CF91EA
:104000001F910F91FF90EF90DF90CF90BF90AF90F6
:104010009F908F907F906F900C9460052A960FB6BA
:10402000F894DEBF0FBECDBFDF91CF911F910F91EE
:10403000FF90EF90DF90CF90BF90AF909F908F90C8
:104040007F906F900895DF92EF92FF920F931F93EE
:10405000CF93DF93CDB7DEB72B970FB6F894DEBFC3
:104060000FBECDBFF42E052F162FE72ED82E6111CF
:104070000E942F29FE01319686E0DF011D928A956C
:10408000E9F77E2D4F2D502F612F8D2D9E810E949F
:1040900052262B960FB6F894DEBF0FBECDBFDF9130
:1040A000CF911F910F91FF90EF90DF900895FC0149
:1040B000808191810E94A9280895CF93882309F4D3
:1040C00050C0C82F8CEF8C0F813AD0F46C2F8091A8
:1040D000290290912A020E948E2A882349F06C2F8F
:1040E0008091290290912A020E94192B0E94542942
:1040F0006C2F8091290290912A020E940E2B0CC0F5
:1041000080E28C0F883058F4C77081E001C0880FBE
:10411000CA95EAF70E940C29CF910C945429EBE53B
:10412000EC0FE33040F4F0E0EF51FC4F808190E081
:10413000CF910C94F71EE8E5EC0FE73150F4F0E076
:10414000EE0FFF1FED54FC4F80819181CF910C94B5
:104150000D1FCD3E30F08C2F0E944009CF910C9462
:10416000120ACF910895882389F19CEF980F913A14
:1041700040F4682F8091290290912A020E94192B05
:104180000DC090E2980F983058F4877091E001C00C
:10419000990F8A95EAF7892F0E9412290C945429C5
:1041A0009BE5980F933020F480E090E00C94F71E8C
:1041B00098E5980F973120F480E090E00C940D1F63
:1041C0008D3E20F00E949B090C94120A08951F93C3
:1041D000CF93DF93182FEB010E945D20209741F0D1
:1041E0008FE99FE00197F1F700C000002197F6CF1B
:1041F000812FDF91CF911F910C94B320893319F057
:1042000060E070E002C060E570E00C94E720882375
:1042100021F00E940C290C9454290895882321F040
:104220000E9412290C9454290895CF92DF92EF92A4
:10423000FF920F931F93CF93DF937C01D62FC72F4D
:10424000FC011281058102950F700E94E1288823EC
:1042500099F0112389F08C2F807F803421F080E247
:104260008D0F883048F082E00E94A4290E94E12846
:1042700091E0D82ED92601C0D12CCC2EC2948FE04B
:10428000C8228C2D90E08C30910508F0B6C1FC015D
:10429000E159FF4F0C946E338C2F807FCF708823B1
:1042A00011F0C295C07F112399F0CC2309F491C17C
:1042B00080E28D0F883010F0D11104C08C2F0E9445
:1042C0000C2903C08C2F0E9422290E94542981C1ED
:1042D0008D2F0E94B320CC2309F48FC180E28D0F73
:1042E000883010F0D11104C08C2F0E94122903C015
:1042F0008C2F0E9428290E9454297FC18C2F807FF7
:10430000CF70803211F0C295C07FDD2319F0D1301B
:10431000C9F022C0112371F0002341F0013031F4C3
:104320000E9435298C2B0E943D2967C10E943529A6
:104330008C2B1DC0002319F0013009F45EC10E94CE
:104340004A2925C0112321F0063008F056C10EC0BD
:10435000053008F052C11BC0112361F0002331F079
:10436000F701858180FF35C18F7085838C2F0E9476
:10437000072143C1002359F0D93309F03BC1FFEFB6
:1043800007EE13E0F15000401040E1F731C18C2FEF
:104390000E940E2132C18C2F86958695837019F06C
:1043A000813061F02AC1112321F08D2F9C2F937051
:1043B00002C080E090E00E94F71E27C1112321F087
:1043C0008D2F9C2F937002C080E090E00E940D1F03
:1043D0001CC18D2F112319F00E94400902C00E94B8
:1043E0009B090E94120A11C18C2F837009F047C0EB
:1043F000111107C12D2F229526952770220F220F0C
:104400006D2F6F70862F90E0A0E0B0E0022E04C008
:10441000880F991FAA1FBB1F0A94D2F7D4FF10C0A0
:104420004FE050E060E070E004C0440F551F661F8D
:10443000771F2A95D2F7409550956095709503C0E7
:1044400040E050E0BA01C695C695C3708A019B0151
:10445000082B192B2A2B3B2BC901B801C23049F07C
:1044600058F4C13019F00E942627CBC00E941427AF
:10447000C8C00E943827C5C00E941227C2C011239D
:1044800019F08C2F817001C08695882309F4B9C07A
:104490002D2F229526952770220F220F6D2F6F70DA
:1044A000862F90E0A0E0B0E0022E04C0880F991F94
:1044B000AA1FBB1F0A94D2F7D4FF10C04FE050E0F0
:1044C00060E070E004C0440F551F661F771F2A95F7
:1044D000D2F7409550956095709503C040E050E04C
:1044E000BA01C695C695C3708A019B01082B192B8A
:1044F0002A2B3B2BC901B801C23049F058F4C13016
:1045000019F00E94EB277DC00E94D9277AC00E9433
:10451000FD2777C00E944C2774C0CF70112339F05B
:104520008C2F0E9472278D2F0E9407216AC08D2F29
:104530000E940E218C2F0E94932763C0D23F01F16D
:1045400028F4D03F41F0D13FA1F03FC0D33FF9F074
:10455000D43F39F13AC0112341F0053008F04DC085
:104560008C2F8F710E94B82748C0063008F045C0D4
:10457000F7CF112339F08C2F8F710E9472273DC025
:104580001123C9F38C2F8F710E94932736C01123FA
:1045900029F08C2F8F710E945D272FC00E94582711
:1045A0002CC0112349F0CF718C2F0E94722763E039
:1045B0008C2F0E94892921C081E00E94A429023009
:1045C000E0F082E00E94A42918C0112331F00023FA
:1045D00091F28D2F0E945D2010C0002399F2D933F3
:1045E00049F41FEF27EE33E0115020403040E1F74F
:1045F00000C000008D2F0E94B32088EF8C0D843006
:1046000020F40E94B61E0E946005DD20C9F00E94C1
:10461000DD2880FD15C0F70112820E94D7280E9474
:104620007227C7010E9441230E94D728DF91CF91B2
:104630001F910F91FF90EF90DF90CF900C949327F4
:10464000DF91CF911F910F91FF90EF90DF90CF906E
:1046500008950F931F93CF93DF93EC0168817981C5
:104660008A810E94B4288C010E940F280E94002792
:10467000B801CE010E941521DF91CF911F910F91BA
:104680000895CF93DF93EC01988189812B813C8140
:10469000232B31F08F3F31F481E09F3F19F403C0A9
:1046A00081E001C080E080FD19C0CE010E94890434
:1046B00081110CC00E94E128882381F08A8188231F
:1046C00069F082E0DF91CF910C94A429CE010E9481
:1046D0002923CE01DF91CF910C946404DF91CF9117
:1046E0000895882321F00E9422290C9454290895CA
:1046F000882321F00E9428290C945429089580E0F1
:1047000090E00E94F71E80E090E00E940D1F0E9442
:104710002F290E9432290E9454290E94430B0C9495
:10472000120A8091290290912A020E94242B0C9453
:104730007F230E941C290C949123E92FE295EF70AE
:104740004E2F50E0FA013297EE30F105B0F4E55803
:10475000FF4F0C946E33803F91F018F4883E68F45C
:104760000EC0843F51F40BC0883E48F0813F29F4CD
:1047700006C093FB882780F9089580E0089581E0C2
:1047800008950E94A9280E949D230895CF93DF9346
:1047900000D000D01F92CDB7DEB70F900F900F90D2
:1047A0000F900F90DF91CF910895CF93DF9300D0BA
:1047B00000D000D0CDB7DEB726960FB6F894DEBF96
:1047C0000FBECDBFDF91CF9108951F93CF93DF939D
:1047D000C0916B0416E080916C04C81799F0D0E08A
:1047E0001C9FF0011D9FF00D1124E359FB4F4081E8
:1047F000518162817381848195810E94D5232196A4
:10480000C770E9CFDF91CF911F91089540919D042A
:1048100050919E0460919F047091A0048091A10426
:104820009091A2040C94D5230F931F93CF93DF9301
:104830008091A20482958F7009F05DC080919F04E1
:10484000882309F458C080916B0410916C04609126
:104850009D0470919E04C091A004D091A10491E0A8
:104860006F3F09F090E0292F06E0811709F443C05B
:10487000209721F07F3F21F030E003C031E001C0FC
:10488000322F90E030FD34C0089FF001099FF00DF9
:104890001124DF01A359BB4F11963C911197371397
:1048A00027C03C91361324C012963C9112973111C7
:1048B0001FC013964D915C9114974C1B5D0B483CA7
:1048C0005105B0F48091A2048F7080618093A2049E
:1048D000EE58FB4F80818F70806180838DE994E07A
:1048E0000E944123DF91CF911F910F910C94E523FA
:1048F00001968770BACFDF91CF911F910F910895E4
:104900009F92AF92BF92CF92DF92EF92FF920F935E
:104910001F93CF93DF93CDB7DEB761970FB6F894AF
:10492000DEBF0FBECDBF8C0185E0F801DE011D9614
:1049300001900D928A95E1F7F80140815181E28062
:1049400090919D0460919E042091A0043091A10457
:104950002115310531F06F3F31F481E09F3F19F4AB
:1049600003C081E001C080E0F82FF1709F2E80FD30
:1049700046C1F801A380B4808DE9C82E84E0D82E0A
:10498000F0909F04F501E21BF30BFF2009F4DFC058
:104990008091A204E83CF10508F09BC0282F207FFD
:1049A00009F052C0561313C0491311C0FE2CE11078
:1049B0000EC08F7080618093A2040E940624C601FD
:1049C0000E9441238091A204F801858358C1AB283D
:1049D00031F05F3F31F481E04F3F19F403C081E0D3
:1049E00001C080E080FD03C081E08E2502C080E030
:1049F00090E0F82FF170FF2E80FF1CC080916B04B7
:104A000020916C0436E0821709F417C190E0389FBA
:104A1000F001399FF00D1124E359FB4F61815613CA
:104A200006C06081461303C06281E61203C001968E
:104A30008770E9CFFE2CEE2009F421C18091A204F9
:104A400081608093A2045AC0561306C0491304C063
:104A5000E11002C0F8019FC04D875E878D859E855D
:104A60000E94C123882379F1EE2069F12091A204EC
:104A7000822F82958F7090E0029774F080919D0450
:104A800090919E0498878F831986BB86AA862C876F
:104A9000CE0107960E94412386E0F801ADE9B4E01B
:104AA00001900D928A95E1F70E9414240E94062439
:104AB0000DC0561729F14D875E878D859E850E9412
:104AC000C12381112CC0C8010E944123FF24F3940B
:104AD000D6C0282F207F69F77A2DB98AA88A6E2D33
:104AE00089890E94C6238DE994E00E94412386E0D3
:104AF000F60111928A95E9F70E940624F12CBFC0B5
:104B00004913D9CFE110D7CFF8018583C8010E949E
:104B1000412386E0F60111928A95E9F7B0C0EE20B4
:104B200091F22091A204822F82958F7090E00297DB
:104B30000CF4B2CF80919D0490919E049A83898356
:104B40001B82BD82AC822E83CE010196A3CFE83CAE
:104B5000F10508F047C0FE2CEE2009F4B4CF56133F
:104B600030C049132EC02091A20420FD21C0822F05
:104B700082958F70482F50E041155105C9F0F8011A
:104B800025834F30510541F08F5F982F9295907F8C
:104B9000822F8F70892B8583C8010E94412386E074
:104BA000F801ADE9B4E001900D928A95E1F742C0B9
:104BB00086E0F801ADE9B4E001900D928A95E1F745
:104BC0005EC04D875E878D859E850E94C1238111C1
:104BD00063CF8091A20481608093A204C8010E94E7
:104BE00041234DC07A2DB98AA88A6E2D89890E94E9
:104BF000C62386E0F60111928A95E9F71BC0EE20E4
:104C000009F461CF4D875E878D859E850E94C12303
:104C1000F82E882309F457CF86E0F801ADE9B4E017
:104C200001900D928A95E1F78DE994E00E9457205A
:104C30000E9414240E94062422C04D875E878D8521
:104C40009E850E94A928292F22952F70223028F4B2
:104C50009F7039F0811105C00BC0243028F49F707B
:104C600049F4805E883020F0C8010E9441239F2CC7
:104C7000F92C05C0F8019581907F99F7F9CF8F2D18
:104C800061960FB6F894DEBF0FBECDBFDF91CF9116
:104C90001F910F91FF90EF90DF90CF90BF90AF905A
:104CA0009F9008951F93CF93DF93CDB7DEB72C97D6
:104CB0000FB6F894DEBF0FBECDBF4F83588769870C
:104CC0007A878B879C87CE0107960E948024882351
:104CD000D1F09F8188852A853B85232B31F08F3F3A
:104CE00031F481E09F3F19F403C081E001C080E00E
:104CF00080FD47C04F81588569857A858B859C8565
:104D00000E94D5233EC086E0FE013796DE01119653
:104D100001900D928A95E1F7FF81E8856A857B8590
:104D20006115710531F0EF3F31F481E0FF3F19F477
:104D300003C081E001C080E080FD23C020916C04AD
:104D400030E0C90101968770992740916B0450E0CB
:104D500084179507F1F1F983EA837D836C8396E0EC
:104D6000929FD001939FB00D1124A359BB4FFE0118
:104D7000319601900D929A95E1F780936C040E9410
:104D8000E52316E080916B0490916C04891771F112
:104D9000189FC001112483599B4F0E9480248823AF
:104DA00029F1E0916B041E9FF0011124E359FB4FA0
:104DB0004081518162817381848195810E94D523D4
:104DC00080916B0490E001968770992780936B0423
:104DD000D9CF0E94992310926C0410926B04EDE9D4
:104DE000F4E086E0DF011D928A95E9F72C960FB674
:104DF000F894DEBF0FBECDBFDF91CF911F91089514
:104E0000089508950C9401270C9402270E9404270A
:104E10006093D9047093DA048093DB049093DC04EC
:104E20000C947F230C9406270F931F930091D904B1
:104E30001091DA042091DB043091DC04602B712B9B
:104E4000822B932B1F910F910C9406270F931F9386
:104E50000091D9041091DA042091DB043091DC0434
:104E600060237123822393231F910F910C940627B3
:104E70000F931F930091D9041091DA042091DB0461
:104E80003091DC0460277127822793271F910F91AF
:104E90000C9406270C9401270E944A276093D5049E
:104EA0007093D6048093D7049093D8040C947F23F6
:104EB00060E070E0CB010C944C270F931F9341E00E
:104EC00050E060E070E08A019B0104C0000F111FF8
:104ED000221F331F8A95D2F7C901B8011F910F9184
:104EE0000C944C270F931F9341E050E060E070E07A
:104EF00004C0440F551F661F771F8A95D2F7809113
:104F0000D5049091D604A091D704B091D8048A0119
:104F10009B01082B192B2A2B3B2BC901B8011F9190
:104F20000F910C944C270F931F9341E050E060E0E9
:104F300070E004C0440F551F661F771F8A95D2F793
:104F400040955095609570958091D5049091D604C8
:104F5000A091D704B091D8048A019B01082319239A
:104F60002A233B23C901B8011F910F910C944C27B0
:104F70000F931F9341E050E060E070E004C0440FE5
:104F8000551F661F771F8A95D2F78091D50490919F
:104F9000D604A091D704B091D8048A019B010827B8
:104FA00019272A273B27C901B8011F910F910C949B
:104FB0004C270F931F930091D5041091D604209194
:104FC000D7043091D804602B712B822B932B1F9127
:104FD0000F910C944C270F931F930091D5041091BF
:104FE000D6042091D7043091D80460237123822302
:104FF00093231F910F910C944C270F931F930091B3
:10500000D5041091D6042091D7043091D80460279C
:105010007127822793271F910F910C944C27089595
:105020002FE0929F800D1124E82FE695E695E695F6
:10503000877051E001C0550F8A95EAF785E0E89F37
:10504000F0011124ED55FB4F20E030E070E040818D
:10505000CB01022E02C0969587950A94E2F78170E3
:10506000819584278523842781932F5F3F4F2530A7
:10507000310569F708952FE0929F800D1124682F64
:10508000669566956695982F977085E0689FB00144
:10509000112440E050E080E0FB01E40FF51FED55E6
:1050A000FB4F208130E0092E02C0369527950A94E7
:1050B000E2F721703327042E01C0220F0A94EAF789
:1050C000822B4F5F5F4F4530510531F70895BF92F6
:1050D000CF92DF92EF92FF920F931F93CF93DF93C4
:1050E0008C01C090D504D090D604E090D704F09005
:1050F000D8048091D9049091DA04A091DB04B09196
:10510000DC04C82AD92AEA2AFB2ACFE1D0E0D70159
:10511000C6010C2E04C0B695A795979587950A945D
:10512000D2F780FD04C0219790F7B12C07C0BC2EA8
:10513000B8018C2F0E947C050197A9F38B2DDF917C
:10514000CF911F910F91FF90EF90DF90CF90BF9084
:105150000895CF93DF93EC010E946728BE010E945F
:105160007C05DF91CF9108951F93CF93DF93EB01DF
:1051700090916A04992321F0CB010E94A92813C0C1
:10518000882349F0CB010E946728182F682FCE0191
:105190000E94102804C0CB010E943B28182FBE019A
:1051A000812F0E947C05DF91CF911F9108958091FE
:1051B000DD0485958595859508958091DD0487703A
:1051C00008959091DD04977081E009F480E00895DE
:1051D0009091270592FB222720F9281751F080FB98
:1051E00092F99093270580912605909127050C94BC
:1051F000ED2908958091270582FB882780F991E0A9
:1052000089270C94E82881E00C94E82880E00C942D
:10521000E82880910105089590910105892B8093DC
:1052200001050895809590910105892380930105DA
:1052300008958093010508951092010508958091C5
:105240000005089590910005892B8093000508952D
:105250008095909100058923809300050895109210
:10526000000508951092FF0408958091DE040895CA
:1052700008950C9438290C9439299091270592FDB2
:1052800008C09091DE04981721F08093DE040C94FE
:105290003B2908958091DE04882329F01092DE04D2
:1052A00080E00C943B290895E0912902F0912A02B4
:1052B000809101058083E0912902F0912A0290817A
:1052C00080910005892B8083E0912902F0912A02C8
:1052D00090818091FF04892B80838091DE04882354
:1052E00081F0E0912902F0912A029081892B80833C
:1052F0008091290290912A020E94782A81110E94AD
:105300004A298091290290912A020C94CF1E0C9474
:1053100038299091270592FD10C098E0899F90014F
:105320001124262B2093DD040E9472278091DD0436
:105330008595859585950C9487290C9472271092F4
:10534000DD0480E00C9487292091DD048095822380
:105350008093DD04982F977041F430E0482F082E99
:10536000000C550B2417350721F49091270592FF67
:1053700007C08595859585950E9493270C949F2954
:10538000089580E008956FEF7FEF80E090E00C9447
:10539000473480E090E00E94133421E08A3E9E4F23
:1053A00009F020E0822F089582E090E00C940B3405
:1053B00083E090E00C940B34CF9384E090E00E9463
:1053C0000B34C82F82E290E00E940B342C2F30E087
:1053D000A901582BCA01CF910895CF93C92F682FE7
:1053E00084E090E00E9429346C2F82E290E0CF911B
:1053F0000C942934AB01BC018FE090E00C943B3459
:10540000AB01BC0183E190E00C943B3460E070E0C0
:10541000CB010C94002A60E070E0CB010E94FA29D5
:105420000C94062A6AEE7EEF80E090E00E944734FA
:1054300060E082E090E00E94293460E083E090E048
:105440000E9429341092D9041092DA041092DB04DD
:105450001092DC0460E084E090E00E94293460E077
:1054600082E290E00E94293460E085E090E00E94B2
:10547000293460E086E090E00E9429346FEF87E0F5
:1054800090E00E94293440E050E0BA0188E090E0CA
:105490000E943B3460E08DE090E00E94293440E0BF
:1054A00050E0BA0188E190E00E943B3460E087E17F
:1054B00090E00E94293440E050E0BA018CE190E095
:1054C0000E943B3460E070E080E290E00E9447344C
:1054D00040E050E0BA0188E190E00E943B340C9437
:1054E0000B2A0C94122A682F8EE090E00C94293439
:1054F000FC01329680913502882331F08091260597
:1055000087FF02C09EE101C096E080E0915028F044
:1055100021912223D9F38F5FF9CF0895662351F1AA
:10552000209135022223E9F02091260527FF19C09A
:10553000462F4695469546954E31E0F4677021E03A
:1055400030E002C0220F331F6A95E2F7FC01E40F3E
:10555000F11D828190E02823392381E0232B69F417
:1055600009C0FC01329608962191621729F0E817CC
:10557000F907D1F780E0089581E008959C01FC01CE
:1055800032969FEF80E04191461789F09F3F19F4D2
:10559000411101C0982F8F5F8630A9F79F3F39F0E6
:1055A000F901E90FF11D97FDFA95628308950895B9
:1055B0009C012A5F3F4FFC014281461301C01282C9
:1055C000019682179307B9F70895262F26952695F9
:1055D00026952E3168F4FC01E20FF11D677021E081
:1055E00030E001C0220F6A95EAF78281282B2283DE
:1055F0000895262F2695269526952E3170F4FC01C8
:10560000E20FF11D677021E030E001C0220F6A95C2
:10561000EAF720958281282322830895209135027C
:10562000222329F02091260527FD0C94E52A0C94CD
:10563000BE2A20913502222329F02091260527FD3C
:105640000C94F92A0C94D82A20913502FC01329648
:10565000222331F08091260587FF02C08EE101C030
:1056600086E0DF011D928A95E9F7089508950C946C
:10567000362B0C94362BCF930E94392B0E94F507C2
:105680000E94372BC0E08C2F0E949107892B29F4B0
:10569000CF5FC530C1F780E001C081E0CF910895B0
:1056A0000C94362B0C94502B8091B106843061F110
:1056B0000E94522B80E00E94600581E00E94E31569
:1056C0001092030520E488E190E00FB6F894A895C5
:1056D000809360000FBE2093600083B7817F846059
:1056E00083BF83B7816083BF7894889583B78E7FAB
:1056F00083BF0FB6F894A89580916000886180936D
:105700006000109260000FBE08950C94362B0E942A
:1057100099230E94B61E0E94600580E00E94E31556
:105720000C94852B1F920F920FB60F9211248F931A
:105730009F93AF93BF9380910305811113C0809114
:10574000A9069091AA06A091AB06B091AC0641962D
:10575000A11DB11D8093A9069093AA06A093AB0644
:10576000B093AC06BF91AF919F918F910F900FBEF8
:105770000F901F90189582E084BD93E095BD9AEF3D
:1057800097BD80936E0008952FB7F8948091A90675
:105790009091AA06A091AB06B091AC062FBF0895D8
:1057A0002FB7F8946091A9067091AA068091AB0674
:1057B0009091AC062FBF08959C014FB7F89480914B
:1057C000A9069091AA06A091AB06B091AC064FBF76
:1057D000821B930B0895CF92DF92EF92FF922FB727
:1057E000F894C090A906D090AA06E090AB06F0907D
:1057F000AC062FBFA7019601261B370B480B590B90
:10580000CA01B901FF90EF90DF90CF90089578948E
:105810001F920F920FB60F9211248F939F93AF9305
:10582000BF938091A9069091AA06A091AB06B09172
:10583000AC060196A11DB11D8093A9069093AA06FE
:10584000A093AB06B093AC06BF91AF919F918F919F
:105850000F900FBE0F901F90189581E08093E0008D
:1058600080E28093D8001092C9008FE19EE40197F6
:10587000F1F700C0000087E090EBDC018093BA06EE
:105880009093BB06A093BC06B093BD069CE088E154
:105890000FB6F894A895809360000FBE90936000B7
:1058A000FFCF9093E5038093E4030895809124054E
:1058B0000895CF93DF9300D01F92CDB7DEB79091BC
:1058C000B106943019F589837B836A8382E08093E3
:1058D000E9008FEF9091E800815095FD06C095EDAD
:1058E0009A95F1F700008111F5CF8091E80085FFCE
:1058F0000DC040E050E063E070E0CE0101960E94F0
:10590000892E8091E8008E778093E8000F900F90A9
:105910000F90DF91CF910895BC0184E00C94592C35
:10592000BC0183E00C94592C22E02093E9002FEF76
:105930003091E800215035FD06C035ED3A95F1F77C
:1059400000002111F5CF2091E80025FF0BC040E0B9
:1059500050E066E070E00E94892E8091E8008E772A
:105960008093E8000895CF93DF932091350222239E
:1059700039F02091260527FF03C060E222E002C033
:1059800068E021E02093E9002FEF3091E8002150FA
:1059900035FD06C035ED3A95F1F700002111F5CF40
:1059A0002091E80025FF1DC0EC0180913502811196
:1059B00005C040E050E068E070E003C070E040E007
:1059C00050E0CE010E94892E8091E8008E7780936E
:1059D000E80080E2FE01A4E0B5E001900D928A9516
:1059E000E1F7DF91CF9108958091B006811109C050
:1059F0000E941A300E9477308091E2008460809388
:105A0000E20008951092B00608950895089508954B
:105A100042E061EC81E00E94932F42E261EC82E07F
:105A20000C94932F8091B306833009F460C030F456
:105A3000813071F0823009F499C008958A3009F4F8
:105A400085C08B3009F46BC0893009F0A7C020C035
:105A50008091B206813A09F0A1C08091E800877F69
:105A60008093E8008091B6069091B706892B21F4C7
:105A700060E284E095E003C060E080E090E070E0E8
:105A80000E94D42E8091E8008B778093E8000895DF
:105A90008091B206813209F081C08091B606909162
:105AA000B706029708F07AC08091E800877F80935C
:105AB000E8008091E80082FD05C08091B106811167
:105AC000F8CF6CC02091F3008091F20090E0922B0F
:105AD000029729F48091F1008B7F813021F480912D
