:100000000C945C030C94A3030C94A3030C94A3031F
:100010000C94A3030C94A3030C94A3030C94A303C8
:100020000C94A3030C94A3030C940F310C94E131B2
:100030000C940C2C0C94A3030C94A3030C94A30316
:100040000C94A3030C94A3030C94A3030C94A30398
:100050000C94A3030C94812C0C94A3030C94A30381
:100060000C94A3030C94A3030C94A3030C94A30378
:100070000C94A3030C94A3030C94A3030C94A30368
:100080000C94A3030C94A3030C94A3030C94A30358
:100090000C94A3030C94A3030C94A3030C94A30348
:1000A0000C94A3030C94A3030C94A303A1158D1526
:1000B000AC15B115B615BB15C015C515CA15CF15AC
:1000C000D415D915DE15E315E815ED15F215F7155C
:1000D000FC15011606160B16101615161A16C62153
:1000E000C621F821F82145226322772377236E2247
:1000F00007231823182325242524372437242E24C6
:10010000372437243724252425243324372437243F
:1001100033244E3275326D3375326D33C132E43271
:100120006D333B334A33165C1E001F002000210054
:100130002200230024002500260027002D002E0089
:100140002A004C002B0014001A00080015001700AC
:100150001C0018000C00120013002F0030003100AA
:100160004A00394104001600070009000A000B008C
:100170000D000E000F00330034000000280049007D
:10018000E1001D001B000600190005001100100011
:10019000360037003800E500000052004D00E00056
:1001A000E300E200000000002C000000000001510C
:1001B000E700E4005000000051004F00165C3A00D8
:1001C0003B003C003D003E003F004000410042003B
:1001D0004300440045000253C35CE05C01000100A1
:1001E000068001000100010082C1010084C20100FB
:1001F000010001003500A900010080C00780010056
:10020000010001005000510052004F0001000100A8
:1002100000000100AA00E10001000100010001004E
:10022000010001000100005CDF5C0100E50000004E
:10023000BD00C45C010001000100000000000100DD
:100240000000000001000100010001000000BE00EC
:100250005F5D165C1E001F002000210022002300AD
:1002600024002500260027002D002E002A004C0027
:100270002B0014001A000800150017001C001800BD
:100280000C00120013002F00300031004A003943E7
:1002900004001600070009000A000B000D000E0004
:1002A0000F0033003400000028004900E1001D0069
:1002B0001B00060019000500110010003600370071
:1002C0003800E500000052004D00E000E300E200CD
:1002D000000000002C00000000000351E700E400D3
:1002E0005000000051004F00165C3A003B003C00FB
:1002F0003D003E003F0040004100420043004400FA
:1003000045000253C35C010001000100010001002F
:1003100001000100010001000100010001000100D5
:100320003500A900010001000100010001000100E9
:100330005000510052004F00010001000000010078
:10034000AA00E1000100010001000100010001001C
:100350000100010001000100E5000000BD00C45CD7
:100360000100010001000000000001000000000089
:1003700001000100010001000000BE00605DE4001A
:100380000000C4000000FC000000DC000000F600DB
:100390000000D6000000AC200000DF0000000000DC
:1003A0000000000000002A2B2800000000000000D0
:1003B00000000000000000000029000000002C1ECA
:1003C0003420212224342627252E362D3738271E87
:1003D0001F202122232425263333362E37381F04AD
:1003E00005060708090A0B0C0D0E0F101112131445
:1003F00015161718191A1B1C1D2F3130232D350403
:1004000005060708090A0B0C0D0E0F101112131424
:1004100015161718191A1B1C1D2F3130354C0000EA
:1004200000000000000000000000000000000000CC
:1004300000000000000000000000000000000000BC
:1004400000007E0F00D4FFFFFFC70000007800010E
:100450000101010101010101020202020202020284
:100460000203030303030303030404040404040456
:10047000050505050506060606060707070707081A
:10048000080808090909090A0A0A0B0B0B0C0C0CCD
:100490000D0D0D0E0E0E0F0F0F1010111111121267
:1004A00013131414151516161717181819191A1AE4
:1004B0001B1B1C1D1D1E1E1F202021222223242445
:1004C000252626272829292A2B2C2D2D2E2F303181
:1004D0003232333435363738393A3B3C3D3E3F4093
:1004E0004142434445464748494A4C4D4E4F50517E
:1004F0005354555658595A5B5D5E5F616264656638
:1005000068696B6C6D6F7072737577787A7B7D7EBE
:100510008082838587888A8C8E8F91939596989A0E
:100520009C9EA0A2A3A5A7A9ABADAFB1B3B5B7BA26
:10053000BCBEC0C2C4C6C9CBCDCFD1D4D6D8DBDDFA
:10054000DFE2E4E7E9EBEEF0F3F5F8FAFDFF100384
:1005500044005A00360035005200470042000000B7
:100560000E0344005A0054004500430048000000B8
:100570000403090409023B00020100A0FA09040077
:1005800000010301010009211101000122400007BF
:1005900005810308000A09040100010300000009A5
:1005A000211101000122B6000705820320000A1272
:1005B000011001000000085A442114020001020049
:1005C0000105010902A10185020901A1000509191E
:1005D0000129081500250195087501810205010909
:1005E0003009311581257F95027508810609381576
:1005F00081257F950175088106050C0A3802158151
:10060000257F950175088106C0C005010980A101FB
:10061000850319012AB700150126B7009501751049
:100620008100C0050C0901A101850419012AA0025D
:10063000150126A002950175108100C0050109066B
:10064000A1018505050719E029E715002501950891
:10065000750181020507190029EF1500250195F0A4
:100660007501810205081901290595057501910299
:10067000950175039101C005010906A1010507193E
:10068000E029E7150025019508750181029501759E
:100690000881010507190029FF150026FF009506AE
:1006A0007508810005081901290595057501910254
:1006B000950175039101C00011241FBECFEFDAE050
:1006C000DEBFCDBF04B603FE27C080910C0790911A
:1006D0000D07A0910E07B0910F078730904BA740F0
:1006E000B04BD1F410920C0710920D0710920E0728
:1006F00010920F0714BE84B7877F84BF0FB6F8949B
:10070000A8958091600088618093600010926000DD
:100710000FBEE0E0F8E3099514E0A0E0B1E0E6EDFB
:10072000F9E602C005900D92A633B107D9F727E08C
:10073000A6E3B4E001C01D92AC30B207E1F70E941D
:10074000492E0C94E9340C9400000E943C1F81FF58
:1007500007C02FEF4FEF6FEF8EE190E00C94050F85
:1007600008958F352DE5920721F080369D4551F093
:1007700011C0FB018281882329F089E493E00E9463
:10078000751B08C0FB018281882321F08BE593E073
:100790000E94C60581E008959C013A9521153F41CC
:1007A00038F5DC01AA27B270AC01442754709C01D3
:1007B0002227387094FF0FC090FF02C080E101C073
:1007C00080E0AB2B09F08062452B09F08064232B7D
:1007D00069F080680BC0892F8170AB2B09F08260B3
:1007E000452B09F08460232B09F08860FB010994F4
:1007F0000895CF93DF93EC01805E9109089710F084
:10080000209719F461E871E202C06BEE73E2CE0149
:100810000E94CC038C2FDF91CF910C94D720CF93E3
:10082000DF93EC010E942D21CE01805E9109089793
:1008300010F0209719F468E871E202C062EF73E2E9
:10084000CE01DF91CF910C94CC03CF93DF93EC01D9
:100850000E94F903CE01DF91CF910C940F0481E047
:1008600008950C94B10308950C9433041F93CF930F
:10087000DF9300D000D01F92CDB7DEB749835A83F3
:100880006B833091BC0489819A81311114C0662335
:1008900059F0222349F00E94E128182F682F8981FE
:1008A0009A810E948A2803C00E94B528182F698166
:1008B0007A81812F04C00E94E12869817A810F909A
:1008C0000F900F900F900F90DF91CF911F910C948C
:1008D000E305FC01262F408151816281738184816F
:1008E0000C943604CF93DF93EC0160E00E9469041E
:1008F000BE01DF91CF910C9434040E94E7070E945F
:100900002F160E944B1A0C9424080C94200808956A
:100910000E9413240E9487042FEF84E39CE021505F
:1009200080409040E1F700C000000C94A72C0F938A
:100930001F93CF93DF938C0161E00E946904EC0167
:10094000B8010E943104882309F44BC0B801CE01DC
:100950000E94221C882309F444C0B801CE010E94E1
:10096000C91C8823F1F1B801CE010E941B1D882308
:10097000C1F1B801CE010E94461E882391F1B80151
:10098000CE010E946A19882361F1F80182818823CF
:1009900009F1CB358DE5D807C1F050F4C115FCE560
:1009A000DF0781F0CF3DDC45A9F40E94EB2A19C096
:1009B000CC35EDE5DE0761F0CD35DD4559F40E941B
:1009C000742908C00E9488040CC00E947D2902C0BE
:1009D0000E948029C801DF91CF911F910F910C9443
:1009E0002F0480E0DF91CF911F910F910895DF9246
:1009F000EF92FF920F931F93CF93DF93E82FF0E0D6
:100A0000E256FC4FD490282F26952695269530E067
:100A1000F901E25CFB4F0491877010E0082E02C0E0
:100A2000159507950A94E2F701701127F901E25D27
:100A3000FB4FE490F12C082E02C0F594E7940A9441
:100A4000E2F791E0E922FF24F901E25EFB4FC49155
:100A5000D0E002C0D595C7958A95E2F7C170DD2731
:100A60000115110519F081EE0E94D720E114F1045F
:100A700019F086EE0E94D7208D2D0E947821EF2854
:100A800019F086EE0E942D21012B19F081EE0E94B3
:100A90002D21CD2B51F08CE2DF91CF911F910F9141
:100AA000FF90EF90DF900C947821DF91CF911F9110
:100AB0000F91FF90EF90DF900895EF92FF920F93C8
:100AC0001F93CF93DF93EC01162F0AE088818823D0
:100AD00009F455C0813009F043C08981813041F467
:100AE0007E0182E0E80EF11C8A810E94782109C013
:100AF000823049F47E01E2E0EE0EF11C8A810E9410
:100B0000D720E7012FC0833041F47E01F2E0EF0EE1
:100B1000F11C8A810E942D21F4CF843011F021969E
:100B200021C02A81229680E090E030E020533109F4
:100B30002A30310558F4089FA001099F500D112457
:100B4000C901840F951F21962881EFCF009751F09E
:100B5000EFE9FFE03197F1F700C000000197F6CF11
:100B60000E94F7042196812F882309F4AFCFEFE983
:100B7000FFE03197F1F700C000008150F5CFDF9121
:100B8000CF911F910F91FF90EF90089560E00C942A
:100B90005D05982F9F709A50963010F0805D01C0CF
:100BA000895A0C94F70408950C94D30581E00895B4
:100BB0000C94D605CF93C82F0E94D4058C2F0E9489
:100BC000D805CF9108952BE4829FC0011124FC0128
:100BD0002FE0729FE00DF11D1124E60FF11DEE0FC5
:100BE000FF1FEA5DFE4F859194910895CF93DF93A7
:100BF0000E94E3050E94F806EC01811521E59207A9
:100C000008F043C0811540E5940708F08AC0883E8B
:100C1000910520F5803E910508F0E6C0883A9105DF
:100C200070F4853A910508F074C08130910509F49B
:100C3000DBC008F4D7C0049708F0D6C0D3C08F3B00
:100C4000910508F0CFC0C85AD0E0CC0FDD1FC355C6
:100C5000DC4F0990D881C02DD464C6C0C11580E294
:100C6000D80758F4C11521E0D20708F0BDC0CD3E29
:100C7000D10508F4B7C0D065B7C0C11540E4D407AA
:100C800008F4B0C0DF70D06AAFC0C11585E5D807E1
:100C9000A0F4C11524E5D20708F08AC0C11543E5C8
:100CA000D40708F06FC0C11582E5D80708F054C01A
:100CB000DC2FCC27C16FD06A97C0C11529E5D207B8
:100CC000A0F4C11548E5D40708F077C0C11586E542
:100CD000D80708F087C08C2F0E948C078F71C82F0F
:100CE000D0E0DC2FCC27D0627FC0C1152AE5D20727
:100CF00008F468C0CE0190568115904208F072C089
:100D00008D2F8F710E948C07DD27D0628F71D82BB9
:100D10006BC0C55AD0E0C552DC4FC881D0E0D0646A
:100D200063C074E0969587957A95E1F783709C2F60
:100D3000937021E030E002C0220F331F9A95E2F752
:100D40003C68382BCF70C695C69580E2C89FE001FD
:100D50001124C22BD32B48C0CE018370992721E0E8
:100D600030E002C0220F331F8A95E2F78C2F869560
:100D7000869540E2849FC0011124E901C82BD92B3C
:100D8000DC6832C0CE018370992721E030E002C0D8
:100D9000220F331F8A95E2F78C2F8695869540E2C5
:100DA000849FC0011124E901C82BD92BDA681CC02B
:100DB000DC2FCC27C46FD06A17C0DC2FCC27C06FC4
:100DC000D06A12C08C2F8F700E948C0794E0D69549
:100DD000C7959A95E1F7CF70D0E0DC2FCC27D0698A
:100DE000C82B02C0C0E0D0E0CE01DF91CF910895C2
:100DF0008238910569F1B0F48133910509F46DC031
:100E000048F48932910509F463C08A32910509F4E6
:100E100069C008958533910509F455C0893391055A
:100E2000B9F00895833E910569F138F4803E91054B
:100E3000B1F0823E910509F10895863E9105A9F130
:100E4000873E9105B9F1843E910509F064C023C045
:100E50002091780520FD4FC021FD4DC0089580915F
:100E6000780580FD44C08091790580FF44C0809161
:100E7000780584FD42C083EE4DC08091780582FFE5
:100E800038C0F5CF8091780582FD33C08091790517
:100E900080FD31C0ECCF8091790581FF32C0809117
:100EA000780584FD2AC087EE35C08091780583FFE0
:100EB00026C0F5CF8091780583FD21C0809179050A
:100EC00081FD1FC0ECCF8091780585FD1CC01DC041
:100ED0008091780585FD19C016C08091780586FD42
:100EE00016C017C08091780586FD13C010C089E335
:100EF00011C082EE0FC080EE0DC080E00BC086EE08
:100F000009C084EE07C089E205C085E303C08AE218
:100F100001C081E390E008959091780592FF0DC0A3
:100F2000282F2871283019F4877F846006C0282F65
:100F30002471243011F48B7F886093FF0DC0282F1B
:100F40002871283119F4877E846106C0282F247106
:100F5000243111F48B7E88612091790520FF0DC02A
:100F6000382F3871383019F4877F816006C0382FE8
:100F70003171313011F48E7F886021FF0DC0282F30
:100F80002871283119F4877E816106C0282F2171CC
:100F9000213111F48E7E886194FD877E08950C9432
:100FA0003D2A0E946F088FEB9DE50197F1F700C085
:100FB00000000E946F0880E00E940B0880FF04C0C0
:100FC0000E94CF070C94A72C08950C94D1070E947F
:100FD000432A811102C00E94EB2A0E944E2A80936C
:100FE00054050E94562A90937905809378050E94B3
:100FF000E5070E94522A682F70E080E090E00E948E
:101000008C27609127057091280580912905909182
:101010002A050C94C427E82FF0E0EE0FFF1FEC57D1
:10102000FA4F808191810895089580EA8A95F1F7B9
:10103000089500C008950C94150808950C941D0897
:101040000C941E080C941D080C942208F894E82FA8
:10105000E295EF70F0E031A1282F2F7081E090E051
:1010600001C0880F2A95EAF7982F9095932391A3B2
:1010700092A1892B82A3789408950F931F93CF9305
:10108000DF9380EF0E94260881EF0E94260884EFFC
:101090000E94260886EC0E94260886E60E94260802
:1010A000CEEDD3E00DEE13E089910E9426080C17D7
:1010B0001D07D1F7EAE7F5E0A4E8B5E01192119237
:1010C0001D921D9285E0E438F807C1F785E00E9483
:1010D000FD08DF91CF911F910F910C947D047F92B9
:1010E0008F929F92AF92BF92CF92DF92EF92FF9238
:1010F0000F931F93CF93DF93CDEED3E08AE7A82E13
:1011000085E0B82E94E8E92E95E0F92E712C01E0E7
:1011100010E06E018881F894E82FE295EF70F0E01E
:1011200021A18F70A80102C0440F551F8A95E2F7D4
:10113000CA01922F982B91A392A18095892382A313
:1011400078940E941908EEEDF3E020E030E0812C65
:10115000912C4191A42FA295AF70B0E090968C9104
:1011600090E04F7002C0959587954A95E2F780FD13
:1011700008C0C801022E02C0880F991F0A94E2F726
:1011800002C080E090E0882A992A2F5F3F4F2F30DD
:101190003105F9F62196F60180810E9426080E9409
:1011A0001B08F501808191818816990621F09182B2
:1011B000808281E001C080E0782AF2E0AF0EB11CAD
:1011C000EA14FB0409F0A5CF272D45E064E875E09B
:1011D0008AE795E00E94FE080E948504872DDF9132
:1011E000CF911F910F91FF90EF90DF90CF90BF9024
:1011F000AF909F908F907F9008950895FF920F93E6
:101200001F93CF93DF93F82E092F162FD72FC42FBC
:10121000222349F081E080933A040E943E2C90936F
:1012200039048093380480913A048823D9F080915E
:101230003804909139040E94562C049798F0EF2DB1
:10124000F02FA12FBD2F80E090E04C2F50E08417AD
:10125000950734F4219131912D933D930196F7CF69
:1012600010923A04DF91CF911F910F91FF90089552
:101270008091410480FF0BC06091200285E0689F4F
:10128000B001112475956795759567952BC081FF01
:1012900009C06091200285E0689FB0011124759516
:1012A000679520C082FF07C06091200285E0689F9B
:1012B000B001112417C0909140049923D1F060919E
:1012C0001F02961788F72091200285E0289F900141
:1012D0001124929FA001939F500D112470E0CA0128
:1012E0000E94B5336038710540F46115710519F439
:1012F00006C065E070E0862F08958FE7089581E0CD
:1013000008958091410480FF08C060911C0270E044
:10131000759567957595679521C081FF06C06091A9
:101320001C0270E07595679519C082FF04C060913A
:101330001C0270E010C090913F04992399F06091D5
:101340001B029617A0F780911C02899FC0011124EF
:1013500070E00E94B5336038710540F46115710585
:1013600019F406C061E070E0862F08958FE70895B4
:1013700081E008958D3E21F40E943809819504C0D2
:101380008E3E29F40E9438098093450408958F3ECB
:1013900021F40E943809819504C0803F29F40E94FD
:1013A0003809809344040895893F19F40E94810903
:1013B00005C08A3F31F40E948109819580934604DB
:1013C00008958B3F21F40E948109819504C08C3FD0
:1013D00029F40E9481098093470408959FE0980FA3
:1013E000983078F421E030E0A90102C0440F551F85
:1013F0009A95E2F7CA0190914304892B80934304A4
:1014000008958D3F21F48091410481600BC08E3F8F
:1014100021F480914104826005C08F3F29F48091BE
:10142000410484608093410408958D3E39F4909185
:10143000450497FF35C01092450459C08E3E29F4EB
:10144000909145041916BCF32BC0909144048F3E33
:1014500029F497FF25C01092440449C0803F19F435
:101460001916CCF31DC090914604893F29F4191632
:10147000BCF4109246043BC08A3F19F497FF10C099
:10148000F8CF8B3F39F49091470497FF09C0109231
:1014900047042DC08C3F21F4909147041916BCF3EA
:1014A0009FE0980F983080F421E030E0A90102C05D
:1014B000440F551F9A95E2F7CA0180959091430415
:1014C00089238093430413C08D3F21F4809141040C
:1014D0008E7F0BC08E3F21F4809141048D7F05C02B
:1014E0008F3F29F4809141048B7F80934104809148
:1014F0004404811106C080914504811102C01092FC
:10150000400480914604811106C0809147048111F6
:1015100002C010923F0408950E943E2C2091440482
:10152000211104C020914504222321F090933E0410
:1015300080933D0420914604211104C0209147046A
:10154000222321F090933C0480933B0482E494E0B6
:101550000C94631FEF92FF920F931F93CF93DF932F
:1015600000D000D000D0CDB7DEB786E0E2E4F4E0F2
:10157000DE01119601900D928A95E1F7E090440406
:10158000F0904504009146041091470410924404E1
:10159000109245041092460410924704E11003C0D3
:1015A000FF2009F45DC080913D0490913E040E94AB
:1015B000562CAC0190914004992339F020912102DE
:1015C00030E02417350758F04BC0209122028AE002
:1015D000289F900111242417350718F041C09F3F20
:1015E00019F09F5F90934004EE2061F00E9438094B
:1015F0001E1414F09FEF01C091E0989F902D1124CC
:1016000090934404FF2061F00E9438091F1414F0E5
:101610009FEF01C091E0989F902D11249093450475
:10162000309144043323E1F0209145042223C1F09A
:1016300045EB3403C0011124992319F0909344041D
:1016400003C081E08093440435EB2303C0011124DF
:10165000992319F09093450403C081E080934504D9
:10166000011103C0112309F45DC080913B049091E6
:101670003C040E94562CAC0190913F04992339F010
:1016800020911D0230E02417350758F04BC02091FF
:101690001E028AE0289F900111242417350718F0B4
:1016A00041C09F3F19F09F5F90933F04002361F07A
:1016B0000E948109101614F09FEF01C091E0989FDD
:1016C000902D112490934604112361F00E9481090A
:1016D000111614F09FEF01C091E0989F902D1124F6
:1016E00090934704309146043323E1F0209147045E
:1016F0002223C1F045EB3403C0011124992319F0D2
:101700009093460403C081E08093460435EB2303A5
:10171000C0011124992319F09093470403C081E07C
:10172000809347048091440481110BC0809145044B
:10173000811107C080914604811103C08091470444
:1017400081110E948C0AEB82FC820D831E8386E04D
:10175000FE013196A2E4B4E001900D928A95E1F782
:1017600026960FB6F894DEBF0FBECDBFDF91CF91A6
:101770001F910F91FF90EF900895E2E4F4E086E06E
:10178000DF011D928A95E9F71092400410923F0400
:10179000109241040895EF92FF920F931F93CF93FD
:1017A000DF938B01682F11110AC0442329F0E82F21
:1017B000F0E0E25BFB4F6491762F862F75C0212FFE
:1017C00030E0E82FF0E0442321F0E25BFB4FE491AE
:1017D000F0E046E0049FC0011124CFEFD0E0BE014D
:1017E0000E94A1334BEA4603C001479F900D11248C
:1017F000800F911D800F911D982F990F890FAE01B9
:10180000421B530B4E9FD0014F9FB00D5E9FB00DFA
:1018100011249B2F189FA0011124452F55278E01BD
:10182000041B150B0E9FA0010F9F500D1E9F500D06
:1018300011247E01E81AF108E29E8001E39E100D5A
:10184000F29E100D1124212F3327C21BD30BCE9FE4
:101850009001CF9F300DDE9F300D11246230710555
:10186000A9F048F46115710569F061307105C9F49A
:101870008B2F752F0DC06430710581F058F06630E4
:10188000710579F47E2F8B2F932F0DC0832F7B2F23
:101890009E2F09C08E2F7B2F952F05C08E2F732F63
:1018A00002C07E2F852F692FDF91CF911F910F915D
:1018B000FF90EF90089541E00E94CB0B089520E047
:1018C00030E0869F212D969F200D311D1124C901E6
:1018D0000895BC018230910508F40895613E8EE1BF
:1018E000780748F49B0195E0369527959A95E1F79E
:1018F00048E0420F01C04FEF91E0242F30E0290F64
:10190000311D35952795229FF001239FF00DF00D95
:1019100011246E177F0718F44FEF420F04C02F3FBA
:1019200039F091E0920F491740F78FEF890F089532
:101930008FEF0895482F982F46FD9095E92FEF736C
:101940009F7046FD9F5FE295EF70EE0FF0E0EE5066
:10195000FC4F2181299F802D212D112482958F708C
:101960002295207F822B3081982F930F892F47FD5E
:10197000819580580895E42FF0E0EE0FFF1FE15BA2
:10198000FE4F408134EE439F412D1124E82FF0E0BB
:1019900050E0445E5F4FDA01A21BB1099D01B7FF21
:1019A00003C031952195310993E0220F331F9A9599
:1019B000E1F7AF01421B530B9A0157FF02C020E031
:1019C00030E0582F259F212D1124822F0895622F5A
:1019D0000895E42FF0E0EE0FFF1FE15BFE4F608102
:1019E000621B0895E42FF0E0EE0FFF1FE05BFE4F57
:1019F0006081621B0895A22F50E0FA01EE0FFF1FD5
:101A0000E05BFE4F9081905297FD9195440F551FDA
:101A1000FA01E15BFE4F3081232F30E02A1B3109B0
:101A2000290F311D97FD3A95620F0895EF920F939C
:101A30001F9393E0099F80011124159507956E2D42
:101A4000600F1F910F91EF9008950F93CF93DF9345
:101A5000D72FC82F47FD4195E8E3F0E0CF01841B65
:101A6000910947FD9395889FB001899F700D700D76
:101A70001124229FC001239F900D900D1124860FE9
:101A8000971F0E94690C682F660F860F682F600FE2
:101A90007D2F8C2FDF91CF910F9108950F931F937E
:101AA000522F10E0F801EE0FFF1FE05BFE4FE081C8
:101AB000F0E0B0979F015203D001539FB00D112465
:101AC000000F111FF801E15BFE4F008110E000578D
:101AD000110940039001419F300D11242A0F3B1F33
:101AE00037FF02C021583F4F220F232F221F330BF5
:101AF000620F1F910F9108950F931F93522F10E0C3
:101B0000F801EE0FFF1FE05BFE4FE081F0E0B097C1
:101B1000EE0FFF1F9F015203D001539FB00D112400
:101B2000000F111FF801E15BFE4F008110E000572C
:101B30001109000F111F40039001419F300D112426
:101B40002A0F3B1F37FF02C021583F4F220F232F80
:101B5000221F330B620F1F910F9108950F931F9354
:101B600010E0F801EE0FFF1FE15BFE4F90819057F0
:101B700097FD9195000F111FF801E05BFE4FE0818A
:101B8000F0E0B097DF01AA0FBB1F8D010E0F1F1FE2
:101B90002003D001219FB00D1124E8E3F0E0E91B00
:101BA000F10997FDF3959F01220F331F89010E0F55
:101BB0001F1F40039001419F300D11242A0F3B1F2E
:101BC00037FF02C021583F4F220F232F221F330B14
:101BD000620F1F910F9108950F931F93CF93DF937F
:101BE000D62F072F182FC42F822F0E949A0CEC2F6C
:101BF000F0E0EE0FFF1FE15BFE4F90819058890FE0
:101C000087FD8195880F682F2CE0629F612D11243C
:101C10006D0F702F812FDF91CF911F910F9108953C
:101C2000E42FF0E0EE0FFF1FE15BFE4F9081921B6F
:101C300097FD9195292F38E1239F212D1124620FC3
:101C4000089522E8241B08F420E0620F0895FC01A7
:101C50009B01009721F477FF2BC080E80895AC0129
:101C600097FF04C044275527481B590BB901640F3F
:101C7000751F37FD0CC0241B350BC901A5E0880F6B
:101C8000991FAA95E1F70E94B53380E20CC0CB0101
:101C900065E0880F991F6A95E1F7BA01621B730B23
:101CA0000E94B53380E6861BF7FF03C08195089537
:101CB00080E00895FF920F931F93CF93DF93F62E4A
:101CC000D72F182FC901C12FC01BBA010E94270EA0
:101CD000982F990F890FC81B2C2F219F212D11247C
:101CE000822F6F2D7D2FDF91CF911F910F91FF904C
:101CF0000895EF920F931F93CF93DF93D62FC72FA3
:101D0000182FC9010E19010FBA010E94270E081BD6
:101D1000202F219F212D1124822F6D2F7C2FDF91C9
:101D2000CF911F910F91EF9008950F93CF93DF9371
:101D3000D72FC82FC901BA010E94270E682F600F44
:101D40007D2F8C2FDF91CF910F910895EF920F93FC
:101D5000CF93DF93D72FC82FC9010E19BA010E9464
:101D6000270E602F681B7D2F8C2FDF91CF910F9155
:101D7000EF9008950E945B0C089546E050E06CE1FE
:101D800070E08EE895E00C94753446E050E06CE12C
:101D900070E08EE895E00C949334EEE8F5E081E293
:101DA00080838091360290913702A091380281831E
:101DB0009283A3838FE784838FEF85830C94C50E72
:101DC00080E008950F931F93CF93DF93C82FD62FF2
:101DD0008A010E94E00E9FE0C99FF0011124EC5F90
:101DE000FE4FED0FF11D90819F3F29F0F801E80FA4
:101DF000F11D90838F5FDF91CF911F910F91089517
:101E0000E0910004F09101040994E091FC03F09149
:101E1000FD0309944F925F926F927F928F929F92EF
:101E2000AF92BF92CF92DF92EF920F931F93CF9317
:101E3000DF932C013B01FC01C081CC0FCC0FD4E01F
:101E4000DC0FD53408F0D4E460919205669580915A
:101E50009405909195050E945F0C182FCD1708F0FE
:101E600044C08C2E912CF401E952FE4F9081F20176
:101E700081818923C1F1F401EE0FFF1FE15BFE4F69
:101E8000C080D12CF0E7CF1AD108F401EE0FFF1F6C
:101E9000E05BFE4FA080B12C80E2A81AB108CC9C78
:101EA0009001CD9C300D300D1124AA9CC001AB9C3B
:101EB000900D900D1124820F931F0E94690C082F22
:101EC00060918F057091900580919105E12E9501AB
:101ED000A601F30109950E94BA0E462F282F672FFD
:101EE000C4010E94050FCF5FB9CF81E0D43408F060
:101EF00080E0DF91CF911F910F91EF90DF90CF9015
:101F0000BF90AF909F908F907F906F905F904F9019
:101F1000089569E77EE00C940A0F66E17DE00C9479
:101F20000A0F66EA7EE00C940A0FAF92BF92CF923E
:101F3000DF92EF92FF920F931F93CF93DF936C0189
:101F40005B01FC01C081CC0FCC0FD4E0DC0FD53499
:101F500008F0D4E460919205669580919405909183
:101F600095050E945F0C182FCD1778F5EC2EF12CFB
:101F7000F701E952FE4F9081F6018181892319F121
:101F8000F701EE0FFF1FE05BFE4F208130E0205293
:101F90003109F701EE0FFF1FE15BFE4F408150E07A
:101FA0004057510960918F0570919005809191057E
:101FB000012FF50109950E94BA0E462F282F672F91
:101FC000C7010E94050FCF5FCFCF81E0D43408F066
:101FD00080E0DF91CF911F910F91FF90EF90DF9004
:101FE000CF90BF90AF9008956AE57EE00C94950F76
:101FF00065E27DE00C94950F65E97EE00C94950F09
:10200000BF92CF92DF92EF92FF920F931F93CF93E5
:10201000DF938C017B01FC01C081CC0FCC0FD4E09D
:10202000DC0FD53408F0D4E460919205669566958E
:1020300021E0620F08F46FEF80919405909195056F
:102040000E945F0CB82ECD17F0F4CC2ED12CF601E7
:10205000E952FE4F9081F8018181892391F06091CE
:102060008F0570919005809191052B2D4C2FF701D4
:1020700009950E94BA0E462F282F672FC6010E948D
:10208000050FCF5FE0CF81E0D43408F080E0DF912E
:10209000CF911F910F91FF90EF90DF90CF90BF9065
:1020A00008956BEB7CE00C94001067EE7CE00C94E0
:1020B000001069EE7CE00C94001062EF7CE00C9460
:1020C00000106BEF7CE00C9400106CEE7DE00C9443
:1020D000001060E17EE00C9400107F928F929F923E
:1020E000AF92BF92CF92DF92EF92FF920F931F9326
:1020F000CF93DF936C015B01FC01C081CC0FCC0F4F
:10210000D4E0DC0FD53408F0D4E4609192056695F4
:10211000669580919405909195050E945F0C182F0B
:1021200080E4810F0E949A0C90E8F92EF80E812F1E
:102130000E949A0C20E8722E780ECD1700F58C2E96
:10214000912CF401E952FE4F9081F601818189239F
:10215000A1F060918F057091900580919105E12E1D
:102160000C2F272D4F2DF50109950E94BA0E462FF1
:10217000282F672FC4010E94050FCF5FDECF81E0BB
:10218000D43408F080E0DF91CF911F910F91FF9040
:10219000EF90DF90CF90BF90AF909F908F907F9007
:1021A00008956EE47DE00C946D106CE77DE00C9476
:1021B0006D106EEA7DE00C946D10AF92BF92CF92DD
:1021C000DF92EF92FF920F931F93CF93DF938C01D7
:1021D0007B01FC01C081CC0FCC0FD4E0DC0FD534E7
:1021E00008F0D4E42091920531E0230F08F42FEF9A
:1021F00030E040E050E06FEF7FEF80E090E00E9441
:10220000C9336901CD1708F041C0AC2EB12CF501DE
:10221000E952FE4F9081F80181818923A9F19091C3
:102220009805915097FD15C0292F092E000C330BEE
:10223000F901E856FA4F8189C813F3CF220F331FF3
:10224000F901E856FA4F218D328D2C153D0548F7DE
:1022500001C096016091920541E0640F08F46FEFB0
:10226000C9010E945F0CAC0160918F0570919005CF
:1022700080919105F70109950E94BA0E462F282FEB
:10228000672FC5010E94050FCF5FBCCF81E0D4341A
:1022900008F080E0DF91CF911F910F91FF90EF90B8
:1022A000DF90CF90BF90AF90089561E27EE00C94F4
:1022B000DD10DF92EF92FF920F931F93CF93DF9386
:1022C0008C01DC01CC91CC0FCC0FD4E0DC0FD534E9
:1022D00008F0D4E460918F0570919005809191058C
:1022E0000E94BA0EF62EE72ED82ECD1798F4EC2FBA
:1022F000F0E0DF01A952BE4F8C91D80111969C915C
:10230000982331F02D2D4F2D6E2DCF010E94050FFA
:10231000CF5FEBCF81E0D43408F080E0DF91CF9144
:102320001F910F91FF90EF90DF900895AF92BF92B1
:10233000CF92DF92EF92FF920F931F93CF93DF9391
:102340008C01FC01C081CC0FCC0FD4E0DC0FD53464
:1023500008F0D4E4E0909005F0909105D0908F05BE
:102360006D2D7E2D8F2D0E94BA0EC62EB72EA82E53
:10237000609192056D0D7E2D8F2D0E94BA0EF62E66
:10238000E72ED82ECD17B8F48C2F90E0FC01E9523F
:10239000FE4F3081F8012181232359F030FF04C022
:1023A0002D2D4F2D6E2D03C02A2D4C2D6B2D0E94EF
:1023B000050FCF5FE7CF81E0D43408F080E0DF91F4
:1023C000CF911F910F91FF90EF90DF90CF90BF9032
:1023D000AF900895BF92CF92DF92EF92FF920F934A
:1023E0001F93CF93DF937C01FC01C081CC0FCC0FF6
:1023F000D4E0DC0FD53408F0D4E4C0909005B09060
:1024000091052091920530E4D32E3D2D329F312D40
:102410001124D32ECD1738F50C2F10E0F801E95216
:10242000FE4F9081F70181818923D9F0F801EE0FE9
:10243000FF1FE15BFE4F6081D69EB001112495E045
:10244000759567959A95E1F780918F05680F7C2DBA
:102450008B2D0E94BA0E462F282F672FC8010E948D
:10246000050FCF5FD7CF81E0D43408F080E0DF9153
:10247000CF911F910F91FF90EF90DF90CF90BF9081
:102480000895DF92EF92FF920F931F93CF93DF9304
:102490008C01DC01CC91CC0FCC0FD4E0DC0FD53417
:1024A00008F0D4E4E0908F05F0909005D09091056D
:1024B00060919205669566956695809194059091D8
:1024C00095050E945F0C0E949A0C805887FD8195AB
:1024D000880F282F3D2D239F212D1124822FB701F6
:1024E0000E94BA0EF62EE72ED82ECD1798F4EC2FB8
:1024F000F0E0DF01A952BE4F8C91D80111969C915A
:10250000982331F02D2D4F2D6E2DCF010E94050FF8
:10251000CF5FEBCF81E0D43408F080E0DF91CF9142
:102520001F910F91FF90EF90DF900895DF92EF924F
:10253000FF920F931F93CF93DF93EC01FC01E952BD
:10254000FE4F9081692381F1D09090050091910513
:1025500010918F05E12EF12C0E945C34282FC701C9
:102560008C549F4F68E671E00E94B5338E199F0925
:1025700097FD039695958795959587952370612F7F
:10258000289F600D11247D2D802F0E94BA0E462FAA
:10259000282F672FCE01DF91CF911F910F91FF90D0
:1025A000EF90DF900C94050FDF91CF911F910F9169
:1025B000FF90EF90DF900895CF92DF92FF920F93FC
:1025C0001F93CF93DF938C01FC01C281C1111DC009
:1025D0006091920520E1620F08F46FEF80919405FD
:1025E000909195050E945F0C6AE070E00E94A13313
:1025F000892B49F50E945C3464E470E00E94B53395
:10260000F80161810E9496121EC0FC01C081CC0FAE
:10261000CC0F94E0F92EFC0EF4E4FF1510F484E4E2
:10262000F82ED0E0CF2CD12CCC15DD053CF4F801F0
:102630006181CE010E9496122196F6CFC1E0F3E4AB
:10264000FF1508F4C0E08C2FDF91CF911F910F91FF
:10265000FF90DF90CF9008951F93CF93DF93FC01FD
:10266000E952FE4F20816223A9F0EC010E945C3404
:10267000182F0E945C34612F782F809191050E9461
:10268000BA0E462F282F672FCE01DF91CF911F91D1
:102690000C94050FDF91CF911F910895CF92DF9297
:1026A000FF920F931F93CF93DF938C01FC01C281A4
:1026B000C1111DC06091920520E1620F08F46FEF17
:1026C00080919405909195050E945F0C65E070E003
:1026D0000E94A133892B49F50E945C3464E470E0C8
:1026E0000E94B533F80161810E942C131EC0FC01C9
:1026F000C081CC0FCC0F94E0F92EFC0EF4E4FF1552
:1027000010F484E4F82ED0E0CF2CD12CCC15DD05CC
:102710003CF4F8016181CE010E942C132196F6CF82
:10272000C1E0F3E4FF1508F4C0E08C2FDF91CF91F6
:102730001F910F91FF90DF90CF900895DF92EF925D
:10274000FF920F931F93CF93DF938C01DC01CC9109
:10275000CC0FCC0FD4E0DC0FD53408F0D4E4E090FB
:102760009005F0909105D0908F0560919205669547
:102770006695669580919405909195050E945F0CF1
:102780000E949A0C805887FD8195880F682F2CE055
:10279000629F612D11246D0D7E2D8F2D0E945B0C8B
:1027A000F62EE72ED82ECD1798F4EC2FF0E0DF01AF
:1027B000A952BE4F8C91D80111969C91982331F06B
:1027C0002D2D4F2D6E2DCF010E94050FCF5FEBCF2A
:1027D00081E0D43408F080E0DF91CF911F910F9118
:1027E000FF90EF90DF900895E091FE03F091FF03DA
:1027F0000994CF92DF92EF92FF920F931F93CF93A2
:10280000DF93CDB7DEB728970FB6F894DEBF0FBEC3
:10281000CDBF182F062FF42E0E94B71F882309F46E
:102820006DC0FF2049F0AE014F5F5F4F602F812FD9
:102830000E94E20EF82E01C0F12CE09048040F2D0A
:1028400010E0C8018E0D911D099764F188E090E0B9
:102850006C01C01AD10AB801675B7B4FA60189E4FD
:1028600094E00E946C34B8016F5A7B4FA60181E559
:1028700094E00E946C34A601440F551FB801660F06
:10288000771F6F597B4F81E694E00E946C34B8014A
:10289000675A7B4FA60189E594E00E946C34EA9464
:1028A000E092480410914804DE01119640E0842F24
:1028B000810FF41609F190E05D91252F30E0BC0105
:1028C000685B7B4FF901EE0FFF1FE15BFE4F00815C
:1028D000FB010183220F331FF901E05BFE4F2081D2
:1028E000FB012187518B880F991FFC01E85BFB4F8F
:1028F000128E118E4F5FDBCF8093480428960FB65F
:10290000F894DEBF0FBECDBFDF91CF911F910F9125
:10291000FF90EF90DF90CF90089508950C948D1460
:102920000E948E140C94A50308950C949414CF93D4
:10293000DF93FC01C081CC0FCC0FC450D4E0DC0F7E
:10294000D53408F0D4E46D2F8C2F0E9495146D2F90
:102950008C2FDF91CF910C9494144F925F926F92D1
:102960007F928F929F92AF92BF92CF92DF92EF921F
:10297000FF92CF93609171047091720480917304FF
:10298000909174040E94652C6B017C010E944A2C7A
:102990004B015C0160937104709372048093730423
:1029A00090937404A0914804E8E4F4E08A2F90E046
:1029B0004FEF5FEF60E070E04C195D096E097F0931
:1029C000A91799F0218D328D2901612C712C4415A4
:1029D00055056605770510F4815004C02C0D3D1D8A
:1029E000328F218F9F5F3296EBCF80934804809186
:1029F0007504811108C0C0918E058C2F837019F069
:102A0000C695C69501C0C0E0809123028130E1F0F7
:102A100030F08230E1F1833009F446C012C11092E7
:102A200024028092940590929505A0929605B0920A
:102A3000970589E2E8E4F4E0A8E9B5E001900D9299
:102A40008A95E1F781E02DC080912702C8130DC05F
:102A500020918E05237030E04091280250E081E003
:102A60002417350719F480E001C081E0817080935C
:102A700026028091930590912502981741F1809349
:102A8000250240E060E080E00E94F41320C0C09383
:102A9000270280918E058370809328020E94000F88
:102AA00083E080932302CDC06091940570919505D9
:102AB00080919605909197050E94652C6A31710569
:102AC0008105910508F4BDC010922302BAC08C2F75
:102AD00090E08931910580F1809124028F5F80938D
:102AE000240282E08093230280912602811120C07B
:102AF000CC23B1F20E94901484E292E0CF91FF9037
:102B0000EF90DF90CF90BF90AF909F908F907F908D
:102B10006F905F904F900C94971484E292E00E9423
:102B20005911909124029F5F909324028823C9F247
:102B3000CC2309F486C0DECFFC01EA5AFF4F0C9487
:102B4000E83380912602882309F479C040E060E0F0
:102B500080E00E94F41373C084E292E00E94961118
:102B6000E0CF84E292E00E94EA11DBCF84E292E0BF
:102B70000E944112D6CF84E292E00E945110D1CF40
:102B800084E292E00E94F40FCCCF84E292E00E94B3
:102B9000890FC7CF84E292E00E945510C2CF84E231
:102BA00092E00E945910BDCF84E292E00E945D1035
:102BB000B8CF84E292E00E946110B3CF84E292E049
:102BC0000E948D0FAECF84E292E00E94F80FA9CF51
:102BD00084E292E00E94FC0FA4CF84E292E00E9483
:102BE000910F9FCF84E292E00E94D1109ACF84E2AD
:102BF00092E00E94D51095CF84E292E00E94D91015
:102C000090CF84E292E00E94DC128BCF84E292E0CB
:102C10000E944E1386CF84E292E00E949E1381CFE1
:102C200084E292E00E9465107CCF84E292E00E94F0
:102C3000691077CF84E292E00E94551172CF80E054
:102C400070CFCF91FF90EF90DF90CF90BF90AF907B
:102C50009F908F907F906F905F904F900895E0913C
:102C6000FA03F091FB03099510929805E1EBF5E06A
:102C70008FEF9FEF8193919325E0E13CF207D1F72D
:102C800010924804E1E6F4E08FEF9FEF8193919377
:102C900024E0E137F207D1F70E94432A811104C0F2
:102CA0000E94EB2A0E94CD0E0E94BD0E80918E05DF
:102CB0008C7F11F40C94CD0E0895CF93C82F8823E8
:102CC00029F040E060E080E00E94F413C0937504B6
:102CD000CF91089520918E0591E0922790938E05D3
:102CE0001092230281110C94C50E089581E00C947A
:102CF0006A1690918E05937091F0811102C09460D4
:102D000007C0893110F0906603C0880F880F982B98
:102D100090938E051092230261110C94C50E0895B4
:102D200061E00C947916682F90918E059695969592
:102D30009F5F993110F4892F01C081E00C947916BE
:102D400081E00C949316682F90918E059695969538
:102D5000915011F0892F01C088E10C94791681E01F
:102D60000C94A31690918E05937061F080938F055B
:102D700060939005493C08F048EC4093910521117F
:102D80000C94C50E0895AEE8B5E01196EC9111973C
:102D9000F0E0282F13964C91139712966C91CF0167
:102DA00008960C94B21681E00C94C316AEE8B5E018
:102DB0001196EC911197F0E0282F13964C911397F0
:102DC00012966C91CF0108970C94B21681E00C9486
:102DD000D616EEE8F5E0628120E1620F08F46FEFAD
:102DE0009181282F4381892F90E00C94B21681E0C5
:102DF0000C94E916EEE8F5E0628120E1621B08F42C
:102E000060E09181282F4381892F90E00C94B216C5
:102E100081E00C94FA16EEE8F5E0438120E1420FE0
:102E200008F44FEF9181282F6281892F90E00C9454
:102E3000B21681E00C940B17EEE8F5E0438120E137
:102E4000421B08F440E09181282F6281892F90E095
:102E50000C94B21681E00C941C172091920530E17D
:102E6000230F08F42FEF2093920581110C94C50EC7
:102E7000089581E00C942D172091920530E1231BD9
:102E800008F420E02093920581110C94C50E08955A
:102E900081E00C943C1760E084E70E941A1961E01D
:102EA00087E70C941A19CF930E94771E84E70E943B
:102EB000A01787E70E94A017C0E021E041E061E091
:102EC0008C2F0E943618CF5FC434B9F760E084E7D6
:102ED0000E94321961E087E7CF910C943219E1EE3C
:102EE000F6E06083418324E630E042E050E0BF0139
:102EF000880F0C94041F0F931F93CF93DF93082F19
:102F0000000FEB0114E21093E106E2EEF6E0DE01C1
:102F10008D91819386E0E23FF807D1F724E630E017
:102F200041E150E061EE76E0802F0E94041F105FC7
:102F30006096143B41F7DF91CF911F910F91089557
:102F4000CF93DF93C82F4BE06DEF0E946F1740E0E7
:102F50006AE08C2F0E946F178FE39CE90197F1F7CD
:102F600000C0000040E060E08C2F0E946F1740E03E
:102F700061E08C2F0E946F1740E066E08C2F0E946A
:102F80006F1740E06DEF8C2F0E946F17D0E040E08C
:102F90006D2F8C2F0E946F17DF5FD231C1F740E099
:102FA0006D2F8C2F0E946F17DF5FD432C1F740E086
:102FB0006D2F8C2F0E946F17DF5FD43BC1F74BE062
:102FC0006DEF8C2F0E946F1741E06AE08C2F0E94FA
:102FD0006F1740E06DEF8C2FDF91CF910C946F173E
:102FE0008434910540F5880F991F880F991FFC01C3
:102FF000E75CFD4F52813381808183707181A82FFE
:10300000B0E0E0E98E9FC00111248F539A4FFC017C
:10301000E70FF11DB4976083FC01E50FF11DB49734
:103020004083830F911DFC01B4972083FD01E4567A
:10303000FB4F81E080830895FF920F931F93CF93FE
:10304000DF93182F062FF42EC0E0D0E02F2D402F55
:10305000612FCE010E94F0172196C434D105B1F73B
:10306000DF91CF911F910F91FF9008957F928F92E2
:103070009F92AF92BF92CF92DF92EF92FF920F9307
:103080001F93CF93DF93362F54E0859FC001112407
:10309000FC01E75CFD4F60816370762E618170E01A
:1030A000CB0184978C0197FF02C0095F1F4FA3E0FB
:1030B00015950795AA95E1F7628170E07B0154E2CE
:1030C000E51AF108E701F7FC279673E0D595C79557
:1030D0007A95E1F7638170E04B0154E2851A91081B
:1030E000F40197FC379653E0F595E7955A95E1F78B
:1030F00068E0A62EB12CB5010E94B5336C01C70162
:10310000B5010E94B5337C01C401B5010E94B533FD
:103110001127672D70E0DD24332399F032E1369FCB
:10312000D001379FB00D1124A858BB4FA00FB11F7D
:1031300001E010E001C0000FCA94EAF73C91032BB4
:1031400013C032E1369FD001379FB00D1124A8582B
:10315000BB4FA00FB11F01E010E001C0000FCA94E7
:10316000EAF700953C9103230C93DD27FF2432E11D
:10317000442391F0369FA001379F500D11244858E9
:103180005B4FC40FD51F41E050E001C0440FEA94EB
:10319000EAF73881432B12C0369FA001379F500DAC
:1031A000112448585B4FC40FD51F41E050E001C0C7
:1031B000440FEA94EAF74095388143234883AF01EE
:1031C0005527992792E1969FF001979FF00D1124C2
:1031D000E858FB4FE40FF51F222361F021E030E0B7
:1031E000A90102C0440F551F8A95E2F7CA019081D8
:1031F000892B0CC021E030E0A90102C0440F551F0B
:103200008A95E2F7CA018095908189238083FB012A
:10321000EA58FB4F81E08083DF91CF911F910F919E
:10322000FF90EF90DF90CF90BF90AF909F908F90E6
:103230007F900895CF93DF93262F30E0E901C456A5
:10324000DB4F9881992351F090E9929FB001939FB1
:10325000700D11246F537A4F0E947B171882DF91F3
:10326000CF910895DF92EF92FF920F931F93CF9328
:10327000DF93262F30E0A9014A585B4F7A01FA010B
:10328000908191110AC0F7011082DF91CF911F91B7
:103290000F91FF90EF90DF900895D82EF2E16F9F8D
:1032A000E001112400E010E0F801EC0FFD1FE858E8
:1032B000FB4F4081602F8D2D0E946F170F5F1F4FB6
:1032C0000231110589F7DFCF882311F0FA0101C01F
:1032D000FB0109941F93CF93DF93FB01128111230C
:1032E00009F48CC0EC010E9483298272CB3CFCE57E
:1032F000DF0709F46EC048F5C63CECE5DE0709F4CB
:1033000054C070F4C43C9CE5D90709F442C008F0ED
:1033100045C0C33CDC4509F074C00E94761670C0FD
:10332000C83C9CE5D90709F44AC008F443C0C93C2D
:10333000FCE5DF0709F448C0CA3CDC4509F061C080
:103340004AE257E169E177E12DC0C03DECE5DE07D7
:1033500009F450C088F4CD3C9CE5D90709F443C07A
:10336000E8F1CE3CFCE5DF0709F442C0CF3CDC4588
:1033700009F047C084E03FC0C73D9CE5D90728F469
:10338000C23DDC45E8F58EE036C0CE35DD45C1F105
:1033900038C04FEA56E160EA76E104C040EA56E1FF
:1033A0006FEA76E10E9464192BC046EE56E163EDA8
:1033B00076E1F8CF43ED56E166EE76E1F3CF48E0F3
:1033C00057E167EF76E1EECF47EF56E168E077E14E
:1033D000E9CF49E157E16AE277E1E4CF48E457E118
:1033E00069E377E1DFCF49E357E168E477E1DACFDA
:1033F00081E001C089E00E94901602C011E001C086
:1034000010E0812FDF91CF911F9108950F931F93AB
:10341000CF93DF93811520EC920700F1EC01D05C93
:103420000E948329182F0E949929012F082B0E949E
:10343000AF29182F0E943C1F102B127291E009F443
:1034400090E086958170981729F0CC0FCD2FCC1F76
:10345000DD0BD195CE018F77992701C09058DF9170
:10346000CF911F910F91089597FF13C0FB01228107
:10347000222379F00E94061A880F991F880F991F3E
:10348000FC01E258FC4F65917591859194910E94E1
:10349000221B81E008958CE090E00E94853490E04A
:1034A000A0E0B0E08093F5069093F606A093F706AF
:1034B000B093F806843029F0813029F0823039F455
:1034C00003C080E001C081E080939E0408951092C3
:1034D0009E0484E08093F50608956091F5068CE0E3
:1034E00090E00C94A33420919E04082E000C990BBC
:1034F000820F911D27FD9A9563E070E00E94B5331D
:1035000087FD8D5F80939E04E0919E040E2E000C3B
:10351000FF0BEE5FFB4F80818093F5060C946D1AD4
:103520000E943C1F869581708093FA069091F50663
:10353000913029F4882319F089E30E9478210E94B0
:1035400083298093F9060E9496298091F50681309F
:1035500071F048F0823081F08430A1F486EE0E9450
:10356000782188E10DC082EE0E94D7200BC088E14F
:1035700093E00E94250406C082EE0E94D72087E5D2
:103580000E9478218FE39CE90197F1F700C00000C9
:1035900008958091F506813039F078F0823069F035
:1035A000843089F488E20DC08CE20E9478218091F9
:1035B000FA06882341F089E304C082EE0E942D219F
:1035C00002C00E9478218091F9060C949329BF9241
:1035D000CF92DF92EF92FF920F931F93CF93DF93DF
:1035E0006B017C01C7E0D0E00CE110E0BB24B39498
:1035F000D701C601002E04C0B695A795979587956B
:103600000A94D2F78F7029F4B11006C00E94C90540
:1036100003C00E94C905B12C219704501109CF3F66
:103620008FEFD80729F0C430D10514F7B12CE0CFC3
:10363000DF91CF911F910F91FF90EF90DF90CF908E
:10364000BF900895CF92DF92EF92FF9261157105BE
:1036500021E18207910508F043C06115710521E061
:103660008207910520F02091F5062230C9F16B0107
:103670007C010E94901AC114D10481E0E806F10493
:1036800028F18091F506811121C021E0E21AF108AC
:10369000D701C60188279C7FAF70BB272AE0B6956B
:1036A000A795979587952A95D1F7BC01CD017852BA
:1036B0008F4F9F4F0E94E71A83E0D822EE24FF2409
:1036C000C701B60174528F4F9F4F02C0C701B601A8
:1036D0000E94E71AFF90EF90DF90CF900C94C91AE8
:1036E000FF90EF90DF90CF9008950F931F93CF93AB
:1036F000DF93EC01892B09F4A0C08881882309F4A9
:103700009CC087FD06C0682F70E080E090E02196A5
:103710007FC0982F907E903CA1F4682F6F71862F08
:1037200090E0A0E0B0E016E0880F991FAA1FBB1F31
:103730001A95D1F729812F73BC01CD01622B2296F6
:1037400067C0982F907F903E19F549814F7350E0E4
:1037500060E070E0E6E0440F551F661F771FEA95B2
:10376000D1F790E0A0E0B0E0FCE0880F991FAA1F1D
:10377000BB1FFA95D1F7AA27BB27842B952BA62B25
:10378000B72B2A812F73BC01CD01622B239640C039
:10379000982F987F903FC1F5853FB0F549814F73D1
:1037A00050E060E070E09CE0440F551F661F771FFB
:1037B0009A95D1F7877090E0A0E0B0E022E1880F01
:1037C000991FAA1FBB1F2A95D1F7842B952BA62BD7
:1037D000B72B2B812F73AC01BD01422B8A818F73D4
:1037E00090E0A0E0B0E036E0880F991FAA1FBB1F51
:1037F0003A95D1F78A019B01082B192B2A2B3B2BD9
:10380000C901B801249604C021966FEF7FEFCB0168
:103810008B019C01185D2109310901151840210512
:10382000310508F46ACF6F3F0FEF700780079007EC
:1038300009F463CF0E94221B60CFDF91CF911F91CB
:103840000F9108950F931F93CF93DF93EC018B019A
:10385000FB018281882311F10E9483298272C13E7B
:10386000FCE5DF07A1F028F4C03EECE5DE0761F0DF
:1038700015C0C73EFCE5DF0788F48C2F825E80937D
:10388000F5060E946D1A0AC0882329F002C0811132
:1038900002C08FEF01C081E00E94731AB801CE010F
:1038A000DF91CF911F910F910C94341A0F931F93B6
:1038B000CF93DF93C42FD22FFC0182818823C9F0DC
:1038C0004093A1040E943E2C9093A00480939F04F7
:1038D00080E28C0F883008F057C0C77081E001C0CB
:1038E000880FCA95EAF7DF91CF911F910F910C9441
:1038F00081218091A104481330C080919F04909150
:10390000A0040E94562C883C910538F510E21D0F4A
:10391000CD17B9F080E28C0F883040F4C77081E099
:1039200001C0880FCA95EAF70E948821183028F54F
:1039300081E09D2F977001C0880F9A95EAF70E9449
:103940008121802F0E9478211830F0F4D77081E017
:1039500001C0880FDA95EAF70AC080E28C0F883040
:1039600098F4C77081E001C0880FCA95EAF7DF912B
:10397000CF911F910F910C948821802FDF91CF91CF
:103980001F910F910C947821DF91CF911F910F918E
:1039900008950F939C01CB01243F4CE5340731F18E
:1039A00088F4293DFCE53F07D9F02A3D4CE5340772
:1039B00079F1283D3C45A9F506E221EE41EE68ED9E
:1039C0007CE52BC0263FFCE53F07E1F0A8F0273F50
:1039D0003C4539F507E225EE46EE67EF7CE51DC074
:1039E00007E225EE45EE69ED7CE517C006E221EE23
:1039F00040EE64EF7CE511C007E225EE44EE65EF92
:103A00007CE50BC006E221EE42EE66EF7CE505C0E8
:103A100008E221E045EE6AED7CE50E94561C80E05C
:103A200008C0FC018281882319F01092A10401C012
:103A300081E00F910895CF93DF93EC01FB01828128
:103A4000882309F41FC1C230FCE5DF0708F41BC15D
:103A5000C6319CE5D90738F09E012B5F3C452930E3
:103A6000310508F010C10E94562A90937905809381
:103A70007805C031ECE5DE0709F4C3C008F041C0A9
:103A8000C8308CE5D80709F49AC0F0F4C430ECE5EE
:103A9000DE0709F487C068F4C2308CE5D80709F462
:103AA00077C0C330DC4509F0E3C0809178058260BF
:103AB00076C0C630ECE5DE0709F46EC008F07BC0C6
:103AC0008091780588606BC0CC308CE5D80709F40C
:103AD00085C068F4CA30ECE5DE0709F474C008F06C
:103AE00079C00E94132480917805806858C0CE3038
:103AF0008CE5D80709F476C008F07FC0809178057E
:103B00008BC0CC3FECE5DE0709F44FC018F5C3319C
:103B10008CE5D80709F47DC078F4C131ECE5DE0707
:103B200009F473C0C231DC4509F0A2C00E9413241D
:103B3000809178058F7733C0C5318CE5D80709F4BB
:103B400072C008F486C0CB3FDC4509F091C080917B
:103B500079053EC0C115FDE5DF0709F45FC058F4E3
:103B6000CE3F9CE5D90709F444C008F43FC08091DA
:103B7000790582602DC0C230FDE5DF0709F475C00C
:103B800008F45DC0C330DD4509F072C080E06EC04E
:103B900080917805816003C0809178058061809371
:103BA000780566C08091780511C0809179058260A2
:103BB000809379055DC0809178058062F0CF809117
:103BC00078058064ECCF8091780588608460E7CFC9
:103BD0008160EECF809178058E7FE1CF809178056E
:103BE0008D7FDDCF80917805877FD9CF8091790552
:103BF00018C0809179058D7FDBCF809178058F7E0D
:103C0000CECF809178058F7DCACF809178058F7B4C
:103C1000C6CF80917805877F8B7FC1CF8091790552
:103C20008D7F8E7FC5CF8091780582FB222720F97A
:103C300091E0922790FB82F990FB83F9B0CF8091BD
:103C40007905982F909591708E7F892B90FB81F943
:103C5000AFCF0E9413248091780587FB222720F99B
:103C600091E0922790FB87F99ACF81E00E94ED2A9C
:103C700080917805909179050E94672A0E9413240B
:103C800080E001C081E0DF91CF910895CF93DF9371
:103C900086319C4541F5EB010E948329982F8A814A
:103CA0002091290230912A02882379F09A7A81E0C2
:103CB00009F480E08093A204911102C069E201C07E
:103CC00065E3C9010E94882B0AC08091A20481117A
:103CD00002C069E201C065E3C9010E94932B0E9402
:103CE000CE2980E001C081E0DF91CF91089510924C
:103CF000B9008CE08093B8000895EF92FF920F9383
:103D00001F93CF93DF93182FEB011092BC0084EA2E
:103D10008093BC000E943E2C7C018091BC0087FDFA
:103D20000EC0CF3F8FEFD807C1F30E943E2C8E19F3
:103D30009F098C179D0788F38EEF9FEF2EC080910F
:103D4000B900887F883041F08091B900887F803148
:103D500019F08FEF9FEF21C01093BB0084E8809390
:103D6000BC000E943E2C8C018091BC0087FD0CC0E1
:103D7000CF3F8FEFD807C1F30E943E2C801B910BE1
:103D80008C179D0788F3D8CF8091B900887F883140
:103D900011F08034F1F680E090E0DF91CF911F9137
:103DA0000F91FF90EF9008950F931F93CF93DF93A0
:103DB000EB018093BB0084E88093BC000E943E2C02
:103DC0008C018091BC0087FD0EC0CF3F8FEFD807DC
:103DD000C1F30E943E2C801B910B8C179D0788F32A
:103DE0008EEF9FEF0CC02091B900287F81E090E01A
:103DF000283211F480E090E0919581959109DF914E
:103E0000CF911F910F910895CF92DF92EF92FF9281
:103E10000F931F93CF93DF936B018A017901B9014F
:103E20000E947D1EE6010C0D1D1DC017D10761F417
:103E300024E92093BC00DF91CF911F910F91FF9057
:103E4000EF90DF90CF90089597FDF2CFB701899161
:103E50000E94D41EEACF9093A8048093A7040895EB
:103E6000E091A704F091A804309721F00190F0812F
:103E7000E02D099480E00895E091A704F091A80452
:103E8000309711F480E008950190F081E02D0995BC
:103E90000895E091A704F091A804309799F020913B
:103EA0003502222359F02091780527FF07C0DC0155
:103EB0002C9111962C93119725E02C930280F3817D
:103EC000E02D09940895E091A704F091A80430979B
:103ED00039F022E0DC012C930480F581E02D099477
:103EE00008952091A5043091A6042817390771F090
:103EF0009093A6048093A504E091A704F091A804F0
:103F0000309721F00680F781E02D099408952091E3
:103F1000A3043091A4042817390771F09093A404E6
:103F20008093A304E091A704F091A804309721F0B6
:103F30000084F185E02D099408950E944A2C609335
:103F4000B8047093B9048093BA049093BB0460934F
:103F5000B4047093B5048093B6049093B7040895A5
:103F600085B7806885BF85B7806885BF089581E083
:103F700008950C94B71F08950C94BB1F0C94BB1F9D
:103F80000C94BE1F0C94BB1F0C94C21F0C94BB1F3F
:103F90000E94B01F8BE39AE20E94CB2C0E94C61FA6
:103FA0000C94C41F0E94BC1F0C94BB1F0E94352C94
:103FB0000E943D080C94C01F6F927F928F929F9237
:103FC000AF92BF92CF92DF92EF92FF920F931F9327
:103FD000CF93DF93CDB7DEB72A970FB6F894DEBF45
:103FE0000FBECDBF0E946F0881110E949D1F3AEA4B
:103FF000832E34E0932E00E010E0E02E802F0E940C
:104000000B085C01F401619071904F0168267926DC
:1040100061147104B1F40F5F1F4F0530110569F78A
:104020008FEF89838A831B820E943E2C8160782FC8
:104030009D838C8349815A816B818D810E949D2053
:1040400043C08091540581FD0E941408F12CCC24BA
:10405000C394D12CC3018C219D21892B71F10E9425
:10406000B91FAC20BD208823A1F0FE82EF8281E041
:10407000A114B10409F480E088870E943E2C81607D
:10408000782F9A8789874E815F8168858A850E940B
:104090009D20000F111FF801E655FB4F8081918193
:1040A000C826D926D182C08241E0AB2809F440E07D
:1040B0006F2D8E2D0E94F91307C0F394CC0CDD1CDC
:1040C000FFE0FF12C7CFA7CF0E94AD140E94AA0A3B
:1040D0000E94301F9091A9048917D1F00E94301FCF
:1040E0008093A9042A960FB6F894DEBF0FBECDBF09
:1040F000DF91CF911F910F91FF90EF90DF90CF90C4
:10410000BF90AF909F908F907F906F900C94DA0546
:104110002A960FB6F894DEBF0FBECDBFDF91CF91C8
:104120001F910F91FF90EF90DF90CF90BF90AF90D5
:104130009F908F907F906F900895DF92EF92FF9203
:104140000F931F93CF93DF93CDB7DEB72B970FB6A7
:10415000F894DEBF0FBECDBFF42E052F162FE72E2D
:10416000D82E61110E94A929FE01319686E0DF0157
:104170001D928A95E9F77E2D4F2D502F612F8D2DA1
:104180009E810E94CC262B960FB6F894DEBF0FBE00
:10419000CDBFDF91CF911F910F91FF90EF90DF90F6
:1041A0000895FC01808191810E9423290895CF9375
:1041B000882309F450C0C82F8CEF8C0F813AD0F4BB
:1041C0006C2F8091290290912A020E94082B88234B
:1041D00049F06C2F8091290290912A020E94932B22
:1041E0000E94CE296C2F8091290290912A020E9470
:1041F000882B0CC080E28C0F883058F4C77081E0A7
:1042000001C0880FCA95EAF70E948629CF910C94C5
:10421000CE29EBE5EC0FE33040F4F0E0ED5CFB4F32
:10422000808190E0CF910C94711FE8E5EC0FE731AD
:1042300050F4F0E0EE0FFF1FEB5FFB4F80819181A8
:10424000CF910C94871FCD3E30F08C2F0E94BA097D
:10425000CF910C948C0ACF910895882389F19CEF1B
:10426000980F913A40F4682F8091290290912A0288
:104270000E94932B0DC090E2980F983058F48770ED
:1042800091E001C0990F8A95EAF7892F0E948C2945
:104290000C94CE299BE5980F933020F480E090E0B9
:1042A0000C94711F98E5980F973120F480E090E00E
:1042B0000C94871F8D3E20F00E94150A0C948C0AE6
:1042C00008951F93CF93DF93182FEB010E94D720FF
:1042D000209741F08FE99FE00197F1F700C00000BF
:1042E0002197F6CF812FDF91CF911F910C942D2133
:1042F000893319F060E070E002C060E570E00C9472
:104300006121882321F00E9486290C94CE290895EA
:10431000882321F00E948C290C94CE290895CF92F5
:10432000DF92EF92FF920F931F93CF93DF937C0165
:10433000D62FC72FFC011281058102950F700E94B4
:104340005B29882399F0112389F08C2F807F80349A
:1043500021F080E28D0F883048F082E00E941E2A12
:104360000E945B2991E0D82ED92601C0D12CCC2EF9
:10437000C2948FE0C8228C2D90E08C30910508F01B
:10438000B6C1FC01E159FF4F0C94E8338C2F807FBC
:10439000CF70882311F0C295C07F112399F0CC23F0
:1043A00009F491C180E28D0F883010F0D11104C062
:1043B0008C2F0E94862903C08C2F0E949C290E946A
:1043C000CE2981C18D2F0E942D21CC2309F48FC1CC
:1043D00080E28D0F883010F0D11104C08C2F0E9424
:1043E0008C2903C08C2F0E94A2290E94CE297FC154
:1043F0008C2F807FCF70803211F0C295C07FDD237B
:1044000019F0D130C9F022C0112371F0002341F01E
:10441000013031F40E94AF298C2B0E94B72967C16B
:104420000E94AF298C2B1DC0002319F0013009F424
:104430005EC10E94C42925C0112321F0063008F076
:1044400056C10EC0053008F052C11BC0112361F0E7
:10445000002331F0F701858180FF35C18F7085839E
:104460008C2F0E94812143C1002359F0D93309F0D8
:104470003BC1FFEF07EE13E0F15000401040E1F7C1
:1044800031C18C2F0E94882132C18C2F8695869550
:10449000837019F0813061F02AC1112321F08D2F32
:1044A0009C2F937002C080E090E00E94711F27C192
:1044B000112321F08D2F9C2F937002C080E090E09B
:1044C0000E94871F1CC18D2F112319F00E94BA0969
:1044D00002C00E94150A0E948C0A11C18C2F8370A1
:1044E00009F047C0111107C12D2F2295269527707D
:1044F000220F220F6D2F6F70862F90E0A0E0B0E0AA
:10450000022E04C0880F991FAA1FBB1F0A94D2F75E
:10451000D4FF10C04FE050E060E070E004C0440FF2
:10452000551F661F771F2A95D2F7409550956095C5
:10453000709503C040E050E0BA01C695C695C370BF
:104540008A019B01082B192B2A2B3B2BC901B8018F
:10455000C23049F058F4C13019F00E94A027CBC0F6
:104560000E948E27C8C00E94B227C5C00E948C2717
:10457000C2C0112319F08C2F817001C08695882349
:1045800009F4B9C02D2F229526952770220F220FEE
:104590006D2F6F70862F90E0A0E0B0E0022E04C077
:1045A000880F991FAA1FBB1F0A94D2F7D4FF10C00F
:1045B0004FE050E060E070E004C0440F551F661FFC
:1045C000771F2A95D2F7409550956095709503C056
:1045D00040E050E0BA01C695C695C3708A019B01C0
:1045E000082B192B2A2B3B2BC901B801C23049F0EB
:1045F00058F4C13019F00E9465287DC00E945328EC
:104600007AC00E94772877C00E94C62774C0CF70F6
:10461000112339F08C2F0E94EC278D2F0E948121CD
:104620006AC08D2F0E9488218C2F0E940D2863C0A4
:10463000D23F01F128F4D03F41F0D13FA1F03FC07B
:10464000D33FF9F0D43F39F13AC0112341F005309E
:1046500008F04DC08C2F8F710E94322848C0063060
:1046600008F045C0F7CF112339F08C2F8F710E94CD
:10467000EC273DC01123C9F38C2F8F710E940D28A8
:1046800036C0112329F08C2F8F710E94D7272FC09D
:104690000E94D2272CC0112349F0CF718C2F0E9489
:1046A000EC2763E08C2F0E94032A21C081E00E9446
:1046B0001E2A0230E0F082E00E941E2A18C0112358
:1046C00031F0002391F28D2F0E94D72010C00023DB
:1046D00099F2D93349F41FEF27EE33E0115020400F
:1046E0003040E1F700C000008D2F0E942D2188EF9F
:1046F0008C0D843020F40E94301F0E94DA05DD20EA
:10470000C9F00E94572980FD15C0F70112820E944E
:1047100051290E94EC27C7010E94BB230E94512906
:10472000DF91CF911F910F91FF90EF90DF90CF908D
:104730000C940D28DF91CF911F910F91FF90EF9076
:10474000DF90CF9008950F931F93CF93DF93EC01E9
:10475000688179818A810E942E298C010E94892892
:104760000E947A27B801CE010E948F21DF91CF915C
:104770001F910F910895CF93DF93EC019881898168
:104780002B813C81232B31F08F3F31F481E09F3F1F
:1047900019F403C081E001C080E080FD19C0CE01A2
:1047A0000E94970481110CC00E945B29882381F02C
:1047B0008A81882369F082E0DF91CF910C941E2AD0
:1047C000CE010E94A323CE01DF91CF910C947204FD
:1047D000DF91CF910895882321F00E949C290C94A9
:1047E000CE290895882321F00E94A2290C94CE2975
:1047F000089580E090E00E94711F80E090E00E94A8
:10480000871F0E94A9290E94AC290E94CE290E94DC
:10481000BD0B0C948C0A8091290290912A020E946F
:104820009E2B0C94F9230E9496290C940B24E92FBB
:10483000E295EF704E2F50E0FA013297EE30F1051D
:10484000B0F4E558FF4F0C94E833803F91F018F432
:10485000883E68F40EC0843F51F40BC0883E48F097
:10486000813F29F406C093FB882780F9089580E0F2
:10487000089581E008950E9423290E941724089535
:10488000CF93DF9300D000D01F92CDB7DEB70F904B
:104890000F900F900F900F90DF91CF910895CF93CD
:1048A000DF9300D000D000D0CDB7DEB726960FB68C
:1048B000F894DEBF0FBECDBFDF91CF9108951F9357
:1048C000CF93DF93C091BD0416E08091BE04C8175A
:1048D00099F0D0E01C9FF0011D9FF00D1124E154D0
:1048E000FB4F4081518162817381848195810E9457
:1048F0004F242196C770E9CFDF91CF911F91089582
:104900004091EF045091F0046091F1047091F20431
:104910008091F3049091F4040C944F240F931F930F
:10492000CF93DF938091F40482958F7009F05DC07E
:104930008091F104882309F458C08091BD0410913E
:10494000BE046091EF047091F004C091F204D09124
:10495000F30491E06F3F09F090E0292F06E0811702
:1049600009F443C0209721F07F3F21F030E003C0DD
:1049700031E001C0322F90E030FD34C0089FF001DB
:10498000099FF00D1124DF01A154BB4F11963C91FA
:104990001197371327C03C91361324C012963C91CF
:1049A000129731111FC013964D915C9114974C1BB7
:1049B0005D0B483C5105B0F48091F4048F70806128
:1049C0008093F404EC53FB4F80818F70806180836F
:1049D0008FEE94E00E94BB23DF91CF911F910F9146
:1049E0000C945F2401968770BACFDF91CF911F910D
:1049F0000F9108959F92AF92BF92CF92DF92EF9264
:104A0000FF920F931F93CF93DF93CDB7DEB76197DC
:104A10000FB6F894DEBF0FBECDBF8C0185E0F80164
:104A2000DE011D9601900D928A95E1F7F801408113
:104A30005181E2809091EF046091F0042091F204A2
:104A40003091F3042115310531F06F3F31F481E0ED
:104A50009F3F19F403C081E001C080E0F82FF1709E
:104A60009F2E80FD46C1F801A380B4808FEEC82E32
:104A700084E0D82EF090F104F501E21BF30BFF2047
:104A800009F4DFC08091F404E83CF10508F09BC014
:104A9000282F207F09F052C0561313C0491311C0AC
:104AA000FE2CE1100EC08F7080618093F4040E9490
:104AB0008024C6010E94BB238091F404F801858301
:104AC00058C1AB2831F05F3F31F481E04F3F19F41A
:104AD00003C081E001C080E080FD03C081E08E253D
:104AE00002C080E090E0F82FF170FF2E80FF1CC024
:104AF0008091BD042091BE0436E0821709F417C1ED
:104B000090E0389FF001399FF00D1124E154FB4FE4
:104B10006181561306C06081461303C06281E612AC
:104B200003C001968770E9CFFE2CEE2009F421C165
:104B30008091F40481608093F4045AC0561306C037
:104B4000491304C0E11002C0F8019FC04D875E8781
:104B50008D859E850E943B24882379F1EE2069F1A2
:104B60002091F404822F82958F7090E0029774F068
:104B70008091EF049091F00498878F831986BB860B
:104B8000AA862C87CE0107960E94BB2386E0F801F7
:104B9000AFEEB4E001900D928A95E1F70E948E2469
:104BA0000E9480240DC0561729F14D875E878D85A0
:104BB0009E850E943B2481112CC0C8010E94BB230A
:104BC000FF24F394D6C0282F207F69F77A2DB98A65
:104BD000A88A6E2D89890E9440248FEE94E00E945D
:104BE000BB2386E0F60111928A95E9F70E948024A2
:104BF000F12CBFC04913D9CFE110D7CFF80185837D
:104C0000C8010E94BB2386E0F60111928A95E9F75C
:104C1000B0C0EE2091F22091F404822F82958F7023
:104C200090E002970CF4B2CF8091EF049091F004E1
:104C30009A8389831B82BD82AC822E83CE0101962A
:104C4000A3CFE83CF10508F047C0FE2CEE2009F4A4
:104C5000B4CF561330C049132EC02091F40420FD68
:104C600021C0822F82958F70482F50E04115510549
:104C7000C9F0F80125834F30510541F08F5F982F1F
:104C80009295907F822F8F70892B8583C8010E9417
:104C9000BB2386E0F801AFEEB4E001900D928A9557
:104CA000E1F742C086E0F801AFEEB4E001900D926A
:104CB0008A95E1F75EC04D875E878D859E850E944F
:104CC0003B24811163CF8091F40481608093F404CC
:104CD000C8010E94BB234DC07A2DB98AA88A6E2DC7
:104CE00089890E94402486E0F60111928A95E9F7AD
:104CF0001BC0EE2009F461CF4D875E878D859E85B0
:104D00000E943B24F82E882309F457CF86E0F8014F
:104D1000AFEEB4E001900D928A95E1F78FEE94E04A
:104D20000E94D1200E948E240E94802422C04D87A0
:104D30005E878D859E850E942329292F22952F70BD
:104D4000223028F49F7039F0811105C00BC0243047
:104D500028F49F7049F4805E883020F0C8010E94DA
:104D6000BB239F2CF92C05C0F8019581907F99F702
:104D7000F9CF8F2D61960FB6F894DEBF0FBECDBF71
:104D8000DF91CF911F910F91FF90EF90DF90CF9027
:104D9000BF90AF909F9008951F93CF93DF93CDB7AF
:104DA000DEB72C970FB6F894DEBF0FBECDBF4F8392
:104DB000588769877A878B879C87CE0107960E94E0
:104DC000FA248823D1F09F8188852A853B85232B6F
:104DD00031F08F3F31F481E09F3F19F403C081E04F
:104DE00001C080E080FD47C04F81588569857A8584
:104DF0008B859C850E944F243EC086E0FE0137963D
:104E0000DE01119601900D928A95E1F7FF81E88508
:104E10006A857B856115710531F0EF3F31F481E0E2
:104E2000FF3F19F403C081E001C080E080FD23C092
:104E30002091BE0430E0C901019687709927409106
:104E4000BD0450E084179507F1F1F983EA837D836F
:104E50006C8396E0929FD001939FB00D1124A154D2
:104E6000BB4FFE01319601900D929A95E1F7809328
:104E7000BE040E945F2416E08091BD049091BE04A0
:104E8000891771F1189FC001112481549B4F0E9412
:104E9000FA24882329F1E091BD041E9FF00111241A
:104EA000E154FB4F408151816281738184819581FE
:104EB0000E944F248091BD0490E00196877099274D
:104EC0008093BD04D9CF0E9413241092BE04109287
:104ED000BD04EFEEF4E086E0DF011D928A95E9F76C
:104EE0002C960FB6F894DEBF0FBECDBFDF91CF91E9
:104EF0001F910895089508950C947B270C947C27A6
:104F00000E947E2760932B0570932C0580932D05BE
:104F100090932E050C94F9230C9480270F931F93E4
:104F200000912B0510912C0520912D0530912E0517
:104F3000602B712B822B932B1F910F910C94802748
:104F40000F931F9300912B0510912C0520912D0597
:104F500030912E0560237123822393231F910F919B
:104F60000C9480270F931F9300912B0510912C0513
:104F700020912D0530912E056027712782279327D8
:104F80001F910F910C9480270C947B270E94C427BB
:104F900060932705709328058093290590932A052F
:104FA0000C94F92360E070E0CB010C94C6270F93BA
:104FB0001F9341E050E060E070E08A019B0104C073
:104FC000000F111F221F331F8A95D2F7C901B801A4
:104FD0001F910F910C94C6270F931F9341E050E04F
:104FE00060E070E004C0440F551F661F771F8A956C
:104FF000D2F78091270590912805A0912905B091BD
:105000002A058A019B01082B192B2A2B3B2BC9014E
:10501000B8011F910F910C94C6270F931F9341E085
:1050200050E060E070E004C0440F551F661F771F1A
:105030008A95D2F740955095609570958091270597
:1050400090912805A0912905B0912A058A019B011C
:10505000082319232A233B23C901B8011F910F916B
:105060000C94C6270F931F9341E050E060E070E07E
:1050700004C0440F551F661F771F8A95D2F7809191
:10508000270590912805A0912905B0912A058A014C
:105090009B01082719272A273B27C901B8011F911F
:1050A0000F910C94C6270F931F9300912705109121
:1050B00028052091290530912A05602B712B822B20
:1050C000932B1F910F910C94C6270F931F93009160
:1050D0002705109128052091290530912A05602384
:1050E0007123822393231F910F910C94C6270F9352
:1050F0001F930091270510912805209129053091D3
:105100002A0560277127822793271F910F910C94FE
:10511000C62708952FE0929F800D1124E82FE69571
:10512000E695E695877051E001C0550F8A95EAF73C
:1051300085E0E89FF0011124EB50FB4F20E030E0C8
:1051400070E04081CB01022E02C0969587950A94AB
:10515000E2F78170819584278523842781932F5FCF
:105160003F4F2530310569F708952FE0929F800D5C
:105170001124682F669566956695982F977085E03F
:10518000689FB001112440E050E080E0FB01E40F93
:10519000F51FEB50FB4F208130E0092E02C0369501
:1051A00027950A94E2F721703327042E01C0220FBD
:1051B0000A94EAF7822B4F5F5F4F4530510531F774
:1051C0000895BF92CF92DF92EF92FF920F931F93B9
:1051D000CF93DF938C01C0902705D0902805E090F5
:1051E0002905F0902A0580912B0590912C05A0911E
:1051F0002D05B0912E05C82AD92AEA2AFB2ACFE12B
:10520000D0E0D701C6010C2E04C0B695A79597959E
:1052100087950A94D2F780FD04C0219790F7B12CAE
:1052200007C0BC2EB8018C2F0E94F6050197A9F388
:105230008B2DDF91CF911F910F91FF90EF90DF9019
:10524000CF90BF900895CF93DF93EC010E94E128A7
:10525000BE010E94F605DF91CF9108951F93CF9371
:10526000DF93EB019091BC04992321F0CB010E94C4
:10527000232913C0882349F0CB010E94E128182F6D
:10528000682FCE010E948A2804C0CB010E94B52855
:10529000182FBE01812F0E94F605DF91CF911F913B
:1052A000089580912F058595859585950895809120
:1052B0002F058770089590912F05977081E009F46C
:1052C00080E008959091790592FB222720F9281714
:1052D00051F080FB92F99093790580917805909137
:1052E00079050C94672A08958091790582FB8827B7
:1052F00080F991E089270C94622981E00C9462295D
:1053000080E00C9462298091530508959091530593
:10531000892B809353050895809590915305892397
:105320008093530508958093530508951092530573
:10533000089580915205089590915205892B80938C
:1053400052050895809590915205892380935205C6
:105350000895109252050895109251050895809174
:105360003005089508950C94B2290C94B3299091B6
:10537000790592FD08C090913005981721F080932F
:1053800030050C94B529089580913005882329F0C3
:105390001092300580E00C94B5290895E09129021F
:1053A000F0912A02809153058083E0912902F091C7
:1053B0002A02908180915205892B8083E0912902F5
:1053C000F0912A02908180915105892B80838091F0
:1053D0003005882381F0E0912902F0912A02908122
:1053E000892B80838091290290912A020E94F22ABF
:1053F00081110E94C4298091290290912A020C9463
:10540000491F0C94B2299091790592FD10C098E043
:10541000899F90011124262B20932F050E94EC27B1
:1054200080912F058595859585950C94012A0C947E
:10543000EC2710922F0580E00C94012A20912F0573
:105440008095822380932F05982F977041F430E048
:10545000482F082E000C550B2417350721F4909186
:10546000790592FF07C08595859585950E940D2841
:105470000C94192A089580E008956FEF7FEF80E083
:1054800090E00C94C13480E090E00E948D3421E0E3
:105490008A3E9E4F09F020E0822F089582E090E03E
:1054A0000C94853483E090E00C948534CF9384E0B1
:1054B00090E00E948534C82F82E290E00E948534FB
:1054C0002C2F30E0A901582BCA01CF910895CF931A
:1054D000C92F682F84E090E00E94A3346C2F82E2F1
:1054E00090E0CF910C94A334AB01BC018FE090E02D
:1054F0000C94B534AB01BC0183E190E00C94B5345D
:1055000060E070E0CB010C947A2A60E070E0CB019F
:105510000E94742A0C94802A6AEE7EEF80E090E06C
:105520000E94C13460E082E090E00E94A33460E019
:1055300083E090E00E94A33410922B0510922C057A
:1055400010922D0510922E0560E084E090E00E94FC
:10555000A33460E082E290E00E94A33460E085E042
:1055600090E00E94A33460E086E090E00E94A334C3
:105570006FEF87E090E00E94A33440E050E0BA0172
:1055800088E090E00E94B53460E08DE090E00E94F9
:10559000A33440E050E0BA0188E190E00E94B534C5
:1055A00060E087E190E00E94A33440E050E0BA015F
:1055B0008CE190E00E94B53460E070E080E290E021
:1055C0000E94C13440E050E0BA0188E190E00E94BE
:1055D000B5340C94852A0C948C2A682F8EE090E0C8
:1055E0000C94A334FC01329680913502882331F06B
:1055F0008091780587FF02C09EE101C096E080E0BF
:10560000915028F021912223D9F38F5FF9CF08958B
:10561000662351F1209135022223E9F0209178058B
:1056200027FF19C0462F4695469546954E31E0F422
:10563000677021E030E002C0220F331F6A95E2F765
:10564000FC01E40FF11D828190E02823392381E0E1
:10565000232B69F409C0FC01329608962191621748
:1056600029F0E817F907D1F780E0089581E008955F
:105670009C01FC0132969FEF80E04191461789F032
:105680009F3F19F4411101C0982F8F5F8630A9F711
:105690009F3F39F0F901E90FF11D97FDFA956283FB
:1056A000089508959C012A5F3F4FFC0142814613F3
:1056B00001C01282019682179307B9F70895262F29
:1056C0002695269526952E3168F4FC01E20FF11DF2
:1056D000677021E030E001C0220F6A95EAF782810D
:1056E000282B22830895262F2695269526952E3140
:1056F00070F4FC01E20FF11D677021E030E001C0A1
:10570000220F6A95EAF72095828128232283089543
:1057100020913502222329F02091780527FD0C9451
:105720005F2B0C94382B20913502222329F02091F5
:10573000780527FD0C94732B0C94522B2091350285
:10574000FC013296222331F08091780587FF02C058
:105750008EE101C086E0DF011D928A95E9F7089588
:1057600008950C94B02B0C94B02BCF930E94B32BC4
:105770000E946F080E94B12BC0E08C2F0E940B0882
:10578000892B29F4CF5FC530C1F780E001C081E0EB
:10579000CF9108950C94B02B0C94CA2B80910307E1
:1057A000843061F10E94CC2B80E00E94DA0581E018
:1057B0000E945D161092550520E488E190E00FB636
:1057C000F894A895809360000FBE2093600083B783
:1057D000817F846083BF83B7816083BF789488951D
:1057E00083B78E7F83BF0FB6F894A8958091600031
:1057F000886180936000109260000FBE08950C9441
:10580000B02B0E9413240E94301F0E94DA0580E012
:105810000E945D160C94FF2B1F920F920FB60F92F1
:1058200011248F939F93AF93BF938091550581115E
:1058300013C08091FB069091FC06A091FD06B091EB
:10584000FE064196A11DB11D8093FB069093FC06B8
:10585000A093FD06B093FE06BF91AF919F918F91EB
:105860000F900FBE0F901F90189582E084BD93E0BB
:1058700095BD9AEF97BD80936E0008952FB7F89469
:105880008091FB069091FC06A091FD06B091FE066A
:105890002FBF08952FB7F8946091FB067091FC0616
:1058A0008091FD069091FE062FBF08959C014FB791
:1058B000F8948091FB069091FC06A091FD06B091B2
:1058C000FE064FBF821B930B0895CF92DF92EF929B
:1058D000FF922FB7F894C090FB06D090FC06E090A2
:1058E000FD06F090FE062FBFA7019601261B370B81
:1058F000480B590BCA01B901FF90EF90DF90CF9090
:10590000089578941F920F920FB60F9211248F93DF
:105910009F93AF93BF938091FB069091FC06A0915B
:10592000FD06B091FE060196A11DB11D8093FB06F8
:105930009093FC06A093FD06B093FE06BF91AF9135
:105940009F918F910F900FBE0F901F90189581E03F
:105950008093E00080E28093D8001092C9008FE12C
:105960009EE40197F1F700C0000087E090EBDC01B6
:1059700080930C0790930D07A0930E07B0930F0729
:105980009CE088E10FB6F894A895809360000FBE64
:1059900090936000FFCF909337048093360408956E
:1059A000809176050895CF93DF9300D01F92CDB7F5
:1059B000DEB790910307943019F589837B836A835E
:1059C00082E08093E9008FEF9091E800815095FD8F
:1059D00006C095ED9A95F1F700008111F5CF809101
:1059E000E80085FF0DC040E050E063E070E0CE01CC
:1059F00001960E94032F8091E8008E778093E80043
:105A00000F900F900F90DF91CF910895BC0184E02B
:105A10000C94D32CBC0183E00C94D32C22E0209373
:105A2000E9002FEF3091E800215035FD06C035ED3B
:105A30003A95F1F700002111F5CF2091E80025FFFC
:105A40000BC040E050E066E070E00E94032F8091C0
:105A5000E8008E778093E8000895CF93DF9320913C
:105A60003502222339F02091780527FF03C060E238
:105A700022E002C068E021E02093E9002FEF30919E
:105A8000E800215035FD06C035ED3A95F1F70000EC
:105A90002111F5CF2091E80025FF1DC0EC01809178
:105AA0003502811105C040E050E068E070E003C0BD
:105AB00070E040E050E0CE010E94032F8091E800AA
:105AC0008E778093E80080E2FE01A6E5B5E00190C4
:105AD0000D928A95E1F7DF91CF91089580910207A9
