:100000000C9485030C94CC030C94CC030C94CC037B
:100010000C94CC030C94CC030C94CC030C94CC0324
:100020000C94CC030C94CC030C947D2C0C944F2D8D
:100030000C948B270C94CC030C94CC030C94CC0321
:100040000C94CC030C94CC030C94CC030C94CC03F4
:100050000C94CC030C94E4270C94CC030C94CC03A8
:100060000C94CC030C94CC030C94CC030C94CC03D4
:100070000C94CC030C94CC030C94CC030C94CC03C4
:100080000C94CC030C94CC030C94CC030C94CC03B4
:100090000C94CC030C94CC030C94CC030C94CC03A4
:1000A0000C94CC030C94CC030C94CC037E077E07F9
:1000B000AA07AA0712083008550955093B08D008B5
:1000C000E108E1084509550955094E09070A070ADB
:1000D000190A190A100A190A190A190A070A070A35
:1000E000150A190A190A150ABC2DE32DDB2EE32D7A
:1000F000DB2E2F2E522EDB2EA92EB82E165C1E00C4
:100100001F002000210022002300240025002600DB
:1001100027002D002E0000002A002B0000001400F4
:100120001A000800150017001C0018000C0012002F
:1001300013002F0030003100394100000400160088
:10014000070009000A000B000D000E000F0033002D
:10015000340028000000E10064001D001B000600C0
:1001600019000500110010003600370038000000AB
:10017000E5000000E400E3000000E20000000000F1
:100180002C000000000000000151E6000000E70024
:10019000E400165C3A003B003C003D003E003F009E
:1001A00040004100420043004400450000004C0074
:1001B000E05C000001000100068001000100010078
:1001C00082C1010084C2010001000100350001006C
:1001D000000080C0078001000100010050005100B4
:1001E00052004F0001000100010000000100010069
:1001F00001000100010001000100010001000100F7
:1002000001000100000001000000010001000000E9
:1002100001000000000001000000000000000100DB
:100220000100000001000251010001000100010075
:1002300001000100010001000100010001000100B6
:1002400001000000005C010000000100010001004D
:100250000100CA5C0100C65CC85C0100010001002D
:100260000100010001000000010001000100C35C69
:10027000CB5CC45CC75CC95CC55C010001000100CB
:100280000000010001000100010001000100010067
:100290000100010001000100010000000100000058
:1002A000010001000000010000000000010000004A
:1002B0000000000001000100000001000100E40056
:1002C0000000C4000000FC000000DC000000F6009C
:1002D0000000D6000000AC200000DF00000000009D
:1002E0000000000000002A2B280000000000000091
:1002F00000000000000000000029000000002C1E8B
:100300003420212224342627252E362D3738271E47
:100310001F202122232425263333362E37381F046D
:1003200005060708090A0B0C0D0E0F101112131405
:1003300015161718191A1B1C1D2F3130232D3504C3
:1003400005060708090A0B0C0D0E0F1011121314E5
:1003500015161718191A1B1C1D2F3130354C0000AB
:10036000000000000000000000000000000000008D
:10037000000000000000000000000000000000007D
:1003800000007E0F00D4FFFFFFC7000000780004CC
:100390007F3F1F643214643214783C1E1E140A0519
:1003A0002223252628292A2C2D2F30323335363882
:1003B0003A3B3D3E4042434547494A4C4E505153DB
:1003C0005557595A5C5E6062646668696B6D6F71FF
:1003D000737577797B7D7F81838587898A8C8E9001
:1003E000929496989A9C9E9FA1A3A5A7A8AAACAE0A
:1003F000AFB1B3B4B6B8B9BBBCBEBFC1C2C3C5C64A
:10040000C7C9CACBCCCDCED0D1D2D2D3D4D5D6D7F2
:10041000D7D8D9D9DADADBDBDBDCDCDCDCDCDDDD30
:10042000DDDDDCDCDCDCDCDBDBDBDADAD9D9D8D720
:10043000D7D6D5D4D3D2D2D1D0CECDCCCBCAC9C7C2
:10044000C6C5C3C2C1BFBEBCBBB9B8B6B4B3B1AFF9
:10045000AEACAAA8A7A5A3A19F9E9C9A9896949299
:10046000908E8C8A89878583817F7D7B7977757370
:10047000716F6D6B6968666462605E5C5A5957554E
:100480005351504E4C4A4947454342403E3D3B3A0A
:100490003836353332302F2D2C2A29282625232291
:1004A000FFAA7F5540000101010101010101010284
:1004B0000202020202020202030303030303030314
:1004C00004040404040404050505050506060606DF
:1004D00006070707070708080808090909090A0A9B
:1004E0000A0B0B0B0C0C0C0D0D0D0E0E0E0F0F0F3F
:1004F00010101111111212131314141515161617CA
:1005000017181819191A1A1B1B1C1D1D1E1E1F2037
:1005100020212222232424252626272829292A2B84
:100520002C2D2D2E2F3031323233343536373839A9
:100530003A3B3C3D3E3F40414243444546474849A3
:100540004A4C4D4E4F50515354555658595A5B5D75
:100550005E5F616264656668696B6C6D6F70727313
:100560007577787A7B7D7E8082838587888A8C8E7A
:100570008F91939596989A9C9EA0A2A3A5A7A9ABAC
:10058000ADAFB1B3B5B7BABCBEC0C2C4C6C9CBCD9E
:10059000CFD1D4D6D8DBDDDFE2E4E7E9EBEEF0F350
:1005A000F5F8FAFDFF0A0344005A00360030000057
:1005B0000010034B0042004400460061006E0073CF
:1005C0000000000403090409023B00020100A0FA34
:1005D00009040000010301010009211101000122A9
:1005E00040000705810308000A0904010001030017
:1005F000000009211101000122B600070582032035
:10060000000A12010002000000085A4460220100A2
:100610000102000105010902A10185020901A100F1
:1006200005091901290815002501950875018102A0
:100630000501093009311581257F9502750881066C
:1006400009381581257F950175088106050C0A3842
:10065000021581257F950175088106C0C005010935
:1006600080A101850319012AB700150126B700955D
:100670000175108100C0050C0901A1018504190153
:100680002AA002150126A002950175108100C0055F
:10069000010906A1018506050719E029E7150025CE
:1006A000019508750181020507190029EF1500253C
:1006B0000195F07501810205081901290595057557
:1006C000019102950175039101C005010906A1017F
:1006D000050719E029E71500250195087501810234
:1006E0009501750881010507190029FF150026FFEE
:1006F00000950675088100050819012905950575FD
:10070000019102950175039101C011241FBECFEF25
:10071000DAE0DEBFCDBF04B603FE27C080912C0314
:1007200090912D03A0912E03B0912F038730904B11
:10073000A740B04BD1F410922C0310922D031092CD
:100740002E0310922F0314BE84B7877F84BF0FB689
:10075000F894A89580916000886180936000109261
:1007600060000FBEE0E0F8E3099511E0A0E0B1E021
:10077000E8E0F0E602C005900D92AA3CB107D9F777
:1007800023E0AAECB1E001C01D92AC32B207E1F760
:100790000E9426160C9402300C9400009C013A959D
:1007A00021153F4130F5BC0166277270AC0144272A
:1007B00054709C012227387094FF0FC090FF02C034
:1007C00080E101C080E0672B09F08062452B09F0D1
:1007D0008064232B79F080680895892F8170672BBE
:1007E00009F08260452B09F08460232B19F08860A2
:1007F000089580E00895CF93DF93EC01805E910926
:10080000089710F0209731F4CE010E94CE030E9489
:10081000390705C0CE010E94CE030E94CD098C2F5E
:10082000DF91CF910C940706CF93DF93EC010E94E8
:10083000B106CE01805E9109089710F0209739F437
:10084000CE010E94CE03DF91CF910C944007CE01E0
:100850000E94CE03DF91CF910C94D409CF93DF9304
:10086000EC010E94FB03CE01DF91CF910C941404A4
:1008700081E0089581E008950C943A0408950C9461
:100880003E041F93CF93DF9300D000D01F92CDB7CB
:10089000DEB749835A836B833091CC0189819A8179
:1008A000311114C0662359F0222349F00E94AB0B8A
:1008B000182F682F89819A810E94540B03C00E94CF
:1008C0007F0B182F69817A81812F04C00E94AB0BA6
:1008D00069817A810F900F900F900F900F90DF91A8
:1008E000CF911F910C946D12FC01262F40815181F4
:1008F0006281738184810C94410481E00895CF93D7
:10090000DF93EC0160E00E947404BE01DF91CF919F
:100910000C943F040E949A140E94AB050E94C921C6
:100920000E945C220C94D7140C94D31408950C9458
:1009300096040C9497040E94990480E00E9413216D
:1009400080E00E94AE050C94A21D0C9496040E94B7
:10095000F5090E94A5042FEF84E39CE0215080401C
:100960009040E1F700C000000C940A280F931F93F9
:10097000CF93DF938C0161E00E947404EC01B80115
:100980000E943C04882309F452C0B801CE010E94A1
:10099000DE20882309F44BC0B801CE010E94A223B7
:1009A000882309F444C0B801CE010E94AC258823F5
:1009B000F1F1B801CE010E94D6238823C1F1B8011C
:1009C000CE010E940825882391F1B801CE010E9432
:1009D000251F882361F1F8018281882309F1CB3535
:1009E0008DE5D807C1F050F4C115FCE5DF0781F0B3
:1009F000CF3DDC45A9F40E94651119C0CC35EDE569
:100A0000DE0761F0CD35DD4559F40E94A81008C01D
:100A10000E94A7040CC00E94B11002C00E94B41032
:100A2000C801DF91CF911F910F910C94380480E0A1
:100A3000DF91CF911F910F9108950C9496040E941D
:100A400002200E9408260E94AE050E946E1E0C9491
:100A50001D05DF92EF92FF920F931F93CF93DF93C9
:100A6000E82FF0E0E252FD4FD490282F26952695EE
:100A7000269530E0F901E258FC4F0491877010E0B0
:100A8000082E02C0159507950A94E2F70170112708
:100A9000F901E259FC4FE490F12C082E02C0F594C4
:100AA000E7940A94E2F791E0E922FF24F901E25A7F
:100AB000FC4FC491D0E002C0D595C7958A95E2F766
:100AC000C170DD270115110519F081EE0E9407069E
:100AD000E114F10419F086EE0E9407068D2D0E94A4
:100AE0003007EF2819F086EE0E94B106012B19F0AD
:100AF00081EE0E94B106CD2B51F08CE2DF91CF91B7
:100B00001F910F91FF90EF90DF900C943007DF91D1
:100B1000CF911F910F91FF90EF90DF900895982F44
:100B20009F709A50963010F0805D01C0895A0C94E5
:100B3000290508950C94990581E00895CF93C82F55
:100B40000E949C05882329F0C1FD02C02A9A01C099
:100B50002A98CF910895229A2A9A0895CF93C82F60
:100B60000E949A058C2F0E949E05CF910895CF93E5
:100B7000DF93CDB7DEB72B970FB6F894DEBF0FBE6D
:100B8000CDBF4F83588769877A878B8761110E9411
:100B9000F40F9E012F5F3F4F86E0F90111928A9575
:100BA000E9F785E0FE013796D90101900D928A950B
:100BB000E1F789819A814C815D81452B31F09F3F1E
:100BC00031F491E08F3F19F403C091E001C090E04F
:100BD00090FF09C049815A816B817C818D819E8102
:100BE0000E940F0F05C0C9010E947D048111F2CF40
:100BF0002B960FB6F894DEBF0FBECDBFDF91CF911D
:100C00000895FC01808191810E94ED0B0895CF939E
:100C1000882309F4A4C0C82F8238C1F40E94082692
:100C200081FD9DC069E380910201909103010E94C2
:100C300001270E9426102FEF81EE94E02150804082
:100C40009040E1F700C0000069E319C0833801F566
:100C50000E94082680FD83C063E580910201909187
:100C600003010E9401270E9426102FEF81EE94E0DD
:100C7000215080409040E1F700C0000063E5809182
:100C80000201909103010E940C27CF910C94261031
:100C90008438C1F40E94082682FD61C067E4809117
:100CA0000201909103010E9401270E9426102FEF5C
:100CB00081EE94E0215080409040E1F700C00000B8
:100CC00067E4DDCF8CEF8C0F813AD0F46C2F8091EC
:100CD0000201909103010E948126882349F06C2F24
:100CE00080910201909103010E940C270E9426101E
:100CF0006C2F80910201909103010E940127C5CFC2
:100D000080E28C0F883048F4C77081E001C0880F02
:100D1000CA95EAF70E94D10FB8CFEBE5EC0FE330AC
:100D200040F4F0E0E65AFE4F808190E0CF910C94C1
:100D30003F26E8E5EC0FE73150F4F0E0EE0FFF1F3F
:100D4000E45DFE4F80819181CF910C945526CD3E7C
:100D500030F08C2F0E94B516CF910C948717CF914D
:100D60000895882309F464C0823879F40E94082623
:100D700081FF5EC069E380910201909103010E94AE
:100D800001270E94261069E310C08338B1F40E9445
:100D9000082680FF4DC063E5809102019091030118
:100DA0000E9401270E94261063E580910201909124
:100DB00003010E940C270C942610843879F40E94B9
:100DC000082682FF35C067E48091020190910301FB
:100DD0000E9401270E94261067E4E7CF9CEF980F3E
:100DE000913A10F4682FE1CF90E2980F983050F4C8
:100DF000877091E001C0990F8A95EAF7892F0E94C8
:100E0000D70FD9CF9BE5980F933020F480E090E086
:100E10000C943F2698E5980F973120F480E090E0FD
:100E20000C9455268D3E20F00E9410170C948717C5
:100E300008951F93CF93DF93182FEB010E940706AD
:100E4000209741F08FE99FE00197F1F700C0000083
:100E50002197F6CF812FDF91CF911F910C94B1068E
:100E6000893319F060E070E002C060E570E00C9436
:100E70001907882321F00E94D10F0C9426100895A1
:100E8000882321F00E94D70F0C9426100895CF924A
:100E9000DF92EF92FF920F931F93CF93DF937C012A
:100EA000162FC72FFC01D281058102950F700E9479
:100EB000C70F8823B9F0DD23A9F08C2F807F803401
:100EC00021F080E2810F883068F08091C90282FDB4
:100ED00009C082E00E9476100E94C70F91E0D82ED0
:100EE000D92601C0D12CCC2EC2948FE0C8228C2DE3
:100EF00090E0FC01EA5AFF4F0C94692F8C2F807F01
:100F0000CF70882311F0C295C07FDD2399F0CC23E8
:100F100009F4A6C180E2810F883010F0111104C0DD
:100F20008C2F0E94D10F03C08C2F0E94E70F0E94CC
:100F3000261096C1812F0E94B106CC2309F4B5C1B9
:100F400080E2810F883038F1112329F18C2F0E9423
:100F5000ED0F24C08C2F807FCF70803211F0C295AE
:100F6000C07F112319F01130A1F13DC08091C90259
:100F700082FF17C0DD2349F0CC2329F08C2F0E947B
:100F8000D10F0E94261080E06CC180E00E94B10663
:100F9000CC2309F48AC18C2F0E94D70F0E942610FF
:100FA00084C1DD2371F0002341F0013031F40E944F
:100FB00007108C2B0E940F1078C10E9407108C2BF9
:100FC0001DC0002319F0013009F46FC10E941C10EC
:100FD00025C0DD2321F0063008F067C10EC00530C2
:100FE00008F063C11BC0DD2361F0002331F0F7017D
:100FF000858180FF35C18F7085838C2F0E943907D2
:1010000054C1002359F0193309F03BC1FFEF27EE1B
:1010100083E0F15020408040E1F731C18C2F0E94E5
:10102000400743C18C2F86958695837019F08130D7
:1010300061F03BC1DD2321F0812F9C2F937002C012
:1010400080E090E00E943F2638C1DD2321F0812F0F
:101050009C2F937002C080E090E00E9455262DC125
:10106000812FDD2319F00E94B51602C00E941017CF
:101070000E94871722C18C2F837009F045C0D111BF
:1010800018C1412F429546954770440F440F612F78
:101090006F70862F90E0A0E0B0E0042E04C0880FAF
:1010A000991FAA1FBB1F0A94D2F714FF10C00FE0AC
:1010B00010E020E030E004C0000F111F221F331F9A
:1010C0004A95D2F7009510952095309503C000E021
:1010D00010E09801C695C695C370BC01CD01602B88
:1010E000712B822B932BC23049F058F4C13019F088
:1010F0000E946A0ADEC00E94580ADBC00E947C0A75
:10110000D8C00E94560AD5C0DD2319F08C2F8170FB
:1011100001C08695882309F4CCC0412F429546959D
:101120004770440F440F612F6F70862F90E0A0E04E
:10113000B0E0042E04C0880F991FAA1FBB1F0A9499
:10114000D2F714FF10C00FE010E020E030E004C040
:10115000000F111F221F331F4A95D2F700951095DB
:101160002095309503C000E010E09801C695C69523
:10117000C370BC01CD01602B712B822B932BC2302D
:1011800049F058F4C13019F00E942F0B92C00E9410
:101190001D0B8FC00E94410B8CC00E94900A89C019
:1011A000CF70DD2339F08C2F0E94B60A812F0E9468
:1011B00039077FC0812F0E9440078C2F0E94D70AD9
:1011C00078C0123F21F128F4103F41F0113FC1F0E7
:1011D00043C0133F19F1143F79F03EC0DD2341F0C5
:1011E000053008F062C08C2F8F710E94FC0A5DC030
:1011F000063008F05AC0F7CF8091C90282FF18C0AC
:10120000DD2339F08C2F8F710E94B60A4EC0DD238A
:10121000C9F38C2F8F710E94D70A47C0DD2329F0B4
:101220008C2F8F710E94A10A40C00E949C0A3DC071
:10123000DD2349F0CF718C2F0E94B60A63E08C2F1A
:101240000E945B1032C081E00E947610023068F18B
:1012500082E00E94761029C0DD2331F0002391F254
:10126000812F0E94070621C0002399F2193349F407
:101270009FEFE7EEF3E09150E040F040E1F700C06F
:101280000000812F0E94B10610C04C2F4F70612FBB
:10129000C7010E9469120E941B0C0FC04C2F4F7097
:1012A000612FC7010E946C1208C088EF8C0D84303A
:1012B00020F40E9408260E94AE05DD20C9F00E949D
:1012C000C30F80FD15C0F70112820E94BD0F0E945E
:1012D000B60AC7010E9499090E94BD0FDF91CF9104
:1012E0001F910F91FF90EF90DF90CF900C94D70A51
:1012F000DF91CF911F910F91FF90EF90DF90CF90F2
:1013000008950F931F93CF93DF93EC016881798148
:101310008A810E94F80B8C010E94530B0E94440AA0
:10132000B801CE010E944707DF91CF911F910F9125
:101330000895CF93DF93EC01988189812B813C81C3
:10134000232B31F08F3F31F481E09F3F19F403C02C
:1013500081E001C080E080FD1DC0CE010E94B60486
:10136000811110C00E94C70F8823A1F08A818823B1
:1013700089F08091C90282FD0DC082E0DF91CF919A
:101380000C947610CE010E948109CE01DF91CF919D
:101390000C947F04DF91CF910895882321F00E945F
:1013A000E70F0C9426100895882321F00E94ED0F7A
:1013B0000C942610089580E090E00E943F2680E083
:1013C00090E00E9455260E94F40F0E9404100E9493
:1013D00026100E94B8180C948717809102019091F2
:1013E00003010E9417270C94DB090E94E10F0C9463
:1013F000ED09E92FE295EF704E2F50E0FA01329798
:10140000EE30F105B0F4EA59FF4F0C94692F803F9C
:1014100091F018F4883E68F40EC0843F51F40BC07C
:10142000883E48F0813F29F406C093FB882780F965
:10143000089580E0089581E00895FC018081918104
:101440000E94ED0B0E94F9090895CF93DF9300D01D
:1014500000D01F92CDB7DEB70F900F900F900F9076
:101460000F90DF91CF910895CF93DF9300D000D0FC
:1014700000D0CDB7DEB726960FB6F894DEBF0FBE0C
:10148000CDBFDF91CF910895089508950C94450A3A
:101490000C94460A0E94480A609303027093040267
:1014A00080930502909306020C94DB090C944A0A7F
:1014B0000F931F93009103021091040220910502E3
:1014C00030910602602B712B822B932B1F910F9171
:1014D0000C944A0A0F931F93009103021091040287
:1014E0002091050230910602602371238223932309
:1014F0001F910F910C944A0A0F931F9300910302BE
:101500001091040220910502309106026027712794
:10151000822793271F910F910C944A0A0C94450A35
:101520000E948E0A6093FF01709300028093010273
:10153000909302020C94DB0960E070E0CB010C9404
:10154000900A0F931F9341E050E060E070E08A0141
:101550009B0104C0000F111F221F331F8A95D2F771
:10156000C901B8011F910F910C94900A0F931F931A
:1015700041E050E060E070E004C0440F551F661F7A
:10158000771F8A95D2F78091FF0190910002A09178
:101590000102B09102028A019B01082B192B2A2B10
:1015A0003B2BC901B8011F910F910C94900A0F9326
:1015B0001F9341E050E060E070E004C0440F551F0D
:1015C000661F771F8A95D2F7409550956095709564
:1015D0008091FF0190910002A0910102B09102025E
:1015E0008A019B01082319232A233B23C901B8013F
:1015F0001F910F910C94900A0F931F9341E050E0BC
:1016000060E070E004C0440F551F661F771F8A9585
:10161000D2F78091FF0190910002A0910102B09158
:1016200002028A019B01082719272A273B27C901A3
:10163000B8011F910F910C94900A0F931F93009182
:10164000FF01109100022091010230910202602BF3
:10165000712B822B932B1F910F910C94900A0F9357
:101660001F930091FF01109100022091010230911F
:10167000020260237123822393231F910F910C9404
:10168000900A0F931F930091FF0110910002209187
:1016900001023091020260277127822793271F9150
:1016A0000F910C94900A08952FE0929F800D1124C1
:1016B000E82FE695E695E695877051E001C0550F55
:1016C0008A95EAF785E0E89FF0011124E353FE4F85
:1016D00020E030E070E04081CB01022E02C0969500
:1016E00087950A94E2F78170819584278523842762
:1016F00081932F5F3F4F2530310569F708952FE023
:10170000929F800D1124682F669566956695982F97
:10171000977085E0689FB001112440E050E080E0C0
:10172000FB01E40FF51FE353FE4F208130E0092E4B
:1017300002C0369527950A94E2F721703327042ECC
:1017400001C0220F0A94EAF7822B4F5F5F4F4530AA
:10175000510531F70895BF92CF92DF92EF92FF9239
:101760000F931F93CF93DF938C01C090FF01D09014
:101770000002E0900102F090020280910302909139
:101780000402A0910502B0910602C82AD92AEA2AC9
:10179000FB2ACFE1D0E0D701C6010C2E04C0B695DC
:1017A000A795979587950A94D2F780FD04C0219755
:1017B00090F7B12C07C0BC2EB8018C2F0E94A41347
:1017C0000197A9F38B2DDF91CF911F910F91FF907E
:1017D000EF90DF90CF90BF900895CF93DF93EC010F
:1017E0000E94AB0BBE010E94A413DF91CF9108951C
:1017F0001F93CF93DF93EB019091CC01992321F0BC
:10180000CB010E94ED0B13C0882349F0CB010E944D
:10181000AB0B182F682FCE010E94540B04C0CB01D4
:101820000E947F0B182FBE01812F0E94A413DF910D
:10183000CF911F910895EF92FF920F931F93CF9333
:10184000DF938C01892B09F46CC0F12CEE24E39416
:10185000E8012196F8018491843740F4843008F03F
:1018600051C0813081F0823019F15BC0853709F4B5
:1018700044C0A8F19CE7980F903708F052C08F77CA
:101880000E94B10641C00E5F1F4FFE01849190E29D
:10189000980F983050F48770FE2D01C0FF0F8A9585
:1018A000EAF78F2F0E94F70F14C00E9407062DC081
:1018B0000E5F1F4FFE01849190E2980F983060F404
:1018C0008770FE2D01C0FF0F8A95EAF78F2F0E94C7
:1018D000FD0F0E94261019C00E94B10616C00E5FAF
:1018E0001F4FFE01C491CC2381F08FE99FE0019747
:1018F000F1F700C00000C150F6CF0E5F1F4FFE0190
:10190000F49003C00E9407068E018F2D882309F4EE
:101910009FCFEFE9FFE03197F1F700C00000815061
:10192000F5CFDF91CF911F910F91FF90EF90089528
:101930001F93CF93DF93C091070216E080910802B6
:10194000C81799F0D0E01C9FF0011D9FF00D1124E5
:10195000E75FFD4F40815181628173818481958170
:101960000E94340A2196C770E9CFDF91CF911F9171
:1019700008954091390250913A0260913B02709172
:101980003C0280913D0290913E020C94340AEF9209
:10199000FF920F931F93CF93DF9380913E02829526
:1019A0008F7009F065C080913B02882309F460C004
:1019B00080910702F09008021091390200913A02DA
:1019C00060913C0270913D0291E01F3F09F090E070
:1019D000C0910001D0910101292F96E0E92E8F15C9
:1019E00009F446C06115710521F00F3F21F030E088
:1019F00003C031E001C0322F90E030FD36C0E89ED8
:101A0000F001E99EF00D1124DF01A75FBD4F119693
:101A10003C911197301329C03C91311326C0129686
:101A20003C911297311121C013964D915C911497FE
:101A3000461B570B4C175D07C0F480913E028F7018
:101A4000806180933E02E25FFD4F80818F708061F4
:101A5000808389E392E00E949909DF91CF911F91E1
:101A60000F91FF90EF900C94980C01968770B7CF70
:101A7000DF91CF911F910F91FF90EF9008959F926A
:101A8000AF92BF92CF92DF92EF92FF920F931F938C
:101A9000CF93DF93CDB7DEB761970FB6F894DEBF73
:101AA0000FBECDBF8C0185E0F801DE011D960190CF
:101AB0000D928A95E1F7D8011296EC909091390237
:101AC000E0913A0220913C0230913D02211531050E
:101AD00031F0EF3F31F481E09F3F19F403C081E022
:101AE00001C080E0B82FB1709B2E80FD47C1D801A6
:101AF0004C9111965C9111971396AD90BC901497F0
:101B000089E3C82E82E0D82EF0903B02B501621B1B
:101B1000730B2091000130910101FF2009F4D9C01D
:101B200080913E026217730708F095C0282F207F2E
:101B300009F052C05E1313C0491311C0FE2CE1100E
:101B40000EC08F70806180933E020E94B90CC60166
:101B50000E94990980913E02F80185834DC1AB280E
:101B600031F05F3F31F481E04F3F19F403C081E071
:101B700001C080E080FD03C081E08E2502C080E0CE
:101B800090E0F82FF170FF2E80FF1CC080910702BB
:101B90002091080236E0821709F40BC190E0389FCB
:101BA000F001399FF00D1124E75FFD4F618156135D
:101BB00006C06081461303C06281E61203C001962D
:101BC0008770E9CFFE2CEE2009F416C180913E0209
:101BD000816080933E0254C05E1306C0491304C066
:101BE000E11002C0F80199C0C8010E941D0A8823B3
:101BF00061F1EE2051F120913E02822F82958F708B
:101C000090E0029774F08091390290913A0298879F
:101C10008F831986BB86AA862C87CE0107960E94E1
:101C2000990986E0F801A9E3B2E001900D928A9546
:101C3000E1F70E94C70C0E94B90C0AC05E1711F1AF
:101C4000C8010E941D0A81112CC0C8010E94990977
:101C5000FF24F394D1C0282F207F81F77A2DB98AF1
:101C6000A88A6E2D89890E94250A89E392E00E9444
:101C7000990986E0D6011D928A95E9F70E94B90C70
:101C8000F12CBAC04913DCCFE110DACFF80185831B
:101C9000C8010E94990986E0D6011D928A95E9F74C
:101CA000ABC0EE2091F220913E02822F82958F7080
:101CB00090E002970CF4B5CF8091390290913A02EE
:101CC0009A8389831B82BD82AC822E83CE010196CA
:101CD000A6CF6217730708F044C0FE2CEE2009F46B
:101CE000B4CF5E1330C049132EC020913E0220FDB8
:101CF00021C0822F82958F70482F50E041155105E9
:101D0000C9F0F80125834F30510541F08F5F982FBE
:101D10009295907F822F8F70892B8583C8010E94B6
:101D2000990986E0F801A9E3B2E001900D928A9545
:101D3000E1F73CC086E0F801A9E3B2E001900D9222
:101D40008A95E1F759C0C8010E941D0A811169CF27
:101D500080913E02816080933E02C8010E949909F1
:101D60004BC07A2DB98AA88A6E2D89890E94250ACE
:101D700086E0D6011D928A95E9F718C0EE2009F495
:101D800064CFC8010E941D0AF82E882309F45DCF94
:101D900086E0F801A9E3B2E001900D928A95E1F79F
:101DA00089E392E00E9401060E94C70C0E94B90CD0
:101DB00023C04D875E878D859E850E94ED0B292F60
:101DC00022952F70223028F49F7039F0811105C0C0
:101DD0000BC0243028F49F7049F4805E883020F0D6
:101DE000C8010E9499099F2CF92C06C0D8011596AC
:101DF0009C91907F91F7F8CF8F2D61960FB6F89454
:101E0000DEBF0FBECDBFDF91CF911F910F91FF902D
:101E1000EF90DF90CF90BF90AF909F9008951F9369
:101E2000CF93DF93CDB7DEB72C970FB6F894DEBF14
:101E30000FBECDBF4F83588769877A878B879C8772
:101E4000CE0107960E943F0D8823D1F09F8188859F
:101E50002A853B85232B31F08F3F31F481E09F3F72
:101E600019F403C081E001C080E080FD47C04F81CC
:101E7000588569857A858B859C850E94340A3EC089
:101E800086E0FE013796DE01119601900D928A954B
:101E9000E1F7FF81E8856A857B856115710531F081
:101EA000EF3F31F481E0FF3F19F403C081E001C04E
:101EB00080E080FD23C02091080230E0C901019636
:101EC000877099274091070250E084179507F1F138
:101ED000F983EA837D836C8396E0929FD001939F80
:101EE000B00D1124A75FBD4FFE01319601900D92F8
:101EF0009A95E1F7809308020E94980C16E0809171
:101F0000070290910802891771F1189FC0011124EE
:101F1000875F9D4F0E943F0D882329F1E0910702C2
:101F20001E9FF0011124E75FFD4F408151816281C6
:101F30007381848195810E94340A8091070290E028
:101F400001968770992780930702D9CF0E94F509DF
:101F50001092080210920702E9E3F2E086E0DF0146
:101F60001D928A95E9F72C960FB6F894DEBF0FBE46
:101F7000CDBFDF91CF911F91089580913F0285954C
:101F800085958595089580913F0287700895909179
:101F90003F02977081E009F480E008958091630228
:101FA000089590916302892B809363020895809530
:101FB0009091630289238093630208958093630262
:101FC000089510926302089580916202089590919D
:101FD0006202892B8093620208958095909162023B
:101FE000892380936202089510926202089590916D
:101FF0006102892B8093610208958095909161021E
:10200000892380936102089510926102089580915E
:102010004002089508950C940A100C940B109091AE
:10202000C90292FD08C090914002981721F0809358
:1020300040020C940D10089580914002882329F0ED
:102040001092400280E00C940D100895E09102017E
:10205000F0910301809163028083E0910201F0918D
:102060000301908180916202892B8083E0910201BB
:10207000F0910301908180916102892B808380918E
:102080004002882381F0E0910201F09103019081E8
:10209000892B808380910201909103010E946B261D
:1020A00081110E941C1080910201909103010C94F7
:1020B00017260C940A109091C90292FD10C098E066
:1020C000899F90011124262B20933F020E94B60A7B
:1020D00080913F028595859585950C9459100C94B7
:1020E000B60A10923F0280E00C94591020913F02F2
:1020F0008095822380933F02982F977099F430E067
:10210000482F082E000C550B2417350759F09091D5
:10211000C90292FD07C08595859585950E94D70ACD
:102120000C94711008959091C90292FB222720F916
:10213000281769F080FB92F99093C9028091C80238
:102140009091C9020E94E11082E00C9476100895EB
:102150008091C90282FB882780F991E089270C943D
:10216000931081E00C94931080E00C9493106FEF27
:102170007FEF80E090E00C94EC2F80E090E00E94F4
:10218000C82F21E0893E9E4F09F020E0822F08955C
:1021900082E090E00C94BA2F83E090E00C94BA2F88
:1021A000CF9384E090E00E94BA2FC82F82E290E0A3
:1021B0000E94BA2F2C2F30E0A901582BCA01CF91D1
:1021C0000895CF93C92F682F84E090E00E94CE2F0E
:1021D0006C2F82E290E0CF910C94CE2FAB01BC012A
:1021E0008FE090E00C94E02FAB01BC0183E190E024
:1021F0000C94E02F60E070E0CB010C94F41060E0F0
:1022000070E0CB010E94EE100C94FA1069EE7EEFA4
:1022100080E090E00E94EC2F60E082E090E00E947D
:10222000CE2F60E083E090E00E94CE2F1092030258
:1022300010920402109205021092060260E084E0FF
:1022400090E00E94CE2F60E082E290E00E94CE2FCC
:1022500060E085E090E00E94CE2F60E086E090E0B4
:102260000E94CE2F6FEF87E090E00E94CE2F40E0DB
:1022700050E0BA0188E090E00E94E02F60E08DE03D
:1022800090E00E94CE2F40E050E0BA0188E190E05B
:102290000E94E02F60E087E190E00E94CE2F40E0B6
:1022A00050E0BA018CE190E00E94E02F60E070E025
:1022B00080E290E00E94EC2F40E050E0BA0188E11B
:1022C00090E00E94E02F0C94FF100C940611682FF0
:1022D0008EE090E00C94CE2F0E94C9276093730289
:1022E00070937402809375029093760260936F02EC
:1022F000709370028093710290937202089585B773
:10230000806885BF85B7806885BF089581E008959E
:102310000C94861108950C948A110C948A110C94D3
:102320008D110C948A110C9491110C948A110E94B5
:102330007F1180E894E10E94FE250E9495110C9483
:1023400093110E948B110C948A110E94B4270E9451
:102350007F150E9402200E94331E0C948F116F92F1
:102360007F928F929F92AF92BF92CF92DF92EF9225
:10237000FF920F931F93CF93DF93CDB7DEB72A97CA
:102380000FB6F894DEBF0FBECDBF0E949415811129
:102390000E946C1135E6832E32E0932E00E010E0AF
:1023A000C02E802F0E94BE145C01F40161907190D8
:1023B0004F016826792661147104B1F40F5F1F4F35
:1023C0000530110569F78FEF89838A831B820E948C
:1023D000BD278160782F9D838C8349815A816B81D1
:1023E0008D810E94B7053AC08091770281FD0E94DD
:1023F000C714D12CEE24E394F12CC3018E219F212C
:10240000892B29F10E9488118823A9F0DE82CF82CE
:10241000AE20BF2081E0AB2809F480E088870E94CD
:10242000BD278160782F9A8789874E815F81688573
:102430008A850E94B705000F111FF801EB59FD4F67
:1024400080819181E826F926F182E08207C0D39449
:10245000EE0CFF1CFFE0DF12D0CFB0CF0E94771E42
:102460000E94C8210E94A5170E940826909164022C
:102470008917D1F00E940826809364022A960FB62D
:10248000F894DEBF0FBECDBFDF91CF911F910F91AA
:10249000FF90EF90DF90CF90BF90AF909F908F9084
:1024A0007F906F900C94AE052A960FB6F894DEBF1D
:1024B0000FBECDBFDF91CF911F910F91FF90EF9095
:1024C000DF90CF90BF90AF909F908F907F906F9054
:1024D000089580E090E0089508952BE4829FC00164
:1024E0001124FC012FE0729FE00DF11D1124E60F75
:1024F000F11DEE0FFF1FE450FF4F85919491089559
:10250000880F991FFC01E257FC4F85919491089523
:10251000CF93DF930E94A913EC01811520E5920768
:1025200008F03FC0811540E4940708F0D2C0883E0F
:10253000910500F5803E910508F002C1883A9105A9
:1025400070F4853A910508F0A6C08130910509F430
:102550009FC008F4F2C0049708F0F2C0EEC08F3BB1
:10256000910508F4A1C0803C910508F4E6C0805CA8
:102570009109A5C0811550E2950760F4C11581E06D
:10258000D80708F0DDC0CD3ED10508F4D6C0CE0195
:102590009065D7C0811520E3920708F093C09F7023
:1025A0008EC0811545E5940708F046C0811554E5B5
:1025B000950708F0A6C0C11582E5D80718F5C11522
:1025C00021E5D20708F088C0CE01F4E09695879502
:1025D000FA95E1F7282F23703C2F337081E090E0CB
:1025E00002C0880F991F3A95E2F79C68922B2C2F16
:1025F0002F702695269540E2249F90011124822B6E
:10260000932B9FC09E01237033279C2F9695969500
:10261000C115D34508F065C041E050E002C0440F49
:10262000551F2A95E2F780E2989F90011124CA0174
:10263000822B932B9C6885C0811559E5950798F4EA
:10264000C11588E5D80708F061C0C11526E5D20795
:1026500008F073C08C2F0E943D148F7190E0982F6A
:10266000882790626EC081154AE5940708F453C02C
:1026700090568115904208F060C08D2F8F710E9496
:102680003D149E01332730628F71A901582B53C02E
:1026900081E090E056C0855AC82FD0E0C557DE4F84
:1026A000888190E090644DC0885AC82FD0E0CC0F4C
:1026B000DD1FC35ADE4F88819981946442C00E9415
:1026C00080123FC09927D3FF02C0986C3AC0906C2B
:1026D00038C09F70906A35C09C2F8827816F906AA0
:1026E00030C041E050E002C0440F551F2A95E2F788
:1026F00080E2989F90011124CA01822B932B9A6843
:1027000020C0982F8827846F906A1BC09C2F882731
:10271000806F906A16C08F700E943D149E0194E0F5
:10272000369527959A95E1F72F7030E0322F2227C2
:102730003069A901482BCA0104C080E090E001C0C3
:10274000CE01DF91CF9108950E946D120E948812F0
:1027500008958238910569F1B0F48133910509F447
:102760006DC048F48932910509F463C08A3291053D
:1027700009F469C008958533910509F455C089337A
:102780009105B9F00895833E910569F138F4803ED2
:102790009105B1F0823E910509F10895863E9105BB
:1027A000A9F1873E9105B9F1843E910509F064C015
:1027B00023C02091C80220FD4FC021FD4DC00895C7
:1027C0008091C80280FD44C08091C90280FF44C04E
:1027D0008091C80284FD42C083EE4DC08091C80242
:1027E00082FF38C0F5CF8091C80282FD33C080914E
:1027F000C90280FD31C0ECCF8091C90281FF32C097
:102800008091C80284FD2AC087EE35C08091C8023D
:1028100083FF26C0F5CF8091C80283FD21C080913F
:10282000C90281FD1FC0ECCF8091C80285FD1CC08C
:102830001DC08091C80285FD19C016C08091C802D4
:1028400086FD16C017C08091C80286FD13C010C057
:1028500089E311C082EE0FC080EE0DC080E00BC096
:1028600086EE09C084EE07C089E205C085E303C097
:102870008AE201C081E390E008959091C80292FF3E
:102880000DC0282F2871283019F4877F846006C076
:10289000282F2471243011F48B7F886093FF0DC0A2
:1028A000282F2871283119F4877E846106C0282FCB
:1028B0002471243111F48B7E88612091C90220FF9C
:1028C0000DC0382F3871383019F4877F816006C009
:1028D000382F3171313011F48E7F886021FF0DC0A7
:1028E000282F2871283119F4877E816106C0282F8E
:1028F0002171213111F48E7E886194FD877E0895C7
:1029000080E008950C94B7100E9494158FE39CE921
:102910000197F1F700C000000E94941580E00E942A
:10292000BE1480FF04C00E9482140C940A280895EB
:102930000C9484140E94BD10811102C00E94651184
:102940000E94C810809377020E94D0109093C90211
:102950008093C8020E9498140E94CC10682F70E0E7
:1029600080E090E00E94560A6091FF0170910002A1
:1029700080910102909102020C948E0AE82FF0E0FF
:10298000EE0FFF1FEC52FD4F808191810895089555
:1029900080EA8A95F1F7089500C008950C94C81450
:1029A00008950C94D0140C94D1140C94D0140C945D
:1029B000D514F894E82FE295EF70F0E031A1282FBC
:1029C0002F7081E090E001C0880F2A95EAF7982FD8
:1029D0009095932391A392A1892B82A37894089533
:1029E0000F931F93CF93DF93CDE9D1E089918F3F70
:1029F00011F00E94D91481E0C23AD807B9F7CEE8A5
:102A0000D1E00DE911E089918F3F11F00E94D914B6
:102A10000C171D07C1F7DF91CF911F910F910895FA
:102A2000BF92CF92DF92EF92FF920F931F93CF93BB
:102A3000DF938C01C62FD0E0CE0183569E4F6C01F0
:102A4000FC0190819F3F09F450C0B62EF894E92F05
:102A5000E295EF70F0E081A19F7021E030E001C0CD
:102A6000220F9A95EAF7822B81A382A12095282331
:102A700022A378940E94CC14EEE8F1E04DE951E0F5
:102A800021E030E0E12CF12C61916F3F89F0A62F1D
:102A9000A295AF70B0E090968C9190E06F7002C0FC
:102AA000959587956A95E2F780FD02C0C90102C03D
:102AB00080E090E0E82AF92A220F331F4E175F07C3
:102AC00019F7F60180818F3F11F00E94D91461E05F
:102AD000E114F10409F460E08B2D0E94CE14CC0FB8
:102AE000DD1FC00FD11FF982E882DF91CF911F91C6
:102AF0000F91FF90EF90DF90CF90BF9008950E94CC
:102B0000F0148AE0E4EDF2E0DF01982F1D929A952F
:102B1000E9F7EAECF2E0DF011D928A95E9F785E03A
:102B20000E94DF150C948A04FF920F931F93CF939A
:102B3000DF93CDB7DEB72A970FB6F894DEBF0FBE8E
:102B4000CDBF8E010F5F1F4F8AE0F80111928A9569
:102B5000E9F7F12C6F2DC8010E941015F394F5E0F0
:102B6000FF12F8CF4AE050E0B8018AEC92E00E94F0
:102B7000AD2FFF24F394009709F4F12C892B41F039
:102B80008AE0F801AAECB2E001900D928A95E1F793
:102B90002F2D45E064ED72E08AEC92E00E94E01592
:102BA0000E9494048F2D2A960FB6F894DEBF0FBEB4
:102BB000CDBFDF91CF911F910F91FF9008950895A0
:102BC000FF920F931F93CF93DF93F82E092F162FA9
:102BD000D72FC42F222349F081E080937A020E94EC
:102BE000BD27909379028093780280917A0288239E
:102BF000D9F080917802909179020E94D5270597AB
:102C000098F0EF2DF02FA12FBD2F80E090E04C2FFA
:102C100050E08417950734F4219131912D933D9321
:102C20000196F7CF10927A02DF91CF911F910F9109
:102C3000FF9008950E94D5290E94A5110C94E129C6
:102C40000E94E5290E94AF110C94FF290E9443279E
:102C50000E94BC290E9497110E941A160E942016F9
:102C60000E94A111FBCF8091810280FF0BC0609177
:102C7000090185E0689FB0011124759567957595E8
:102C800067952BC081FF09C06091090185E0689FAD
:102C9000B00111247595679520C082FF07C060912F
:102CA000090185E0689FB001112417C0909180024E
:102CB0009923D1F060910801961788F720910901B6
:102CC00085E0289F90011124929FA001939F500DB1
:102CD000112470E0CA010E94332F6038710540F45E
:102CE0006115710519F406C065E070E0862F08953E
:102CF0008FE7089581E008958091810280FF08C0E8
:102D00006091050170E0759567957595679521C08F
:102D100081FF06C06091050170E07595679519C047
:102D200082FF04C06091050170E010C090917F02A5
:102D3000992399F0609104019617A0F780910501FD
:102D4000899FC001112470E00E94332F6038710503
:102D500040F46115710519F406C061E070E0862F3A
:102D600008958FE7089581E008958D3E21F40E9433
:102D70003316819504C08E3E29F40E943316809349
:102D8000850208958F3E21F40E943316819504C078
:102D9000803F29F40E943316809384020895893F6E
:102DA00019F40E947C1605C08A3F31F40E947C16FB
:102DB00081958093860208958B3F21F40E947C16B2
:102DC000819504C08C3F29F40E947C168093870271
:102DD00008959FE0980F983078F421E030E0A90141
:102DE00002C0440F551F9A95E2F7CA0190918302E1
:102DF000892B8093830208958D3F21F48091810275
:102E000081600BC08E3F21F480918102826005C0F9
:102E10008F3F29F48091810284608093810208951C
:102E20008D3E39F49091850297FF35C0109285024E
:102E300059C08E3E29F4909185021916BCF32BC01F
:102E4000909184028F3E29F497FF25C0109284024E
:102E500049C0803F19F41916CCF31DC09091860229
:102E6000893F29F41916BCF4109286023BC08A3FB0
:102E700019F497FF10C0F8CF8B3F39F49091870277
:102E800097FF09C0109287022DC08C3F21F49091CA
:102E900087021916BCF39FE0980F983080F421E068
:102EA00030E0A90102C0440F551F9A95E2F7CA010C
:102EB00080959091830289238093830213C08D3F74
:102EC00021F4809181028E7F0BC08E3F21F480918E
:102ED00081028D7F05C08F3F29F4809181028B7F15
:102EE0008093810280918402811106C080918502C5
:102EF000811102C01092800280918602811106C069
:102F000080918702811102C010927F0208950E9471
:102F1000BD2720918402211104C020918502222323
:102F200021F090937E0280937D02209186022111F0
:102F300004C020918702222321F090937C02809389
:102F40007B0282E892E00C943126EF92FF920F937D
:102F50001F93CF93DF9300D000D000D0CDB7DEB762
:102F600086E0E2E8F2E0DE01119601900D928A958A
:102F7000E1F7E0908402F0908502009186021091C2
:102F8000870210928402109285021092860210929B
:102F90008702E11003C0FF2009F45DC080917D022B
:102FA00090917E020E94D527AC01909180029923D6
:102FB00039F020910A0130E02417350758F04BC052
:102FC00020910B018AE0289F9001112424173507D6
:102FD00018F041C09F3F19F09F5F90938002EE2050
:102FE00061F00E9433161E1414F09FEF01C091E0AF
:102FF000989F902D112490938402FF2061F00E94ED
:1030000033161F1414F09FEF01C091E0989F902D8C
:10301000112490938502309184023323E1F02091B2
:1030200085022223C1F045EB3403C001112499230A
:1030300019F09093840203C081E08093840235EB01
:103040002303C0011124992319F09093850203C032
:1030500081E080938502011103C0112309F45DC052
:1030600080917B0290917C020E94D527AC019091C7
:103070007F02992339F02091060130E024173507AB
:1030800058F04BC0209107018AE0289F900111243D
:103090002417350718F041C09F3F19F09F5F9093A8
:1030A0007F02002361F00E947C16101614F09FEF3F
:1030B00001C091E0989F902D1124909386021123D6
:1030C00061F00E947C16111614F09FEF01C091E090
:1030D000989F902D1124909387023091860233237C
:1030E000E1F0209187022223C1F045EB3403C001B7
:1030F0001124992319F09093860203C081E08093F4
:10310000860235EB2303C0011124992319F0909313
:10311000870203C081E0809387028091840281113D
:103120000BC080918502811107C0809186028111B8
:1031300003C08091870281110E948717EB82FC8275
:103140000D831E8386E0FE013196A2E8B2E0019075
:103150000D928A95E1F726960FB6F894DEBF0FBE62
:10316000CDBFDF91CF911F910F91FF90EF90089508
:10317000E2E8F2E086E0DF011D928A95E9F710921D
:10318000800210927F02109281020895EF92FF92C6
:103190000F931F93CF93DF938B01682F11110AC0F8
:1031A000442329F0E82FF0E0EB55FB4F6491762F94
:1031B000862F75C0212F30E0E82FF0E0442321F066
:1031C000EB55FB4FE491F0E046E0049FC001112471
:1031D000CFEFD0E0BE010E941F2F4BEA4603C00193
:1031E000479F900D1124800F911D800F911D982FE6
:1031F000990F890FAE01421B530B4E9FD0014F9F79
:10320000B00D5E9FB00D11249B2F189FA0011124BB
:10321000452F55278E01041B150B0E9FA0010F9FF4
:10322000500D1E9F500D11247E01E81AF108E29EF8
:103230008001E39E100DF29E100D1124212F3327E3
:10324000C21BD30BCE9F9001CF9F300DDE9F300D60
:10325000112462307105A9F048F46115710569F017
:1032600061307105C9F48B2F752F0DC06430710565
:1032700081F058F06630710579F47E2F8B2F932FF3
:103280000DC0832F7B2F9E2F09C08E2F7B2F952F54
:1032900005C08E2F732F02C07E2F852F692FDF91DF
:1032A000CF911F910F91FF90EF90089541E00E9400
:1032B000C618089508950E9456190895CF93DF9374
:1032C000762FE901682F842F0E945B197983688328
:1032D0008A83DF91CF9108958091DE02282F269571
:1032E00030E02115310519F48170826005C0253266
:1032F000310524F0817088648093DE02089588E0AF
:1033000090E00C94C22FCF92DF92EF92FF926B016C
:103310007C010E946C19B701A60188E090E0FF9043
:10332000EF90DF90CF900C94E02FEEEDF2E083E091
:10333000808311828FEF8283838314826081718105
:10334000828193810C9483198091DE0280FF02C0F8
:103350008695089580E008959091E202933018F4E4
:103360009F5F9093E202882351F06091DE0270919A
:10337000DF028091E0029091E1020C94831908959C
:1033800081E00C94AC199091E202992319F09150CC
:103390009093E202882351F06091DE027091DF0287
:1033A0008091E0029091E1020C948319089581E0EC
:1033B0000C94C31970E00C94D92160911001809194
:1033C000DE0280FF0AC080910F0123E0829FC001CE
:1033D00011248D519D4F0C94DA1980911101909117
:1033E0001201891780F7E82FF0E09F01220F331FA9
:1033F000E20FF31FED51FD4F1182108212828F5F99
:10340000F0CF9091DE0290FF16C0909111012091B3
:103410001201921770F4E92FF0E0DF01AA0FBB1F31
:10342000EA0FFB1FED51FD4F8183608342839F5F55
:10343000F0CF0C94DD190895CF93DF9300D01F9245
:10344000CDB7DEB79091DE0290FF0AC09E012F5FDC
:103450003F4F0E945E194B8169818A810E94011A47
:103460000F900F900F90DF91CF910895CF93DF933E
:10347000EC01EC81F0E0E056FC4F4491EEEDF2E01F
:10348000628181810E941C1A8C818F5F8C83DF9105
:10349000CF910895CF93DF93EC01EEEDF2E04381FD
:1034A00062818C810E941C1A8C818F5F8C83DF91DA
:1034B000CF9108950F931F93CF93DF9300D01F9266
:1034C000CDB7DEB78C018091880281110AC09E01C0
:1034D0002F5F3F4F4FEF6FEF0E945E198A818093FD
:1034E0008802F8018481813051F028F0823061F443
:1034F000409188020AC08091880240E007C0609134
:10350000880240E080E003C040E080E060E00E948C
:10351000011AF801848190E0019663E070E00E9456
:10352000332F84830F900F900F90DF91CF911F91D5
:103530000F910895AF92BF92CF92DF92EF92FF92D8
:103540000F931F93CF93DF9300D01F92CDB7DEB7B9
:10355000182FF62E042FE22E9091DE0290FF6DC000
:10356000E92FE695AE2FB0E0AE55BE4F8C9180931B
:1035700094029E7F923061F49E012F5F3F4F812F16
:103580000E945E194B8169818A810E94011A43C0A1
:10359000823019F40091E1023EC0863019F4109196
:1035A000DF0239C08930D9F38931A9F5E9518E2F6D
:1035B0008170D82EE695F0E0E056FB4FA590B490D0
:1035C000C12CBB2460911301C61618F52C2D30E0D8
:1035D000A29EC001A39E900DB29E900D112470E09A
:1035E0000E941F2F812FD11002C0860F01C0861BA1
:1035F00090911101290F311DA901440F551F240F6E
:10360000351F2D513D4F402F6F2D0E945E19C394E1
:10361000D9CF0E94DD191093DF02F092E0020093EF
:10362000E102EE2051F06091DE027091DF028091A4
:10363000E0029091E1020E9483190F900F900F9089
:10364000DF91CF911F910F91FF90EF90DF90CF907E
:10365000BF90AF900895EEEDF2E09181282F438165
:10366000628188E0890F0C949A1A81E00C942B1BDC
:10367000EEEDF2E09181282F4381628188EF890F7E
:103680000C949A1A81E00C94381BEEEDF2E0628102
:1036900028E0620F08F46FEF282F438181810C949A
:1036A0009A1A81E00C94451BEEEDF2E0628128E06D
:1036B000621B08F460E0282F438181810C949A1AE0
:1036C00081E00C94541BEEEDF2E0438128E0420FC0
:1036D00008F44FEF282F628181810C949A1A81E0BF
:1036E0000C94631BEEEDF2E0438128E0421B08F4EA
:1036F00040E0282F628181810C949A1A81E00C9419
:10370000721B20E00C949A1AFF920F931F93CF9391
:10371000DF93EC01F12C0FEF10E060911301F6162E
:10372000F0F4809111012F2D30E0280F311DC901D7
:10373000880F991F280F391F2D513D4F70E0C80188
:103740000E94332F962F8C814091E1026091E0021C
:10375000F99E800D11240E945E19F394DECF0E9421
:10376000DD199A818C8190FF02C08F5F01C081506A
:103770008C83DF91CF911F910F91FF900895BF929D
:10378000CF92DF92EF92FF920F931F93CF93DF932D
:10379000FC01828180FF02C00FEF01C001E010E058
:1037A00080911301181708F040C080911101C12EBB
:1037B000D12CE601C80FD11DCE01880F991FC80F6B
:1037C000D91FCD51DD4F198218821A8234E0E32EC1
:1037D000F12CB12C80918A028B0D813114F08F7005
:1037E00005C087FF03C090911301890F082E000CBC
:1037F000990BC816D90691F48091E1028E9DA00123
:103800008F9D500D112455954795559547959E01CF
:103810006091E0028091DF020E945E19B00EF1E03B
:10382000EF1AF108B9F61F5FBBCF0E94DD19809136
:103830008A02013031F4811102C08091130181505C
:1038400007C090E001966091130170E00E94332F51
:1038500080938A02DF91CF911F910F91FF90EF909B
:10386000DF90CF90BF900895CF93809111019091F8
:103870001201891770F4E82FF0E09F01220F331F27
:10388000E20FF31FED51FD4F1182108212828F5F04
:10389000F0CFC0E060911301C617C0F5EC2FF0E047
:1038A00070E0CF010E94332F20911101820F2091EF
:1038B0008902022E000C330B90E0E217F307CCF0E4
:1038C00020910E01022E000C330B2E173F078CF0B7
:1038D0009C01220F331F820F931F9C012D513D4FDE
:1038E0004091E1026091E0028091DF020E945E1946
:1038F0000BC0FC01EE0FFF1F8E0F9F1FFC01ED514F
:10390000FD4F118210821282CF5FC4CF0E94DD1959
:1039100020910D0180918902820F809389029091FC
:103920000E01920F90930E0119165CF4082E000CF4
:10393000990B4091130150E04150510984179507AC
:103940001CF0219520930D01CF9108958F929F92A5
:10395000AF92BF92CF92DF92EF92FF920F931F939D
:10396000CF93DF938C01FC014481C42FD0E09E01F2
:10397000DE010E94772F9B01AC010E948D2F6B010D
:103980007C01E0E2F0E0EC1BFD0BA5E5B0E09B0163
:10399000AC010E948D2F4B015C019F01DF010E9451
:1039A0006F2F9B01AC010E94982F9B01AC012C0D45
:1039B0003D1D4E1D5F1DC501B4010E94472FC22F42
:1039C000D22F2A3228F4F3E02F9F900111240DC04A
:1039D00025E530E02C1B3109C901880F991F280FFC
:1039E000391F37FF02C02F5F3F4F35952795C22FF4
:1039F000C095F12C85E5E82EED1A80911301F8169B
:103A0000C8F4F1FC02C08E2D01C08D2F90911101E0
:103A10002F2D30E0290F311DA901440F551F240F10
:103A2000351F2D513D4F4C2F6091E0020E945E19D1
:103A3000F394E3CF0E94DD19F8018481811102C063
:103A400091E003C0803219F49FEF90930C019091A4
:103A50000C01890FF8018483DF91CF911F910F91A1
:103A6000FF90EF90DF90CF90BF90AF909F908F909E
:103A700008950F931F93CF93DF93EC0100E010E0C4
:103A800080911301282F30E00217130724F590913D
:103A900011019801290F311DA901440F551F240F51
:103AA000351F2D513D4F869590E04C810817190721
:103AB0001CF4442331F002C0411103C04091E102E3
:103AC00001C040E06091E0028091DF020E945E1937
:103AD0000F5F1F4FD5CF0E94DD198C8190E00196BA
:103AE000817099278C83DF91CF911F910F91089559
:103AF000EEEDF2E080818E7F808360817181828132
:103B000093810E948319109295022FEF80E792E033
:103B1000215080409040E1F700C000000C94DD1976
:103B2000EEEDF2E080818E7F8083109295022FEF80
:103B300080E792E0215080409040E1F700C0000013
:103B40000C94DD19109295028091920281110AC0A5
:103B500081E0809392028091DE02817080939102D5
:103B60000C94901D08956091DE02669570E04BE024
:103B700050E084E191E00E94A02F892B19F481E0AC
:103B8000809395020E94BD2790938C0280938B02B4
:103B900008959091DE0290FF35C09170811102C0AE
:103BA000926006C0853210F0986402C0880F982B8E
:103BB0009093DE02662351F06091DE027091DF0285
:103BC0008091E0029091E1020E9483196091DE02EF
:103BD000669570E04BE050E084E191E00E94A02FF8
:103BE000892B19F01092950202C00E94B31D81E04A
:103BF00080938E024091E1026091E0028091DF02A9
:103C00000C94811B0895682F9091DE02969581E0B7
:103C1000890F853208F081E00C94C91D81E00C9475
:103C2000031E682F9091DE0296958FEF890F09F49D
:103C300084E20C94C91D81E00C94111E61E00C9487
:103C4000C91DEEEDF2E080818160808386950C9441
:103C50001E1E8091DE0280FD0C94781D0C94211EA6
:103C600060E00C94C91D8091930281112EC00E94C6
:103C7000BD10811104C00E9465110E9495190E9417
:103C80007F196093DE027093DF028093E0029093CD
:103C9000E1026E7F61F40E9495190E947F19609382
:103CA000DE027093DF028093E0029093E1020E94B3
:103CB0006C19109295028091DE0280FF03C08695F8
:103CC0000E94301E81E0809393020895EEEDF2E0B1
:103CD00080818160808386950C94301E10929202C0
:103CE0008091910281110E94661E0C94B31D0F9366
:103CF0001F93CF93DF9380919502882309F485C0A9
:103D000080919402E091DE02E695E81BE0938D023B
:103D1000823049F4F0E0E456FC4FE491CE2FD0E03D
:103D200006E31AE149C0863049F4F0E0E756FC4F5B
:103D3000E491CE2FD0E00AE41AE13EC0893051F47C
:103D4000E695F0E0EA56FC4FE491CE2FD0E004E88F
:103D50001BE132C08F3051F4E695F0E0ED56FC4F98
:103D6000E491CE2FD0E00FEB1BE126C0853149F462
:103D7000F0E0E057FC4FE491CE2FD0E004E31CE1EB
:103D80001BC0883181F0833239F4EEE8F3E0C5914D
:103D9000D4910AE51AE110C0843251F4C4EFD1E0A5
:103DA00009E31DE109C0C8E2D0E006EA1CE104C055
:103DB000C0EDD7E00AE519E180918E02882361F019
:103DC00010928E020E94BD2790938C0280938B02EA
:103DD0001092900210928F020E94BD27E0918B02F8
:103DE000F0918C028E1B9F0B8F3F9F4770F4EC0F5E
:103DF000FD1FF0938C02E0938B028BE892E0F801B8
:103E0000DF91CF911F910F910994DF91CF911F9175
:103E10000F910895882311F0FA0101C0FB01099464
:103E2000CF93DF93C82FD62F0E94A4198C1740F090
:103E30000E94A4198D1720F4DF91CF910C940E1ECF
:103E40008C2FDF91CF910C941E1E1F93CF93DF9385
:103E5000FB011281112309F4BCC0EC010E94CE0FBA
:103E60008272CD3CFCE5DF0709F497C008F043C03F
:103E7000C73CECE5DE0709F47CC0D8F4C43C9CE503
:103E8000D90709F46AC038F4C33CDC4509F0A4C082
:103E90000E94291EA0C0C53C9CE5D90709F462C058
:103EA000C63CDC4509F098C042E45BE165E37BE198
:103EB0005DC0CA3CFCE5DF0709F465C070F4C83C8E
:103EC000ECE5DE0709F45AC0C93CDC4509F084C0C2
:103ED00041E55BE160E67BE149C0CB3C9CE5D9076D
:103EE00009F456C0CC3CDC4509F076C047ED59E1F9
:103EF00060EC79E13BC0C23DFCE5DF0709F45AC044
:103F000098F4CF3C9CE5D90709F44EC008F44AC0A8
:103F1000C03DFCE5DF0709F44AC0C13DDC4509F0BE
:103F20005BC06EE089E04EC0C53D9CE5D90709F451
:103F300047C050F4C33DFCE5DF07F9F1C43DDC4563
:103F400009F04AC088E142C0C63D9CE5D907E9F1C5
:103F5000CE35DD4509F43FC03FC04BE15EE16EE088
:103F60007EE104C04EE05EE16BE17EE10E940A1F4B
:103F700032C045E35BE162E47BE1F8CF40E65BE120
:103F800061E57BE1F3CF4EE75BE16FE67BE1EECFEE
:103F90004FE65BE16EE77BE1E9CF40EC59E167ED8D
:103FA00079E1E4CF81E012C065E082E00BC068E017
:103FB00086E008C064E18FE005C067E185E102C0EA
:103FC00062E289E10E94101F06C083E20E941E1E69
:103FD00002C011E001C010E0812FDF91CF911F914D
:103FE000089586E090E00C94BA2F682F86E090E068
:103FF0000C94CE2F809113038470896280931303F5
:104000000C94F51F0E94BD10811104C00E9465111F
:104010000E94FA1F0E94F11F80931303282F2695F8
:104020002695269530E02630310524F08770886289
:10403000809313038091130380FF04C086958695B7
:10404000869501C080E00C94132120911303822FE8
:10405000869586958695482F50E04530510554F455
:104060008F5F982F990F990F990F822F8770892B47
:1040700080931303809113038160809313030E9444
:10408000F51F809113038695869586950C941321D0
:1040900080911303982F969596959695A1F0915E31
:1040A000990F990F990F8770892B80931303887F3D
:1040B00091E009F490E08091130390FB80F98093E4
:1040C00013030E94F51F80911303869586958695AC
:1040D0000C9413218091130380FD13C081608093A1
:1040E0001303813019F489E0809313038091130343
:1040F0000E94F51F809113038695869586950C94F2
:10410000132108958091130380FF08C08E7F809350
:1041100013030E94F51F80E00C94132108958091F1
:10412000130380FD0C9482200C946A209091130359
:10413000892F8695869586958F5F8F7197708630CB
:1041400038F4880F880F880F892B8093130302C0DF
:104150009093130380911303887F91E009F490E01A
:104160008091130390FB80F9809313030E94F51F45
:10417000809113038695869586950C94132186303D
:1041800008F085E0909113039770282F220F220FDB
:10419000220F922B90931303987F21E009F420E0E3
:1041A0009091130320FB90F9909313030C94132127
:1041B0000E94BF20809113030C94F51F9C01FB010A
:1041C0008281882349F12E3BFCE53F07C9F040F48A
:1041D0002C3BECE53E0769F02D3B3C4561F0089532
:1041E000203C9CE5390791F070F0213C3C4589F07A
:1041F000089585E001C080E00E94D82080E0089505
:104200000E944820FBCF0E942520F8CF0E948F20DB
:10421000F5CF0E949620F2CF81E00895269A2E983D
:1042200008952E9808958F929F92AF92BF92CF9249
:10423000DF92EF92FF920F931F93CF93DF93C82FDC
:10424000863050F4811109C0809180008F7D809369
:1042500080000E94112106C0C5E08091800080622C
:1042600080938000A0918600B09187002C2F30E0D1
:104270000E94772F25E030E040E050E00E94472F79
:104280000027122F232F342F012F122F232F3327F4
:1042900080918600909187006CE070E00E941F2F53
:1042A0006017710730F0C80169E070E00E941F2FAD
:1042B0005EC08091860090918700E0908600F0902B
:1042C0008700E0918600F0918700C6E0D0E0BE0153
:1042D0000E941F2F060F171F211D311D4801590174
:1042E00085E0880C991CAA1CBB1C8A95D1F7C701D4
:1042F000BE010E941F2F6F01E12CF12CA701960136
:10430000260F371F411D511DC501B4010E94472FC3
:1043100069017A01E0918600F0918700CA01B90134
:104320000E940F2F9B01AC01DF010E948D2F9B018A
:10433000AC01C701B6010E940F2FDC01CB012FE0B9
:10434000B695A795979587952A95D1F70091860000
:104350001091870020E030E0081719072A073B0773
:1043600028F46091860070918700CB01BC017093A6
:104370008B0060938A00DF91CF911F910F91FF9086
:10438000EF90DF90CF90BF90AF909F908F90089567
:1043900008950E940E2182E28093800089E180933B
:1043A00081008FEF9FEF90938700809386000C949D
:1043B00002206A9A2EB12B7F3EB134604FB7F89439
:1043C000FC01CB01880F991F680F791F6E0F7F1FAB
:1043D000E617F70789F0819198E03EB9000000C028
:1043E00087FF2EB9880F000000C000C000C02EB9A2
:1043F00000C09A9591F7ECCF4FBF8FE594E00197FD
:10440000F1F700C0000008950F931F93CF93DF933F
:10441000811520EC920700F1EC01D05C0E94CE0FD8
:10442000182F0E94E40F012F082B0E940710182F4D
:104430000E941426102B127291E009F490E08695E8
:104440008170981729F0CC0FCD2FCC1FDD0BD195A3
:10445000CE018F77992701C09058DF91CF911F919E
:104460000F91089597FF13C0FB012281222379F059
:104470000E940422880F991F880F991FFC01E254A3
:10448000FD4F65917591859194910E944F2381E034
:10449000089590911503923069F48A3040F490E0C9
:1044A00009966AE070E00E94332F875A01C0865057
:1044B0000C9430070C948F058CE090E00E94BA2F8A
:1044C00090E0A0E0B0E08093150390931603A093D2
:1044D0001703B0931803843029F0813029F082301B
:1044E00039F403C080E001C081E080939602089512
:1044F0001092960284E0809315030895609115034D
:104500008CE090E00C94CE2F20919602082E000CA7
:10451000990B820F911D27FD9A9563E070E00E9430
:10452000332F87FD8D5F80939602E09196020E2EC9
:10453000000CFF0BE953FE4F8081809315030C9410
:104540007E220E9414268695817080931A030E9411
:10455000142681708093140380911503813039F4FF
:1045600080911A03882319F089E30E9430070E9482
:10457000CE0F809319030E94E10F809115038130C3
:1045800071F048F0823081F0843009F586EE0E94A7
:10459000300788E11AC082EE0E94070618C088E141
:1045A00093E00E942E0413C080911403811103C074
:1045B00083E50E94300782EE0E9407068FE39CE9A4
:1045C0000197F1F700C0000087E50E9430078FE3F4
:1045D0009CE90197F1F700C0000008958091150350
:1045E000813059F030F0823089F08430C9F488E2AB
:1045F00015C082EE0E94B10613C08CE20E94300703
:1046000080911A03882361F089E308C082EE0E943A
:10461000B10680911403811103C083E50E94300725
:10462000809119030C94DE0FBF92CF92DF92EF922C
:10463000FF920F931F93CF93DF936B017C01C7E031
:10464000D0E00CE110E0BB24B394D701C601002EEA
:1046500004C0B695A795979587950A94D2F78F7061
:1046600029F4B11006C00E94492203C00E944922C9
:10467000B12C219704501109CF3F8FEFD80729F0B3
:10468000C430D10514F7B12CE0CFDF91CF911F9149
:104690000F91FF90EF90DF90CF90BF900895CF9251
:1046A000DF92EF92FF926115710521E1820791057A
:1046B00008F043C06115710521E08207910520F0E3
:1046C000209115032230C9F16B017C010E94A122C7
:1046D000C114D10481E0E806F10428F180911503AA
:1046E000811121C021E0E21AF108D701C601882713
:1046F0009C7FAF70BB272AE0B695A79597958795C5
:104700002A95D1F7BC01CD0178528F4F9F4F0E945F
:10471000142383E0D822EE24FF24C701B60174528B
:104720008F4F9F4F02C0C701B6010E941423FF9014
:10473000EF90DF90CF900C94EE22FF90EF90DF90FF
:10474000CF9008950F931F93CF93DF93EC018B01CC
:10475000FB018281882311F10E94CE0F8272C13E3B
:10476000FCE5DF07A1F028F4C03EECE5DE0761F0D0
:1047700015C0C73EFCE5DF0788F48C2F825E80936E
:1047800015030E947E220AC0882329F002C08111ED
:1047900002C08FEF01C081E00E948422B801CE01E7
:1047A000DF91CF911F910F910C943222CF93DF9321
:1047B000EC01FB018281882309F426C1C430FDE5A8
:1047C000DF0760F4CB3F9CE5D90768F49E012250D7
:1047D0003C452431310508F018C105C0C236EDE56D
:1047E000DE0709F012C10E94D0109093C902809395
:1047F000C802C031FCE5DF0709F4CAC008F041C0B7
:10480000C8309CE5D90709F4A4C0F0F4C430FCE535
:10481000DF0709F48CC068F4C2309CE5D90709F4BD
:1048200082C0C330DC4509F0E5C08091C8028260D7
:10483000DFC0C630FCE5DF0709F483C008F085C09F
:104840008091C8028860D4C0CC309CE5D90709F4B7
:1048500090C068F4CA30FCE5DF0709F47EC008F0B8
:1048600084C00E94F5098091C8028068C1C0CE3022
:104870009CE5D90709F481C008F086C08091C80280
:1048800094C0CD3FFCE5DF0709F47BC038F5C431A7
:104890009CE5D90709F49AC058F4C231FCE5DF075A
:1048A00009F47AC008F07EC08091C8028F7BA0C056
:1048B000CB3F9CE5D907F1F108F03FC0C531DC459D
:1048C00009F098C08091C80282FB222720F991E06C
:1048D000922790FB82F990FB83F98AC0C1308DE565
:1048E000D80709F467C050F48091C902CF3FECE5C6
:1048F000DE07C1F108F05BC08D7F65C0C3308DE578
:10490000D80709F471C008F46DC0C236DD4509F05E
:1049100071C08091C80284FB222720F991E0922780
:1049200090FB84F965C08091C802816061C080916C
:10493000C80216C08091C90216C08091C902826067
:1049400042C08091C802806153C08091C8028062D9
:104950004FC08091C80280644BC08091C8028860BB
:10496000846046C0826081602EC08091C8028E7FC4
:104970003FC08091C8028D7F3BC08091C802877F75
:1049800037C08091C90214C08091C8028F7E30C0A8
:104990008091C8028F7D2CC00E94F5098091C802C9
:1049A0008F7726C08091C802877F8B7F21C08D7F43
:1049B0008E7F09C08091C902982F909591708E7F4B
:1049C000892B90FB81F98093C90214C00E94F509DC
:1049D0008091C80287FB222720F991E0922790FB63
:1049E00087F906C081E001C080E00E94671102C023
:1049F0008093C8028091C8029091C9020E94E11080
:104A00000E94F50980E001C081E0DF91CF91089517
:104A1000CF93DF9386319C4541F5EB010E94CE0F89
:104A2000982F8A812091020130910301882379F027
:104A30009A7A81E009F480E080939702911102C094
:104A400069E201C065E3C9010E9401270AC08091A3
:104A50009702811102C069E201C065E3C9010E94A9
:104A60000C270E94261080E001C081E0DF91CF91E9
:104A700008950F931F93CF93DF93C42FD22FFC0180
:104A800082818823C9F040939A020E94BD279093A7
:104A900099028093980280E28C0F883008F057C00A
:104AA000C77081E001C0880FCA95EAF7DF91CF9106
:104AB0001F910F910C94390780919A02481330C0CE
:104AC00080919802909199020E94D527883C910587
:104AD00038F510E21D0FCD17B9F080E28C0F883049
:104AE00040F4C77081E001C0880FCA95EAF70E94C0
:104AF0004007183028F581E09D2F977001C0880F7E
:104B00009A95EAF70E943907802F0E9430071830E3
:104B1000F0F4D77081E001C0880FDA95EAF70AC097
:104B200080E28C0F883098F4C77081E001C0880F54
:104B3000CA95EAF7DF91CF911F910F910C9440072E
:104B4000802FDF91CF911F910F910C943007DF914F
:104B5000CF911F910F9108950F939C01CB01243F9A
:104B60004CE5340731F188F4293DFCE53F07D9F0E5
:104B70002A3D4CE5340779F1283D3C45A9F506E28C
:104B800021EE41EE68ED7CE52BC0263FFCE53F07BA
:104B9000E1F0A8F0273F3C4539F507E225EE46EE67
:104BA00067EF7CE51DC007E225EE45EE69ED7CE58B
:104BB00017C006E221EE40EE64EF7CE511C007E28B
:104BC00025EE44EE65EF7CE50BC006E221EE42EEF9
:104BD00066EF7CE505C008E221E045EE6AED7CE584
:104BE0000E94392580E008C0FC018281882319F0E9
:104BF00010929A0201C081E00F9108959093CB0129
:104C00008093CA0108959093A00280939F02089513
:104C1000E0919F02F091A002309721F00190F08185
:104C2000E02D099480E008950E9408260895E091FF
:104C30009F02F091A002309799F020912B0122233E
:104C400059F02091C80227FF07C0DC012C91119672
:104C50002C93119726E02C930280F381E02D099488
:104C60000895E0919F02F091A002309739F022E080
:104C7000DC012C930480F581E02D099408952091A6
:104C80009D0230919E022817390771F090939E0281
:104C900080939D02E0919F02F091A002309721F055
:104CA0000680F781E02D0994089520919B023091B0
:104CB0009C022817390771F090939C0280939B0205
:104CC000E0919F02F091A002309721F00084F185DD
:104CD000E02D09940895FC01329680912B018823E0
:104CE00031F08091C80287FF02C09EE101C096E0CA
:104CF00080E0915028F021912223D9F38F5FF9CFE2
:104D00000895662351F120912B012223E9F020918F
:104D1000C80227FF19C0462F4695469546954E3145
:104D2000E0F4677021E030E002C0220F331F6A9583
:104D3000E2F7FC01E40FF11D828190E02823392382
:104D400081E0232B69F409C0FC0132960896219179
:104D5000621729F0E817F907D1F780E0089581E09C
:104D600008959C01FC0132969FEF80E04191461727
:104D700089F09F3F19F4411101C0982F8F5F863051
:104D8000A9F79F3F39F0F901E90FF11D97FDFA9559
:104D90006283089508959C012A5F3F4FFC01428180
:104DA000461301C01282019682179307B9F708953E
:104DB000262F2695269526952E3168F4FC01E20FC4
:104DC000F11D677021E030E001C0220F6A95EAF71B
:104DD0008281282B22830895262F269526952695B5
:104DE0002E3170F4FC01E20FF11D677021E030E01C
:104DF00001C0220F6A95EAF7209582812823228339
:104E0000089520912B01222329F02091C80227FD2B
:104E10000C94D8260C94B12620912B01222329F042
:104E20002091C80227FD0C94EC260C94CB262091EF
:104E30002B01FC013296222331F08091C80287FFBA
:104E400002C08EE101C086E0DF011D928A95E9F77C
:104E5000089508950C94292783E08093A1020C946F
:104E60002A27811102C081E001C082E08093A10263
:104E70000C942A270C94312781E08093A1020C9492
:104E80002A270C943C27089580912303843031F124
:104E90000E949B041092A20220E488E190E00FB6E9
:104EA000F894A895809360000FBE2093600083B7AC
:104EB000817F846083BF83B7816083BF7894889546
:104EC00083B78E7F83BF0FB6F894A895809160005A
:104ED000886180936000109260000FBE089508956D
:104EE0000C946F27CF930E9470270E9494150E9404
:104EF0006F27C0E08C2F0E94BE14892B29F4CF5F4E
:104F0000C530C1F780E001C081E0CF9108950E94D3
:104F1000F5090C941F051F920F920FB60F921124E2
:104F20008F939F93AF93BF938091A202811113C07F
:104F300080911B0390911C03A0911D03B0911E034F
:104F40004196A11DB11D80931B0390931C03A09358
:104F50001D03B0931E03BF91AF919F918F910F904E
:104F60000FBE0F901F90189582E084BD93E095BD11
:104F70009AEF97BD80936E0008952FB7F8948091B3
:104F80001B0390911C03A0911D03B0911E032FBF22
:104F900008952FB7F89460911B0370911C038091C2
:104FA0001D0390911E032FBF08959C014FB7F894E5
:104FB00080911B0390911C03A0911D03B0911E03CF
:104FC0004FBF821B930B089578941F920F920FB6D8
:104FD0000F9211248F939F93AF93BF9380911B03E4
:104FE00090911C03A0911D03B0911E030196A11D79
:104FF000B11D80931B0390931C03A0931D03B093DA
:105000001E03BF91AF919F918F910F900FBE0F9094
:105010001F90189581E08093E00080E28093D80093
:105020001092C9008FE19EE40197F1F700C00000E3
:1050300087E090EBDC0180932C0390932D03A093E9
:105040002E03B0932F039CE088E10FB6F894A89547
:10505000809360000FBE90936000FFCF8091C602E6
:105060000895089522E02093E9002FEF3091E800A1
:10507000215035FD06C035ED3A95F1F700002111BC
:10508000F5CF2091E80025FF0BC040E050E066E03E
:1050900070E00E94712A8091E8008E778093E8008A
:1050A0000895CF93DF9320912B01222339F0209193
:1050B000C80227FF03C060E222E002C068E021E0EE
:1050C0002093E9002FEF3091E800215035FD06C014
:1050D00035ED3A95F1F700002111F5CF2091E80068
:1050E00025FF1DC0EC0180912B01811105C040E01E
:1050F00050E068E070E003C070E040E050E0CE01B6
:105100000E94712A8091E8008E778093E80080E207
:10511000FE01A6EAB2E001900D928A95E1F7DF91D7
:10512000CF9108958093A3027093A5026093A40287
:1051300080912303843001F582E08093E9008FEFB2
:105140009091E800815095FD06C095ED9A95F1F794
:1051500000008111F5CF8091E80085FF0DC040E08F
:1051600050E063E070E083EA92E00E94712A80914F
:10517000E8008E778093E8000895BC0184E00C94E9
:105180009228BC0183E00C94922880912203811123
:1051900009C00E94022C0E945F2C8091E200846072
:1051A0008093E20008951092220308950C94412701
:1051B00060911F0381E0611101C080E00C942C27F5
:1051C0009091230381E0943009F080E060911F0307
:1051D0000C94312742E061EC81E00E947B2B42E29B
:1051E00061EC82E00E947B2B9091230381E094305C
:1051F00009F080E060911F030C943A278091250309
:10520000833009F461C030F4813071F0823009F4E8
:105210009AC008958A3009F486C08B3009F46CC0B6
:10522000893009F0A8C020C080912403813A09F098
:10523000A2C08091E800877F8093E80080912803D6
:1052400090912903892B21F460E286EA92E003C061
:1052500060E080E090E070E00E94BC2A8091E8006D
:105260008B778093E800089580912403813209F0C0
:1052700082C08091280390912903029708F07BC097
:105280008091E800877F8093E8008091E80082FDAC
:1052900005C0809123038111F8CF6DC02091F300E8
:1052A0008091F20090E0922B029731F48091F1000E
:1052B000813011F0863021F48091F1008093C60294
:1052C0008091E8008B7753C080912403813A09F0E4
:1052D00052C08091280390912903892B09F04BC07B
:1052E0008091E800877F8093E8008091E80080FF4C
:1052F000FCCF80912B0136C0809124038132D9F5F7
:105300008091280390912903892BA9F58091E800C9
:10531000877F8093E8000E94B02B809126038093C2
:105320002B010C94F50980912403813221F58091A1
:10533000E800877F8093E8000E94B02B80912703CC
:105340008093C702089580912403813AA1F480914B
:10535000E800877F8093E8008091E80080FFFCCF21
:105360008091C7028093F1008091E8008E7780934E
:10537000E8000C94B02B089584B7877F84BF0FB6E4
:10538000F894A895809160008861809360001092E5
:1053900060000FBE90E080E80FB6F8948093610043
:1053A000909361000FBE0C943C270E94022C0E9437
:1053B0005F2CE2EEF0E080818460808378940C942E
:1053C000F42E8FE191E00C94032680912303853025
:1053D000A9F480912303853079F40E9444278091B9
:1053E00021038823B1F30E947227882391F30E943E
:1053F0005B2A0E94F509EDCF0C9487270895089544
:105400000C94022A292F332723303105C9F060F488
:105410002130310581F02230310509F044C08BE3A1
:1054200090E027EC35E043C021323105E1F0223233
:10543000310549F138C082E190E022E036E037C022
:1054400099278130910549F028F0029761F5E5EA46
:10545000F5E005C0E3ECF5E002C0E1EBF5E0849196
:1054600090E09F0124C06115710541F06130710524
:10547000D1F489E090E022EF35E019C089E090E0B6
:1054800029ED35E014C06115710541F061307105F9
:1054900051F486EB90E024E136E009C080E490E02E
:1054A0002AEC36E004C080E090E020E030E0FA0131
:1054B00031832083089580E189BD82E189BD09B4EB
:1054C00000FEFDCF8091D8008F7D8093D800809121
:1054D000E00082608093E0008091E00081FDFCCFDD
:1054E0000895CF92DF92EF92FF920F931F93CF9385
:1054F000DF93EC018B017A010E94CF2B811133C025
:10550000E114F10439F0F70180819181081B190B36
:10551000C80FD91FC12CD12C0115110519F180918B
:10552000E80085FD16C08091E8008E778093E80042
:10553000E114F10449F0F70180819181C80ED91E70
:10554000D182C08285E00FC00E94CF2B882321F337
:105550000AC089918093F10001501109FFEFCF1A21
:10556000DF0ADACF80E0DF91CF911F910F91FF909A
:10557000EF90DF90CF90089520912A0330912B0374
:105580002617370748F06115710539F42091E800B6
:105590002E772093E80001C0B901FC0120E06115DD
:1055A000710579F1809123038823F1F18530F1F1C0
:1055B0008091E80083FD3CC08091E80082FD2EC010
:1055C0008091E80080FFEBCF2091F3008091F20002
:1055D00090E0922B6115710551F08830910538F4F7
:1055E00021912093F100615071090196F3CF21E0E0
:1055F000089709F020E08091E8008E778093E8001A
:10560000CECF2111CFCF0AC080912303882361F030
:10561000853061F08091E80083FD0AC08091E80048
:1056200082FFF2CF80E0089582E0089583E008953C
:1056300081E0089520912A0330912B032617370724
:1056400048F06115710539F42091E8002E77209318
:10565000E80001C0B901FC0120E06115710591F17C
:1056600080912303882309F440C0853009F43FC0AA
:105670008091E80083FD3DC08091E80082FD2FC04D
:105680008091E80080FFE9CF2091F3008091F20043
:1056900090E0922B6115710559F08830910540F426
:1056A00024912093F1003196615071090196F2CF57
:1056B00021E0089709F020E08091E8008E77809340
:1056C000E800CBCF2111CCCF0AC0809123038823DF
:1056D00061F0853061F08091E80083FD0AC080911F
:1056E000E80082FFF2CF80E0089582E0089583E031
:1056F000089581E00895982F973068F59093E90018
:10570000981739F07091EC002091ED005091F00065
:1057100003C0242F762F50E021FD02C09F5FECCF05
:105720003091EB003E7F3093EB003091ED003D7FF8
:105730003093ED003091EB0031603093EB007093CB
:10574000EC002093ED005093F0002091EE0027FD37
:10575000E5CF80E008958F708093E90081E008959F
:105760008091240387FF11C08091E80082FD05C06D
:10577000809123038111F8CF11C08091E8008B77CD
:105780000BC080912303882349F08091E80080FFBB
:10579000F8CF8091E8008E778093E80008952091FB
:1057A000E4003091E50095E64091EC00842F817093
:1057B00040FF23C08091E80080FD1DC0809123033D
:1057C000882399F0853099F08091EB0085FD11C018
:1057D0004091E4005091E5002417350729F39150DA
:1057E00011F09A01E1CF84E0089582E0089583E00A
:1057F000089581E0089580E008954091E80042FF17
:10580000DDCF08950E94702C0E94782CE0EEF0E02D
:10581000808181608083E8EDF0E080818F778083F4
:1058200019BCA7EDB0E08C918E7F8C9380818F7E28
:1058300080831092220308950F931F93CF93DF93D9
:105840000E94702C0E94782CC8EDD0E088818F7760
:10585000888388818068888388818F7D888319BC4C
:105860001092230310921F03109221031092200321
:1058700000EE10E0F80180818B7F80838881816059
:10588000888342E060E080E00E947B2BE1EEF0E064
:1058900080818E7F8083E2EEF0E080818160808372
:1058A000808188608083F80180818E7F80838881F9
:1058B00080618883DF91CF911F910F910895E8ED6A
:1058C000F0E080818F7E8083E7EDF0E08081816071
:1058D000808384E082BF81E0809322030C941C2C9F
:1058E000E8EDF0E080818E7F80831092E2000895E1
:1058F0001092DA001092E10008951F920F920FB6F5
:105900000F9211242F933F934F935F936F937F9345
:105910008F939F93AF93BF93EF93FF938091E10099
:1059200082FF0BC08091E20082FF07C08091E100FE
:105930008B7F8093E1000E94F32E8091DA0080FF3C
:105940001FC08091D80080FF1BC08091DA008E7F3D
:105950008093DA008091D90080FF0DC080E189BD7D
:1059600082E189BD09B400FEFDCF81E0809323036D
:105970000E94C52805C019BC109223030E94D32899
:105980008091E10080FF19C08091E20080FF15C086
:105990008091E2008E7F8093E2008091E20080613E
:1059A0008093E2008091D80080628093D80019BC77
:1059B00085E0809323030E94D8288091E10084FF32
:1059C00030C08091E20084FF2CC080E189BD82E17B
:1059D00089BD09B400FEFDCF8091D8008F7D8093F2
:1059E000D8008091E1008F7E8093E1008091E200F9
:1059F0008F7E8093E2008091E20081608093E200DC
:105A000080911F03882311F084E007C08091E30098
:105A100087FD02C081E001C083E0809323030E94E0
:105A2000E0288091E10083FF29C08091E20083FF9C
:105A300025C08091E100877F8093E10082E0809320
:105A4000230310921F038091E1008E7F8093E10079
:105A50008091E2008E7F8093E2008091E20080617D
:105A60008093E20042E060E080E00E947B2B809126
:105A7000F00088608093F0000E94D628FF91EF919B
:105A8000BF91AF919F918F917F916F915F914F9156
:105A90003F912F910F900FBE0F901F9018951F925E
:105AA0000F920FB60F9211242F933F934F935F9352
:105AB0006F937F938F939F93AF93BF93CF93DF9316
:105AC000EF93FF93C091E900CF708091EC00D82F45
:105AD000D17080FDD0E81092E9008091F000877FBE
